{
  "_format": "hh-sol-artifact-1",
  "contractName": "Marketplace",
  "sourceName": "contracts/Marketplace.sol",
  "abi": [
    {
      "inputs": [
        {
          "internalType": "address",
          "name": "_platform",
          "type": "address"
        },
        {
          "internalType": "uint256",
          "name": "_minBidFee",
          "type": "uint256"
        }
      ],
      "stateMutability": "nonpayable",
      "type": "constructor"
    },
    {
      "anonymous": false,
      "inputs": [
        {
          "indexed": false,
          "internalType": "uint256",
          "name": "listingId",
          "type": "uint256"
        },
        {
          "indexed": false,
          "internalType": "address",
          "name": "seller",
          "type": "address"
        }
      ],
      "name": "CancelBid",
      "type": "event"
    },
    {
      "anonymous": false,
      "inputs": [
        {
          "indexed": false,
          "internalType": "uint256",
          "name": "rentalId",
          "type": "uint256"
        }
      ],
      "name": "FinishRentalForCollateral",
      "type": "event"
    },
    {
      "anonymous": false,
      "inputs": [
        {
          "indexed": false,
          "internalType": "uint256",
          "name": "rentalId",
          "type": "uint256"
        }
      ],
      "name": "FinishRentalForNFT",
      "type": "event"
    },
    {
      "anonymous": false,
      "inputs": [
        {
          "indexed": false,
          "internalType": "uint256",
          "name": "listingId",
          "type": "uint256"
        },
        {
          "indexed": false,
          "internalType": "address",
          "name": "seller",
          "type": "address"
        },
        {
          "indexed": false,
          "internalType": "address",
          "name": "token",
          "type": "address"
        },
        {
          "indexed": false,
          "internalType": "uint256",
          "name": "tokenId",
          "type": "uint256"
        },
        {
          "indexed": false,
          "internalType": "uint256",
          "name": "price",
          "type": "uint256"
        }
      ],
      "name": "Listed",
      "type": "event"
    },
    {
      "anonymous": false,
      "inputs": [
        {
          "indexed": false,
          "internalType": "uint256",
          "name": "stakingId",
          "type": "uint256"
        },
        {
          "indexed": false,
          "internalType": "address",
          "name": "maker",
          "type": "address"
        },
        {
          "indexed": false,
          "internalType": "address",
          "name": "token",
          "type": "address"
        },
        {
          "indexed": false,
          "internalType": "uint256",
          "name": "tokenId",
          "type": "uint256"
        },
        {
          "indexed": false,
          "internalType": "uint256",
          "name": "collateral",
          "type": "uint256"
        },
        {
          "indexed": false,
          "internalType": "uint256",
          "name": "premium",
          "type": "uint256"
        },
        {
          "indexed": false,
          "internalType": "uint256",
          "name": "deadline",
          "type": "uint256"
        }
      ],
      "name": "QuotedForStaking",
      "type": "event"
    },
    {
      "anonymous": false,
      "inputs": [
        {
          "indexed": false,
          "internalType": "uint256",
          "name": "rentalId",
          "type": "uint256"
        },
        {
          "indexed": false,
          "internalType": "address",
          "name": "taker",
          "type": "address"
        }
      ],
      "name": "Rental",
      "type": "event"
    },
    {
      "anonymous": false,
      "inputs": [
        {
          "indexed": false,
          "internalType": "uint256",
          "name": "listingId",
          "type": "uint256"
        },
        {
          "indexed": false,
          "internalType": "address",
          "name": "buyer",
          "type": "address"
        },
        {
          "indexed": false,
          "internalType": "address",
          "name": "token",
          "type": "address"
        },
        {
          "indexed": false,
          "internalType": "uint256",
          "name": "tokenId",
          "type": "uint256"
        },
        {
          "indexed": false,
          "internalType": "uint256",
          "name": "price",
          "type": "uint256"
        }
      ],
      "name": "Sale",
      "type": "event"
    },
    {
      "inputs": [
        {
          "internalType": "uint256",
          "name": "",
          "type": "uint256"
        }
      ],
      "name": "_listings",
      "outputs": [
        {
          "internalType": "enum Marketplace.ListingStatus",
          "name": "status",
          "type": "uint8"
        },
        {
          "internalType": "address",
          "name": "seller",
          "type": "address"
        },
        {
          "internalType": "uint256",
          "name": "price",
          "type": "uint256"
        },
        {
          "internalType": "address",
          "name": "token",
          "type": "address"
        },
        {
          "internalType": "uint256",
          "name": "tokenId",
          "type": "uint256"
        }
      ],
      "stateMutability": "view",
      "type": "function"
    },
    {
      "inputs": [],
      "name": "_listingsLastIndex",
      "outputs": [
        {
          "internalType": "uint256",
          "name": "",
          "type": "uint256"
        }
      ],
      "stateMutability": "view",
      "type": "function"
    },
    {
      "inputs": [
        {
          "internalType": "uint256",
          "name": "",
          "type": "uint256"
        }
      ],
      "name": "_stakings",
      "outputs": [
        {
          "internalType": "enum Marketplace.StakeStatus",
          "name": "status",
          "type": "uint8"
        },
        {
          "internalType": "address",
          "name": "maker",
          "type": "address"
        },
        {
          "internalType": "address",
          "name": "taker",
          "type": "address"
        },
        {
          "internalType": "uint256",
          "name": "collateral",
          "type": "uint256"
        },
        {
          "internalType": "uint256",
          "name": "premium",
          "type": "uint256"
        },
        {
          "internalType": "uint256",
          "name": "startRentalUTC",
          "type": "uint256"
        },
        {
          "internalType": "uint256",
          "name": "paymentsAmount",
          "type": "uint256"
        },
        {
          "internalType": "uint256",
          "name": "deadline",
          "type": "uint256"
        },
        {
          "internalType": "address",
          "name": "token",
          "type": "address"
        },
        {
          "internalType": "uint256",
          "name": "tokenId",
          "type": "uint256"
        }
      ],
      "stateMutability": "view",
      "type": "function"
    },
    {
      "inputs": [],
      "name": "_stakingsLastIndex",
      "outputs": [
        {
          "internalType": "uint256",
          "name": "",
          "type": "uint256"
        }
      ],
      "stateMutability": "view",
      "type": "function"
    },
    {
      "inputs": [
        {
          "internalType": "address",
          "name": "tokenContract",
          "type": "address"
        },
        {
          "internalType": "uint256",
          "name": "tokenId",
          "type": "uint256"
        },
        {
          "internalType": "uint256",
          "name": "priceWei",
          "type": "uint256"
        }
      ],
      "name": "bid",
      "outputs": [],
      "stateMutability": "payable",
      "type": "function"
    },
    {
      "inputs": [
        {
          "internalType": "uint256",
          "name": "listingId",
          "type": "uint256"
        }
      ],
      "name": "buyToken",
      "outputs": [],
      "stateMutability": "payable",
      "type": "function"
    },
    {
      "inputs": [
        {
          "internalType": "uint256",
          "name": "price",
          "type": "uint256"
        }
      ],
      "name": "calculateFee",
      "outputs": [
        {
          "internalType": "uint256",
          "name": "",
          "type": "uint256"
        }
      ],
      "stateMutability": "view",
      "type": "function"
    },
    {
      "inputs": [
        {
          "internalType": "uint256",
          "name": "listingId",
          "type": "uint256"
        }
      ],
      "name": "cancel",
      "outputs": [],
      "stateMutability": "nonpayable",
      "type": "function"
    },
    {
      "inputs": [
        {
          "internalType": "uint256",
          "name": "stakingId",
          "type": "uint256"
        }
      ],
      "name": "claimCollateral",
      "outputs": [],
      "stateMutability": "nonpayable",
      "type": "function"
    },
    {
      "inputs": [
        {
          "internalType": "uint256",
          "name": "listingId",
          "type": "uint256"
        }
      ],
      "name": "getListing",
      "outputs": [
        {
          "components": [
            {
              "internalType": "enum Marketplace.ListingStatus",
              "name": "status",
              "type": "uint8"
            },
            {
              "internalType": "address",
              "name": "seller",
              "type": "address"
            },
            {
              "internalType": "uint256",
              "name": "price",
              "type": "uint256"
            },
            {
              "internalType": "address",
              "name": "token",
              "type": "address"
            },
            {
              "internalType": "uint256",
              "name": "tokenId",
              "type": "uint256"
            }
          ],
          "internalType": "struct Marketplace.Listing",
          "name": "",
          "type": "tuple"
        }
      ],
      "stateMutability": "view",
      "type": "function"
    },
    {
      "inputs": [
        {
          "internalType": "uint256",
          "name": "listingId",
          "type": "uint256"
        }
      ],
      "name": "isBuyable",
      "outputs": [
        {
          "internalType": "bool",
          "name": "",
          "type": "bool"
        }
      ],
      "stateMutability": "view",
      "type": "function"
    },
    {
      "inputs": [
        {
          "internalType": "uint256",
          "name": "stakingId",
          "type": "uint256"
        }
      ],
      "name": "isCollateralClaimable",
      "outputs": [],
      "stateMutability": "view",
      "type": "function"
    },
    {
      "inputs": [],
      "name": "minBidFee",
      "outputs": [
        {
          "internalType": "uint256",
          "name": "",
          "type": "uint256"
        }
      ],
      "stateMutability": "view",
      "type": "function"
    },
    {
      "inputs": [
        {
          "internalType": "uint256",
          "name": "stakingId",
          "type": "uint256"
        }
      ],
      "name": "payPremium",
      "outputs": [],
      "stateMutability": "payable",
      "type": "function"
    },
    {
      "inputs": [],
      "name": "platform",
      "outputs": [
        {
          "internalType": "address",
          "name": "",
          "type": "address"
        }
      ],
      "stateMutability": "view",
      "type": "function"
    },
    {
      "inputs": [
        {
          "internalType": "address",
          "name": "tokenContract",
          "type": "address"
        },
        {
          "internalType": "uint256",
          "name": "tokenId",
          "type": "uint256"
        },
        {
          "internalType": "uint256",
          "name": "collateralWei",
          "type": "uint256"
        },
        {
          "internalType": "uint256",
          "name": "premiumWei",
          "type": "uint256"
        },
        {
          "internalType": "uint256",
          "name": "deadlineUTC",
          "type": "uint256"
        }
      ],
      "name": "quoteForStaking",
      "outputs": [],
      "stateMutability": "payable",
      "type": "function"
    },
    {
      "inputs": [
        {
          "internalType": "uint256",
          "name": "stakingId",
          "type": "uint256"
        }
      ],
      "name": "rentNFT",
      "outputs": [],
      "stateMutability": "payable",
      "type": "function"
    },
    {
      "inputs": [
        {
          "internalType": "uint256",
          "name": "stakingId",
          "type": "uint256"
        }
      ],
      "name": "stopRental",
      "outputs": [],
      "stateMutability": "nonpayable",
      "type": "function"
    }
  ],
  "bytecode": "0x60a06040523480156200001157600080fd5b5060405162003c9a38038062003c9a8339818101604052810190620000379190620000b3565b60016000819055508173ffffffffffffffffffffffffffffffffffffffff1660808173ffffffffffffffffffffffffffffffffffffffff1660601b8152505080600181905550505062000166565b600081519050620000968162000132565b92915050565b600081519050620000ad816200014c565b92915050565b60008060408385031215620000c757600080fd5b6000620000d78582860162000085565b9250506020620000ea858286016200009c565b9150509250929050565b6000620001018262000108565b9050919050565b600073ffffffffffffffffffffffffffffffffffffffff82169050919050565b6000819050919050565b6200013d81620000f4565b81146200014957600080fd5b50565b620001578162000128565b81146200016357600080fd5b50565b60805160601c613b156200018560003960006119600152613b156000f3fe6080604052600436106101095760003560e01c806399a5d74711610095578063d78a75ad11610064578063d78a75ad14610329578063df76dbc914610354578063e324466414610395578063e42fd785146103c0578063e738c7c8146103eb57610109565b806399a5d7471461027e578063b6e96f4c146102bb578063c49785b4146102e4578063c893c6591461030d57610109565b8063156ecc3d116100dc578063156ecc3d146101c95780632d296bf1146101f257806340e58ee51461020e5780634364b26e146102375780634bde38c81461025357610109565b80630ae3f1091461010e5780630f41ba4b14610154578063107a274a1461017057806314364f1d146101ad575b600080fd5b34801561011a57600080fd5b5061013560048036038101906101309190612c65565b610428565b60405161014b9a999897969594939291906130f0565b60405180910390f35b61016e60048036038101906101699190612b76565b6104e9565b005b34801561017c57600080fd5b5061019760048036038101906101929190612c65565b61085c565b6040516101a491906133ec565b60405180910390f35b6101c760048036038101906101c29190612c65565b6109d0565b005b3480156101d557600080fd5b506101f060048036038101906101eb9190612c65565b610cb7565b005b61020c60048036038101906102079190612c65565b611158565b005b34801561021a57600080fd5b5061023560048036038101906102309190612c65565b6114d9565b005b610251600480360381019061024c9190612c65565b6117d9565b005b34801561025f57600080fd5b5061026861195e565b6040516102759190613007565b60405180910390f35b34801561028a57600080fd5b506102a560048036038101906102a09190612c65565b611982565b6040516102b29190613407565b60405180910390f35b3480156102c757600080fd5b506102e260048036038101906102dd9190612c65565b6119b5565b005b3480156102f057600080fd5b5061030b60048036038101906103069190612c65565b611d41565b005b61032760048036038101906103229190612bc5565b611ef6565b005b34801561033557600080fd5b5061033e612683565b60405161034b9190613407565b60405180910390f35b34801561036057600080fd5b5061037b60048036038101906103769190612c65565b612689565b60405161038c95949392919061309d565b60405180910390f35b3480156103a157600080fd5b506103aa61270c565b6040516103b79190613407565b60405180910390f35b3480156103cc57600080fd5b506103d5612712565b6040516103e29190613407565b60405180910390f35b3480156103f757600080fd5b50610412600480360381019061040d9190612c65565b612718565b60405161041f9190613082565b60405180910390f35b60056020528060005260406000206000915090508060000160009054906101000a900460ff16908060000160019054906101000a900473ffffffffffffffffffffffffffffffffffffffff16908060010160009054906101000a900473ffffffffffffffffffffffffffffffffffffffff16908060020154908060030154908060040154908060050154908060060154908060070160009054906101000a900473ffffffffffffffffffffffffffffffffffffffff1690806008015490508a565b6002600054141561052f576040517f08c379a0000000000000000000000000000000000000000000000000000000008152600401610526906133cc565b60405180910390fd5b60026000819055508273ffffffffffffffffffffffffffffffffffffffff1663e985e9c533306040518363ffffffff1660e01b8152600401610572929190613022565b60206040518083038186803b15801561058a57600080fd5b505afa15801561059e573d6000803e3d6000fd5b505050506040513d601f19601f820116820180604052508101906105c29190612c3c565b610601576040517f08c379a00000000000000000000000000000000000000000000000000000000081526004016105f89061330c565b60405180910390fd5b600061060c82611982565b905080341015610651576040517f08c379a00000000000000000000000000000000000000000000000000000000081526004016106489061334c565b60405180910390fd5b6040518060a0016040528060006002811115610696577f4e487b7100000000000000000000000000000000000000000000000000000000600052602160045260246000fd5b81526020013373ffffffffffffffffffffffffffffffffffffffff1681526020018381526020018573ffffffffffffffffffffffffffffffffffffffff1681526020018481525060036000600260008154809291906106f49061366b565b91905055815260200190815260200160002060008201518160000160006101000a81548160ff02191690836002811115610757577f4e487b7100000000000000000000000000000000000000000000000000000000600052602160045260246000fd5b021790555060208201518160000160016101000a81548173ffffffffffffffffffffffffffffffffffffffff021916908373ffffffffffffffffffffffffffffffffffffffff1602179055506040820151816001015560608201518160020160006101000a81548173ffffffffffffffffffffffffffffffffffffffff021916908373ffffffffffffffffffffffffffffffffffffffff160217905550608082015181600301559050507f723f73331eaee88eec7fc68ef60ab6ed15e4b90d0472b55eb92fa43910bab6dd600160025461083191906135a5565b3386868660405161084695949392919061344b565b60405180910390a1506001600081905550505050565b610864612a66565b600360008381526020019081526020016000206040518060a00160405290816000820160009054906101000a900460ff1660028111156108cd577f4e487b7100000000000000000000000000000000000000000000000000000000600052602160045260246000fd5b6002811115610905577f4e487b7100000000000000000000000000000000000000000000000000000000600052602160045260246000fd5b81526020016000820160019054906101000a900473ffffffffffffffffffffffffffffffffffffffff1673ffffffffffffffffffffffffffffffffffffffff1673ffffffffffffffffffffffffffffffffffffffff168152602001600182015481526020016002820160009054906101000a900473ffffffffffffffffffffffffffffffffffffffff1673ffffffffffffffffffffffffffffffffffffffff1673ffffffffffffffffffffffffffffffffffffffff1681526020016003820154815250509050919050565b60006005600083815260200190815260200160002090508060070160009054906101000a900473ffffffffffffffffffffffffffffffffffffffff1673ffffffffffffffffffffffffffffffffffffffff1663e985e9c533306040518363ffffffff1660e01b8152600401610a46929190613022565b60206040518083038186803b158015610a5e57600080fd5b505afa158015610a72573d6000803e3d6000fd5b505050506040513d601f19601f82011682018060405250810190610a969190612c3c565b610ad5576040517f08c379a0000000000000000000000000000000000000000000000000000000008152600401610acc9061330c565b60405180910390fd5b80600301548160020154610ae9919061351e565b341015610b2b576040517f08c379a0000000000000000000000000000000000000000000000000000000008152600401610b22906132ec565b60405180910390fd5b428160040181905550338160010160006101000a81548173ffffffffffffffffffffffffffffffffffffffff021916908373ffffffffffffffffffffffffffffffffffffffff16021790555060018160000160006101000a81548160ff02191690836003811115610bc5577f4e487b7100000000000000000000000000000000000000000000000000000000600052602160045260246000fd5b0217905550600181600501819055508060070160009054906101000a900473ffffffffffffffffffffffffffffffffffffffff1673ffffffffffffffffffffffffffffffffffffffff166342842e0e8260000160019054906101000a900473ffffffffffffffffffffffffffffffffffffffff168360010160009054906101000a900473ffffffffffffffffffffffffffffffffffffffff1684600801546040518463ffffffff1660e01b8152600401610c819392919061304b565b600060405180830381600087803b158015610c9b57600080fd5b505af1158015610caf573d6000803e3d6000fd5b505050505050565b60026000541415610cfd576040517f08c379a0000000000000000000000000000000000000000000000000000000008152600401610cf4906133cc565b60405180910390fd5b6002600081905550600060056000838152602001908152602001600020905060006003811115610d56577f4e487b7100000000000000000000000000000000000000000000000000000000600052602160045260246000fd5b8160000160009054906101000a900460ff166003811115610da0577f4e487b7100000000000000000000000000000000000000000000000000000000600052602160045260246000fd5b14610de0576040517f08c379a0000000000000000000000000000000000000000000000000000000008152600401610dd79061338c565b60405180910390fd5b3373ffffffffffffffffffffffffffffffffffffffff168160010160009054906101000a900473ffffffffffffffffffffffffffffffffffffffff1673ffffffffffffffffffffffffffffffffffffffff1614610e72576040517f08c379a0000000000000000000000000000000000000000000000000000000008152600401610e699061332c565b60405180910390fd5b600062093a80826004015442610e8891906135a5565b610e929190613574565b90508082600501541015610edb576040517f08c379a0000000000000000000000000000000000000000000000000000000008152600401610ed2906133ac565b60405180910390fd5b60028260000160006101000a81548160ff02191690836003811115610f29577f4e487b7100000000000000000000000000000000000000000000000000000000600052602160045260246000fd5b02179055508160070160009054906101000a900473ffffffffffffffffffffffffffffffffffffffff1673ffffffffffffffffffffffffffffffffffffffff166342842e0e8360010160009054906101000a900473ffffffffffffffffffffffffffffffffffffffff168460000160019054906101000a900473ffffffffffffffffffffffffffffffffffffffff1685600801546040518463ffffffff1660e01b8152600401610fdb9392919061304b565b600060405180830381600087803b158015610ff557600080fd5b505af1158015611009573d6000803e3d6000fd5b505050508160010160009054906101000a900473ffffffffffffffffffffffffffffffffffffffff1673ffffffffffffffffffffffffffffffffffffffff166108fc83600201549081150290604051600060405180830381858888f1935050505015801561107b573d6000803e3d6000fd5b5060056000848152602001908152602001600020600080820160006101000a81549060ff02191690556000820160016101000a81549073ffffffffffffffffffffffffffffffffffffffff02191690556001820160006101000a81549073ffffffffffffffffffffffffffffffffffffffff0219169055600282016000905560038201600090556004820160009055600582016000905560068201600090556007820160006101000a81549073ffffffffffffffffffffffffffffffffffffffff0219169055600882016000905550505050600160008190555050565b6002600054141561119e576040517f08c379a0000000000000000000000000000000000000000000000000000000008152600401611195906133cc565b60405180910390fd5b6002600081905550600060036000838152602001908152602001600020905060008160020160009054906101000a900473ffffffffffffffffffffffffffffffffffffffff1690508160000160019054906101000a900473ffffffffffffffffffffffffffffffffffffffff1673ffffffffffffffffffffffffffffffffffffffff163373ffffffffffffffffffffffffffffffffffffffff161415611279576040517f08c379a0000000000000000000000000000000000000000000000000000000008152600401611270906131ac565b60405180910390fd5b81600101543410156112c0576040517f08c379a00000000000000000000000000000000000000000000000000000000081526004016112b7906132cc565b60405180910390fd5b6112c983612718565b611308576040517f08c379a00000000000000000000000000000000000000000000000000000000081526004016112ff9061328c565b60405180910390fd5b60018260000160006101000a81548160ff02191690836002811115611356577f4e487b7100000000000000000000000000000000000000000000000000000000600052602160045260246000fd5b02179055508073ffffffffffffffffffffffffffffffffffffffff166342842e0e8360000160019054906101000a900473ffffffffffffffffffffffffffffffffffffffff163385600301546040518463ffffffff1660e01b81526004016113c09392919061304b565b600060405180830381600087803b1580156113da57600080fd5b505af11580156113ee573d6000803e3d6000fd5b505050508160000160019054906101000a900473ffffffffffffffffffffffffffffffffffffffff1673ffffffffffffffffffffffffffffffffffffffff166108fc83600101549081150290604051600060405180830381858888f19350505050158015611460573d6000803e3d6000fd5b507ff3debaf22196a6ddf52a60fa71058cd7edf5e25bb98f4e96c994a5d4a9b0dd3e83338460020160009054906101000a900473ffffffffffffffffffffffffffffffffffffffff16856003015486600101546040516114c495949392919061344b565b60405180910390a15050600160008190555050565b6002600054141561151f576040517f08c379a0000000000000000000000000000000000000000000000000000000008152600401611516906133cc565b60405180910390fd5b600260008190555060006003600083815260200190815260200160002090508060000160019054906101000a900473ffffffffffffffffffffffffffffffffffffffff1673ffffffffffffffffffffffffffffffffffffffff163373ffffffffffffffffffffffffffffffffffffffff16146115d0576040517f08c379a00000000000000000000000000000000000000000000000000000000081526004016115c7906131cc565b60405180910390fd5b6000600281111561160a577f4e487b7100000000000000000000000000000000000000000000000000000000600052602160045260246000fd5b8160000160009054906101000a900460ff166002811115611654577f4e487b7100000000000000000000000000000000000000000000000000000000600052602160045260246000fd5b14611694576040517f08c379a000000000000000000000000000000000000000000000000000000000815260040161168b906132ac565b60405180910390fd5b60028160000160006101000a81548160ff021916908360028111156116e2577f4e487b7100000000000000000000000000000000000000000000000000000000600052602160045260246000fd5b021790555060006116f68260010154611982565b90508160000160019054906101000a900473ffffffffffffffffffffffffffffffffffffffff1673ffffffffffffffffffffffffffffffffffffffff166108fc6002836117439190613574565b9081150290604051600060405180830381858888f1935050505015801561176e573d6000803e3d6000fd5b507f874afcdd5e90b2329b3c1601e613dcdc6abb6deb62ce61339a8337b48c053e51838360000160019054906101000a900473ffffffffffffffffffffffffffffffffffffffff166040516117c4929190613422565b60405180910390a15050600160008190555050565b60006005600083815260200190815260200160002090506001600381111561182a577f4e487b7100000000000000000000000000000000000000000000000000000000600052602160045260246000fd5b8160000160009054906101000a900460ff166003811115611874577f4e487b7100000000000000000000000000000000000000000000000000000000600052602160045260246000fd5b146118b4576040517f08c379a00000000000000000000000000000000000000000000000000000000081526004016118ab9061326c565b60405180910390fd5b806003015434146118fa576040517f08c379a00000000000000000000000000000000000000000000000000000000081526004016118f19061324c565b60405180910390fd5b80600601544210611940576040517f08c379a00000000000000000000000000000000000000000000000000000000081526004016119379061336c565b60405180910390fd5b8060050160008154809291906119559061366b565b91905055505050565b7f000000000000000000000000000000000000000000000000000000000000000081565b600080600a836119929190613574565b9050600060015482106119a557816119a9565b6001545b90508092505050919050565b600060056000838152602001908152602001600020604051806101400160405290816000820160009054906101000a900460ff166003811115611a21577f4e487b7100000000000000000000000000000000000000000000000000000000600052602160045260246000fd5b6003811115611a59577f4e487b7100000000000000000000000000000000000000000000000000000000600052602160045260246000fd5b81526020016000820160019054906101000a900473ffffffffffffffffffffffffffffffffffffffff1673ffffffffffffffffffffffffffffffffffffffff1673ffffffffffffffffffffffffffffffffffffffff1681526020016001820160009054906101000a900473ffffffffffffffffffffffffffffffffffffffff1673ffffffffffffffffffffffffffffffffffffffff1673ffffffffffffffffffffffffffffffffffffffff16815260200160028201548152602001600382015481526020016004820154815260200160058201548152602001600682015481526020016007820160009054906101000a900473ffffffffffffffffffffffffffffffffffffffff1673ffffffffffffffffffffffffffffffffffffffff1673ffffffffffffffffffffffffffffffffffffffff168152602001600882015481525050905060006003811115611bd7577f4e487b7100000000000000000000000000000000000000000000000000000000600052602160045260246000fd5b81600001516003811115611c14577f4e487b7100000000000000000000000000000000000000000000000000000000600052602160045260246000fd5b14611c54576040517f08c379a0000000000000000000000000000000000000000000000000000000008152600401611c4b9061338c565b60405180910390fd5b3373ffffffffffffffffffffffffffffffffffffffff16816020015173ffffffffffffffffffffffffffffffffffffffff1614611cc6576040517f08c379a0000000000000000000000000000000000000000000000000000000008152600401611cbd9061320c565b60405180910390fd5b600062093a808260a0015142611cdc91906135a5565b611ce69190613574565b9050808260c001511080611cfd5750428260e00151115b611d3c576040517f08c379a0000000000000000000000000000000000000000000000000000000008152600401611d339061322c565b60405180910390fd5b505050565b6000600560008381526020019081526020016000209050611d61826119b5565b60038160000160006101000a81548160ff02191690836003811115611daf577f4e487b7100000000000000000000000000000000000000000000000000000000600052602160045260246000fd5b02179055508060000160019054906101000a900473ffffffffffffffffffffffffffffffffffffffff1673ffffffffffffffffffffffffffffffffffffffff166108fc82600201549081150290604051600060405180830381858888f19350505050158015611e22573d6000803e3d6000fd5b5060056000838152602001908152602001600020600080820160006101000a81549060ff02191690556000820160016101000a81549073ffffffffffffffffffffffffffffffffffffffff02191690556001820160006101000a81549073ffffffffffffffffffffffffffffffffffffffff0219169055600282016000905560038201600090556004820160009055600582016000905560068201600090556007820160006101000a81549073ffffffffffffffffffffffffffffffffffffffff0219169055600882016000905550505050565b60026000541415611f3c576040517f08c379a0000000000000000000000000000000000000000000000000000000008152600401611f33906133cc565b60405180910390fd5b60026000819055508473ffffffffffffffffffffffffffffffffffffffff1663e985e9c533306040518363ffffffff1660e01b8152600401611f7f929190613022565b60206040518083038186803b158015611f9757600080fd5b505afa158015611fab573d6000803e3d6000fd5b505050506040513d601f19601f82011682018060405250810190611fcf9190612c3c565b61200e576040517f08c379a00000000000000000000000000000000000000000000000000000000081526004016120059061318c565b60405180910390fd5b600061201984611982565b90508034101561205e576040517f08c379a0000000000000000000000000000000000000000000000000000000008152600401612055906131ec565b60405180910390fd5b6000604051806101400160405280600060038111156120a6577f4e487b7100000000000000000000000000000000000000000000000000000000600052602160045260246000fd5b81526020013373ffffffffffffffffffffffffffffffffffffffff168152602001600073ffffffffffffffffffffffffffffffffffffffff16815260200186815260200185815260200160008152602001600081526020018481526020018873ffffffffffffffffffffffffffffffffffffffff16815260200187815250600560006004600081548092919061213b9061366b565b91905055815260200190815260200160002060008201518160000160006101000a81548160ff0219169083600381111561219e577f4e487b7100000000000000000000000000000000000000000000000000000000600052602160045260246000fd5b021790555060208201518160000160016101000a81548173ffffffffffffffffffffffffffffffffffffffff021916908373ffffffffffffffffffffffffffffffffffffffff16021790555060408201518160010160006101000a81548173ffffffffffffffffffffffffffffffffffffffff021916908373ffffffffffffffffffffffffffffffffffffffff160217905550606082015181600201556080820151816003015560a0820151816004015560c0820151816005015560e082015181600601556101008201518160070160006101000a81548173ffffffffffffffffffffffffffffffffffffffff021916908373ffffffffffffffffffffffffffffffffffffffff16021790555061012082015181600801559050604051806101400160405290816000820160009054906101000a900460ff16600381111561230f577f4e487b7100000000000000000000000000000000000000000000000000000000600052602160045260246000fd5b6003811115612347577f4e487b7100000000000000000000000000000000000000000000000000000000600052602160045260246000fd5b81526020016000820160019054906101000a900473ffffffffffffffffffffffffffffffffffffffff1673ffffffffffffffffffffffffffffffffffffffff1673ffffffffffffffffffffffffffffffffffffffff1681526020016001820160009054906101000a900473ffffffffffffffffffffffffffffffffffffffff1673ffffffffffffffffffffffffffffffffffffffff1673ffffffffffffffffffffffffffffffffffffffff16815260200160028201548152602001600382015481526020016004820154815260200160058201548152602001600682015481526020016007820160009054906101000a900473ffffffffffffffffffffffffffffffffffffffff1673ffffffffffffffffffffffffffffffffffffffff1673ffffffffffffffffffffffffffffffffffffffff16815260200160088201548152505090508060056000600460008154809291906124a39061366b565b91905055815260200190815260200160002060008201518160000160006101000a81548160ff02191690836003811115612506577f4e487b7100000000000000000000000000000000000000000000000000000000600052602160045260246000fd5b021790555060208201518160000160016101000a81548173ffffffffffffffffffffffffffffffffffffffff021916908373ffffffffffffffffffffffffffffffffffffffff16021790555060408201518160010160006101000a81548173ffffffffffffffffffffffffffffffffffffffff021916908373ffffffffffffffffffffffffffffffffffffffff160217905550606082015181600201556080820151816003015560a0820151816004015560c0820151816005015560e082015181600601556101008201518160070160006101000a81548173ffffffffffffffffffffffffffffffffffffffff021916908373ffffffffffffffffffffffffffffffffffffffff16021790555061012082015181600801559050507f32e08351149249c094252d308bf6dee229d75fc098065a02ec0c005da7524278600160045461265191906135a5565b33898989898960405161266a979695949392919061349e565b60405180910390a1505060016000819055505050505050565b60045481565b60036020528060005260406000206000915090508060000160009054906101000a900460ff16908060000160019054906101000a900473ffffffffffffffffffffffffffffffffffffffff16908060010154908060020160009054906101000a900473ffffffffffffffffffffffffffffffffffffffff16908060030154905085565b60025481565b60015481565b600080600360008481526020019081526020016000206040518060a00160405290816000820160009054906101000a900460ff166002811115612784577f4e487b7100000000000000000000000000000000000000000000000000000000600052602160045260246000fd5b60028111156127bc577f4e487b7100000000000000000000000000000000000000000000000000000000600052602160045260246000fd5b81526020016000820160019054906101000a900473ffffffffffffffffffffffffffffffffffffffff1673ffffffffffffffffffffffffffffffffffffffff1673ffffffffffffffffffffffffffffffffffffffff168152602001600182015481526020016002820160009054906101000a900473ffffffffffffffffffffffffffffffffffffffff1673ffffffffffffffffffffffffffffffffffffffff1673ffffffffffffffffffffffffffffffffffffffff1681526020016003820154815250509050600081606001519050816020015173ffffffffffffffffffffffffffffffffffffffff168173ffffffffffffffffffffffffffffffffffffffff16636352211e866040518263ffffffff1660e01b81526004016128df9190613407565b60206040518083038186803b1580156128f757600080fd5b505afa15801561290b573d6000803e3d6000fd5b505050506040513d601f19601f8201168201806040525081019061292f9190612b4d565b73ffffffffffffffffffffffffffffffffffffffff161480156129dd57508073ffffffffffffffffffffffffffffffffffffffff1663e985e9c58360200151306040518363ffffffff1660e01b815260040161298c929190613022565b60206040518083038186803b1580156129a457600080fd5b505afa1580156129b8573d6000803e3d6000fd5b505050506040513d601f19601f820116820180604052508101906129dc9190612c3c565b5b8015612a5d575060006002811115612a1e577f4e487b7100000000000000000000000000000000000000000000000000000000600052602160045260246000fd5b82600001516002811115612a5b577f4e487b7100000000000000000000000000000000000000000000000000000000600052602160045260246000fd5b145b92505050919050565b6040518060a0016040528060006002811115612aab577f4e487b7100000000000000000000000000000000000000000000000000000000600052602160045260246000fd5b8152602001600073ffffffffffffffffffffffffffffffffffffffff16815260200160008152602001600073ffffffffffffffffffffffffffffffffffffffff168152602001600081525090565b600081359050612b0881613a9a565b92915050565b600081519050612b1d81613a9a565b92915050565b600081519050612b3281613ab1565b92915050565b600081359050612b4781613ac8565b92915050565b600060208284031215612b5f57600080fd5b6000612b6d84828501612b0e565b91505092915050565b600080600060608486031215612b8b57600080fd5b6000612b9986828701612af9565b9350506020612baa86828701612b38565b9250506040612bbb86828701612b38565b9150509250925092565b600080600080600060a08688031215612bdd57600080fd5b6000612beb88828901612af9565b9550506020612bfc88828901612b38565b9450506040612c0d88828901612b38565b9350506060612c1e88828901612b38565b9250506080612c2f88828901612b38565b9150509295509295909350565b600060208284031215612c4e57600080fd5b6000612c5c84828501612b23565b91505092915050565b600060208284031215612c7757600080fd5b6000612c8584828501612b38565b91505092915050565b612c97816135d9565b82525050565b612ca6816135d9565b82525050565b612cb5816135eb565b82525050565b612cc481613647565b82525050565b612cd381613647565b82525050565b612ce281613659565b82525050565b6000612cf560118361350d565b9150612d0082613741565b602082019050919050565b6000612d1860168361350d565b9150612d238261376a565b602082019050919050565b6000612d3b601e8361350d565b9150612d4682613793565b602082019050919050565b6000612d5e60068361350d565b9150612d69826137bc565b602082019050919050565b6000612d8160098361350d565b9150612d8c826137e5565b602082019050919050565b6000612da460398361350d565b9150612daf8261380e565b604082019050919050565b6000612dc760078361350d565b9150612dd28261385d565b602082019050919050565b6000612dea60118361350d565b9150612df582613886565b602082019050919050565b6000612e0d600b8361350d565b9150612e18826138af565b602082019050919050565b6000612e3060158361350d565b9150612e3b826138d8565b602082019050919050565b6000612e5360148361350d565b9150612e5e82613901565b602082019050919050565b6000612e76600b8361350d565b9150612e818261392a565b602082019050919050565b6000612e99600a8361350d565b9150612ea482613953565b602082019050919050565b6000612ebc60098361350d565b9150612ec78261397c565b602082019050919050565b6000612edf60078361350d565b9150612eea826139a5565b602082019050919050565b6000612f0260108361350d565b9150612f0d826139ce565b602082019050919050565b6000612f2560128361350d565b9150612f30826139f7565b602082019050919050565b6000612f48601b8361350d565b9150612f5382613a20565b602082019050919050565b6000612f6b601f8361350d565b9150612f7682613a49565b602082019050919050565b60a082016000820151612f976000850182612cbb565b506020820151612faa6020850182612c8e565b506040820151612fbd6040850182612fe9565b506060820151612fd06060850182612c8e565b506080820151612fe36080850182612fe9565b50505050565b612ff28161363d565b82525050565b6130018161363d565b82525050565b600060208201905061301c6000830184612c9d565b92915050565b60006040820190506130376000830185612c9d565b6130446020830184612c9d565b9392505050565b60006060820190506130606000830186612c9d565b61306d6020830185612c9d565b61307a6040830184612ff8565b949350505050565b60006020820190506130976000830184612cac565b92915050565b600060a0820190506130b26000830188612cca565b6130bf6020830187612c9d565b6130cc6040830186612ff8565b6130d96060830185612c9d565b6130e66080830184612ff8565b9695505050505050565b600061014082019050613106600083018d612cd9565b613113602083018c612c9d565b613120604083018b612c9d565b61312d606083018a612ff8565b61313a6080830189612ff8565b61314760a0830188612ff8565b61315460c0830187612ff8565b61316160e0830186612ff8565b61316f610100830185612c9d565b61317d610120830184612ff8565b9b9a5050505050505050505050565b600060208201905081810360008301526131a581612ce8565b9050919050565b600060208201905081810360008301526131c581612d0b565b9050919050565b600060208201905081810360008301526131e581612d2e565b9050919050565b6000602082019050818103600083015261320581612d51565b9050919050565b6000602082019050818103600083015261322581612d74565b9050919050565b6000602082019050818103600083015261324581612d97565b9050919050565b6000602082019050818103600083015261326581612dba565b9050919050565b6000602082019050818103600083015261328581612ddd565b9050919050565b600060208201905081810360008301526132a581612e00565b9050919050565b600060208201905081810360008301526132c581612e23565b9050919050565b600060208201905081810360008301526132e581612e46565b9050919050565b6000602082019050818103600083015261330581612e69565b9050919050565b6000602082019050818103600083015261332581612e8c565b9050919050565b6000602082019050818103600083015261334581612eaf565b9050919050565b6000602082019050818103600083015261336581612ed2565b9050919050565b6000602082019050818103600083015261338581612ef5565b9050919050565b600060208201905081810360008301526133a581612f18565b9050919050565b600060208201905081810360008301526133c581612f3b565b9050919050565b600060208201905081810360008301526133e581612f5e565b9050919050565b600060a0820190506134016000830184612f81565b92915050565b600060208201905061341c6000830184612ff8565b92915050565b60006040820190506134376000830185612ff8565b6134446020830184612c9d565b9392505050565b600060a0820190506134606000830188612ff8565b61346d6020830187612c9d565b61347a6040830186612c9d565b6134876060830185612ff8565b6134946080830184612ff8565b9695505050505050565b600060e0820190506134b3600083018a612ff8565b6134c06020830189612c9d565b6134cd6040830188612c9d565b6134da6060830187612ff8565b6134e76080830186612ff8565b6134f460a0830185612ff8565b61350160c0830184612ff8565b98975050505050505050565b600082825260208201905092915050565b60006135298261363d565b91506135348361363d565b9250827fffffffffffffffffffffffffffffffffffffffffffffffffffffffffffffffff03821115613569576135686136b4565b5b828201905092915050565b600061357f8261363d565b915061358a8361363d565b92508261359a576135996136e3565b5b828204905092915050565b60006135b08261363d565b91506135bb8361363d565b9250828210156135ce576135cd6136b4565b5b828203905092915050565b60006135e48261361d565b9050919050565b60008115159050919050565b600081905061360582613a72565b919050565b600081905061361882613a86565b919050565b600073ffffffffffffffffffffffffffffffffffffffff82169050919050565b6000819050919050565b6000613652826135f7565b9050919050565b60006136648261360a565b9050919050565b60006136768261363d565b91507fffffffffffffffffffffffffffffffffffffffffffffffffffffffffffffffff8214156136a9576136a86136b4565b5b600182019050919050565b7f4e487b7100000000000000000000000000000000000000000000000000000000600052601160045260246000fd5b7f4e487b7100000000000000000000000000000000000000000000000000000000600052601260045260246000fd5b7f4e487b7100000000000000000000000000000000000000000000000000000000600052602160045260246000fd5b7f616c6c6f77616e6365206e6f7420736574000000000000000000000000000000600082015250565b7f53656c6c65722063616e6e6f7420626520627579657200000000000000000000600082015250565b7f4f6e6c792073656c6c65722063616e2063616e63656c206c697374696e670000600082015250565b7f6269644665650000000000000000000000000000000000000000000000000000600082015250565b7f6e6f74206d616b65720000000000000000000000000000000000000000000000600082015250565b7f7072656d69756d732068617665206265656e207061696420616e64206465616460008201527f6c696e652069732079657420746f206265207265616368656400000000000000602082015250565b7f7072656d69756d00000000000000000000000000000000000000000000000000600082015250565b7f73746174757320213d207374616b696e67000000000000000000000000000000600082015250565b7f6e6f742062757961626c65000000000000000000000000000000000000000000600082015250565b7f4c697374696e67206973206e6f74206163746976650000000000000000000000600082015250565b7f496e73756666696369656e74207061796d656e74000000000000000000000000600082015250565b7f21636f6c6c61746572616c000000000000000000000000000000000000000000600082015250565b7f21616c6c6f77616e636500000000000000000000000000000000000000000000600082015250565b7f6e6f742074616b65720000000000000000000000000000000000000000000000600082015250565b7f2162696446656500000000000000000000000000000000000000000000000000600082015250565b7f646561646c696e65207265616368656400000000000000000000000000000000600082015250565b7f6e6f6e2d616374697665207374616b696e670000000000000000000000000000600082015250565b7f7072656d69756d732068617665206e6f74206265656e20706169640000000000600082015250565b7f5265656e7472616e637947756172643a207265656e7472616e742063616c6c00600082015250565b60038110613a8357613a82613712565b5b50565b60048110613a9757613a96613712565b5b50565b613aa3816135d9565b8114613aae57600080fd5b50565b613aba816135eb565b8114613ac557600080fd5b50565b613ad18161363d565b8114613adc57600080fd5b5056fea264697066735822122046ae8ef3ecb6b72ad6bad2eb765fa1f4c27cbadbcd3733d552a7f41bd47ca04164736f6c63430008040033",
  "linkReferences": {},
  "deployedLinkReferences": {}
}