{
  "_format": "hh-sol-artifact-1",
  "contractName": "Marketplace",
  "sourceName": "contracts/Marketplace.sol",
  "abi": [
    {
      "inputs": [
        {
          "internalType": "address",
          "name": "_platform",
          "type": "address"
        }
      ],
      "stateMutability": "nonpayable",
      "type": "constructor"
    },
    {
      "anonymous": false,
      "inputs": [
        {
          "indexed": false,
          "internalType": "uint256",
          "name": "listingId",
          "type": "uint256"
        },
        {
          "indexed": false,
          "internalType": "address",
          "name": "seller",
          "type": "address"
        }
      ],
      "name": "CancelBid",
      "type": "event"
    },
    {
      "anonymous": false,
      "inputs": [
        {
          "indexed": false,
          "internalType": "uint256",
          "name": "rentalId",
          "type": "uint256"
        }
      ],
      "name": "FinishRentalForCollateral",
      "type": "event"
    },
    {
      "anonymous": false,
      "inputs": [
        {
          "indexed": false,
          "internalType": "uint256",
          "name": "rentalId",
          "type": "uint256"
        }
      ],
      "name": "FinishRentalForNFT",
      "type": "event"
    },
    {
      "anonymous": false,
      "inputs": [
        {
          "indexed": false,
          "internalType": "uint256",
          "name": "listingId",
          "type": "uint256"
        },
        {
          "indexed": false,
          "internalType": "address",
          "name": "seller",
          "type": "address"
        },
        {
          "indexed": false,
          "internalType": "address",
          "name": "token",
          "type": "address"
        },
        {
          "indexed": false,
          "internalType": "uint256",
          "name": "tokenId",
          "type": "uint256"
        },
        {
          "indexed": false,
          "internalType": "uint256",
          "name": "price",
          "type": "uint256"
        }
      ],
      "name": "Listed",
      "type": "event"
    },
    {
      "anonymous": false,
      "inputs": [
        {
          "indexed": false,
          "internalType": "uint256",
          "name": "stakingId",
          "type": "uint256"
        },
        {
          "indexed": false,
          "internalType": "address",
          "name": "maker",
          "type": "address"
        },
        {
          "indexed": false,
          "internalType": "address",
          "name": "token",
          "type": "address"
        },
        {
          "indexed": false,
          "internalType": "uint256",
          "name": "tokenId",
          "type": "uint256"
        },
        {
          "indexed": false,
          "internalType": "uint256",
          "name": "collateral",
          "type": "uint256"
        },
        {
          "indexed": false,
          "internalType": "uint256",
          "name": "premium",
          "type": "uint256"
        },
        {
          "indexed": false,
          "internalType": "uint256",
          "name": "deadline",
          "type": "uint256"
        }
      ],
      "name": "QuotedForStaking",
      "type": "event"
    },
    {
      "anonymous": false,
      "inputs": [
        {
          "indexed": false,
          "internalType": "uint256",
          "name": "rentalId",
          "type": "uint256"
        },
        {
          "indexed": false,
          "internalType": "address",
          "name": "taker",
          "type": "address"
        }
      ],
      "name": "Rental",
      "type": "event"
    },
    {
      "anonymous": false,
      "inputs": [
        {
          "indexed": false,
          "internalType": "uint256",
          "name": "listingId",
          "type": "uint256"
        },
        {
          "indexed": false,
          "internalType": "address",
          "name": "buyer",
          "type": "address"
        },
        {
          "indexed": false,
          "internalType": "address",
          "name": "token",
          "type": "address"
        },
        {
          "indexed": false,
          "internalType": "uint256",
          "name": "tokenId",
          "type": "uint256"
        },
        {
          "indexed": false,
          "internalType": "uint256",
          "name": "price",
          "type": "uint256"
        }
      ],
      "name": "Sale",
      "type": "event"
    },
    {
      "inputs": [
        {
          "internalType": "uint256",
          "name": "",
          "type": "uint256"
        }
      ],
      "name": "_listings",
      "outputs": [
        {
          "internalType": "enum Marketplace.ListingStatus",
          "name": "status",
          "type": "uint8"
        },
        {
          "internalType": "address",
          "name": "seller",
          "type": "address"
        },
        {
          "internalType": "uint256",
          "name": "price",
          "type": "uint256"
        },
        {
          "internalType": "address",
          "name": "token",
          "type": "address"
        },
        {
          "internalType": "uint256",
          "name": "tokenId",
          "type": "uint256"
        }
      ],
      "stateMutability": "view",
      "type": "function"
    },
    {
      "inputs": [],
      "name": "_listingsLastIndex",
      "outputs": [
        {
          "internalType": "uint256",
          "name": "",
          "type": "uint256"
        }
      ],
      "stateMutability": "view",
      "type": "function"
    },
    {
      "inputs": [
        {
          "internalType": "uint256",
          "name": "",
          "type": "uint256"
        }
      ],
      "name": "_stakings",
      "outputs": [
        {
          "internalType": "enum Marketplace.StakeStatus",
          "name": "status",
          "type": "uint8"
        },
        {
          "internalType": "address",
          "name": "maker",
          "type": "address"
        },
        {
          "internalType": "address",
          "name": "taker",
          "type": "address"
        },
        {
          "internalType": "uint256",
          "name": "collateral",
          "type": "uint256"
        },
        {
          "internalType": "uint256",
          "name": "premium",
          "type": "uint256"
        },
        {
          "internalType": "uint256",
          "name": "startRentalUTC",
          "type": "uint256"
        },
        {
          "internalType": "uint256",
          "name": "paymentsAmount",
          "type": "uint256"
        },
        {
          "internalType": "uint256",
          "name": "deadline",
          "type": "uint256"
        },
        {
          "internalType": "address",
          "name": "token",
          "type": "address"
        },
        {
          "internalType": "uint256",
          "name": "tokenId",
          "type": "uint256"
        }
      ],
      "stateMutability": "view",
      "type": "function"
    },
    {
      "inputs": [],
      "name": "_stakingsLastIndex",
      "outputs": [
        {
          "internalType": "uint256",
          "name": "",
          "type": "uint256"
        }
      ],
      "stateMutability": "view",
      "type": "function"
    },
    {
      "inputs": [
        {
          "internalType": "address",
          "name": "tokenContract",
          "type": "address"
        },
        {
          "internalType": "uint256",
          "name": "tokenId",
          "type": "uint256"
        },
        {
          "internalType": "uint256",
          "name": "priceWei",
          "type": "uint256"
        }
      ],
      "name": "bid",
      "outputs": [],
      "stateMutability": "payable",
      "type": "function"
    },
    {
      "inputs": [
        {
          "internalType": "uint256",
          "name": "listingId",
          "type": "uint256"
        }
      ],
      "name": "buyToken",
      "outputs": [],
      "stateMutability": "payable",
      "type": "function"
    },
    {
      "inputs": [
        {
          "internalType": "uint256",
          "name": "stakingId",
          "type": "uint256"
        }
      ],
      "name": "canRentNFT",
      "outputs": [
        {
          "internalType": "bool",
          "name": "",
          "type": "bool"
        }
      ],
      "stateMutability": "view",
      "type": "function"
    },
    {
      "inputs": [
        {
          "internalType": "uint256",
          "name": "listingId",
          "type": "uint256"
        }
      ],
      "name": "cancel",
      "outputs": [],
      "stateMutability": "nonpayable",
      "type": "function"
    },
    {
      "inputs": [
        {
          "internalType": "uint256",
          "name": "stakingId",
          "type": "uint256"
        }
      ],
      "name": "claimCollateral",
      "outputs": [],
      "stateMutability": "nonpayable",
      "type": "function"
    },
    {
      "inputs": [
        {
          "internalType": "uint256",
          "name": "listingId",
          "type": "uint256"
        }
      ],
      "name": "getListing",
      "outputs": [
        {
          "components": [
            {
              "internalType": "enum Marketplace.ListingStatus",
              "name": "status",
              "type": "uint8"
            },
            {
              "internalType": "address",
              "name": "seller",
              "type": "address"
            },
            {
              "internalType": "uint256",
              "name": "price",
              "type": "uint256"
            },
            {
              "internalType": "address",
              "name": "token",
              "type": "address"
            },
            {
              "internalType": "uint256",
              "name": "tokenId",
              "type": "uint256"
            }
          ],
          "internalType": "struct Marketplace.Listing",
          "name": "",
          "type": "tuple"
        }
      ],
      "stateMutability": "view",
      "type": "function"
    },
    {
      "inputs": [
        {
          "internalType": "uint256",
          "name": "stakingId",
          "type": "uint256"
        }
      ],
      "name": "getStaking",
      "outputs": [
        {
          "components": [
            {
              "internalType": "enum Marketplace.StakeStatus",
              "name": "status",
              "type": "uint8"
            },
            {
              "internalType": "address",
              "name": "maker",
              "type": "address"
            },
            {
              "internalType": "address",
              "name": "taker",
              "type": "address"
            },
            {
              "internalType": "uint256",
              "name": "collateral",
              "type": "uint256"
            },
            {
              "internalType": "uint256",
              "name": "premium",
              "type": "uint256"
            },
            {
              "internalType": "uint256",
              "name": "startRentalUTC",
              "type": "uint256"
            },
            {
              "internalType": "uint256",
              "name": "paymentsAmount",
              "type": "uint256"
            },
            {
              "internalType": "uint256",
              "name": "deadline",
              "type": "uint256"
            },
            {
              "internalType": "address",
              "name": "token",
              "type": "address"
            },
            {
              "internalType": "uint256",
              "name": "tokenId",
              "type": "uint256"
            }
          ],
          "internalType": "struct Marketplace.Staking",
          "name": "",
          "type": "tuple"
        }
      ],
      "stateMutability": "view",
      "type": "function"
    },
    {
      "inputs": [
        {
          "internalType": "uint256",
          "name": "listingId",
          "type": "uint256"
        }
      ],
      "name": "isBuyable",
      "outputs": [
        {
          "internalType": "bool",
          "name": "",
          "type": "bool"
        }
      ],
      "stateMutability": "view",
      "type": "function"
    },
    {
      "inputs": [
        {
          "internalType": "uint256",
          "name": "stakingId",
          "type": "uint256"
        }
      ],
      "name": "isCollateralClaimable",
      "outputs": [],
      "stateMutability": "view",
      "type": "function"
    },
    {
      "inputs": [
        {
          "internalType": "uint256",
          "name": "stakingId",
          "type": "uint256"
        }
      ],
      "name": "payPremium",
      "outputs": [],
      "stateMutability": "payable",
      "type": "function"
    },
    {
      "inputs": [],
      "name": "platform",
      "outputs": [
        {
          "internalType": "address",
          "name": "",
          "type": "address"
        }
      ],
      "stateMutability": "view",
      "type": "function"
    },
    {
      "inputs": [
        {
          "internalType": "address",
          "name": "tokenContract",
          "type": "address"
        },
        {
          "internalType": "uint256",
          "name": "tokenId",
          "type": "uint256"
        },
        {
          "internalType": "uint256",
          "name": "collateralWei",
          "type": "uint256"
        },
        {
          "internalType": "uint256",
          "name": "premiumWei",
          "type": "uint256"
        },
        {
          "internalType": "uint256",
          "name": "deadlineUTC",
          "type": "uint256"
        }
      ],
      "name": "quoteForStaking",
      "outputs": [],
      "stateMutability": "payable",
      "type": "function"
    },
    {
      "inputs": [
        {
          "internalType": "uint256",
          "name": "stakingId",
          "type": "uint256"
        }
      ],
      "name": "rentNFT",
      "outputs": [],
      "stateMutability": "payable",
      "type": "function"
    },
    {
      "inputs": [
        {
          "internalType": "uint256",
          "name": "stakingId",
          "type": "uint256"
        }
      ],
      "name": "stopRental",
      "outputs": [],
      "stateMutability": "nonpayable",
      "type": "function"
    },
    {
      "inputs": [
        {
          "internalType": "uint256",
          "name": "stakingIndex",
          "type": "uint256"
        }
      ],
      "name": "stopStaking",
      "outputs": [],
      "stateMutability": "nonpayable",
      "type": "function"
    }
  ],
  "bytecode": "0x60a06040523480156200001157600080fd5b50604051620044fb380380620044fb833981810160405281019062000037919062000094565b60016000819055508073ffffffffffffffffffffffffffffffffffffffff1660808173ffffffffffffffffffffffffffffffffffffffff1660601b81525050506200010e565b6000815190506200008e81620000f4565b92915050565b600060208284031215620000a757600080fd5b6000620000b7848285016200007d565b91505092915050565b6000620000cd82620000d4565b9050919050565b600073ffffffffffffffffffffffffffffffffffffffff82169050919050565b620000ff81620000c0565b81146200010b57600080fd5b50565b60805160601c6143c76200013460003960008181612007015261309201526143c76000f3fe6080604052600436106101145760003560e01c80634364b26e116100a0578063d78a75ad11610064578063d78a75ad1461035d578063df76dbc914610388578063e3244664146103c9578063e738c7c8146103f4578063ecaf6d601461043157610114565b80634364b26e146102a85780634bde38c8146102c4578063b6e96f4c146102ef578063c49785b414610318578063c893c6591461034157610114565b8063156ecc3d116100e7578063156ecc3d146101d45780631c760bdb146101fd5780632d296bf11461022657806331eb3f371461024257806340e58ee51461027f57610114565b80630ae3f109146101195780630f41ba4b1461015f578063107a274a1461017b57806314364f1d146101b8575b600080fd5b34801561012557600080fd5b50610140600480360381019061013b91906133c6565b61046e565b6040516101569a9998979695949392919061392c565b60405180910390f35b610179600480360381019061017491906132d7565b61052f565b005b34801561018757600080fd5b506101a2600480360381019061019d91906133c6565b6108a5565b6040516101af9190613c28565b60405180910390f35b6101d260048036038101906101cd91906133c6565b610a19565b005b3480156101e057600080fd5b506101fb60048036038101906101f691906133c6565b610e41565b005b34801561020957600080fd5b50610224600480360381019061021f91906133c6565b6112e2565b005b610240600480360381019061023b91906133c6565b6115f2565b005b34801561024e57600080fd5b50610269600480360381019061026491906133c6565b611973565b6040516102769190613c43565b60405180910390f35b34801561028b57600080fd5b506102a660048036038101906102a191906133c6565b611b66565b005b6102c260048036038101906102bd91906133c6565b611ddd565b005b3480156102d057600080fd5b506102d9612005565b6040516102e69190613843565b60405180910390f35b3480156102fb57600080fd5b50610316600480360381019061031191906133c6565b612029565b005b34801561032457600080fd5b5061033f600480360381019061033a91906133c6565b6123b5565b005b61035b60048036038101906103569190613326565b61256a565b005b34801561036957600080fd5b50610372612a7b565b60405161037f9190613c5f565b60405180910390f35b34801561039457600080fd5b506103af60048036038101906103aa91906133c6565b612a81565b6040516103c09594939291906138d9565b60405180910390f35b3480156103d557600080fd5b506103de612b04565b6040516103eb9190613c5f565b60405180910390f35b34801561040057600080fd5b5061041b600480360381019061041691906133c6565b612b0a565b60405161042891906138be565b60405180910390f35b34801561043d57600080fd5b50610458600480360381019061045391906133c6565b612e5c565b60405161046591906138be565b60405180910390f35b60046020528060005260406000206000915090508060000160009054906101000a900460ff16908060000160019054906101000a900473ffffffffffffffffffffffffffffffffffffffff16908060010160009054906101000a900473ffffffffffffffffffffffffffffffffffffffff16908060020154908060030154908060040154908060050154908060060154908060070160009054906101000a900473ffffffffffffffffffffffffffffffffffffffff1690806008015490508a565b60026000541415610575576040517f08c379a000000000000000000000000000000000000000000000000000000000815260040161056c90613c08565b60405180910390fd5b60026000819055508273ffffffffffffffffffffffffffffffffffffffff1663e985e9c533306040518363ffffffff1660e01b81526004016105b892919061385e565b60206040518083038186803b1580156105d057600080fd5b505afa1580156105e4573d6000803e3d6000fd5b505050506040513d601f19601f82011682018060405250810190610608919061339d565b610647576040517f08c379a000000000000000000000000000000000000000000000000000000000815260040161063e90613b48565b60405180910390fd5b67016345785d8a00003414610691576040517f08c379a000000000000000000000000000000000000000000000000000000000815260040161068890613b88565b60405180910390fd5b6106a267016345785d8a0000613090565b6040518060a00160405280600060028111156106e7577f4e487b7100000000000000000000000000000000000000000000000000000000600052602160045260246000fd5b81526020013373ffffffffffffffffffffffffffffffffffffffff1681526020018281526020018473ffffffffffffffffffffffffffffffffffffffff1681526020018381525060026000600154815260200190815260200160002060008201518160000160006101000a81548160ff02191690836002811115610794577f4e487b7100000000000000000000000000000000000000000000000000000000600052602160045260246000fd5b021790555060208201518160000160016101000a81548173ffffffffffffffffffffffffffffffffffffffff021916908373ffffffffffffffffffffffffffffffffffffffff1602179055506040820151816001015560608201518160020160006101000a81548173ffffffffffffffffffffffffffffffffffffffff021916908373ffffffffffffffffffffffffffffffffffffffff160217905550608082015181600301559050507f723f73331eaee88eec7fc68ef60ab6ed15e4b90d0472b55eb92fa43910bab6dd60015433858585604051610877959493929190613ca3565b60405180910390a160018060008282546108919190613d76565b925050819055506001600081905550505050565b6108ad6130fa565b600260008381526020019081526020016000206040518060a00160405290816000820160009054906101000a900460ff166002811115610916577f4e487b7100000000000000000000000000000000000000000000000000000000600052602160045260246000fd5b600281111561094e577f4e487b7100000000000000000000000000000000000000000000000000000000600052602160045260246000fd5b81526020016000820160019054906101000a900473ffffffffffffffffffffffffffffffffffffffff1673ffffffffffffffffffffffffffffffffffffffff1673ffffffffffffffffffffffffffffffffffffffff168152602001600182015481526020016002820160009054906101000a900473ffffffffffffffffffffffffffffffffffffffff1673ffffffffffffffffffffffffffffffffffffffff1673ffffffffffffffffffffffffffffffffffffffff1681526020016003820154815250509050919050565b60006004600083815260200190815260200160002090508060070160009054906101000a900473ffffffffffffffffffffffffffffffffffffffff1673ffffffffffffffffffffffffffffffffffffffff1663e985e9c58260000160019054906101000a900473ffffffffffffffffffffffffffffffffffffffff16306040518363ffffffff1660e01b8152600401610ab392919061385e565b60206040518083038186803b158015610acb57600080fd5b505afa158015610adf573d6000803e3d6000fd5b505050506040513d601f19601f82011682018060405250810190610b03919061339d565b610b42576040517f08c379a0000000000000000000000000000000000000000000000000000000008152600401610b3990613b48565b60405180910390fd5b80600301548160020154610b569190613d76565b3414610b97576040517f08c379a0000000000000000000000000000000000000000000000000000000008152600401610b8e90613b28565b60405180910390fd5b428160040181905550338160010160006101000a81548173ffffffffffffffffffffffffffffffffffffffff021916908373ffffffffffffffffffffffffffffffffffffffff16021790555060018160000160006101000a81548160ff02191690836004811115610c31577f4e487b7100000000000000000000000000000000000000000000000000000000600052602160045260246000fd5b0217905550600181600501819055508060070160009054906101000a900473ffffffffffffffffffffffffffffffffffffffff1673ffffffffffffffffffffffffffffffffffffffff166342842e0e8260000160019054906101000a900473ffffffffffffffffffffffffffffffffffffffff168360010160009054906101000a900473ffffffffffffffffffffffffffffffffffffffff1684600801546040518463ffffffff1660e01b8152600401610ced93929190613887565b600060405180830381600087803b158015610d0757600080fd5b505af1158015610d1b573d6000803e3d6000fd5b505050508060000160019054906101000a900473ffffffffffffffffffffffffffffffffffffffff1673ffffffffffffffffffffffffffffffffffffffff166108fc67016345785d8a00009081150290604051600060405180830381858888f19350505050158015610d91573d6000803e3d6000fd5b506000601460648360030154610da79190613dcc565b610db19190613dfd565b90506000818360030154610dc59190613e57565b9050610dd082613090565b8260000160019054906101000a900473ffffffffffffffffffffffffffffffffffffffff1673ffffffffffffffffffffffffffffffffffffffff166108fc829081150290604051600060405180830381858888f19350505050158015610e3a573d6000803e3d6000fd5b5050505050565b60026000541415610e87576040517f08c379a0000000000000000000000000000000000000000000000000000000008152600401610e7e90613c08565b60405180910390fd5b6002600081905550600060046000838152602001908152602001600020905060006004811115610ee0577f4e487b7100000000000000000000000000000000000000000000000000000000600052602160045260246000fd5b8160000160009054906101000a900460ff166004811115610f2a577f4e487b7100000000000000000000000000000000000000000000000000000000600052602160045260246000fd5b14610f6a576040517f08c379a0000000000000000000000000000000000000000000000000000000008152600401610f6190613bc8565b60405180910390fd5b3373ffffffffffffffffffffffffffffffffffffffff168160010160009054906101000a900473ffffffffffffffffffffffffffffffffffffffff1673ffffffffffffffffffffffffffffffffffffffff1614610ffc576040517f08c379a0000000000000000000000000000000000000000000000000000000008152600401610ff390613b68565b60405180910390fd5b600062093a808260040154426110129190613e57565b61101c9190613dcc565b90508082600501541015611065576040517f08c379a000000000000000000000000000000000000000000000000000000000815260040161105c90613be8565b60405180910390fd5b60028260000160006101000a81548160ff021916908360048111156110b3577f4e487b7100000000000000000000000000000000000000000000000000000000600052602160045260246000fd5b02179055508160070160009054906101000a900473ffffffffffffffffffffffffffffffffffffffff1673ffffffffffffffffffffffffffffffffffffffff166342842e0e8360010160009054906101000a900473ffffffffffffffffffffffffffffffffffffffff168460000160019054906101000a900473ffffffffffffffffffffffffffffffffffffffff1685600801546040518463ffffffff1660e01b815260040161116593929190613887565b600060405180830381600087803b15801561117f57600080fd5b505af1158015611193573d6000803e3d6000fd5b505050508160010160009054906101000a900473ffffffffffffffffffffffffffffffffffffffff1673ffffffffffffffffffffffffffffffffffffffff166108fc83600201549081150290604051600060405180830381858888f19350505050158015611205573d6000803e3d6000fd5b5060046000848152602001908152602001600020600080820160006101000a81549060ff02191690556000820160016101000a81549073ffffffffffffffffffffffffffffffffffffffff02191690556001820160006101000a81549073ffffffffffffffffffffffffffffffffffffffff0219169055600282016000905560038201600090556004820160009055600582016000905560068201600090556007820160006101000a81549073ffffffffffffffffffffffffffffffffffffffff0219169055600882016000905550505050600160008190555050565b60026000541415611328576040517f08c379a000000000000000000000000000000000000000000000000000000000815260040161131f90613c08565b60405180910390fd5b60026000819055506004600082815260200190815260200160002060070160009054906101000a900473ffffffffffffffffffffffffffffffffffffffff1673ffffffffffffffffffffffffffffffffffffffff1663e985e9c533306040518363ffffffff1660e01b81526004016113a192919061385e565b60206040518083038186803b1580156113b957600080fd5b505afa1580156113cd573d6000803e3d6000fd5b505050506040513d601f19601f820116820180604052508101906113f1919061339d565b611430576040517f08c379a0000000000000000000000000000000000000000000000000000000008152600401611427906139c8565b60405180910390fd5b3373ffffffffffffffffffffffffffffffffffffffff166004600083815260200190815260200160002060070160009054906101000a900473ffffffffffffffffffffffffffffffffffffffff1673ffffffffffffffffffffffffffffffffffffffff16636352211e60046000858152602001908152602001600020600801546040518263ffffffff1660e01b81526004016114cc9190613c5f565b60206040518083038186803b1580156114e457600080fd5b505afa1580156114f8573d6000803e3d6000fd5b505050506040513d601f19601f8201168201806040525081019061151c91906132ae565b73ffffffffffffffffffffffffffffffffffffffff1614611572576040517f08c379a0000000000000000000000000000000000000000000000000000000008152600401611569906139e8565b60405180910390fd5b600480600083815260200190815260200160002060000160006101000a81548160ff021916908360048111156115d1577f4e487b7100000000000000000000000000000000000000000000000000000000600052602160045260246000fd5b02179055506115e767016345785d8a0000613090565b600160008190555050565b60026000541415611638576040517f08c379a000000000000000000000000000000000000000000000000000000000815260040161162f90613c08565b60405180910390fd5b6002600081905550600060026000838152602001908152602001600020905060008160020160009054906101000a900473ffffffffffffffffffffffffffffffffffffffff1690508160000160019054906101000a900473ffffffffffffffffffffffffffffffffffffffff1673ffffffffffffffffffffffffffffffffffffffff163373ffffffffffffffffffffffffffffffffffffffff161415611713576040517f08c379a000000000000000000000000000000000000000000000000000000000815260040161170a90613a08565b60405180910390fd5b816001015434101561175a576040517f08c379a000000000000000000000000000000000000000000000000000000000815260040161175190613b08565b60405180910390fd5b61176383612b0a565b6117a2576040517f08c379a000000000000000000000000000000000000000000000000000000000815260040161179990613ac8565b60405180910390fd5b60018260000160006101000a81548160ff021916908360028111156117f0577f4e487b7100000000000000000000000000000000000000000000000000000000600052602160045260246000fd5b02179055508073ffffffffffffffffffffffffffffffffffffffff166342842e0e8360000160019054906101000a900473ffffffffffffffffffffffffffffffffffffffff163385600301546040518463ffffffff1660e01b815260040161185a93929190613887565b600060405180830381600087803b15801561187457600080fd5b505af1158015611888573d6000803e3d6000fd5b505050508160000160019054906101000a900473ffffffffffffffffffffffffffffffffffffffff1673ffffffffffffffffffffffffffffffffffffffff166108fc83600101549081150290604051600060405180830381858888f193505050501580156118fa573d6000803e3d6000fd5b507ff3debaf22196a6ddf52a60fa71058cd7edf5e25bb98f4e96c994a5d4a9b0dd3e83338460020160009054906101000a900473ffffffffffffffffffffffffffffffffffffffff168560030154866001015460405161195e959493929190613ca3565b60405180910390a15050600160008190555050565b61197b61318d565b60046000838152602001908152602001600020604051806101400160405290816000820160009054906101000a900460ff1660048111156119e5577f4e487b7100000000000000000000000000000000000000000000000000000000600052602160045260246000fd5b6004811115611a1d577f4e487b7100000000000000000000000000000000000000000000000000000000600052602160045260246000fd5b81526020016000820160019054906101000a900473ffffffffffffffffffffffffffffffffffffffff1673ffffffffffffffffffffffffffffffffffffffff1673ffffffffffffffffffffffffffffffffffffffff1681526020016001820160009054906101000a900473ffffffffffffffffffffffffffffffffffffffff1673ffffffffffffffffffffffffffffffffffffffff1673ffffffffffffffffffffffffffffffffffffffff16815260200160028201548152602001600382015481526020016004820154815260200160058201548152602001600682015481526020016007820160009054906101000a900473ffffffffffffffffffffffffffffffffffffffff1673ffffffffffffffffffffffffffffffffffffffff1673ffffffffffffffffffffffffffffffffffffffff1681526020016008820154815250509050919050565b60026000541415611bac576040517f08c379a0000000000000000000000000000000000000000000000000000000008152600401611ba390613c08565b60405180910390fd5b600260008190555060006002600083815260200190815260200160002090508060000160019054906101000a900473ffffffffffffffffffffffffffffffffffffffff1673ffffffffffffffffffffffffffffffffffffffff163373ffffffffffffffffffffffffffffffffffffffff1614611c5d576040517f08c379a0000000000000000000000000000000000000000000000000000000008152600401611c5490613a28565b60405180910390fd5b60006002811115611c97577f4e487b7100000000000000000000000000000000000000000000000000000000600052602160045260246000fd5b8160000160009054906101000a900460ff166002811115611ce1577f4e487b7100000000000000000000000000000000000000000000000000000000600052602160045260246000fd5b14611d21576040517f08c379a0000000000000000000000000000000000000000000000000000000008152600401611d1890613ae8565b60405180910390fd5b60028160000160006101000a81548160ff02191690836002811115611d6f577f4e487b7100000000000000000000000000000000000000000000000000000000600052602160045260246000fd5b02179055507f874afcdd5e90b2329b3c1601e613dcdc6abb6deb62ce61339a8337b48c053e51828260000160019054906101000a900473ffffffffffffffffffffffffffffffffffffffff16604051611dc9929190613c7a565b60405180910390a150600160008190555050565b600060046000838152602001908152602001600020905060016004811115611e2e577f4e487b7100000000000000000000000000000000000000000000000000000000600052602160045260246000fd5b8160000160009054906101000a900460ff166004811115611e78577f4e487b7100000000000000000000000000000000000000000000000000000000600052602160045260246000fd5b14611eb8576040517f08c379a0000000000000000000000000000000000000000000000000000000008152600401611eaf90613aa8565b60405180910390fd5b80600301543414611efe576040517f08c379a0000000000000000000000000000000000000000000000000000000008152600401611ef590613a88565b60405180910390fd5b80600601544210611f44576040517f08c379a0000000000000000000000000000000000000000000000000000000008152600401611f3b90613ba8565b60405180910390fd5b60006014606434611f559190613dcc565b611f5f9190613dfd565b905060008134611f6f9190613e57565b9050611f7a82613090565b8260000160019054906101000a900473ffffffffffffffffffffffffffffffffffffffff1673ffffffffffffffffffffffffffffffffffffffff166108fc829081150290604051600060405180830381858888f19350505050158015611fe4573d6000803e3d6000fd5b50826005016000815480929190611ffa90613f1d565b919050555050505050565b7f000000000000000000000000000000000000000000000000000000000000000081565b600060046000838152602001908152602001600020604051806101400160405290816000820160009054906101000a900460ff166004811115612095577f4e487b7100000000000000000000000000000000000000000000000000000000600052602160045260246000fd5b60048111156120cd577f4e487b7100000000000000000000000000000000000000000000000000000000600052602160045260246000fd5b81526020016000820160019054906101000a900473ffffffffffffffffffffffffffffffffffffffff1673ffffffffffffffffffffffffffffffffffffffff1673ffffffffffffffffffffffffffffffffffffffff1681526020016001820160009054906101000a900473ffffffffffffffffffffffffffffffffffffffff1673ffffffffffffffffffffffffffffffffffffffff1673ffffffffffffffffffffffffffffffffffffffff16815260200160028201548152602001600382015481526020016004820154815260200160058201548152602001600682015481526020016007820160009054906101000a900473ffffffffffffffffffffffffffffffffffffffff1673ffffffffffffffffffffffffffffffffffffffff1673ffffffffffffffffffffffffffffffffffffffff16815260200160088201548152505090506001600481111561224b577f4e487b7100000000000000000000000000000000000000000000000000000000600052602160045260246000fd5b81600001516004811115612288577f4e487b7100000000000000000000000000000000000000000000000000000000600052602160045260246000fd5b146122c8576040517f08c379a00000000000000000000000000000000000000000000000000000000081526004016122bf90613aa8565b60405180910390fd5b3373ffffffffffffffffffffffffffffffffffffffff16816020015173ffffffffffffffffffffffffffffffffffffffff161461233a576040517f08c379a000000000000000000000000000000000000000000000000000000000815260040161233190613a48565b60405180910390fd5b600062093a808260a00151426123509190613e57565b61235a9190613dcc565b9050808260c0015110806123715750428260e00151115b6123b0576040517f08c379a00000000000000000000000000000000000000000000000000000000081526004016123a790613a68565b60405180910390fd5b505050565b60006004600083815260200190815260200160002090506123d582612029565b60038160000160006101000a81548160ff02191690836004811115612423577f4e487b7100000000000000000000000000000000000000000000000000000000600052602160045260246000fd5b02179055508060000160019054906101000a900473ffffffffffffffffffffffffffffffffffffffff1673ffffffffffffffffffffffffffffffffffffffff166108fc82600201549081150290604051600060405180830381858888f19350505050158015612496573d6000803e3d6000fd5b5060046000838152602001908152602001600020600080820160006101000a81549060ff02191690556000820160016101000a81549073ffffffffffffffffffffffffffffffffffffffff02191690556001820160006101000a81549073ffffffffffffffffffffffffffffffffffffffff0219169055600282016000905560038201600090556004820160009055600582016000905560068201600090556007820160006101000a81549073ffffffffffffffffffffffffffffffffffffffff0219169055600882016000905550505050565b600260005414156125b0576040517f08c379a00000000000000000000000000000000000000000000000000000000081526004016125a790613c08565b60405180910390fd5b60026000819055508473ffffffffffffffffffffffffffffffffffffffff1663e985e9c533306040518363ffffffff1660e01b81526004016125f392919061385e565b60206040518083038186803b15801561260b57600080fd5b505afa15801561261f573d6000803e3d6000fd5b505050506040513d601f19601f82011682018060405250810190612643919061339d565b612682576040517f08c379a0000000000000000000000000000000000000000000000000000000008152600401612679906139c8565b60405180910390fd5b3373ffffffffffffffffffffffffffffffffffffffff168573ffffffffffffffffffffffffffffffffffffffff16636352211e866040518263ffffffff1660e01b81526004016126d29190613c5f565b60206040518083038186803b1580156126ea57600080fd5b505afa1580156126fe573d6000803e3d6000fd5b505050506040513d601f19601f8201168201806040525081019061272291906132ae565b73ffffffffffffffffffffffffffffffffffffffff1614612778576040517f08c379a000000000000000000000000000000000000000000000000000000000815260040161276f906139e8565b60405180910390fd5b67016345785d8a000034146127c2576040517f08c379a00000000000000000000000000000000000000000000000000000000081526004016127b990613b88565b60405180910390fd5b60006040518061014001604052806000600481111561280a577f4e487b7100000000000000000000000000000000000000000000000000000000600052602160045260246000fd5b81526020013373ffffffffffffffffffffffffffffffffffffffff168152602001600073ffffffffffffffffffffffffffffffffffffffff16815260200185815260200184815260200160008152602001600081526020018381526020018773ffffffffffffffffffffffffffffffffffffffff1681526020018681525090508060046000600354815260200190815260200160002060008201518160000160006101000a81548160ff021916908360048111156128f1577f4e487b7100000000000000000000000000000000000000000000000000000000600052602160045260246000fd5b021790555060208201518160000160016101000a81548173ffffffffffffffffffffffffffffffffffffffff021916908373ffffffffffffffffffffffffffffffffffffffff16021790555060408201518160010160006101000a81548173ffffffffffffffffffffffffffffffffffffffff021916908373ffffffffffffffffffffffffffffffffffffffff160217905550606082015181600201556080820151816003015560a0820151816004015560c0820151816005015560e082015181600601556101008201518160070160006101000a81548173ffffffffffffffffffffffffffffffffffffffff021916908373ffffffffffffffffffffffffffffffffffffffff16021790555061012082015181600801559050507f32e08351149249c094252d308bf6dee229d75fc098065a02ec0c005da7524278600354338888888888604051612a499796959493929190613cf6565b60405180910390a1600160036000828254612a649190613d76565b925050819055505060016000819055505050505050565b60035481565b60026020528060005260406000206000915090508060000160009054906101000a900460ff16908060000160019054906101000a900473ffffffffffffffffffffffffffffffffffffffff16908060010154908060020160009054906101000a900473ffffffffffffffffffffffffffffffffffffffff16908060030154905085565b60015481565b600080600260008481526020019081526020016000206040518060a00160405290816000820160009054906101000a900460ff166002811115612b76577f4e487b7100000000000000000000000000000000000000000000000000000000600052602160045260246000fd5b6002811115612bae577f4e487b7100000000000000000000000000000000000000000000000000000000600052602160045260246000fd5b81526020016000820160019054906101000a900473ffffffffffffffffffffffffffffffffffffffff1673ffffffffffffffffffffffffffffffffffffffff1673ffffffffffffffffffffffffffffffffffffffff168152602001600182015481526020016002820160009054906101000a900473ffffffffffffffffffffffffffffffffffffffff1673ffffffffffffffffffffffffffffffffffffffff1673ffffffffffffffffffffffffffffffffffffffff1681526020016003820154815250509050600081606001519050816020015173ffffffffffffffffffffffffffffffffffffffff168173ffffffffffffffffffffffffffffffffffffffff16636352211e84608001516040518263ffffffff1660e01b8152600401612cd59190613c5f565b60206040518083038186803b158015612ced57600080fd5b505afa158015612d01573d6000803e3d6000fd5b505050506040513d601f19601f82011682018060405250810190612d2591906132ae565b73ffffffffffffffffffffffffffffffffffffffff16148015612dd357508073ffffffffffffffffffffffffffffffffffffffff1663e985e9c58360200151306040518363ffffffff1660e01b8152600401612d8292919061385e565b60206040518083038186803b158015612d9a57600080fd5b505afa158015612dae573d6000803e3d6000fd5b505050506040513d601f19601f82011682018060405250810190612dd2919061339d565b5b8015612e53575060006002811115612e14577f4e487b7100000000000000000000000000000000000000000000000000000000600052602160045260246000fd5b82600001516002811115612e51577f4e487b7100000000000000000000000000000000000000000000000000000000600052602160045260246000fd5b145b92505050919050565b6000806004600084815260200190815260200160002090508060070160009054906101000a900473ffffffffffffffffffffffffffffffffffffffff1673ffffffffffffffffffffffffffffffffffffffff1663e985e9c58260000160019054906101000a900473ffffffffffffffffffffffffffffffffffffffff16306040518363ffffffff1660e01b8152600401612ef792919061385e565b60206040518083038186803b158015612f0f57600080fd5b505afa158015612f23573d6000803e3d6000fd5b505050506040513d601f19601f82011682018060405250810190612f47919061339d565b801561308857506004600084815260200190815260200160002060000160019054906101000a900473ffffffffffffffffffffffffffffffffffffffff1673ffffffffffffffffffffffffffffffffffffffff166004600085815260200190815260200160002060070160009054906101000a900473ffffffffffffffffffffffffffffffffffffffff1673ffffffffffffffffffffffffffffffffffffffff16636352211e60046000878152602001908152602001600020600801546040518263ffffffff1660e01b81526004016130209190613c5f565b60206040518083038186803b15801561303857600080fd5b505afa15801561304c573d6000803e3d6000fd5b505050506040513d601f19601f8201168201806040525081019061307091906132ae565b73ffffffffffffffffffffffffffffffffffffffff16145b915050919050565b7f000000000000000000000000000000000000000000000000000000000000000073ffffffffffffffffffffffffffffffffffffffff166108fc829081150290604051600060405180830381858888f193505050501580156130f6573d6000803e3d6000fd5b5050565b6040518060a001604052806000600281111561313f577f4e487b7100000000000000000000000000000000000000000000000000000000600052602160045260246000fd5b8152602001600073ffffffffffffffffffffffffffffffffffffffff16815260200160008152602001600073ffffffffffffffffffffffffffffffffffffffff168152602001600081525090565b604051806101400160405280600060048111156131d3577f4e487b7100000000000000000000000000000000000000000000000000000000600052602160045260246000fd5b8152602001600073ffffffffffffffffffffffffffffffffffffffff168152602001600073ffffffffffffffffffffffffffffffffffffffff1681526020016000815260200160008152602001600081526020016000815260200160008152602001600073ffffffffffffffffffffffffffffffffffffffff168152602001600081525090565b6000813590506132698161434c565b92915050565b60008151905061327e8161434c565b92915050565b60008151905061329381614363565b92915050565b6000813590506132a88161437a565b92915050565b6000602082840312156132c057600080fd5b60006132ce8482850161326f565b91505092915050565b6000806000606084860312156132ec57600080fd5b60006132fa8682870161325a565b935050602061330b86828701613299565b925050604061331c86828701613299565b9150509250925092565b600080600080600060a0868803121561333e57600080fd5b600061334c8882890161325a565b955050602061335d88828901613299565b945050604061336e88828901613299565b935050606061337f88828901613299565b925050608061339088828901613299565b9150509295509295909350565b6000602082840312156133af57600080fd5b60006133bd84828501613284565b91505092915050565b6000602082840312156133d857600080fd5b60006133e684828501613299565b91505092915050565b6133f881613e8b565b82525050565b61340781613e8b565b82525050565b61341681613e9d565b82525050565b61342581613ef9565b82525050565b61343481613ef9565b82525050565b61344381613f0b565b82525050565b61345281613f0b565b82525050565b6000613465601183613d65565b915061347082613ff3565b602082019050919050565b6000613488600f83613d65565b91506134938261401c565b602082019050919050565b60006134ab601683613d65565b91506134b682614045565b602082019050919050565b60006134ce601e83613d65565b91506134d98261406e565b602082019050919050565b60006134f1600983613d65565b91506134fc82614097565b602082019050919050565b6000613514603983613d65565b915061351f826140c0565b604082019050919050565b6000613537600783613d65565b91506135428261410f565b602082019050919050565b600061355a601183613d65565b915061356582614138565b602082019050919050565b600061357d600b83613d65565b915061358882614161565b602082019050919050565b60006135a0601583613d65565b91506135ab8261418a565b602082019050919050565b60006135c3601483613d65565b91506135ce826141b3565b602082019050919050565b60006135e6600b83613d65565b91506135f1826141dc565b602082019050919050565b6000613609600a83613d65565b915061361482614205565b602082019050919050565b600061362c600983613d65565b91506136378261422e565b602082019050919050565b600061364f600783613d65565b915061365a82614257565b602082019050919050565b6000613672601083613d65565b915061367d82614280565b602082019050919050565b6000613695601283613d65565b91506136a0826142a9565b602082019050919050565b60006136b8601b83613d65565b91506136c3826142d2565b602082019050919050565b60006136db601f83613d65565b91506136e6826142fb565b602082019050919050565b60a082016000820151613707600085018261341c565b50602082015161371a60208501826133ef565b50604082015161372d6040850182613825565b50606082015161374060608501826133ef565b5060808201516137536080850182613825565b50505050565b61014082016000820151613770600085018261343a565b50602082015161378360208501826133ef565b50604082015161379660408501826133ef565b5060608201516137a96060850182613825565b5060808201516137bc6080850182613825565b5060a08201516137cf60a0850182613825565b5060c08201516137e260c0850182613825565b5060e08201516137f560e0850182613825565b5061010082015161380a6101008501826133ef565b5061012082015161381f610120850182613825565b50505050565b61382e81613eef565b82525050565b61383d81613eef565b82525050565b600060208201905061385860008301846133fe565b92915050565b600060408201905061387360008301856133fe565b61388060208301846133fe565b9392505050565b600060608201905061389c60008301866133fe565b6138a960208301856133fe565b6138b66040830184613834565b949350505050565b60006020820190506138d3600083018461340d565b92915050565b600060a0820190506138ee600083018861342b565b6138fb60208301876133fe565b6139086040830186613834565b61391560608301856133fe565b6139226080830184613834565b9695505050505050565b600061014082019050613942600083018d613449565b61394f602083018c6133fe565b61395c604083018b6133fe565b613969606083018a613834565b6139766080830189613834565b61398360a0830188613834565b61399060c0830187613834565b61399d60e0830186613834565b6139ab6101008301856133fe565b6139b9610120830184613834565b9b9a5050505050505050505050565b600060208201905081810360008301526139e181613458565b9050919050565b60006020820190508181036000830152613a018161347b565b9050919050565b60006020820190508181036000830152613a218161349e565b9050919050565b60006020820190508181036000830152613a41816134c1565b9050919050565b60006020820190508181036000830152613a61816134e4565b9050919050565b60006020820190508181036000830152613a8181613507565b9050919050565b60006020820190508181036000830152613aa18161352a565b9050919050565b60006020820190508181036000830152613ac18161354d565b9050919050565b60006020820190508181036000830152613ae181613570565b9050919050565b60006020820190508181036000830152613b0181613593565b9050919050565b60006020820190508181036000830152613b21816135b6565b9050919050565b60006020820190508181036000830152613b41816135d9565b9050919050565b60006020820190508181036000830152613b61816135fc565b9050919050565b60006020820190508181036000830152613b818161361f565b9050919050565b60006020820190508181036000830152613ba181613642565b9050919050565b60006020820190508181036000830152613bc181613665565b9050919050565b60006020820190508181036000830152613be181613688565b9050919050565b60006020820190508181036000830152613c01816136ab565b9050919050565b60006020820190508181036000830152613c21816136ce565b9050919050565b600060a082019050613c3d60008301846136f1565b92915050565b600061014082019050613c596000830184613759565b92915050565b6000602082019050613c746000830184613834565b92915050565b6000604082019050613c8f6000830185613834565b613c9c60208301846133fe565b9392505050565b600060a082019050613cb86000830188613834565b613cc560208301876133fe565b613cd260408301866133fe565b613cdf6060830185613834565b613cec6080830184613834565b9695505050505050565b600060e082019050613d0b600083018a613834565b613d1860208301896133fe565b613d2560408301886133fe565b613d326060830187613834565b613d3f6080830186613834565b613d4c60a0830185613834565b613d5960c0830184613834565b98975050505050505050565b600082825260208201905092915050565b6000613d8182613eef565b9150613d8c83613eef565b9250827fffffffffffffffffffffffffffffffffffffffffffffffffffffffffffffffff03821115613dc157613dc0613f66565b5b828201905092915050565b6000613dd782613eef565b9150613de283613eef565b925082613df257613df1613f95565b5b828204905092915050565b6000613e0882613eef565b9150613e1383613eef565b9250817fffffffffffffffffffffffffffffffffffffffffffffffffffffffffffffffff0483118215151615613e4c57613e4b613f66565b5b828202905092915050565b6000613e6282613eef565b9150613e6d83613eef565b925082821015613e8057613e7f613f66565b5b828203905092915050565b6000613e9682613ecf565b9050919050565b60008115159050919050565b6000819050613eb782614324565b919050565b6000819050613eca82614338565b919050565b600073ffffffffffffffffffffffffffffffffffffffff82169050919050565b6000819050919050565b6000613f0482613ea9565b9050919050565b6000613f1682613ebc565b9050919050565b6000613f2882613eef565b91507fffffffffffffffffffffffffffffffffffffffffffffffffffffffffffffffff821415613f5b57613f5a613f66565b5b600182019050919050565b7f4e487b7100000000000000000000000000000000000000000000000000000000600052601160045260246000fd5b7f4e487b7100000000000000000000000000000000000000000000000000000000600052601260045260246000fd5b7f4e487b7100000000000000000000000000000000000000000000000000000000600052602160045260246000fd5b7f616c6c6f77616e6365206e6f7420736574000000000000000000000000000000600082015250565b7f746f6b656e206f776e6572736869700000000000000000000000000000000000600082015250565b7f53656c6c65722063616e6e6f7420626520627579657200000000000000000000600082015250565b7f4f6e6c792073656c6c65722063616e2063616e63656c206c697374696e670000600082015250565b7f6e6f74206d616b65720000000000000000000000000000000000000000000000600082015250565b7f7072656d69756d732068617665206265656e207061696420616e64206465616460008201527f6c696e652069732079657420746f206265207265616368656400000000000000602082015250565b7f7072656d69756d00000000000000000000000000000000000000000000000000600082015250565b7f73746174757320213d207374616b696e67000000000000000000000000000000600082015250565b7f6e6f742062757961626c65000000000000000000000000000000000000000000600082015250565b7f4c697374696e67206973206e6f74206163746976650000000000000000000000600082015250565b7f496e73756666696369656e74207061796d656e74000000000000000000000000600082015250565b7f21636f6c6c61746572616c000000000000000000000000000000000000000000600082015250565b7f21616c6c6f77616e636500000000000000000000000000000000000000000000600082015250565b7f6e6f742074616b65720000000000000000000000000000000000000000000000600082015250565b7f2162696446656500000000000000000000000000000000000000000000000000600082015250565b7f646561646c696e65207265616368656400000000000000000000000000000000600082015250565b7f6e6f6e2d616374697665207374616b696e670000000000000000000000000000600082015250565b7f7072656d69756d732068617665206e6f74206265656e20706169640000000000600082015250565b7f5265656e7472616e637947756172643a207265656e7472616e742063616c6c00600082015250565b6003811061433557614334613fc4565b5b50565b6005811061434957614348613fc4565b5b50565b61435581613e8b565b811461436057600080fd5b50565b61436c81613e9d565b811461437757600080fd5b50565b61438381613eef565b811461438e57600080fd5b5056fea2646970667358221220b02b99127325f7768fd9e7d6c505383f7f86cfcfb6cd95799771cba48afbadad64736f6c63430008040033",
  "linkReferences": {},
  "deployedLinkReferences": {}
}