{
  "_format": "hh-sol-artifact-1",
  "contractName": "Marketplace",
  "sourceName": "contracts/Marketplace.sol",
  "abi": [
    {
      "inputs": [
        {
          "internalType": "address",
          "name": "_platform",
          "type": "address"
        }
      ],
      "stateMutability": "nonpayable",
      "type": "constructor"
    },
    {
      "anonymous": false,
      "inputs": [
        {
          "indexed": false,
          "internalType": "uint256",
          "name": "listingId",
          "type": "uint256"
        },
        {
          "indexed": false,
          "internalType": "address",
          "name": "seller",
          "type": "address"
        }
      ],
      "name": "CancelBid",
      "type": "event"
    },
    {
      "anonymous": false,
      "inputs": [
        {
          "indexed": false,
          "internalType": "uint256",
          "name": "rentalId",
          "type": "uint256"
        }
      ],
      "name": "FinishRentalForCollateral",
      "type": "event"
    },
    {
      "anonymous": false,
      "inputs": [
        {
          "indexed": false,
          "internalType": "uint256",
          "name": "rentalId",
          "type": "uint256"
        }
      ],
      "name": "FinishRentalForNFT",
      "type": "event"
    },
    {
      "anonymous": false,
      "inputs": [
        {
          "indexed": false,
          "internalType": "uint256",
          "name": "listingId",
          "type": "uint256"
        },
        {
          "indexed": false,
          "internalType": "address",
          "name": "seller",
          "type": "address"
        },
        {
          "indexed": false,
          "internalType": "address",
          "name": "token",
          "type": "address"
        },
        {
          "indexed": false,
          "internalType": "uint256",
          "name": "tokenId",
          "type": "uint256"
        },
        {
          "indexed": false,
          "internalType": "uint256",
          "name": "price",
          "type": "uint256"
        }
      ],
      "name": "Listed",
      "type": "event"
    },
    {
      "anonymous": false,
      "inputs": [
        {
          "indexed": false,
          "internalType": "uint256",
          "name": "stakingId",
          "type": "uint256"
        },
        {
          "indexed": false,
          "internalType": "address",
          "name": "maker",
          "type": "address"
        },
        {
          "indexed": false,
          "internalType": "address",
          "name": "token",
          "type": "address"
        },
        {
          "indexed": false,
          "internalType": "uint256",
          "name": "tokenId",
          "type": "uint256"
        },
        {
          "indexed": false,
          "internalType": "uint256",
          "name": "collateral",
          "type": "uint256"
        },
        {
          "indexed": false,
          "internalType": "uint256",
          "name": "premium",
          "type": "uint256"
        },
        {
          "indexed": false,
          "internalType": "uint256",
          "name": "deadline",
          "type": "uint256"
        }
      ],
      "name": "QuotedForStaking",
      "type": "event"
    },
    {
      "anonymous": false,
      "inputs": [
        {
          "indexed": false,
          "internalType": "uint256",
          "name": "rentalId",
          "type": "uint256"
        },
        {
          "indexed": false,
          "internalType": "address",
          "name": "taker",
          "type": "address"
        }
      ],
      "name": "Rental",
      "type": "event"
    },
    {
      "anonymous": false,
      "inputs": [
        {
          "indexed": false,
          "internalType": "uint256",
          "name": "listingId",
          "type": "uint256"
        },
        {
          "indexed": false,
          "internalType": "address",
          "name": "buyer",
          "type": "address"
        },
        {
          "indexed": false,
          "internalType": "address",
          "name": "token",
          "type": "address"
        },
        {
          "indexed": false,
          "internalType": "uint256",
          "name": "tokenId",
          "type": "uint256"
        },
        {
          "indexed": false,
          "internalType": "uint256",
          "name": "price",
          "type": "uint256"
        }
      ],
      "name": "Sale",
      "type": "event"
    },
    {
      "inputs": [
        {
          "internalType": "uint256",
          "name": "",
          "type": "uint256"
        }
      ],
      "name": "_listings",
      "outputs": [
        {
          "internalType": "enum Marketplace.ListingStatus",
          "name": "status",
          "type": "uint8"
        },
        {
          "internalType": "address",
          "name": "seller",
          "type": "address"
        },
        {
          "internalType": "uint256",
          "name": "price",
          "type": "uint256"
        },
        {
          "internalType": "address",
          "name": "token",
          "type": "address"
        },
        {
          "internalType": "uint256",
          "name": "tokenId",
          "type": "uint256"
        }
      ],
      "stateMutability": "view",
      "type": "function"
    },
    {
      "inputs": [],
      "name": "_listingsLastIndex",
      "outputs": [
        {
          "internalType": "uint256",
          "name": "",
          "type": "uint256"
        }
      ],
      "stateMutability": "view",
      "type": "function"
    },
    {
      "inputs": [
        {
          "internalType": "uint256",
          "name": "",
          "type": "uint256"
        }
      ],
      "name": "_stakings",
      "outputs": [
        {
          "internalType": "enum Marketplace.StakeStatus",
          "name": "status",
          "type": "uint8"
        },
        {
          "internalType": "address",
          "name": "maker",
          "type": "address"
        },
        {
          "internalType": "address",
          "name": "taker",
          "type": "address"
        },
        {
          "internalType": "uint256",
          "name": "collateral",
          "type": "uint256"
        },
        {
          "internalType": "uint256",
          "name": "premium",
          "type": "uint256"
        },
        {
          "internalType": "uint256",
          "name": "startRentalUTC",
          "type": "uint256"
        },
        {
          "internalType": "uint256",
          "name": "paymentsAmount",
          "type": "uint256"
        },
        {
          "internalType": "uint256",
          "name": "deadline",
          "type": "uint256"
        },
        {
          "internalType": "address",
          "name": "token",
          "type": "address"
        },
        {
          "internalType": "uint256",
          "name": "tokenId",
          "type": "uint256"
        }
      ],
      "stateMutability": "view",
      "type": "function"
    },
    {
      "inputs": [],
      "name": "_stakingsLastIndex",
      "outputs": [
        {
          "internalType": "uint256",
          "name": "",
          "type": "uint256"
        }
      ],
      "stateMutability": "view",
      "type": "function"
    },
    {
      "inputs": [
        {
          "internalType": "address",
          "name": "tokenContract",
          "type": "address"
        },
        {
          "internalType": "uint256",
          "name": "tokenId",
          "type": "uint256"
        },
        {
          "internalType": "uint256",
          "name": "priceWei",
          "type": "uint256"
        }
      ],
      "name": "bid",
      "outputs": [],
      "stateMutability": "payable",
      "type": "function"
    },
    {
      "inputs": [
        {
          "internalType": "uint256",
          "name": "listingId",
          "type": "uint256"
        }
      ],
      "name": "buyToken",
      "outputs": [],
      "stateMutability": "payable",
      "type": "function"
    },
    {
      "inputs": [
        {
          "internalType": "uint256",
          "name": "stakingId",
          "type": "uint256"
        }
      ],
      "name": "canRentNFT",
      "outputs": [
        {
          "internalType": "bool",
          "name": "",
          "type": "bool"
        }
      ],
      "stateMutability": "view",
      "type": "function"
    },
    {
      "inputs": [
        {
          "internalType": "uint256",
          "name": "listingId",
          "type": "uint256"
        }
      ],
      "name": "cancel",
      "outputs": [],
      "stateMutability": "nonpayable",
      "type": "function"
    },
    {
      "inputs": [
        {
          "internalType": "uint256",
          "name": "stakingId",
          "type": "uint256"
        }
      ],
      "name": "claimCollateral",
      "outputs": [],
      "stateMutability": "nonpayable",
      "type": "function"
    },
    {
      "inputs": [
        {
          "internalType": "uint256",
          "name": "listingId",
          "type": "uint256"
        }
      ],
      "name": "getListing",
      "outputs": [
        {
          "components": [
            {
              "internalType": "enum Marketplace.ListingStatus",
              "name": "status",
              "type": "uint8"
            },
            {
              "internalType": "address",
              "name": "seller",
              "type": "address"
            },
            {
              "internalType": "uint256",
              "name": "price",
              "type": "uint256"
            },
            {
              "internalType": "address",
              "name": "token",
              "type": "address"
            },
            {
              "internalType": "uint256",
              "name": "tokenId",
              "type": "uint256"
            }
          ],
          "internalType": "struct Marketplace.Listing",
          "name": "",
          "type": "tuple"
        }
      ],
      "stateMutability": "view",
      "type": "function"
    },
    {
      "inputs": [
        {
          "internalType": "uint256",
          "name": "listingId",
          "type": "uint256"
        }
      ],
      "name": "isBuyable",
      "outputs": [
        {
          "internalType": "bool",
          "name": "",
          "type": "bool"
        }
      ],
      "stateMutability": "view",
      "type": "function"
    },
    {
      "inputs": [
        {
          "internalType": "uint256",
          "name": "stakingId",
          "type": "uint256"
        }
      ],
      "name": "isCollateralClaimable",
      "outputs": [],
      "stateMutability": "view",
      "type": "function"
    },
    {
      "inputs": [
        {
          "internalType": "uint256",
          "name": "stakingId",
          "type": "uint256"
        }
      ],
      "name": "payPremium",
      "outputs": [],
      "stateMutability": "payable",
      "type": "function"
    },
    {
      "inputs": [],
      "name": "platform",
      "outputs": [
        {
          "internalType": "address",
          "name": "",
          "type": "address"
        }
      ],
      "stateMutability": "view",
      "type": "function"
    },
    {
      "inputs": [
        {
          "internalType": "address",
          "name": "tokenContract",
          "type": "address"
        },
        {
          "internalType": "uint256",
          "name": "tokenId",
          "type": "uint256"
        },
        {
          "internalType": "uint256",
          "name": "collateralWei",
          "type": "uint256"
        },
        {
          "internalType": "uint256",
          "name": "premiumWei",
          "type": "uint256"
        },
        {
          "internalType": "uint256",
          "name": "deadlineUTC",
          "type": "uint256"
        }
      ],
      "name": "quoteForStaking",
      "outputs": [],
      "stateMutability": "payable",
      "type": "function"
    },
    {
      "inputs": [
        {
          "internalType": "uint256",
          "name": "stakingId",
          "type": "uint256"
        }
      ],
      "name": "rentNFT",
      "outputs": [],
      "stateMutability": "payable",
      "type": "function"
    },
    {
      "inputs": [
        {
          "internalType": "uint256",
          "name": "stakingId",
          "type": "uint256"
        }
      ],
      "name": "stopRental",
      "outputs": [],
      "stateMutability": "nonpayable",
      "type": "function"
    },
    {
      "inputs": [
        {
          "internalType": "uint256",
          "name": "stakingIndex",
          "type": "uint256"
        }
      ],
      "name": "stopStaking",
      "outputs": [],
      "stateMutability": "nonpayable",
      "type": "function"
    }
  ],
  "bytecode": "0x60a06040523480156200001157600080fd5b506040516200446d3803806200446d833981810160405281019062000037919062000094565b60016000819055508073ffffffffffffffffffffffffffffffffffffffff1660808173ffffffffffffffffffffffffffffffffffffffff1660601b81525050506200010e565b6000815190506200008e81620000f4565b92915050565b600060208284031215620000a757600080fd5b6000620000b7848285016200007d565b91505092915050565b6000620000cd82620000d4565b9050919050565b600073ffffffffffffffffffffffffffffffffffffffff82169050919050565b620000ff81620000c0565b81146200010b57600080fd5b50565b60805160601c6143396200013460003960008181611dd201526131c801526143396000f3fe6080604052600436106101095760003560e01c80634bde38c811610095578063d78a75ad11610064578063d78a75ad14610315578063df76dbc914610340578063e324466414610381578063e738c7c8146103ac578063ecaf6d60146103e957610109565b80634bde38c81461027c578063b6e96f4c146102a7578063c49785b4146102d0578063c893c659146102f957610109565b8063156ecc3d116100dc578063156ecc3d146101c95780631c760bdb146101f25780632d296bf11461021b57806340e58ee5146102375780634364b26e1461026057610109565b80630ae3f1091461010e5780630f41ba4b14610154578063107a274a1461017057806314364f1d146101ad575b600080fd5b34801561011a57600080fd5b506101356004803603810190610130919061342f565b610426565b60405161014b9a999897969594939291906138ba565b60405180910390f35b61016e60048036038101906101699190613340565b6104e7565b005b34801561017c57600080fd5b506101976004803603810190610192919061342f565b610863565b6040516101a49190613bb6565b60405180910390f35b6101c760048036038101906101c2919061342f565b6109d7565b005b3480156101d557600080fd5b506101f060048036038101906101eb919061342f565b610dff565b005b3480156101fe57600080fd5b506102196004803603810190610214919061342f565b6112a0565b005b6102356004803603810190610230919061342f565b6115b0565b005b34801561024357600080fd5b5061025e6004803603810190610259919061342f565b611931565b005b61027a6004803603810190610275919061342f565b611ba8565b005b34801561028857600080fd5b50610291611dd0565b60405161029e91906137d1565b60405180910390f35b3480156102b357600080fd5b506102ce60048036038101906102c9919061342f565b611df4565b005b3480156102dc57600080fd5b506102f760048036038101906102f2919061342f565b612180565b005b610313600480360381019061030e919061338f565b612335565b005b34801561032157600080fd5b5061032a612bb1565b6040516103379190613bd1565b60405180910390f35b34801561034c57600080fd5b506103676004803603810190610362919061342f565b612bb7565b604051610378959493929190613867565b60405180910390f35b34801561038d57600080fd5b50610396612c3a565b6040516103a39190613bd1565b60405180910390f35b3480156103b857600080fd5b506103d360048036038101906103ce919061342f565b612c40565b6040516103e0919061384c565b60405180910390f35b3480156103f557600080fd5b50610410600480360381019061040b919061342f565b612f92565b60405161041d919061384c565b60405180910390f35b60046020528060005260406000206000915090508060000160009054906101000a900460ff16908060000160019054906101000a900473ffffffffffffffffffffffffffffffffffffffff16908060010160009054906101000a900473ffffffffffffffffffffffffffffffffffffffff16908060020154908060030154908060040154908060050154908060060154908060070160009054906101000a900473ffffffffffffffffffffffffffffffffffffffff1690806008015490508a565b6002600054141561052d576040517f08c379a000000000000000000000000000000000000000000000000000000000815260040161052490613b96565b60405180910390fd5b60026000819055508273ffffffffffffffffffffffffffffffffffffffff1663e985e9c533306040518363ffffffff1660e01b81526004016105709291906137ec565b60206040518083038186803b15801561058857600080fd5b505afa15801561059c573d6000803e3d6000fd5b505050506040513d601f19601f820116820180604052508101906105c09190613406565b6105ff576040517f08c379a00000000000000000000000000000000000000000000000000000000081526004016105f690613ad6565b60405180910390fd5b67016345785d8a00003414610649576040517f08c379a000000000000000000000000000000000000000000000000000000000815260040161064090613b16565b60405180910390fd5b61065a67016345785d8a00006131c6565b6040518060a001604052806000600281111561069f577f4e487b7100000000000000000000000000000000000000000000000000000000600052602160045260246000fd5b81526020013373ffffffffffffffffffffffffffffffffffffffff1681526020018281526020018473ffffffffffffffffffffffffffffffffffffffff1681526020018381525060026000600160008154809291906106fd90613e8f565b91905055815260200190815260200160002060008201518160000160006101000a81548160ff02191690836002811115610760577f4e487b7100000000000000000000000000000000000000000000000000000000600052602160045260246000fd5b021790555060208201518160000160016101000a81548173ffffffffffffffffffffffffffffffffffffffff021916908373ffffffffffffffffffffffffffffffffffffffff1602179055506040820151816001015560608201518160020160006101000a81548173ffffffffffffffffffffffffffffffffffffffff021916908373ffffffffffffffffffffffffffffffffffffffff160217905550608082015181600301559050507f723f73331eaee88eec7fc68ef60ab6ed15e4b90d0472b55eb92fa43910bab6dd600180546108399190613dc9565b3385858560405161084e959493929190613c15565b60405180910390a16001600081905550505050565b61086b613230565b600260008381526020019081526020016000206040518060a00160405290816000820160009054906101000a900460ff1660028111156108d4577f4e487b7100000000000000000000000000000000000000000000000000000000600052602160045260246000fd5b600281111561090c577f4e487b7100000000000000000000000000000000000000000000000000000000600052602160045260246000fd5b81526020016000820160019054906101000a900473ffffffffffffffffffffffffffffffffffffffff1673ffffffffffffffffffffffffffffffffffffffff1673ffffffffffffffffffffffffffffffffffffffff168152602001600182015481526020016002820160009054906101000a900473ffffffffffffffffffffffffffffffffffffffff1673ffffffffffffffffffffffffffffffffffffffff1673ffffffffffffffffffffffffffffffffffffffff1681526020016003820154815250509050919050565b60006004600083815260200190815260200160002090508060070160009054906101000a900473ffffffffffffffffffffffffffffffffffffffff1673ffffffffffffffffffffffffffffffffffffffff1663e985e9c58260000160019054906101000a900473ffffffffffffffffffffffffffffffffffffffff16306040518363ffffffff1660e01b8152600401610a719291906137ec565b60206040518083038186803b158015610a8957600080fd5b505afa158015610a9d573d6000803e3d6000fd5b505050506040513d601f19601f82011682018060405250810190610ac19190613406565b610b00576040517f08c379a0000000000000000000000000000000000000000000000000000000008152600401610af790613ad6565b60405180910390fd5b80600301548160020154610b149190613ce8565b3414610b55576040517f08c379a0000000000000000000000000000000000000000000000000000000008152600401610b4c90613ab6565b60405180910390fd5b428160040181905550338160010160006101000a81548173ffffffffffffffffffffffffffffffffffffffff021916908373ffffffffffffffffffffffffffffffffffffffff16021790555060018160000160006101000a81548160ff02191690836004811115610bef577f4e487b7100000000000000000000000000000000000000000000000000000000600052602160045260246000fd5b0217905550600181600501819055508060070160009054906101000a900473ffffffffffffffffffffffffffffffffffffffff1673ffffffffffffffffffffffffffffffffffffffff166342842e0e8260000160019054906101000a900473ffffffffffffffffffffffffffffffffffffffff168360010160009054906101000a900473ffffffffffffffffffffffffffffffffffffffff1684600801546040518463ffffffff1660e01b8152600401610cab93929190613815565b600060405180830381600087803b158015610cc557600080fd5b505af1158015610cd9573d6000803e3d6000fd5b505050508060000160019054906101000a900473ffffffffffffffffffffffffffffffffffffffff1673ffffffffffffffffffffffffffffffffffffffff166108fc67016345785d8a00009081150290604051600060405180830381858888f19350505050158015610d4f573d6000803e3d6000fd5b506000601460648360030154610d659190613d3e565b610d6f9190613d6f565b90506000818360030154610d839190613dc9565b9050610d8e826131c6565b8260000160019054906101000a900473ffffffffffffffffffffffffffffffffffffffff1673ffffffffffffffffffffffffffffffffffffffff166108fc829081150290604051600060405180830381858888f19350505050158015610df8573d6000803e3d6000fd5b5050505050565b60026000541415610e45576040517f08c379a0000000000000000000000000000000000000000000000000000000008152600401610e3c90613b96565b60405180910390fd5b6002600081905550600060046000838152602001908152602001600020905060006004811115610e9e577f4e487b7100000000000000000000000000000000000000000000000000000000600052602160045260246000fd5b8160000160009054906101000a900460ff166004811115610ee8577f4e487b7100000000000000000000000000000000000000000000000000000000600052602160045260246000fd5b14610f28576040517f08c379a0000000000000000000000000000000000000000000000000000000008152600401610f1f90613b56565b60405180910390fd5b3373ffffffffffffffffffffffffffffffffffffffff168160010160009054906101000a900473ffffffffffffffffffffffffffffffffffffffff1673ffffffffffffffffffffffffffffffffffffffff1614610fba576040517f08c379a0000000000000000000000000000000000000000000000000000000008152600401610fb190613af6565b60405180910390fd5b600062093a80826004015442610fd09190613dc9565b610fda9190613d3e565b90508082600501541015611023576040517f08c379a000000000000000000000000000000000000000000000000000000000815260040161101a90613b76565b60405180910390fd5b60028260000160006101000a81548160ff02191690836004811115611071577f4e487b7100000000000000000000000000000000000000000000000000000000600052602160045260246000fd5b02179055508160070160009054906101000a900473ffffffffffffffffffffffffffffffffffffffff1673ffffffffffffffffffffffffffffffffffffffff166342842e0e8360010160009054906101000a900473ffffffffffffffffffffffffffffffffffffffff168460000160019054906101000a900473ffffffffffffffffffffffffffffffffffffffff1685600801546040518463ffffffff1660e01b815260040161112393929190613815565b600060405180830381600087803b15801561113d57600080fd5b505af1158015611151573d6000803e3d6000fd5b505050508160010160009054906101000a900473ffffffffffffffffffffffffffffffffffffffff1673ffffffffffffffffffffffffffffffffffffffff166108fc83600201549081150290604051600060405180830381858888f193505050501580156111c3573d6000803e3d6000fd5b5060046000848152602001908152602001600020600080820160006101000a81549060ff02191690556000820160016101000a81549073ffffffffffffffffffffffffffffffffffffffff02191690556001820160006101000a81549073ffffffffffffffffffffffffffffffffffffffff0219169055600282016000905560038201600090556004820160009055600582016000905560068201600090556007820160006101000a81549073ffffffffffffffffffffffffffffffffffffffff0219169055600882016000905550505050600160008190555050565b600260005414156112e6576040517f08c379a00000000000000000000000000000000000000000000000000000000081526004016112dd90613b96565b60405180910390fd5b60026000819055506004600082815260200190815260200160002060070160009054906101000a900473ffffffffffffffffffffffffffffffffffffffff1673ffffffffffffffffffffffffffffffffffffffff1663e985e9c533306040518363ffffffff1660e01b815260040161135f9291906137ec565b60206040518083038186803b15801561137757600080fd5b505afa15801561138b573d6000803e3d6000fd5b505050506040513d601f19601f820116820180604052508101906113af9190613406565b6113ee576040517f08c379a00000000000000000000000000000000000000000000000000000000081526004016113e590613956565b60405180910390fd5b3373ffffffffffffffffffffffffffffffffffffffff166004600083815260200190815260200160002060070160009054906101000a900473ffffffffffffffffffffffffffffffffffffffff1673ffffffffffffffffffffffffffffffffffffffff16636352211e60046000858152602001908152602001600020600801546040518263ffffffff1660e01b815260040161148a9190613bd1565b60206040518083038186803b1580156114a257600080fd5b505afa1580156114b6573d6000803e3d6000fd5b505050506040513d601f19601f820116820180604052508101906114da9190613317565b73ffffffffffffffffffffffffffffffffffffffff1614611530576040517f08c379a000000000000000000000000000000000000000000000000000000000815260040161152790613976565b60405180910390fd5b600480600083815260200190815260200160002060000160006101000a81548160ff0219169083600481111561158f577f4e487b7100000000000000000000000000000000000000000000000000000000600052602160045260246000fd5b02179055506115a567016345785d8a00006131c6565b600160008190555050565b600260005414156115f6576040517f08c379a00000000000000000000000000000000000000000000000000000000081526004016115ed90613b96565b60405180910390fd5b6002600081905550600060026000838152602001908152602001600020905060008160020160009054906101000a900473ffffffffffffffffffffffffffffffffffffffff1690508160000160019054906101000a900473ffffffffffffffffffffffffffffffffffffffff1673ffffffffffffffffffffffffffffffffffffffff163373ffffffffffffffffffffffffffffffffffffffff1614156116d1576040517f08c379a00000000000000000000000000000000000000000000000000000000081526004016116c890613996565b60405180910390fd5b8160010154341015611718576040517f08c379a000000000000000000000000000000000000000000000000000000000815260040161170f90613a96565b60405180910390fd5b61172183612c40565b611760576040517f08c379a000000000000000000000000000000000000000000000000000000000815260040161175790613a56565b60405180910390fd5b60018260000160006101000a81548160ff021916908360028111156117ae577f4e487b7100000000000000000000000000000000000000000000000000000000600052602160045260246000fd5b02179055508073ffffffffffffffffffffffffffffffffffffffff166342842e0e8360000160019054906101000a900473ffffffffffffffffffffffffffffffffffffffff163385600301546040518463ffffffff1660e01b815260040161181893929190613815565b600060405180830381600087803b15801561183257600080fd5b505af1158015611846573d6000803e3d6000fd5b505050508160000160019054906101000a900473ffffffffffffffffffffffffffffffffffffffff1673ffffffffffffffffffffffffffffffffffffffff166108fc83600101549081150290604051600060405180830381858888f193505050501580156118b8573d6000803e3d6000fd5b507ff3debaf22196a6ddf52a60fa71058cd7edf5e25bb98f4e96c994a5d4a9b0dd3e83338460020160009054906101000a900473ffffffffffffffffffffffffffffffffffffffff168560030154866001015460405161191c959493929190613c15565b60405180910390a15050600160008190555050565b60026000541415611977576040517f08c379a000000000000000000000000000000000000000000000000000000000815260040161196e90613b96565b60405180910390fd5b600260008190555060006002600083815260200190815260200160002090508060000160019054906101000a900473ffffffffffffffffffffffffffffffffffffffff1673ffffffffffffffffffffffffffffffffffffffff163373ffffffffffffffffffffffffffffffffffffffff1614611a28576040517f08c379a0000000000000000000000000000000000000000000000000000000008152600401611a1f906139b6565b60405180910390fd5b60006002811115611a62577f4e487b7100000000000000000000000000000000000000000000000000000000600052602160045260246000fd5b8160000160009054906101000a900460ff166002811115611aac577f4e487b7100000000000000000000000000000000000000000000000000000000600052602160045260246000fd5b14611aec576040517f08c379a0000000000000000000000000000000000000000000000000000000008152600401611ae390613a76565b60405180910390fd5b60028160000160006101000a81548160ff02191690836002811115611b3a577f4e487b7100000000000000000000000000000000000000000000000000000000600052602160045260246000fd5b02179055507f874afcdd5e90b2329b3c1601e613dcdc6abb6deb62ce61339a8337b48c053e51828260000160019054906101000a900473ffffffffffffffffffffffffffffffffffffffff16604051611b94929190613bec565b60405180910390a150600160008190555050565b600060046000838152602001908152602001600020905060016004811115611bf9577f4e487b7100000000000000000000000000000000000000000000000000000000600052602160045260246000fd5b8160000160009054906101000a900460ff166004811115611c43577f4e487b7100000000000000000000000000000000000000000000000000000000600052602160045260246000fd5b14611c83576040517f08c379a0000000000000000000000000000000000000000000000000000000008152600401611c7a90613a36565b60405180910390fd5b80600301543414611cc9576040517f08c379a0000000000000000000000000000000000000000000000000000000008152600401611cc090613a16565b60405180910390fd5b80600601544210611d0f576040517f08c379a0000000000000000000000000000000000000000000000000000000008152600401611d0690613b36565b60405180910390fd5b60006014606434611d209190613d3e565b611d2a9190613d6f565b905060008134611d3a9190613dc9565b9050611d45826131c6565b8260000160019054906101000a900473ffffffffffffffffffffffffffffffffffffffff1673ffffffffffffffffffffffffffffffffffffffff166108fc829081150290604051600060405180830381858888f19350505050158015611daf573d6000803e3d6000fd5b50826005016000815480929190611dc590613e8f565b919050555050505050565b7f000000000000000000000000000000000000000000000000000000000000000081565b600060046000838152602001908152602001600020604051806101400160405290816000820160009054906101000a900460ff166004811115611e60577f4e487b7100000000000000000000000000000000000000000000000000000000600052602160045260246000fd5b6004811115611e98577f4e487b7100000000000000000000000000000000000000000000000000000000600052602160045260246000fd5b81526020016000820160019054906101000a900473ffffffffffffffffffffffffffffffffffffffff1673ffffffffffffffffffffffffffffffffffffffff1673ffffffffffffffffffffffffffffffffffffffff1681526020016001820160009054906101000a900473ffffffffffffffffffffffffffffffffffffffff1673ffffffffffffffffffffffffffffffffffffffff1673ffffffffffffffffffffffffffffffffffffffff16815260200160028201548152602001600382015481526020016004820154815260200160058201548152602001600682015481526020016007820160009054906101000a900473ffffffffffffffffffffffffffffffffffffffff1673ffffffffffffffffffffffffffffffffffffffff1673ffffffffffffffffffffffffffffffffffffffff168152602001600882015481525050905060016004811115612016577f4e487b7100000000000000000000000000000000000000000000000000000000600052602160045260246000fd5b81600001516004811115612053577f4e487b7100000000000000000000000000000000000000000000000000000000600052602160045260246000fd5b14612093576040517f08c379a000000000000000000000000000000000000000000000000000000000815260040161208a90613a36565b60405180910390fd5b3373ffffffffffffffffffffffffffffffffffffffff16816020015173ffffffffffffffffffffffffffffffffffffffff1614612105576040517f08c379a00000000000000000000000000000000000000000000000000000000081526004016120fc906139d6565b60405180910390fd5b600062093a808260a001514261211b9190613dc9565b6121259190613d3e565b9050808260c00151108061213c5750428260e00151115b61217b576040517f08c379a0000000000000000000000000000000000000000000000000000000008152600401612172906139f6565b60405180910390fd5b505050565b60006004600083815260200190815260200160002090506121a082611df4565b60038160000160006101000a81548160ff021916908360048111156121ee577f4e487b7100000000000000000000000000000000000000000000000000000000600052602160045260246000fd5b02179055508060000160019054906101000a900473ffffffffffffffffffffffffffffffffffffffff1673ffffffffffffffffffffffffffffffffffffffff166108fc82600201549081150290604051600060405180830381858888f19350505050158015612261573d6000803e3d6000fd5b5060046000838152602001908152602001600020600080820160006101000a81549060ff02191690556000820160016101000a81549073ffffffffffffffffffffffffffffffffffffffff02191690556001820160006101000a81549073ffffffffffffffffffffffffffffffffffffffff0219169055600282016000905560038201600090556004820160009055600582016000905560068201600090556007820160006101000a81549073ffffffffffffffffffffffffffffffffffffffff0219169055600882016000905550505050565b6002600054141561237b576040517f08c379a000000000000000000000000000000000000000000000000000000000815260040161237290613b96565b60405180910390fd5b60026000819055508473ffffffffffffffffffffffffffffffffffffffff1663e985e9c533306040518363ffffffff1660e01b81526004016123be9291906137ec565b60206040518083038186803b1580156123d657600080fd5b505afa1580156123ea573d6000803e3d6000fd5b505050506040513d601f19601f8201168201806040525081019061240e9190613406565b61244d576040517f08c379a000000000000000000000000000000000000000000000000000000000815260040161244490613956565b60405180910390fd5b3373ffffffffffffffffffffffffffffffffffffffff168573ffffffffffffffffffffffffffffffffffffffff16636352211e866040518263ffffffff1660e01b815260040161249d9190613bd1565b60206040518083038186803b1580156124b557600080fd5b505afa1580156124c9573d6000803e3d6000fd5b505050506040513d601f19601f820116820180604052508101906124ed9190613317565b73ffffffffffffffffffffffffffffffffffffffff1614612543576040517f08c379a000000000000000000000000000000000000000000000000000000000815260040161253a90613976565b60405180910390fd5b67016345785d8a0000341461258d576040517f08c379a000000000000000000000000000000000000000000000000000000000815260040161258490613b16565b60405180910390fd5b6000604051806101400160405280600060048111156125d5577f4e487b7100000000000000000000000000000000000000000000000000000000600052602160045260246000fd5b81526020013373ffffffffffffffffffffffffffffffffffffffff168152602001600073ffffffffffffffffffffffffffffffffffffffff16815260200185815260200184815260200160008152602001600081526020018381526020018773ffffffffffffffffffffffffffffffffffffffff16815260200186815250600460006003600081548092919061266a90613e8f565b91905055815260200190815260200160002060008201518160000160006101000a81548160ff021916908360048111156126cd577f4e487b7100000000000000000000000000000000000000000000000000000000600052602160045260246000fd5b021790555060208201518160000160016101000a81548173ffffffffffffffffffffffffffffffffffffffff021916908373ffffffffffffffffffffffffffffffffffffffff16021790555060408201518160010160006101000a81548173ffffffffffffffffffffffffffffffffffffffff021916908373ffffffffffffffffffffffffffffffffffffffff160217905550606082015181600201556080820151816003015560a0820151816004015560c0820151816005015560e082015181600601556101008201518160070160006101000a81548173ffffffffffffffffffffffffffffffffffffffff021916908373ffffffffffffffffffffffffffffffffffffffff16021790555061012082015181600801559050604051806101400160405290816000820160009054906101000a900460ff16600481111561283e577f4e487b7100000000000000000000000000000000000000000000000000000000600052602160045260246000fd5b6004811115612876577f4e487b7100000000000000000000000000000000000000000000000000000000600052602160045260246000fd5b81526020016000820160019054906101000a900473ffffffffffffffffffffffffffffffffffffffff1673ffffffffffffffffffffffffffffffffffffffff1673ffffffffffffffffffffffffffffffffffffffff1681526020016001820160009054906101000a900473ffffffffffffffffffffffffffffffffffffffff1673ffffffffffffffffffffffffffffffffffffffff1673ffffffffffffffffffffffffffffffffffffffff16815260200160028201548152602001600382015481526020016004820154815260200160058201548152602001600682015481526020016007820160009054906101000a900473ffffffffffffffffffffffffffffffffffffffff1673ffffffffffffffffffffffffffffffffffffffff1673ffffffffffffffffffffffffffffffffffffffff16815260200160088201548152505090508060046000600360008154809291906129d290613e8f565b91905055815260200190815260200160002060008201518160000160006101000a81548160ff02191690836004811115612a35577f4e487b7100000000000000000000000000000000000000000000000000000000600052602160045260246000fd5b021790555060208201518160000160016101000a81548173ffffffffffffffffffffffffffffffffffffffff021916908373ffffffffffffffffffffffffffffffffffffffff16021790555060408201518160010160006101000a81548173ffffffffffffffffffffffffffffffffffffffff021916908373ffffffffffffffffffffffffffffffffffffffff160217905550606082015181600201556080820151816003015560a0820151816004015560c0820151816005015560e082015181600601556101008201518160070160006101000a81548173ffffffffffffffffffffffffffffffffffffffff021916908373ffffffffffffffffffffffffffffffffffffffff16021790555061012082015181600801559050507f32e08351149249c094252d308bf6dee229d75fc098065a02ec0c005da75242786001600354612b809190613dc9565b338888888888604051612b999796959493929190613c68565b60405180910390a15060016000819055505050505050565b60035481565b60026020528060005260406000206000915090508060000160009054906101000a900460ff16908060000160019054906101000a900473ffffffffffffffffffffffffffffffffffffffff16908060010154908060020160009054906101000a900473ffffffffffffffffffffffffffffffffffffffff16908060030154905085565b60015481565b600080600260008481526020019081526020016000206040518060a00160405290816000820160009054906101000a900460ff166002811115612cac577f4e487b7100000000000000000000000000000000000000000000000000000000600052602160045260246000fd5b6002811115612ce4577f4e487b7100000000000000000000000000000000000000000000000000000000600052602160045260246000fd5b81526020016000820160019054906101000a900473ffffffffffffffffffffffffffffffffffffffff1673ffffffffffffffffffffffffffffffffffffffff1673ffffffffffffffffffffffffffffffffffffffff168152602001600182015481526020016002820160009054906101000a900473ffffffffffffffffffffffffffffffffffffffff1673ffffffffffffffffffffffffffffffffffffffff1673ffffffffffffffffffffffffffffffffffffffff1681526020016003820154815250509050600081606001519050816020015173ffffffffffffffffffffffffffffffffffffffff168173ffffffffffffffffffffffffffffffffffffffff16636352211e84608001516040518263ffffffff1660e01b8152600401612e0b9190613bd1565b60206040518083038186803b158015612e2357600080fd5b505afa158015612e37573d6000803e3d6000fd5b505050506040513d601f19601f82011682018060405250810190612e5b9190613317565b73ffffffffffffffffffffffffffffffffffffffff16148015612f0957508073ffffffffffffffffffffffffffffffffffffffff1663e985e9c58360200151306040518363ffffffff1660e01b8152600401612eb89291906137ec565b60206040518083038186803b158015612ed057600080fd5b505afa158015612ee4573d6000803e3d6000fd5b505050506040513d601f19601f82011682018060405250810190612f089190613406565b5b8015612f89575060006002811115612f4a577f4e487b7100000000000000000000000000000000000000000000000000000000600052602160045260246000fd5b82600001516002811115612f87577f4e487b7100000000000000000000000000000000000000000000000000000000600052602160045260246000fd5b145b92505050919050565b6000806004600084815260200190815260200160002090508060070160009054906101000a900473ffffffffffffffffffffffffffffffffffffffff1673ffffffffffffffffffffffffffffffffffffffff1663e985e9c58260000160019054906101000a900473ffffffffffffffffffffffffffffffffffffffff16306040518363ffffffff1660e01b815260040161302d9291906137ec565b60206040518083038186803b15801561304557600080fd5b505afa158015613059573d6000803e3d6000fd5b505050506040513d601f19601f8201168201806040525081019061307d9190613406565b80156131be57506004600084815260200190815260200160002060000160019054906101000a900473ffffffffffffffffffffffffffffffffffffffff1673ffffffffffffffffffffffffffffffffffffffff166004600085815260200190815260200160002060070160009054906101000a900473ffffffffffffffffffffffffffffffffffffffff1673ffffffffffffffffffffffffffffffffffffffff16636352211e60046000878152602001908152602001600020600801546040518263ffffffff1660e01b81526004016131569190613bd1565b60206040518083038186803b15801561316e57600080fd5b505afa158015613182573d6000803e3d6000fd5b505050506040513d601f19601f820116820180604052508101906131a69190613317565b73ffffffffffffffffffffffffffffffffffffffff16145b915050919050565b7f000000000000000000000000000000000000000000000000000000000000000073ffffffffffffffffffffffffffffffffffffffff166108fc829081150290604051600060405180830381858888f1935050505015801561322c573d6000803e3d6000fd5b5050565b6040518060a0016040528060006002811115613275577f4e487b7100000000000000000000000000000000000000000000000000000000600052602160045260246000fd5b8152602001600073ffffffffffffffffffffffffffffffffffffffff16815260200160008152602001600073ffffffffffffffffffffffffffffffffffffffff168152602001600081525090565b6000813590506132d2816142be565b92915050565b6000815190506132e7816142be565b92915050565b6000815190506132fc816142d5565b92915050565b600081359050613311816142ec565b92915050565b60006020828403121561332957600080fd5b6000613337848285016132d8565b91505092915050565b60008060006060848603121561335557600080fd5b6000613363868287016132c3565b935050602061337486828701613302565b925050604061338586828701613302565b9150509250925092565b600080600080600060a086880312156133a757600080fd5b60006133b5888289016132c3565b95505060206133c688828901613302565b94505060406133d788828901613302565b93505060606133e888828901613302565b92505060806133f988828901613302565b9150509295509295909350565b60006020828403121561341857600080fd5b6000613426848285016132ed565b91505092915050565b60006020828403121561344157600080fd5b600061344f84828501613302565b91505092915050565b61346181613dfd565b82525050565b61347081613dfd565b82525050565b61347f81613e0f565b82525050565b61348e81613e6b565b82525050565b61349d81613e6b565b82525050565b6134ac81613e7d565b82525050565b60006134bf601183613cd7565b91506134ca82613f65565b602082019050919050565b60006134e2600f83613cd7565b91506134ed82613f8e565b602082019050919050565b6000613505601683613cd7565b915061351082613fb7565b602082019050919050565b6000613528601e83613cd7565b915061353382613fe0565b602082019050919050565b600061354b600983613cd7565b915061355682614009565b602082019050919050565b600061356e603983613cd7565b915061357982614032565b604082019050919050565b6000613591600783613cd7565b915061359c82614081565b602082019050919050565b60006135b4601183613cd7565b91506135bf826140aa565b602082019050919050565b60006135d7600b83613cd7565b91506135e2826140d3565b602082019050919050565b60006135fa601583613cd7565b9150613605826140fc565b602082019050919050565b600061361d601483613cd7565b915061362882614125565b602082019050919050565b6000613640600b83613cd7565b915061364b8261414e565b602082019050919050565b6000613663600a83613cd7565b915061366e82614177565b602082019050919050565b6000613686600983613cd7565b9150613691826141a0565b602082019050919050565b60006136a9600783613cd7565b91506136b4826141c9565b602082019050919050565b60006136cc601083613cd7565b91506136d7826141f2565b602082019050919050565b60006136ef601283613cd7565b91506136fa8261421b565b602082019050919050565b6000613712601b83613cd7565b915061371d82614244565b602082019050919050565b6000613735601f83613cd7565b91506137408261426d565b602082019050919050565b60a0820160008201516137616000850182613485565b5060208201516137746020850182613458565b50604082015161378760408501826137b3565b50606082015161379a6060850182613458565b5060808201516137ad60808501826137b3565b50505050565b6137bc81613e61565b82525050565b6137cb81613e61565b82525050565b60006020820190506137e66000830184613467565b92915050565b60006040820190506138016000830185613467565b61380e6020830184613467565b9392505050565b600060608201905061382a6000830186613467565b6138376020830185613467565b61384460408301846137c2565b949350505050565b60006020820190506138616000830184613476565b92915050565b600060a08201905061387c6000830188613494565b6138896020830187613467565b61389660408301866137c2565b6138a36060830185613467565b6138b060808301846137c2565b9695505050505050565b6000610140820190506138d0600083018d6134a3565b6138dd602083018c613467565b6138ea604083018b613467565b6138f7606083018a6137c2565b61390460808301896137c2565b61391160a08301886137c2565b61391e60c08301876137c2565b61392b60e08301866137c2565b613939610100830185613467565b6139476101208301846137c2565b9b9a5050505050505050505050565b6000602082019050818103600083015261396f816134b2565b9050919050565b6000602082019050818103600083015261398f816134d5565b9050919050565b600060208201905081810360008301526139af816134f8565b9050919050565b600060208201905081810360008301526139cf8161351b565b9050919050565b600060208201905081810360008301526139ef8161353e565b9050919050565b60006020820190508181036000830152613a0f81613561565b9050919050565b60006020820190508181036000830152613a2f81613584565b9050919050565b60006020820190508181036000830152613a4f816135a7565b9050919050565b60006020820190508181036000830152613a6f816135ca565b9050919050565b60006020820190508181036000830152613a8f816135ed565b9050919050565b60006020820190508181036000830152613aaf81613610565b9050919050565b60006020820190508181036000830152613acf81613633565b9050919050565b60006020820190508181036000830152613aef81613656565b9050919050565b60006020820190508181036000830152613b0f81613679565b9050919050565b60006020820190508181036000830152613b2f8161369c565b9050919050565b60006020820190508181036000830152613b4f816136bf565b9050919050565b60006020820190508181036000830152613b6f816136e2565b9050919050565b60006020820190508181036000830152613b8f81613705565b9050919050565b60006020820190508181036000830152613baf81613728565b9050919050565b600060a082019050613bcb600083018461374b565b92915050565b6000602082019050613be660008301846137c2565b92915050565b6000604082019050613c0160008301856137c2565b613c0e6020830184613467565b9392505050565b600060a082019050613c2a60008301886137c2565b613c376020830187613467565b613c446040830186613467565b613c5160608301856137c2565b613c5e60808301846137c2565b9695505050505050565b600060e082019050613c7d600083018a6137c2565b613c8a6020830189613467565b613c976040830188613467565b613ca460608301876137c2565b613cb160808301866137c2565b613cbe60a08301856137c2565b613ccb60c08301846137c2565b98975050505050505050565b600082825260208201905092915050565b6000613cf382613e61565b9150613cfe83613e61565b9250827fffffffffffffffffffffffffffffffffffffffffffffffffffffffffffffffff03821115613d3357613d32613ed8565b5b828201905092915050565b6000613d4982613e61565b9150613d5483613e61565b925082613d6457613d63613f07565b5b828204905092915050565b6000613d7a82613e61565b9150613d8583613e61565b9250817fffffffffffffffffffffffffffffffffffffffffffffffffffffffffffffffff0483118215151615613dbe57613dbd613ed8565b5b828202905092915050565b6000613dd482613e61565b9150613ddf83613e61565b925082821015613df257613df1613ed8565b5b828203905092915050565b6000613e0882613e41565b9050919050565b60008115159050919050565b6000819050613e2982614296565b919050565b6000819050613e3c826142aa565b919050565b600073ffffffffffffffffffffffffffffffffffffffff82169050919050565b6000819050919050565b6000613e7682613e1b565b9050919050565b6000613e8882613e2e565b9050919050565b6000613e9a82613e61565b91507fffffffffffffffffffffffffffffffffffffffffffffffffffffffffffffffff821415613ecd57613ecc613ed8565b5b600182019050919050565b7f4e487b7100000000000000000000000000000000000000000000000000000000600052601160045260246000fd5b7f4e487b7100000000000000000000000000000000000000000000000000000000600052601260045260246000fd5b7f4e487b7100000000000000000000000000000000000000000000000000000000600052602160045260246000fd5b7f616c6c6f77616e6365206e6f7420736574000000000000000000000000000000600082015250565b7f746f6b656e206f776e6572736869700000000000000000000000000000000000600082015250565b7f53656c6c65722063616e6e6f7420626520627579657200000000000000000000600082015250565b7f4f6e6c792073656c6c65722063616e2063616e63656c206c697374696e670000600082015250565b7f6e6f74206d616b65720000000000000000000000000000000000000000000000600082015250565b7f7072656d69756d732068617665206265656e207061696420616e64206465616460008201527f6c696e652069732079657420746f206265207265616368656400000000000000602082015250565b7f7072656d69756d00000000000000000000000000000000000000000000000000600082015250565b7f73746174757320213d207374616b696e67000000000000000000000000000000600082015250565b7f6e6f742062757961626c65000000000000000000000000000000000000000000600082015250565b7f4c697374696e67206973206e6f74206163746976650000000000000000000000600082015250565b7f496e73756666696369656e74207061796d656e74000000000000000000000000600082015250565b7f21636f6c6c61746572616c000000000000000000000000000000000000000000600082015250565b7f21616c6c6f77616e636500000000000000000000000000000000000000000000600082015250565b7f6e6f742074616b65720000000000000000000000000000000000000000000000600082015250565b7f2162696446656500000000000000000000000000000000000000000000000000600082015250565b7f646561646c696e65207265616368656400000000000000000000000000000000600082015250565b7f6e6f6e2d616374697665207374616b696e670000000000000000000000000000600082015250565b7f7072656d69756d732068617665206e6f74206265656e20706169640000000000600082015250565b7f5265656e7472616e637947756172643a207265656e7472616e742063616c6c00600082015250565b600381106142a7576142a6613f36565b5b50565b600581106142bb576142ba613f36565b5b50565b6142c781613dfd565b81146142d257600080fd5b50565b6142de81613e0f565b81146142e957600080fd5b50565b6142f581613e61565b811461430057600080fd5b5056fea26469706673582212200160fa47d5d146f90e52e15b503b0983cf2c66674d0dca632e27743e226d975c64736f6c63430008040033",
  "linkReferences": {},
  "deployedLinkReferences": {}
}