{
  "_format": "hh-sol-artifact-1",
  "contractName": "Marketplace",
  "sourceName": "contracts/Marketplace.sol",
  "abi": [
    {
      "anonymous": false,
      "inputs": [
        {
          "indexed": false,
          "internalType": "uint256",
          "name": "listingId",
          "type": "uint256"
        },
        {
          "indexed": false,
          "internalType": "address",
          "name": "seller",
          "type": "address"
        }
      ],
      "name": "CancelBid",
      "type": "event"
    },
    {
      "anonymous": false,
      "inputs": [
        {
          "indexed": false,
          "internalType": "uint256",
          "name": "rentalId",
          "type": "uint256"
        }
      ],
      "name": "FinishRentalForCollateral",
      "type": "event"
    },
    {
      "anonymous": false,
      "inputs": [
        {
          "indexed": false,
          "internalType": "uint256",
          "name": "rentalId",
          "type": "uint256"
        }
      ],
      "name": "FinishRentalForNFT",
      "type": "event"
    },
    {
      "anonymous": false,
      "inputs": [
        {
          "indexed": false,
          "internalType": "uint256",
          "name": "listingId",
          "type": "uint256"
        },
        {
          "indexed": false,
          "internalType": "address",
          "name": "seller",
          "type": "address"
        },
        {
          "indexed": false,
          "internalType": "address",
          "name": "token",
          "type": "address"
        },
        {
          "indexed": false,
          "internalType": "uint256",
          "name": "tokenId",
          "type": "uint256"
        },
        {
          "indexed": false,
          "internalType": "uint256",
          "name": "price",
          "type": "uint256"
        }
      ],
      "name": "Listed",
      "type": "event"
    },
    {
      "anonymous": false,
      "inputs": [
        {
          "indexed": false,
          "internalType": "uint256",
          "name": "stakingId",
          "type": "uint256"
        },
        {
          "indexed": false,
          "internalType": "address",
          "name": "maker",
          "type": "address"
        },
        {
          "indexed": false,
          "internalType": "address",
          "name": "token",
          "type": "address"
        },
        {
          "indexed": false,
          "internalType": "uint256",
          "name": "tokenId",
          "type": "uint256"
        },
        {
          "indexed": false,
          "internalType": "uint256",
          "name": "collateral",
          "type": "uint256"
        },
        {
          "indexed": false,
          "internalType": "uint256",
          "name": "premium",
          "type": "uint256"
        },
        {
          "indexed": false,
          "internalType": "uint256",
          "name": "deadline",
          "type": "uint256"
        }
      ],
      "name": "QuotedForStaking",
      "type": "event"
    },
    {
      "anonymous": false,
      "inputs": [
        {
          "indexed": false,
          "internalType": "uint256",
          "name": "rentalId",
          "type": "uint256"
        },
        {
          "indexed": false,
          "internalType": "address",
          "name": "taker",
          "type": "address"
        }
      ],
      "name": "Rental",
      "type": "event"
    },
    {
      "anonymous": false,
      "inputs": [
        {
          "indexed": false,
          "internalType": "uint256",
          "name": "listingId",
          "type": "uint256"
        },
        {
          "indexed": false,
          "internalType": "address",
          "name": "buyer",
          "type": "address"
        },
        {
          "indexed": false,
          "internalType": "address",
          "name": "token",
          "type": "address"
        },
        {
          "indexed": false,
          "internalType": "uint256",
          "name": "tokenId",
          "type": "uint256"
        },
        {
          "indexed": false,
          "internalType": "uint256",
          "name": "price",
          "type": "uint256"
        }
      ],
      "name": "Sale",
      "type": "event"
    },
    {
      "inputs": [
        {
          "internalType": "address",
          "name": "tokenContract",
          "type": "address"
        },
        {
          "internalType": "uint256",
          "name": "tokenId",
          "type": "uint256"
        },
        {
          "internalType": "uint256",
          "name": "priceWei",
          "type": "uint256"
        }
      ],
      "name": "bid",
      "outputs": [],
      "stateMutability": "payable",
      "type": "function"
    },
    {
      "inputs": [
        {
          "internalType": "uint256",
          "name": "listingId",
          "type": "uint256"
        }
      ],
      "name": "buyToken",
      "outputs": [],
      "stateMutability": "payable",
      "type": "function"
    },
    {
      "inputs": [
        {
          "internalType": "uint256",
          "name": "listingId",
          "type": "uint256"
        }
      ],
      "name": "cancel",
      "outputs": [],
      "stateMutability": "nonpayable",
      "type": "function"
    },
    {
      "inputs": [
        {
          "internalType": "uint256",
          "name": "stakingId",
          "type": "uint256"
        }
      ],
      "name": "claimCollateral",
      "outputs": [],
      "stateMutability": "nonpayable",
      "type": "function"
    },
    {
      "inputs": [
        {
          "internalType": "uint256",
          "name": "listingId",
          "type": "uint256"
        }
      ],
      "name": "getListing",
      "outputs": [
        {
          "components": [
            {
              "internalType": "enum Marketplace.ListingStatus",
              "name": "status",
              "type": "uint8"
            },
            {
              "internalType": "address",
              "name": "seller",
              "type": "address"
            },
            {
              "internalType": "uint256",
              "name": "price",
              "type": "uint256"
            },
            {
              "internalType": "address",
              "name": "token",
              "type": "address"
            },
            {
              "internalType": "uint256",
              "name": "tokenId",
              "type": "uint256"
            }
          ],
          "internalType": "struct Marketplace.Listing",
          "name": "",
          "type": "tuple"
        }
      ],
      "stateMutability": "view",
      "type": "function"
    },
    {
      "inputs": [
        {
          "internalType": "uint256",
          "name": "listingId",
          "type": "uint256"
        }
      ],
      "name": "isBuyable",
      "outputs": [
        {
          "internalType": "bool",
          "name": "",
          "type": "bool"
        }
      ],
      "stateMutability": "view",
      "type": "function"
    },
    {
      "inputs": [
        {
          "internalType": "uint256",
          "name": "stakingId",
          "type": "uint256"
        }
      ],
      "name": "isCollateralClaimable",
      "outputs": [],
      "stateMutability": "view",
      "type": "function"
    },
    {
      "inputs": [
        {
          "internalType": "uint256",
          "name": "stakingId",
          "type": "uint256"
        }
      ],
      "name": "payPremium",
      "outputs": [],
      "stateMutability": "payable",
      "type": "function"
    },
    {
      "inputs": [
        {
          "internalType": "address",
          "name": "tokenContract",
          "type": "address"
        },
        {
          "internalType": "uint256",
          "name": "tokenId",
          "type": "uint256"
        },
        {
          "internalType": "uint256",
          "name": "collateralWei",
          "type": "uint256"
        },
        {
          "internalType": "uint256",
          "name": "premiumWei",
          "type": "uint256"
        },
        {
          "internalType": "uint256",
          "name": "deadlineUTC",
          "type": "uint256"
        }
      ],
      "name": "quoteForStaking",
      "outputs": [],
      "stateMutability": "payable",
      "type": "function"
    },
    {
      "inputs": [
        {
          "internalType": "uint256",
          "name": "stakingId",
          "type": "uint256"
        }
      ],
      "name": "rentNFT",
      "outputs": [],
      "stateMutability": "payable",
      "type": "function"
    },
    {
      "inputs": [
        {
          "internalType": "uint256",
          "name": "stakingId",
          "type": "uint256"
        }
      ],
      "name": "stopRental",
      "outputs": [],
      "stateMutability": "nonpayable",
      "type": "function"
    }
  ],
  "bytecode": "0x608060405234801561001057600080fd5b506001600081905550613596806100286000396000f3fe60806040526004361061009c5760003560e01c806340e58ee51161006457806340e58ee51461015b5780634364b26e14610184578063b6e96f4c146101a0578063c49785b4146101c9578063c893c659146101f2578063e738c7c81461020e5761009c565b80630f41ba4b146100a1578063107a274a146100bd57806314364f1d146100fa578063156ecc3d146101165780632d296bf11461013f575b600080fd5b6100bb60048036038101906100b691906127c4565b61024b565b005b3480156100c957600080fd5b506100e460048036038101906100df91906128b3565b6105b2565b6040516100f19190612ecf565b60405180910390f35b610114600480360381019061010f91906128b3565b610726565b005b34801561012257600080fd5b5061013d600480360381019061013891906128b3565b610a0d565b005b610159600480360381019061015491906128b3565b610eae565b005b34801561016757600080fd5b50610182600480360381019061017d91906128b3565b61122f565b005b61019e600480360381019061019991906128b3565b61151f565b005b3480156101ac57600080fd5b506101c760048036038101906101c291906128b3565b6116a4565b005b3480156101d557600080fd5b506101f060048036038101906101eb91906128b3565b611a30565b005b61020c60048036038101906102079190612813565b611be5565b005b34801561021a57600080fd5b50610235600480360381019061023091906128b3565b612366565b6040516102429190612c74565b60405180910390f35b60026000541415610291576040517f08c379a000000000000000000000000000000000000000000000000000000000815260040161028890612eaf565b60405180910390fd5b60026000819055508273ffffffffffffffffffffffffffffffffffffffff1663e985e9c533306040518363ffffffff1660e01b81526004016102d4929190612c14565b60206040518083038186803b1580156102ec57600080fd5b505afa158015610300573d6000803e3d6000fd5b505050506040513d601f19601f82011682018060405250810190610324919061288a565b610363576040517f08c379a000000000000000000000000000000000000000000000000000000000815260040161035a90612c8f565b60405180910390fd5b6001543410156103a8576040517f08c379a000000000000000000000000000000000000000000000000000000000815260040161039f90612cef565b60405180910390fd5b6040518060a00160405280600060028111156103ed577f4e487b7100000000000000000000000000000000000000000000000000000000600052602160045260246000fd5b81526020013373ffffffffffffffffffffffffffffffffffffffff1681526020018281526020018473ffffffffffffffffffffffffffffffffffffffff16815260200183815250600360006002600081548092919061044b90613129565b91905055815260200190815260200160002060008201518160000160006101000a81548160ff021916908360028111156104ae577f4e487b7100000000000000000000000000000000000000000000000000000000600052602160045260246000fd5b021790555060208201518160000160016101000a81548173ffffffffffffffffffffffffffffffffffffffff021916908373ffffffffffffffffffffffffffffffffffffffff1602179055506040820151816001015560608201518160020160006101000a81548173ffffffffffffffffffffffffffffffffffffffff021916908373ffffffffffffffffffffffffffffffffffffffff160217905550608082015181600301559050507f723f73331eaee88eec7fc68ef60ab6ed15e4b90d0472b55eb92fa43910bab6dd60016002546105889190613088565b3385858560405161059d959493929190612f2e565b60405180910390a16001600081905550505050565b6105ba6126b4565b600360008381526020019081526020016000206040518060a00160405290816000820160009054906101000a900460ff166002811115610623577f4e487b7100000000000000000000000000000000000000000000000000000000600052602160045260246000fd5b600281111561065b577f4e487b7100000000000000000000000000000000000000000000000000000000600052602160045260246000fd5b81526020016000820160019054906101000a900473ffffffffffffffffffffffffffffffffffffffff1673ffffffffffffffffffffffffffffffffffffffff1673ffffffffffffffffffffffffffffffffffffffff168152602001600182015481526020016002820160009054906101000a900473ffffffffffffffffffffffffffffffffffffffff1673ffffffffffffffffffffffffffffffffffffffff1673ffffffffffffffffffffffffffffffffffffffff1681526020016003820154815250509050919050565b60006005600083815260200190815260200160002090508060070160009054906101000a900473ffffffffffffffffffffffffffffffffffffffff1673ffffffffffffffffffffffffffffffffffffffff1663e985e9c533306040518363ffffffff1660e01b815260040161079c929190612c14565b60206040518083038186803b1580156107b457600080fd5b505afa1580156107c8573d6000803e3d6000fd5b505050506040513d601f19601f820116820180604052508101906107ec919061288a565b61082b576040517f08c379a000000000000000000000000000000000000000000000000000000000815260040161082290612e0f565b60405180910390fd5b8060030154816002015461083f9190613001565b341015610881576040517f08c379a000000000000000000000000000000000000000000000000000000000815260040161087890612def565b60405180910390fd5b428160040181905550338160010160006101000a81548173ffffffffffffffffffffffffffffffffffffffff021916908373ffffffffffffffffffffffffffffffffffffffff16021790555060018160000160006101000a81548160ff0219169083600381111561091b577f4e487b7100000000000000000000000000000000000000000000000000000000600052602160045260246000fd5b0217905550600181600501819055508060070160009054906101000a900473ffffffffffffffffffffffffffffffffffffffff1673ffffffffffffffffffffffffffffffffffffffff166342842e0e8260000160019054906101000a900473ffffffffffffffffffffffffffffffffffffffff168360010160009054906101000a900473ffffffffffffffffffffffffffffffffffffffff1684600801546040518463ffffffff1660e01b81526004016109d793929190612c3d565b600060405180830381600087803b1580156109f157600080fd5b505af1158015610a05573d6000803e3d6000fd5b505050505050565b60026000541415610a53576040517f08c379a0000000000000000000000000000000000000000000000000000000008152600401610a4a90612eaf565b60405180910390fd5b6002600081905550600060056000838152602001908152602001600020905060006003811115610aac577f4e487b7100000000000000000000000000000000000000000000000000000000600052602160045260246000fd5b8160000160009054906101000a900460ff166003811115610af6577f4e487b7100000000000000000000000000000000000000000000000000000000600052602160045260246000fd5b14610b36576040517f08c379a0000000000000000000000000000000000000000000000000000000008152600401610b2d90612e6f565b60405180910390fd5b3373ffffffffffffffffffffffffffffffffffffffff168160010160009054906101000a900473ffffffffffffffffffffffffffffffffffffffff1673ffffffffffffffffffffffffffffffffffffffff1614610bc8576040517f08c379a0000000000000000000000000000000000000000000000000000000008152600401610bbf90612e2f565b60405180910390fd5b600062093a80826004015442610bde9190613088565b610be89190613057565b90508082600501541015610c31576040517f08c379a0000000000000000000000000000000000000000000000000000000008152600401610c2890612e8f565b60405180910390fd5b60028260000160006101000a81548160ff02191690836003811115610c7f577f4e487b7100000000000000000000000000000000000000000000000000000000600052602160045260246000fd5b02179055508160070160009054906101000a900473ffffffffffffffffffffffffffffffffffffffff1673ffffffffffffffffffffffffffffffffffffffff166342842e0e8360010160009054906101000a900473ffffffffffffffffffffffffffffffffffffffff168460000160019054906101000a900473ffffffffffffffffffffffffffffffffffffffff1685600801546040518463ffffffff1660e01b8152600401610d3193929190612c3d565b600060405180830381600087803b158015610d4b57600080fd5b505af1158015610d5f573d6000803e3d6000fd5b505050508160010160009054906101000a900473ffffffffffffffffffffffffffffffffffffffff1673ffffffffffffffffffffffffffffffffffffffff166108fc83600201549081150290604051600060405180830381858888f19350505050158015610dd1573d6000803e3d6000fd5b5060056000848152602001908152602001600020600080820160006101000a81549060ff02191690556000820160016101000a81549073ffffffffffffffffffffffffffffffffffffffff02191690556001820160006101000a81549073ffffffffffffffffffffffffffffffffffffffff0219169055600282016000905560038201600090556004820160009055600582016000905560068201600090556007820160006101000a81549073ffffffffffffffffffffffffffffffffffffffff0219169055600882016000905550505050600160008190555050565b60026000541415610ef4576040517f08c379a0000000000000000000000000000000000000000000000000000000008152600401610eeb90612eaf565b60405180910390fd5b6002600081905550600060036000838152602001908152602001600020905060008160020160009054906101000a900473ffffffffffffffffffffffffffffffffffffffff1690508160000160019054906101000a900473ffffffffffffffffffffffffffffffffffffffff1673ffffffffffffffffffffffffffffffffffffffff163373ffffffffffffffffffffffffffffffffffffffff161415610fcf576040517f08c379a0000000000000000000000000000000000000000000000000000000008152600401610fc690612caf565b60405180910390fd5b8160010154341015611016576040517f08c379a000000000000000000000000000000000000000000000000000000000815260040161100d90612dcf565b60405180910390fd5b61101f83612366565b61105e576040517f08c379a000000000000000000000000000000000000000000000000000000000815260040161105590612d8f565b60405180910390fd5b60018260000160006101000a81548160ff021916908360028111156110ac577f4e487b7100000000000000000000000000000000000000000000000000000000600052602160045260246000fd5b02179055508073ffffffffffffffffffffffffffffffffffffffff166342842e0e8360000160019054906101000a900473ffffffffffffffffffffffffffffffffffffffff163385600301546040518463ffffffff1660e01b815260040161111693929190612c3d565b600060405180830381600087803b15801561113057600080fd5b505af1158015611144573d6000803e3d6000fd5b505050508160000160019054906101000a900473ffffffffffffffffffffffffffffffffffffffff1673ffffffffffffffffffffffffffffffffffffffff166108fc83600101549081150290604051600060405180830381858888f193505050501580156111b6573d6000803e3d6000fd5b507ff3debaf22196a6ddf52a60fa71058cd7edf5e25bb98f4e96c994a5d4a9b0dd3e83338460020160009054906101000a900473ffffffffffffffffffffffffffffffffffffffff168560030154866001015460405161121a959493929190612f2e565b60405180910390a15050600160008190555050565b60026000541415611275576040517f08c379a000000000000000000000000000000000000000000000000000000000815260040161126c90612eaf565b60405180910390fd5b600260008190555060006003600083815260200190815260200160002090508060000160019054906101000a900473ffffffffffffffffffffffffffffffffffffffff1673ffffffffffffffffffffffffffffffffffffffff163373ffffffffffffffffffffffffffffffffffffffff1614611326576040517f08c379a000000000000000000000000000000000000000000000000000000000815260040161131d90612ccf565b60405180910390fd5b60006002811115611360577f4e487b7100000000000000000000000000000000000000000000000000000000600052602160045260246000fd5b8160000160009054906101000a900460ff1660028111156113aa577f4e487b7100000000000000000000000000000000000000000000000000000000600052602160045260246000fd5b146113ea576040517f08c379a00000000000000000000000000000000000000000000000000000000081526004016113e190612daf565b60405180910390fd5b60028160000160006101000a81548160ff02191690836002811115611438577f4e487b7100000000000000000000000000000000000000000000000000000000600052602160045260246000fd5b02179055508060000160019054906101000a900473ffffffffffffffffffffffffffffffffffffffff1673ffffffffffffffffffffffffffffffffffffffff166108fc600260015461148a9190613057565b9081150290604051600060405180830381858888f193505050501580156114b5573d6000803e3d6000fd5b507f874afcdd5e90b2329b3c1601e613dcdc6abb6deb62ce61339a8337b48c053e51828260000160019054906101000a900473ffffffffffffffffffffffffffffffffffffffff1660405161150b929190612f05565b60405180910390a150600160008190555050565b600060056000838152602001908152602001600020905060016003811115611570577f4e487b7100000000000000000000000000000000000000000000000000000000600052602160045260246000fd5b8160000160009054906101000a900460ff1660038111156115ba577f4e487b7100000000000000000000000000000000000000000000000000000000600052602160045260246000fd5b146115fa576040517f08c379a00000000000000000000000000000000000000000000000000000000081526004016115f190612d6f565b60405180910390fd5b80600301543414611640576040517f08c379a000000000000000000000000000000000000000000000000000000000815260040161163790612d4f565b60405180910390fd5b80600601544210611686576040517f08c379a000000000000000000000000000000000000000000000000000000000815260040161167d90612e4f565b60405180910390fd5b80600501600081548092919061169b90613129565b91905055505050565b600060056000838152602001908152602001600020604051806101400160405290816000820160009054906101000a900460ff166003811115611710577f4e487b7100000000000000000000000000000000000000000000000000000000600052602160045260246000fd5b6003811115611748577f4e487b7100000000000000000000000000000000000000000000000000000000600052602160045260246000fd5b81526020016000820160019054906101000a900473ffffffffffffffffffffffffffffffffffffffff1673ffffffffffffffffffffffffffffffffffffffff1673ffffffffffffffffffffffffffffffffffffffff1681526020016001820160009054906101000a900473ffffffffffffffffffffffffffffffffffffffff1673ffffffffffffffffffffffffffffffffffffffff1673ffffffffffffffffffffffffffffffffffffffff16815260200160028201548152602001600382015481526020016004820154815260200160058201548152602001600682015481526020016007820160009054906101000a900473ffffffffffffffffffffffffffffffffffffffff1673ffffffffffffffffffffffffffffffffffffffff1673ffffffffffffffffffffffffffffffffffffffff1681526020016008820154815250509050600060038111156118c6577f4e487b7100000000000000000000000000000000000000000000000000000000600052602160045260246000fd5b81600001516003811115611903577f4e487b7100000000000000000000000000000000000000000000000000000000600052602160045260246000fd5b14611943576040517f08c379a000000000000000000000000000000000000000000000000000000000815260040161193a90612e6f565b60405180910390fd5b3373ffffffffffffffffffffffffffffffffffffffff16816020015173ffffffffffffffffffffffffffffffffffffffff16146119b5576040517f08c379a00000000000000000000000000000000000000000000000000000000081526004016119ac90612d0f565b60405180910390fd5b600062093a808260a00151426119cb9190613088565b6119d59190613057565b9050808260c0015110806119ec5750428260e00151115b611a2b576040517f08c379a0000000000000000000000000000000000000000000000000000000008152600401611a2290612d2f565b60405180910390fd5b505050565b6000600560008381526020019081526020016000209050611a50826116a4565b60038160000160006101000a81548160ff02191690836003811115611a9e577f4e487b7100000000000000000000000000000000000000000000000000000000600052602160045260246000fd5b02179055508060000160019054906101000a900473ffffffffffffffffffffffffffffffffffffffff1673ffffffffffffffffffffffffffffffffffffffff166108fc82600201549081150290604051600060405180830381858888f19350505050158015611b11573d6000803e3d6000fd5b5060056000838152602001908152602001600020600080820160006101000a81549060ff02191690556000820160016101000a81549073ffffffffffffffffffffffffffffffffffffffff02191690556001820160006101000a81549073ffffffffffffffffffffffffffffffffffffffff0219169055600282016000905560038201600090556004820160009055600582016000905560068201600090556007820160006101000a81549073ffffffffffffffffffffffffffffffffffffffff0219169055600882016000905550505050565b60026000541415611c2b576040517f08c379a0000000000000000000000000000000000000000000000000000000008152600401611c2290612eaf565b60405180910390fd5b60026000819055508473ffffffffffffffffffffffffffffffffffffffff1663e985e9c533306040518363ffffffff1660e01b8152600401611c6e929190612c14565b60206040518083038186803b158015611c8657600080fd5b505afa158015611c9a573d6000803e3d6000fd5b505050506040513d601f19601f82011682018060405250810190611cbe919061288a565b611cfd576040517f08c379a0000000000000000000000000000000000000000000000000000000008152600401611cf490612c8f565b60405180910390fd5b600154341015611d42576040517f08c379a0000000000000000000000000000000000000000000000000000000008152600401611d3990612cef565b60405180910390fd5b600060405180610140016040528060006003811115611d8a577f4e487b7100000000000000000000000000000000000000000000000000000000600052602160045260246000fd5b81526020013373ffffffffffffffffffffffffffffffffffffffff168152602001600073ffffffffffffffffffffffffffffffffffffffff16815260200185815260200184815260200160008152602001600081526020018381526020018773ffffffffffffffffffffffffffffffffffffffff168152602001868152506005600060046000815480929190611e1f90613129565b91905055815260200190815260200160002060008201518160000160006101000a81548160ff02191690836003811115611e82577f4e487b7100000000000000000000000000000000000000000000000000000000600052602160045260246000fd5b021790555060208201518160000160016101000a81548173ffffffffffffffffffffffffffffffffffffffff021916908373ffffffffffffffffffffffffffffffffffffffff16021790555060408201518160010160006101000a81548173ffffffffffffffffffffffffffffffffffffffff021916908373ffffffffffffffffffffffffffffffffffffffff160217905550606082015181600201556080820151816003015560a0820151816004015560c0820151816005015560e082015181600601556101008201518160070160006101000a81548173ffffffffffffffffffffffffffffffffffffffff021916908373ffffffffffffffffffffffffffffffffffffffff16021790555061012082015181600801559050604051806101400160405290816000820160009054906101000a900460ff166003811115611ff3577f4e487b7100000000000000000000000000000000000000000000000000000000600052602160045260246000fd5b600381111561202b577f4e487b7100000000000000000000000000000000000000000000000000000000600052602160045260246000fd5b81526020016000820160019054906101000a900473ffffffffffffffffffffffffffffffffffffffff1673ffffffffffffffffffffffffffffffffffffffff1673ffffffffffffffffffffffffffffffffffffffff1681526020016001820160009054906101000a900473ffffffffffffffffffffffffffffffffffffffff1673ffffffffffffffffffffffffffffffffffffffff1673ffffffffffffffffffffffffffffffffffffffff16815260200160028201548152602001600382015481526020016004820154815260200160058201548152602001600682015481526020016007820160009054906101000a900473ffffffffffffffffffffffffffffffffffffffff1673ffffffffffffffffffffffffffffffffffffffff1673ffffffffffffffffffffffffffffffffffffffff168152602001600882015481525050905080600560006004600081548092919061218790613129565b91905055815260200190815260200160002060008201518160000160006101000a81548160ff021916908360038111156121ea577f4e487b7100000000000000000000000000000000000000000000000000000000600052602160045260246000fd5b021790555060208201518160000160016101000a81548173ffffffffffffffffffffffffffffffffffffffff021916908373ffffffffffffffffffffffffffffffffffffffff16021790555060408201518160010160006101000a81548173ffffffffffffffffffffffffffffffffffffffff021916908373ffffffffffffffffffffffffffffffffffffffff160217905550606082015181600201556080820151816003015560a0820151816004015560c0820151816005015560e082015181600601556101008201518160070160006101000a81548173ffffffffffffffffffffffffffffffffffffffff021916908373ffffffffffffffffffffffffffffffffffffffff16021790555061012082015181600801559050507f32e08351149249c094252d308bf6dee229d75fc098065a02ec0c005da752427860016004546123359190613088565b33888888888860405161234e9796959493929190612f81565b60405180910390a15060016000819055505050505050565b600080600360008481526020019081526020016000206040518060a00160405290816000820160009054906101000a900460ff1660028111156123d2577f4e487b7100000000000000000000000000000000000000000000000000000000600052602160045260246000fd5b600281111561240a577f4e487b7100000000000000000000000000000000000000000000000000000000600052602160045260246000fd5b81526020016000820160019054906101000a900473ffffffffffffffffffffffffffffffffffffffff1673ffffffffffffffffffffffffffffffffffffffff1673ffffffffffffffffffffffffffffffffffffffff168152602001600182015481526020016002820160009054906101000a900473ffffffffffffffffffffffffffffffffffffffff1673ffffffffffffffffffffffffffffffffffffffff1673ffffffffffffffffffffffffffffffffffffffff1681526020016003820154815250509050600081606001519050816020015173ffffffffffffffffffffffffffffffffffffffff168173ffffffffffffffffffffffffffffffffffffffff16636352211e866040518263ffffffff1660e01b815260040161252d9190612eea565b60206040518083038186803b15801561254557600080fd5b505afa158015612559573d6000803e3d6000fd5b505050506040513d601f19601f8201168201806040525081019061257d919061279b565b73ffffffffffffffffffffffffffffffffffffffff1614801561262b57508073ffffffffffffffffffffffffffffffffffffffff1663e985e9c58360200151306040518363ffffffff1660e01b81526004016125da929190612c14565b60206040518083038186803b1580156125f257600080fd5b505afa158015612606573d6000803e3d6000fd5b505050506040513d601f19601f8201168201806040525081019061262a919061288a565b5b80156126ab57506000600281111561266c577f4e487b7100000000000000000000000000000000000000000000000000000000600052602160045260246000fd5b826000015160028111156126a9577f4e487b7100000000000000000000000000000000000000000000000000000000600052602160045260246000fd5b145b92505050919050565b6040518060a00160405280600060028111156126f9577f4e487b7100000000000000000000000000000000000000000000000000000000600052602160045260246000fd5b8152602001600073ffffffffffffffffffffffffffffffffffffffff16815260200160008152602001600073ffffffffffffffffffffffffffffffffffffffff168152602001600081525090565b6000813590506127568161351b565b92915050565b60008151905061276b8161351b565b92915050565b60008151905061278081613532565b92915050565b60008135905061279581613549565b92915050565b6000602082840312156127ad57600080fd5b60006127bb8482850161275c565b91505092915050565b6000806000606084860312156127d957600080fd5b60006127e786828701612747565b93505060206127f886828701612786565b925050604061280986828701612786565b9150509250925092565b600080600080600060a0868803121561282b57600080fd5b600061283988828901612747565b955050602061284a88828901612786565b945050604061285b88828901612786565b935050606061286c88828901612786565b925050608061287d88828901612786565b9150509295509295909350565b60006020828403121561289c57600080fd5b60006128aa84828501612771565b91505092915050565b6000602082840312156128c557600080fd5b60006128d384828501612786565b91505092915050565b6128e5816130bc565b82525050565b6128f4816130bc565b82525050565b612903816130ce565b82525050565b61291281613117565b82525050565b6000612925601183612ff0565b9150612930826131ff565b602082019050919050565b6000612948601683612ff0565b915061295382613228565b602082019050919050565b600061296b601e83612ff0565b915061297682613251565b602082019050919050565b600061298e600683612ff0565b91506129998261327a565b602082019050919050565b60006129b1600983612ff0565b91506129bc826132a3565b602082019050919050565b60006129d4603983612ff0565b91506129df826132cc565b604082019050919050565b60006129f7600783612ff0565b9150612a028261331b565b602082019050919050565b6000612a1a601183612ff0565b9150612a2582613344565b602082019050919050565b6000612a3d600b83612ff0565b9150612a488261336d565b602082019050919050565b6000612a60601583612ff0565b9150612a6b82613396565b602082019050919050565b6000612a83601483612ff0565b9150612a8e826133bf565b602082019050919050565b6000612aa6600b83612ff0565b9150612ab1826133e8565b602082019050919050565b6000612ac9600a83612ff0565b9150612ad482613411565b602082019050919050565b6000612aec600983612ff0565b9150612af78261343a565b602082019050919050565b6000612b0f601083612ff0565b9150612b1a82613463565b602082019050919050565b6000612b32601283612ff0565b9150612b3d8261348c565b602082019050919050565b6000612b55601b83612ff0565b9150612b60826134b5565b602082019050919050565b6000612b78601f83612ff0565b9150612b83826134de565b602082019050919050565b60a082016000820151612ba46000850182612909565b506020820151612bb760208501826128dc565b506040820151612bca6040850182612bf6565b506060820151612bdd60608501826128dc565b506080820151612bf06080850182612bf6565b50505050565b612bff8161310d565b82525050565b612c0e8161310d565b82525050565b6000604082019050612c2960008301856128eb565b612c3660208301846128eb565b9392505050565b6000606082019050612c5260008301866128eb565b612c5f60208301856128eb565b612c6c6040830184612c05565b949350505050565b6000602082019050612c8960008301846128fa565b92915050565b60006020820190508181036000830152612ca881612918565b9050919050565b60006020820190508181036000830152612cc88161293b565b9050919050565b60006020820190508181036000830152612ce88161295e565b9050919050565b60006020820190508181036000830152612d0881612981565b9050919050565b60006020820190508181036000830152612d28816129a4565b9050919050565b60006020820190508181036000830152612d48816129c7565b9050919050565b60006020820190508181036000830152612d68816129ea565b9050919050565b60006020820190508181036000830152612d8881612a0d565b9050919050565b60006020820190508181036000830152612da881612a30565b9050919050565b60006020820190508181036000830152612dc881612a53565b9050919050565b60006020820190508181036000830152612de881612a76565b9050919050565b60006020820190508181036000830152612e0881612a99565b9050919050565b60006020820190508181036000830152612e2881612abc565b9050919050565b60006020820190508181036000830152612e4881612adf565b9050919050565b60006020820190508181036000830152612e6881612b02565b9050919050565b60006020820190508181036000830152612e8881612b25565b9050919050565b60006020820190508181036000830152612ea881612b48565b9050919050565b60006020820190508181036000830152612ec881612b6b565b9050919050565b600060a082019050612ee46000830184612b8e565b92915050565b6000602082019050612eff6000830184612c05565b92915050565b6000604082019050612f1a6000830185612c05565b612f2760208301846128eb565b9392505050565b600060a082019050612f436000830188612c05565b612f5060208301876128eb565b612f5d60408301866128eb565b612f6a6060830185612c05565b612f776080830184612c05565b9695505050505050565b600060e082019050612f96600083018a612c05565b612fa360208301896128eb565b612fb060408301886128eb565b612fbd6060830187612c05565b612fca6080830186612c05565b612fd760a0830185612c05565b612fe460c0830184612c05565b98975050505050505050565b600082825260208201905092915050565b600061300c8261310d565b91506130178361310d565b9250827fffffffffffffffffffffffffffffffffffffffffffffffffffffffffffffffff0382111561304c5761304b613172565b5b828201905092915050565b60006130628261310d565b915061306d8361310d565b92508261307d5761307c6131a1565b5b828204905092915050565b60006130938261310d565b915061309e8361310d565b9250828210156130b1576130b0613172565b5b828203905092915050565b60006130c7826130ed565b9050919050565b60008115159050919050565b60008190506130e882613507565b919050565b600073ffffffffffffffffffffffffffffffffffffffff82169050919050565b6000819050919050565b6000613122826130da565b9050919050565b60006131348261310d565b91507fffffffffffffffffffffffffffffffffffffffffffffffffffffffffffffffff82141561316757613166613172565b5b600182019050919050565b7f4e487b7100000000000000000000000000000000000000000000000000000000600052601160045260246000fd5b7f4e487b7100000000000000000000000000000000000000000000000000000000600052601260045260246000fd5b7f4e487b7100000000000000000000000000000000000000000000000000000000600052602160045260246000fd5b7f616c6c6f77616e6365206e6f7420736574000000000000000000000000000000600082015250565b7f53656c6c65722063616e6e6f7420626520627579657200000000000000000000600082015250565b7f4f6e6c792073656c6c65722063616e2063616e63656c206c697374696e670000600082015250565b7f6269644665650000000000000000000000000000000000000000000000000000600082015250565b7f6e6f74206d616b65720000000000000000000000000000000000000000000000600082015250565b7f7072656d69756d732068617665206265656e207061696420616e64206465616460008201527f6c696e652069732079657420746f206265207265616368656400000000000000602082015250565b7f7072656d69756d00000000000000000000000000000000000000000000000000600082015250565b7f73746174757320213d207374616b696e67000000000000000000000000000000600082015250565b7f6e6f742062757961626c65000000000000000000000000000000000000000000600082015250565b7f4c697374696e67206973206e6f74206163746976650000000000000000000000600082015250565b7f496e73756666696369656e74207061796d656e74000000000000000000000000600082015250565b7f21636f6c6c61746572616c000000000000000000000000000000000000000000600082015250565b7f21616c6c6f77616e636500000000000000000000000000000000000000000000600082015250565b7f6e6f742074616b65720000000000000000000000000000000000000000000000600082015250565b7f646561646c696e65207265616368656400000000000000000000000000000000600082015250565b7f6e6f6e2d616374697665207374616b696e670000000000000000000000000000600082015250565b7f7072656d69756d732068617665206e6f74206265656e20706169640000000000600082015250565b7f5265656e7472616e637947756172643a207265656e7472616e742063616c6c00600082015250565b60038110613518576135176131d0565b5b50565b613524816130bc565b811461352f57600080fd5b50565b61353b816130ce565b811461354657600080fd5b50565b6135528161310d565b811461355d57600080fd5b5056fea264697066735822122064cb3dd88cd84aa03a611ef13e3a5e63f98040cc7376d01c0bf915ef87fd292a64736f6c63430008040033",
  "linkReferences": {},
  "deployedLinkReferences": {}
}