{
  "_format": "hh-sol-artifact-1",
  "contractName": "Marketplace",
  "sourceName": "contracts/Marketplace.sol",
  "abi": [
    {
      "inputs": [
        {
          "internalType": "address",
          "name": "_platform",
          "type": "address"
        },
        {
          "internalType": "uint256",
          "name": "_minBidFee",
          "type": "uint256"
        }
      ],
      "stateMutability": "nonpayable",
      "type": "constructor"
    },
    {
      "anonymous": false,
      "inputs": [
        {
          "indexed": false,
          "internalType": "uint256",
          "name": "listingId",
          "type": "uint256"
        },
        {
          "indexed": false,
          "internalType": "address",
          "name": "seller",
          "type": "address"
        }
      ],
      "name": "CancelBid",
      "type": "event"
    },
    {
      "anonymous": false,
      "inputs": [
        {
          "indexed": false,
          "internalType": "uint256",
          "name": "rentalId",
          "type": "uint256"
        }
      ],
      "name": "FinishRentalForCollateral",
      "type": "event"
    },
    {
      "anonymous": false,
      "inputs": [
        {
          "indexed": false,
          "internalType": "uint256",
          "name": "rentalId",
          "type": "uint256"
        }
      ],
      "name": "FinishRentalForNFT",
      "type": "event"
    },
    {
      "anonymous": false,
      "inputs": [
        {
          "indexed": false,
          "internalType": "uint256",
          "name": "listingId",
          "type": "uint256"
        },
        {
          "indexed": false,
          "internalType": "address",
          "name": "seller",
          "type": "address"
        },
        {
          "indexed": false,
          "internalType": "address",
          "name": "token",
          "type": "address"
        },
        {
          "indexed": false,
          "internalType": "uint256",
          "name": "tokenId",
          "type": "uint256"
        },
        {
          "indexed": false,
          "internalType": "uint256",
          "name": "price",
          "type": "uint256"
        }
      ],
      "name": "Listed",
      "type": "event"
    },
    {
      "anonymous": false,
      "inputs": [
        {
          "indexed": false,
          "internalType": "uint256",
          "name": "stakingId",
          "type": "uint256"
        },
        {
          "indexed": false,
          "internalType": "address",
          "name": "maker",
          "type": "address"
        },
        {
          "indexed": false,
          "internalType": "address",
          "name": "token",
          "type": "address"
        },
        {
          "indexed": false,
          "internalType": "uint256",
          "name": "tokenId",
          "type": "uint256"
        },
        {
          "indexed": false,
          "internalType": "uint256",
          "name": "collateral",
          "type": "uint256"
        },
        {
          "indexed": false,
          "internalType": "uint256",
          "name": "premium",
          "type": "uint256"
        },
        {
          "indexed": false,
          "internalType": "uint256",
          "name": "deadline",
          "type": "uint256"
        }
      ],
      "name": "QuotedForStaking",
      "type": "event"
    },
    {
      "anonymous": false,
      "inputs": [
        {
          "indexed": false,
          "internalType": "uint256",
          "name": "rentalId",
          "type": "uint256"
        },
        {
          "indexed": false,
          "internalType": "address",
          "name": "taker",
          "type": "address"
        }
      ],
      "name": "Rental",
      "type": "event"
    },
    {
      "anonymous": false,
      "inputs": [
        {
          "indexed": false,
          "internalType": "uint256",
          "name": "listingId",
          "type": "uint256"
        },
        {
          "indexed": false,
          "internalType": "address",
          "name": "buyer",
          "type": "address"
        },
        {
          "indexed": false,
          "internalType": "address",
          "name": "token",
          "type": "address"
        },
        {
          "indexed": false,
          "internalType": "uint256",
          "name": "tokenId",
          "type": "uint256"
        },
        {
          "indexed": false,
          "internalType": "uint256",
          "name": "price",
          "type": "uint256"
        }
      ],
      "name": "Sale",
      "type": "event"
    },
    {
      "inputs": [
        {
          "internalType": "uint256",
          "name": "",
          "type": "uint256"
        }
      ],
      "name": "_listings",
      "outputs": [
        {
          "internalType": "enum Marketplace.ListingStatus",
          "name": "status",
          "type": "uint8"
        },
        {
          "internalType": "address",
          "name": "seller",
          "type": "address"
        },
        {
          "internalType": "uint256",
          "name": "price",
          "type": "uint256"
        },
        {
          "internalType": "address",
          "name": "token",
          "type": "address"
        },
        {
          "internalType": "uint256",
          "name": "tokenId",
          "type": "uint256"
        }
      ],
      "stateMutability": "view",
      "type": "function"
    },
    {
      "inputs": [],
      "name": "_listingsLastIndex",
      "outputs": [
        {
          "internalType": "uint256",
          "name": "",
          "type": "uint256"
        }
      ],
      "stateMutability": "view",
      "type": "function"
    },
    {
      "inputs": [
        {
          "internalType": "uint256",
          "name": "",
          "type": "uint256"
        }
      ],
      "name": "_stakings",
      "outputs": [
        {
          "internalType": "enum Marketplace.StakeStatus",
          "name": "status",
          "type": "uint8"
        },
        {
          "internalType": "address",
          "name": "maker",
          "type": "address"
        },
        {
          "internalType": "address",
          "name": "taker",
          "type": "address"
        },
        {
          "internalType": "uint256",
          "name": "collateral",
          "type": "uint256"
        },
        {
          "internalType": "uint256",
          "name": "premium",
          "type": "uint256"
        },
        {
          "internalType": "uint256",
          "name": "startRentalUTC",
          "type": "uint256"
        },
        {
          "internalType": "uint256",
          "name": "paymentsAmount",
          "type": "uint256"
        },
        {
          "internalType": "uint256",
          "name": "deadline",
          "type": "uint256"
        },
        {
          "internalType": "address",
          "name": "token",
          "type": "address"
        },
        {
          "internalType": "uint256",
          "name": "tokenId",
          "type": "uint256"
        }
      ],
      "stateMutability": "view",
      "type": "function"
    },
    {
      "inputs": [],
      "name": "_stakingsLastIndex",
      "outputs": [
        {
          "internalType": "uint256",
          "name": "",
          "type": "uint256"
        }
      ],
      "stateMutability": "view",
      "type": "function"
    },
    {
      "inputs": [
        {
          "internalType": "address",
          "name": "tokenContract",
          "type": "address"
        },
        {
          "internalType": "uint256",
          "name": "tokenId",
          "type": "uint256"
        },
        {
          "internalType": "uint256",
          "name": "priceWei",
          "type": "uint256"
        }
      ],
      "name": "bid",
      "outputs": [],
      "stateMutability": "payable",
      "type": "function"
    },
    {
      "inputs": [
        {
          "internalType": "uint256",
          "name": "listingId",
          "type": "uint256"
        }
      ],
      "name": "buyToken",
      "outputs": [],
      "stateMutability": "payable",
      "type": "function"
    },
    {
      "inputs": [
        {
          "internalType": "uint256",
          "name": "price",
          "type": "uint256"
        }
      ],
      "name": "calculateFee",
      "outputs": [
        {
          "internalType": "uint256",
          "name": "",
          "type": "uint256"
        }
      ],
      "stateMutability": "view",
      "type": "function"
    },
    {
      "inputs": [
        {
          "internalType": "uint256",
          "name": "listingId",
          "type": "uint256"
        }
      ],
      "name": "cancel",
      "outputs": [],
      "stateMutability": "nonpayable",
      "type": "function"
    },
    {
      "inputs": [
        {
          "internalType": "uint256",
          "name": "stakingId",
          "type": "uint256"
        }
      ],
      "name": "claimCollateral",
      "outputs": [],
      "stateMutability": "nonpayable",
      "type": "function"
    },
    {
      "inputs": [
        {
          "internalType": "uint256",
          "name": "listingId",
          "type": "uint256"
        }
      ],
      "name": "getListing",
      "outputs": [
        {
          "components": [
            {
              "internalType": "enum Marketplace.ListingStatus",
              "name": "status",
              "type": "uint8"
            },
            {
              "internalType": "address",
              "name": "seller",
              "type": "address"
            },
            {
              "internalType": "uint256",
              "name": "price",
              "type": "uint256"
            },
            {
              "internalType": "address",
              "name": "token",
              "type": "address"
            },
            {
              "internalType": "uint256",
              "name": "tokenId",
              "type": "uint256"
            }
          ],
          "internalType": "struct Marketplace.Listing",
          "name": "",
          "type": "tuple"
        }
      ],
      "stateMutability": "view",
      "type": "function"
    },
    {
      "inputs": [
        {
          "internalType": "uint256",
          "name": "listingId",
          "type": "uint256"
        }
      ],
      "name": "isBuyable",
      "outputs": [
        {
          "internalType": "bool",
          "name": "",
          "type": "bool"
        }
      ],
      "stateMutability": "view",
      "type": "function"
    },
    {
      "inputs": [
        {
          "internalType": "uint256",
          "name": "stakingId",
          "type": "uint256"
        }
      ],
      "name": "isCollateralClaimable",
      "outputs": [],
      "stateMutability": "view",
      "type": "function"
    },
    {
      "inputs": [],
      "name": "minBidFee",
      "outputs": [
        {
          "internalType": "uint256",
          "name": "",
          "type": "uint256"
        }
      ],
      "stateMutability": "view",
      "type": "function"
    },
    {
      "inputs": [
        {
          "internalType": "uint256",
          "name": "stakingId",
          "type": "uint256"
        }
      ],
      "name": "payPremium",
      "outputs": [],
      "stateMutability": "payable",
      "type": "function"
    },
    {
      "inputs": [],
      "name": "platform",
      "outputs": [
        {
          "internalType": "address",
          "name": "",
          "type": "address"
        }
      ],
      "stateMutability": "view",
      "type": "function"
    },
    {
      "inputs": [
        {
          "internalType": "address",
          "name": "tokenContract",
          "type": "address"
        },
        {
          "internalType": "uint256",
          "name": "tokenId",
          "type": "uint256"
        },
        {
          "internalType": "uint256",
          "name": "collateralWei",
          "type": "uint256"
        },
        {
          "internalType": "uint256",
          "name": "premiumWei",
          "type": "uint256"
        },
        {
          "internalType": "uint256",
          "name": "deadlineUTC",
          "type": "uint256"
        }
      ],
      "name": "quoteForStaking",
      "outputs": [],
      "stateMutability": "payable",
      "type": "function"
    },
    {
      "inputs": [
        {
          "internalType": "uint256",
          "name": "stakingId",
          "type": "uint256"
        }
      ],
      "name": "rentNFT",
      "outputs": [],
      "stateMutability": "payable",
      "type": "function"
    },
    {
      "inputs": [
        {
          "internalType": "uint256",
          "name": "stakingId",
          "type": "uint256"
        }
      ],
      "name": "stopRental",
      "outputs": [],
      "stateMutability": "nonpayable",
      "type": "function"
    }
  ],
  "bytecode": "0x60a06040523480156200001157600080fd5b5060405162003e3c38038062003e3c8339818101604052810190620000379190620000b3565b60016000819055508173ffffffffffffffffffffffffffffffffffffffff1660808173ffffffffffffffffffffffffffffffffffffffff1660601b8152505080600181905550505062000166565b600081519050620000968162000132565b92915050565b600081519050620000ad816200014c565b92915050565b60008060408385031215620000c757600080fd5b6000620000d78582860162000085565b9250506020620000ea858286016200009c565b9150509250929050565b6000620001018262000108565b9050919050565b600073ffffffffffffffffffffffffffffffffffffffff82169050919050565b6000819050919050565b6200013d81620000f4565b81146200014957600080fd5b50565b620001578162000128565b81146200016357600080fd5b50565b60805160601c613cb76200018560003960006119a00152613cb76000f3fe6080604052600436106101095760003560e01c806399a5d74711610095578063d78a75ad11610064578063d78a75ad14610329578063df76dbc914610354578063e324466414610395578063e42fd785146103c0578063e738c7c8146103eb57610109565b806399a5d7471461027e578063b6e96f4c146102bb578063c49785b4146102e4578063c893c6591461030d57610109565b8063156ecc3d116100dc578063156ecc3d146101c95780632d296bf1146101f257806340e58ee51461020e5780634364b26e146102375780634bde38c81461025357610109565b80630ae3f1091461010e5780630f41ba4b14610154578063107a274a1461017057806314364f1d146101ad575b600080fd5b34801561011a57600080fd5b5061013560048036038101906101309190612dad565b610428565b60405161014b9a9998979695949392919061324e565b60405180910390f35b61016e60048036038101906101699190612cbe565b6104e9565b005b34801561017c57600080fd5b5061019760048036038101906101929190612dad565b61089c565b6040516101a49190613568565b60405180910390f35b6101c760048036038101906101c29190612dad565b610a10565b005b3480156101d557600080fd5b506101f060048036038101906101eb9190612dad565b610cf7565b005b61020c60048036038101906102079190612dad565b611198565b005b34801561021a57600080fd5b5061023560048036038101906102309190612dad565b611519565b005b610251600480360381019061024c9190612dad565b611819565b005b34801561025f57600080fd5b5061026861199e565b6040516102759190613165565b60405180910390f35b34801561028a57600080fd5b506102a560048036038101906102a09190612dad565b6119c2565b6040516102b29190613583565b60405180910390f35b3480156102c757600080fd5b506102e260048036038101906102dd9190612dad565b6119f5565b005b3480156102f057600080fd5b5061030b60048036038101906103069190612dad565b611d81565b005b61032760048036038101906103229190612d0d565b611f36565b005b34801561033557600080fd5b5061033e612703565b60405161034b9190613583565b60405180910390f35b34801561036057600080fd5b5061037b60048036038101906103769190612dad565b612709565b60405161038c9594939291906131fb565b60405180910390f35b3480156103a157600080fd5b506103aa61278c565b6040516103b79190613583565b60405180910390f35b3480156103cc57600080fd5b506103d5612792565b6040516103e29190613583565b60405180910390f35b3480156103f757600080fd5b50610412600480360381019061040d9190612dad565b612798565b60405161041f91906131e0565b60405180910390f35b60056020528060005260406000206000915090508060000160009054906101000a900460ff16908060000160019054906101000a900473ffffffffffffffffffffffffffffffffffffffff16908060010160009054906101000a900473ffffffffffffffffffffffffffffffffffffffff16908060020154908060030154908060040154908060050154908060060154908060070160009054906101000a900473ffffffffffffffffffffffffffffffffffffffff1690806008015490508a565b6002600054141561052f576040517f08c379a000000000000000000000000000000000000000000000000000000000815260040161052690613548565b60405180910390fd5b60026000819055508273ffffffffffffffffffffffffffffffffffffffff1663e985e9c533306040518363ffffffff1660e01b8152600401610572929190613180565b60206040518083038186803b15801561058a57600080fd5b505afa15801561059e573d6000803e3d6000fd5b505050506040513d601f19601f820116820180604052508101906105c29190612d84565b610601576040517f08c379a00000000000000000000000000000000000000000000000000000000081526004016105f890613488565b60405180910390fd5b600061060c826119c2565b905061064e6040518060400160405280601681526020017f626964206665653a2025732c2076616c75653a202573000000000000000000008152508234612ae6565b80341015610691576040517f08c379a0000000000000000000000000000000000000000000000000000000008152600401610688906134c8565b60405180910390fd5b6040518060a00160405280600060028111156106d6577f4e487b7100000000000000000000000000000000000000000000000000000000600052602160045260246000fd5b81526020013373ffffffffffffffffffffffffffffffffffffffff1681526020018381526020018573ffffffffffffffffffffffffffffffffffffffff16815260200184815250600360006002600081548092919061073490613825565b91905055815260200190815260200160002060008201518160000160006101000a81548160ff02191690836002811115610797577f4e487b7100000000000000000000000000000000000000000000000000000000600052602160045260246000fd5b021790555060208201518160000160016101000a81548173ffffffffffffffffffffffffffffffffffffffff021916908373ffffffffffffffffffffffffffffffffffffffff1602179055506040820151816001015560608201518160020160006101000a81548173ffffffffffffffffffffffffffffffffffffffff021916908373ffffffffffffffffffffffffffffffffffffffff160217905550608082015181600301559050507f723f73331eaee88eec7fc68ef60ab6ed15e4b90d0472b55eb92fa43910bab6dd6001600254610871919061372c565b338686866040516108869594939291906135c7565b60405180910390a1506001600081905550505050565b6108a4612bae565b600360008381526020019081526020016000206040518060a00160405290816000820160009054906101000a900460ff16600281111561090d577f4e487b7100000000000000000000000000000000000000000000000000000000600052602160045260246000fd5b6002811115610945577f4e487b7100000000000000000000000000000000000000000000000000000000600052602160045260246000fd5b81526020016000820160019054906101000a900473ffffffffffffffffffffffffffffffffffffffff1673ffffffffffffffffffffffffffffffffffffffff1673ffffffffffffffffffffffffffffffffffffffff168152602001600182015481526020016002820160009054906101000a900473ffffffffffffffffffffffffffffffffffffffff1673ffffffffffffffffffffffffffffffffffffffff1673ffffffffffffffffffffffffffffffffffffffff1681526020016003820154815250509050919050565b60006005600083815260200190815260200160002090508060070160009054906101000a900473ffffffffffffffffffffffffffffffffffffffff1673ffffffffffffffffffffffffffffffffffffffff1663e985e9c533306040518363ffffffff1660e01b8152600401610a86929190613180565b60206040518083038186803b158015610a9e57600080fd5b505afa158015610ab2573d6000803e3d6000fd5b505050506040513d601f19601f82011682018060405250810190610ad69190612d84565b610b15576040517f08c379a0000000000000000000000000000000000000000000000000000000008152600401610b0c90613488565b60405180910390fd5b80600301548160020154610b2991906136a5565b341015610b6b576040517f08c379a0000000000000000000000000000000000000000000000000000000008152600401610b6290613468565b60405180910390fd5b428160040181905550338160010160006101000a81548173ffffffffffffffffffffffffffffffffffffffff021916908373ffffffffffffffffffffffffffffffffffffffff16021790555060018160000160006101000a81548160ff02191690836003811115610c05577f4e487b7100000000000000000000000000000000000000000000000000000000600052602160045260246000fd5b0217905550600181600501819055508060070160009054906101000a900473ffffffffffffffffffffffffffffffffffffffff1673ffffffffffffffffffffffffffffffffffffffff166342842e0e8260000160019054906101000a900473ffffffffffffffffffffffffffffffffffffffff168360010160009054906101000a900473ffffffffffffffffffffffffffffffffffffffff1684600801546040518463ffffffff1660e01b8152600401610cc1939291906131a9565b600060405180830381600087803b158015610cdb57600080fd5b505af1158015610cef573d6000803e3d6000fd5b505050505050565b60026000541415610d3d576040517f08c379a0000000000000000000000000000000000000000000000000000000008152600401610d3490613548565b60405180910390fd5b6002600081905550600060056000838152602001908152602001600020905060006003811115610d96577f4e487b7100000000000000000000000000000000000000000000000000000000600052602160045260246000fd5b8160000160009054906101000a900460ff166003811115610de0577f4e487b7100000000000000000000000000000000000000000000000000000000600052602160045260246000fd5b14610e20576040517f08c379a0000000000000000000000000000000000000000000000000000000008152600401610e1790613508565b60405180910390fd5b3373ffffffffffffffffffffffffffffffffffffffff168160010160009054906101000a900473ffffffffffffffffffffffffffffffffffffffff1673ffffffffffffffffffffffffffffffffffffffff1614610eb2576040517f08c379a0000000000000000000000000000000000000000000000000000000008152600401610ea9906134a8565b60405180910390fd5b600062093a80826004015442610ec8919061372c565b610ed291906136fb565b90508082600501541015610f1b576040517f08c379a0000000000000000000000000000000000000000000000000000000008152600401610f1290613528565b60405180910390fd5b60028260000160006101000a81548160ff02191690836003811115610f69577f4e487b7100000000000000000000000000000000000000000000000000000000600052602160045260246000fd5b02179055508160070160009054906101000a900473ffffffffffffffffffffffffffffffffffffffff1673ffffffffffffffffffffffffffffffffffffffff166342842e0e8360010160009054906101000a900473ffffffffffffffffffffffffffffffffffffffff168460000160019054906101000a900473ffffffffffffffffffffffffffffffffffffffff1685600801546040518463ffffffff1660e01b815260040161101b939291906131a9565b600060405180830381600087803b15801561103557600080fd5b505af1158015611049573d6000803e3d6000fd5b505050508160010160009054906101000a900473ffffffffffffffffffffffffffffffffffffffff1673ffffffffffffffffffffffffffffffffffffffff166108fc83600201549081150290604051600060405180830381858888f193505050501580156110bb573d6000803e3d6000fd5b5060056000848152602001908152602001600020600080820160006101000a81549060ff02191690556000820160016101000a81549073ffffffffffffffffffffffffffffffffffffffff02191690556001820160006101000a81549073ffffffffffffffffffffffffffffffffffffffff0219169055600282016000905560038201600090556004820160009055600582016000905560068201600090556007820160006101000a81549073ffffffffffffffffffffffffffffffffffffffff0219169055600882016000905550505050600160008190555050565b600260005414156111de576040517f08c379a00000000000000000000000000000000000000000000000000000000081526004016111d590613548565b60405180910390fd5b6002600081905550600060036000838152602001908152602001600020905060008160020160009054906101000a900473ffffffffffffffffffffffffffffffffffffffff1690508160000160019054906101000a900473ffffffffffffffffffffffffffffffffffffffff1673ffffffffffffffffffffffffffffffffffffffff163373ffffffffffffffffffffffffffffffffffffffff1614156112b9576040517f08c379a00000000000000000000000000000000000000000000000000000000081526004016112b090613348565b60405180910390fd5b8160010154341015611300576040517f08c379a00000000000000000000000000000000000000000000000000000000081526004016112f790613448565b60405180910390fd5b61130983612798565b611348576040517f08c379a000000000000000000000000000000000000000000000000000000000815260040161133f90613408565b60405180910390fd5b60018260000160006101000a81548160ff02191690836002811115611396577f4e487b7100000000000000000000000000000000000000000000000000000000600052602160045260246000fd5b02179055508073ffffffffffffffffffffffffffffffffffffffff166342842e0e8360000160019054906101000a900473ffffffffffffffffffffffffffffffffffffffff163385600301546040518463ffffffff1660e01b8152600401611400939291906131a9565b600060405180830381600087803b15801561141a57600080fd5b505af115801561142e573d6000803e3d6000fd5b505050508160000160019054906101000a900473ffffffffffffffffffffffffffffffffffffffff1673ffffffffffffffffffffffffffffffffffffffff166108fc83600101549081150290604051600060405180830381858888f193505050501580156114a0573d6000803e3d6000fd5b507ff3debaf22196a6ddf52a60fa71058cd7edf5e25bb98f4e96c994a5d4a9b0dd3e83338460020160009054906101000a900473ffffffffffffffffffffffffffffffffffffffff16856003015486600101546040516115049594939291906135c7565b60405180910390a15050600160008190555050565b6002600054141561155f576040517f08c379a000000000000000000000000000000000000000000000000000000000815260040161155690613548565b60405180910390fd5b600260008190555060006003600083815260200190815260200160002090508060000160019054906101000a900473ffffffffffffffffffffffffffffffffffffffff1673ffffffffffffffffffffffffffffffffffffffff163373ffffffffffffffffffffffffffffffffffffffff1614611610576040517f08c379a000000000000000000000000000000000000000000000000000000000815260040161160790613368565b60405180910390fd5b6000600281111561164a577f4e487b7100000000000000000000000000000000000000000000000000000000600052602160045260246000fd5b8160000160009054906101000a900460ff166002811115611694577f4e487b7100000000000000000000000000000000000000000000000000000000600052602160045260246000fd5b146116d4576040517f08c379a00000000000000000000000000000000000000000000000000000000081526004016116cb90613428565b60405180910390fd5b60028160000160006101000a81548160ff02191690836002811115611722577f4e487b7100000000000000000000000000000000000000000000000000000000600052602160045260246000fd5b0217905550600061173682600101546119c2565b90508160000160019054906101000a900473ffffffffffffffffffffffffffffffffffffffff1673ffffffffffffffffffffffffffffffffffffffff166108fc60028361178391906136fb565b9081150290604051600060405180830381858888f193505050501580156117ae573d6000803e3d6000fd5b507f874afcdd5e90b2329b3c1601e613dcdc6abb6deb62ce61339a8337b48c053e51838360000160019054906101000a900473ffffffffffffffffffffffffffffffffffffffff1660405161180492919061359e565b60405180910390a15050600160008190555050565b60006005600083815260200190815260200160002090506001600381111561186a577f4e487b7100000000000000000000000000000000000000000000000000000000600052602160045260246000fd5b8160000160009054906101000a900460ff1660038111156118b4577f4e487b7100000000000000000000000000000000000000000000000000000000600052602160045260246000fd5b146118f4576040517f08c379a00000000000000000000000000000000000000000000000000000000081526004016118eb906133e8565b60405180910390fd5b8060030154341461193a576040517f08c379a0000000000000000000000000000000000000000000000000000000008152600401611931906133c8565b60405180910390fd5b80600601544210611980576040517f08c379a0000000000000000000000000000000000000000000000000000000008152600401611977906134e8565b60405180910390fd5b80600501600081548092919061199590613825565b91905055505050565b7f000000000000000000000000000000000000000000000000000000000000000081565b600080600a836119d291906136fb565b9050600060015482106119e557816119e9565b6001545b90508092505050919050565b600060056000838152602001908152602001600020604051806101400160405290816000820160009054906101000a900460ff166003811115611a61577f4e487b7100000000000000000000000000000000000000000000000000000000600052602160045260246000fd5b6003811115611a99577f4e487b7100000000000000000000000000000000000000000000000000000000600052602160045260246000fd5b81526020016000820160019054906101000a900473ffffffffffffffffffffffffffffffffffffffff1673ffffffffffffffffffffffffffffffffffffffff1673ffffffffffffffffffffffffffffffffffffffff1681526020016001820160009054906101000a900473ffffffffffffffffffffffffffffffffffffffff1673ffffffffffffffffffffffffffffffffffffffff1673ffffffffffffffffffffffffffffffffffffffff16815260200160028201548152602001600382015481526020016004820154815260200160058201548152602001600682015481526020016007820160009054906101000a900473ffffffffffffffffffffffffffffffffffffffff1673ffffffffffffffffffffffffffffffffffffffff1673ffffffffffffffffffffffffffffffffffffffff168152602001600882015481525050905060006003811115611c17577f4e487b7100000000000000000000000000000000000000000000000000000000600052602160045260246000fd5b81600001516003811115611c54577f4e487b7100000000000000000000000000000000000000000000000000000000600052602160045260246000fd5b14611c94576040517f08c379a0000000000000000000000000000000000000000000000000000000008152600401611c8b90613508565b60405180910390fd5b3373ffffffffffffffffffffffffffffffffffffffff16816020015173ffffffffffffffffffffffffffffffffffffffff1614611d06576040517f08c379a0000000000000000000000000000000000000000000000000000000008152600401611cfd90613388565b60405180910390fd5b600062093a808260a0015142611d1c919061372c565b611d2691906136fb565b9050808260c001511080611d3d5750428260e00151115b611d7c576040517f08c379a0000000000000000000000000000000000000000000000000000000008152600401611d73906133a8565b60405180910390fd5b505050565b6000600560008381526020019081526020016000209050611da1826119f5565b60038160000160006101000a81548160ff02191690836003811115611def577f4e487b7100000000000000000000000000000000000000000000000000000000600052602160045260246000fd5b02179055508060000160019054906101000a900473ffffffffffffffffffffffffffffffffffffffff1673ffffffffffffffffffffffffffffffffffffffff166108fc82600201549081150290604051600060405180830381858888f19350505050158015611e62573d6000803e3d6000fd5b5060056000838152602001908152602001600020600080820160006101000a81549060ff02191690556000820160016101000a81549073ffffffffffffffffffffffffffffffffffffffff02191690556001820160006101000a81549073ffffffffffffffffffffffffffffffffffffffff0219169055600282016000905560038201600090556004820160009055600582016000905560068201600090556007820160006101000a81549073ffffffffffffffffffffffffffffffffffffffff0219169055600882016000905550505050565b60026000541415611f7c576040517f08c379a0000000000000000000000000000000000000000000000000000000008152600401611f7390613548565b60405180910390fd5b60026000819055508473ffffffffffffffffffffffffffffffffffffffff1663e985e9c533306040518363ffffffff1660e01b8152600401611fbf929190613180565b60206040518083038186803b158015611fd757600080fd5b505afa158015611feb573d6000803e3d6000fd5b505050506040513d601f19601f8201168201806040525081019061200f9190612d84565b61204e576040517f08c379a000000000000000000000000000000000000000000000000000000000815260040161204590613328565b60405180910390fd5b6000612059846119c2565b905061209b6040518060400160405280601681526020017f626964206665653a2025732c2076616c75653a202573000000000000000000008152508234612ae6565b803410156120de576040517f08c379a00000000000000000000000000000000000000000000000000000000081526004016120d5906134c8565b60405180910390fd5b600060405180610140016040528060006003811115612126577f4e487b7100000000000000000000000000000000000000000000000000000000600052602160045260246000fd5b81526020013373ffffffffffffffffffffffffffffffffffffffff168152602001600073ffffffffffffffffffffffffffffffffffffffff16815260200186815260200185815260200160008152602001600081526020018481526020018873ffffffffffffffffffffffffffffffffffffffff1681526020018781525060056000600460008154809291906121bb90613825565b91905055815260200190815260200160002060008201518160000160006101000a81548160ff0219169083600381111561221e577f4e487b7100000000000000000000000000000000000000000000000000000000600052602160045260246000fd5b021790555060208201518160000160016101000a81548173ffffffffffffffffffffffffffffffffffffffff021916908373ffffffffffffffffffffffffffffffffffffffff16021790555060408201518160010160006101000a81548173ffffffffffffffffffffffffffffffffffffffff021916908373ffffffffffffffffffffffffffffffffffffffff160217905550606082015181600201556080820151816003015560a0820151816004015560c0820151816005015560e082015181600601556101008201518160070160006101000a81548173ffffffffffffffffffffffffffffffffffffffff021916908373ffffffffffffffffffffffffffffffffffffffff16021790555061012082015181600801559050604051806101400160405290816000820160009054906101000a900460ff16600381111561238f577f4e487b7100000000000000000000000000000000000000000000000000000000600052602160045260246000fd5b60038111156123c7577f4e487b7100000000000000000000000000000000000000000000000000000000600052602160045260246000fd5b81526020016000820160019054906101000a900473ffffffffffffffffffffffffffffffffffffffff1673ffffffffffffffffffffffffffffffffffffffff1673ffffffffffffffffffffffffffffffffffffffff1681526020016001820160009054906101000a900473ffffffffffffffffffffffffffffffffffffffff1673ffffffffffffffffffffffffffffffffffffffff1673ffffffffffffffffffffffffffffffffffffffff16815260200160028201548152602001600382015481526020016004820154815260200160058201548152602001600682015481526020016007820160009054906101000a900473ffffffffffffffffffffffffffffffffffffffff1673ffffffffffffffffffffffffffffffffffffffff1673ffffffffffffffffffffffffffffffffffffffff168152602001600882015481525050905080600560006004600081548092919061252390613825565b91905055815260200190815260200160002060008201518160000160006101000a81548160ff02191690836003811115612586577f4e487b7100000000000000000000000000000000000000000000000000000000600052602160045260246000fd5b021790555060208201518160000160016101000a81548173ffffffffffffffffffffffffffffffffffffffff021916908373ffffffffffffffffffffffffffffffffffffffff16021790555060408201518160010160006101000a81548173ffffffffffffffffffffffffffffffffffffffff021916908373ffffffffffffffffffffffffffffffffffffffff160217905550606082015181600201556080820151816003015560a0820151816004015560c0820151816005015560e082015181600601556101008201518160070160006101000a81548173ffffffffffffffffffffffffffffffffffffffff021916908373ffffffffffffffffffffffffffffffffffffffff16021790555061012082015181600801559050507f32e08351149249c094252d308bf6dee229d75fc098065a02ec0c005da752427860016004546126d1919061372c565b3389898989896040516126ea979695949392919061361a565b60405180910390a1505060016000819055505050505050565b60045481565b60036020528060005260406000206000915090508060000160009054906101000a900460ff16908060000160019054906101000a900473ffffffffffffffffffffffffffffffffffffffff16908060010154908060020160009054906101000a900473ffffffffffffffffffffffffffffffffffffffff16908060030154905085565b60025481565b60015481565b600080600360008481526020019081526020016000206040518060a00160405290816000820160009054906101000a900460ff166002811115612804577f4e487b7100000000000000000000000000000000000000000000000000000000600052602160045260246000fd5b600281111561283c577f4e487b7100000000000000000000000000000000000000000000000000000000600052602160045260246000fd5b81526020016000820160019054906101000a900473ffffffffffffffffffffffffffffffffffffffff1673ffffffffffffffffffffffffffffffffffffffff1673ffffffffffffffffffffffffffffffffffffffff168152602001600182015481526020016002820160009054906101000a900473ffffffffffffffffffffffffffffffffffffffff1673ffffffffffffffffffffffffffffffffffffffff1673ffffffffffffffffffffffffffffffffffffffff1681526020016003820154815250509050600081606001519050816020015173ffffffffffffffffffffffffffffffffffffffff168173ffffffffffffffffffffffffffffffffffffffff16636352211e866040518263ffffffff1660e01b815260040161295f9190613583565b60206040518083038186803b15801561297757600080fd5b505afa15801561298b573d6000803e3d6000fd5b505050506040513d601f19601f820116820180604052508101906129af9190612c95565b73ffffffffffffffffffffffffffffffffffffffff16148015612a5d57508073ffffffffffffffffffffffffffffffffffffffff1663e985e9c58360200151306040518363ffffffff1660e01b8152600401612a0c929190613180565b60206040518083038186803b158015612a2457600080fd5b505afa158015612a38573d6000803e3d6000fd5b505050506040513d601f19601f82011682018060405250810190612a5c9190612d84565b5b8015612add575060006002811115612a9e577f4e487b7100000000000000000000000000000000000000000000000000000000600052602160045260246000fd5b82600001516002811115612adb577f4e487b7100000000000000000000000000000000000000000000000000000000600052602160045260246000fd5b145b92505050919050565b612b80838383604051602401612afe939291906132ea565b6040516020818303038152906040527f969cdd03000000000000000000000000000000000000000000000000000000007bffffffffffffffffffffffffffffffffffffffffffffffffffffffff19166020820180517bffffffffffffffffffffffffffffffffffffffffffffffffffffffff8381831617835250505050612b85565b505050565b60008151905060006a636f6e736f6c652e6c6f679050602083016000808483855afa5050505050565b6040518060a0016040528060006002811115612bf3577f4e487b7100000000000000000000000000000000000000000000000000000000600052602160045260246000fd5b8152602001600073ffffffffffffffffffffffffffffffffffffffff16815260200160008152602001600073ffffffffffffffffffffffffffffffffffffffff168152602001600081525090565b600081359050612c5081613c3c565b92915050565b600081519050612c6581613c3c565b92915050565b600081519050612c7a81613c53565b92915050565b600081359050612c8f81613c6a565b92915050565b600060208284031215612ca757600080fd5b6000612cb584828501612c56565b91505092915050565b600080600060608486031215612cd357600080fd5b6000612ce186828701612c41565b9350506020612cf286828701612c80565b9250506040612d0386828701612c80565b9150509250925092565b600080600080600060a08688031215612d2557600080fd5b6000612d3388828901612c41565b9550506020612d4488828901612c80565b9450506040612d5588828901612c80565b9350506060612d6688828901612c80565b9250506080612d7788828901612c80565b9150509295509295909350565b600060208284031215612d9657600080fd5b6000612da484828501612c6b565b91505092915050565b600060208284031215612dbf57600080fd5b6000612dcd84828501612c80565b91505092915050565b612ddf81613760565b82525050565b612dee81613760565b82525050565b612dfd81613772565b82525050565b612e0c816137ce565b82525050565b612e1b816137ce565b82525050565b612e2a816137e0565b82525050565b6000612e3b82613689565b612e458185613694565b9350612e558185602086016137f2565b612e5e816138fb565b840191505092915050565b6000612e76601183613694565b9150612e818261390c565b602082019050919050565b6000612e99601683613694565b9150612ea482613935565b602082019050919050565b6000612ebc601e83613694565b9150612ec78261395e565b602082019050919050565b6000612edf600983613694565b9150612eea82613987565b602082019050919050565b6000612f02603983613694565b9150612f0d826139b0565b604082019050919050565b6000612f25600783613694565b9150612f30826139ff565b602082019050919050565b6000612f48601183613694565b9150612f5382613a28565b602082019050919050565b6000612f6b600b83613694565b9150612f7682613a51565b602082019050919050565b6000612f8e601583613694565b9150612f9982613a7a565b602082019050919050565b6000612fb1601483613694565b9150612fbc82613aa3565b602082019050919050565b6000612fd4600b83613694565b9150612fdf82613acc565b602082019050919050565b6000612ff7600a83613694565b915061300282613af5565b602082019050919050565b600061301a600983613694565b915061302582613b1e565b602082019050919050565b600061303d600783613694565b915061304882613b47565b602082019050919050565b6000613060601083613694565b915061306b82613b70565b602082019050919050565b6000613083601283613694565b915061308e82613b99565b602082019050919050565b60006130a6601b83613694565b91506130b182613bc2565b602082019050919050565b60006130c9601f83613694565b91506130d482613beb565b602082019050919050565b60a0820160008201516130f56000850182612e03565b5060208201516131086020850182612dd6565b50604082015161311b6040850182613147565b50606082015161312e6060850182612dd6565b5060808201516131416080850182613147565b50505050565b613150816137c4565b82525050565b61315f816137c4565b82525050565b600060208201905061317a6000830184612de5565b92915050565b60006040820190506131956000830185612de5565b6131a26020830184612de5565b9392505050565b60006060820190506131be6000830186612de5565b6131cb6020830185612de5565b6131d86040830184613156565b949350505050565b60006020820190506131f56000830184612df4565b92915050565b600060a0820190506132106000830188612e12565b61321d6020830187612de5565b61322a6040830186613156565b6132376060830185612de5565b6132446080830184613156565b9695505050505050565b600061014082019050613264600083018d612e21565b613271602083018c612de5565b61327e604083018b612de5565b61328b606083018a613156565b6132986080830189613156565b6132a560a0830188613156565b6132b260c0830187613156565b6132bf60e0830186613156565b6132cd610100830185612de5565b6132db610120830184613156565b9b9a5050505050505050505050565b600060608201905081810360008301526133048186612e30565b90506133136020830185613156565b6133206040830184613156565b949350505050565b6000602082019050818103600083015261334181612e69565b9050919050565b6000602082019050818103600083015261336181612e8c565b9050919050565b6000602082019050818103600083015261338181612eaf565b9050919050565b600060208201905081810360008301526133a181612ed2565b9050919050565b600060208201905081810360008301526133c181612ef5565b9050919050565b600060208201905081810360008301526133e181612f18565b9050919050565b6000602082019050818103600083015261340181612f3b565b9050919050565b6000602082019050818103600083015261342181612f5e565b9050919050565b6000602082019050818103600083015261344181612f81565b9050919050565b6000602082019050818103600083015261346181612fa4565b9050919050565b6000602082019050818103600083015261348181612fc7565b9050919050565b600060208201905081810360008301526134a181612fea565b9050919050565b600060208201905081810360008301526134c18161300d565b9050919050565b600060208201905081810360008301526134e181613030565b9050919050565b6000602082019050818103600083015261350181613053565b9050919050565b6000602082019050818103600083015261352181613076565b9050919050565b6000602082019050818103600083015261354181613099565b9050919050565b60006020820190508181036000830152613561816130bc565b9050919050565b600060a08201905061357d60008301846130df565b92915050565b60006020820190506135986000830184613156565b92915050565b60006040820190506135b36000830185613156565b6135c06020830184612de5565b9392505050565b600060a0820190506135dc6000830188613156565b6135e96020830187612de5565b6135f66040830186612de5565b6136036060830185613156565b6136106080830184613156565b9695505050505050565b600060e08201905061362f600083018a613156565b61363c6020830189612de5565b6136496040830188612de5565b6136566060830187613156565b6136636080830186613156565b61367060a0830185613156565b61367d60c0830184613156565b98975050505050505050565b600081519050919050565b600082825260208201905092915050565b60006136b0826137c4565b91506136bb836137c4565b9250827fffffffffffffffffffffffffffffffffffffffffffffffffffffffffffffffff038211156136f0576136ef61386e565b5b828201905092915050565b6000613706826137c4565b9150613711836137c4565b9250826137215761372061389d565b5b828204905092915050565b6000613737826137c4565b9150613742836137c4565b9250828210156137555761375461386e565b5b828203905092915050565b600061376b826137a4565b9050919050565b60008115159050919050565b600081905061378c82613c14565b919050565b600081905061379f82613c28565b919050565b600073ffffffffffffffffffffffffffffffffffffffff82169050919050565b6000819050919050565b60006137d98261377e565b9050919050565b60006137eb82613791565b9050919050565b60005b838110156138105780820151818401526020810190506137f5565b8381111561381f576000848401525b50505050565b6000613830826137c4565b91507fffffffffffffffffffffffffffffffffffffffffffffffffffffffffffffffff8214156138635761386261386e565b5b600182019050919050565b7f4e487b7100000000000000000000000000000000000000000000000000000000600052601160045260246000fd5b7f4e487b7100000000000000000000000000000000000000000000000000000000600052601260045260246000fd5b7f4e487b7100000000000000000000000000000000000000000000000000000000600052602160045260246000fd5b6000601f19601f8301169050919050565b7f616c6c6f77616e6365206e6f7420736574000000000000000000000000000000600082015250565b7f53656c6c65722063616e6e6f7420626520627579657200000000000000000000600082015250565b7f4f6e6c792073656c6c65722063616e2063616e63656c206c697374696e670000600082015250565b7f6e6f74206d616b65720000000000000000000000000000000000000000000000600082015250565b7f7072656d69756d732068617665206265656e207061696420616e64206465616460008201527f6c696e652069732079657420746f206265207265616368656400000000000000602082015250565b7f7072656d69756d00000000000000000000000000000000000000000000000000600082015250565b7f73746174757320213d207374616b696e67000000000000000000000000000000600082015250565b7f6e6f742062757961626c65000000000000000000000000000000000000000000600082015250565b7f4c697374696e67206973206e6f74206163746976650000000000000000000000600082015250565b7f496e73756666696369656e74207061796d656e74000000000000000000000000600082015250565b7f21636f6c6c61746572616c000000000000000000000000000000000000000000600082015250565b7f21616c6c6f77616e636500000000000000000000000000000000000000000000600082015250565b7f6e6f742074616b65720000000000000000000000000000000000000000000000600082015250565b7f2162696446656500000000000000000000000000000000000000000000000000600082015250565b7f646561646c696e65207265616368656400000000000000000000000000000000600082015250565b7f6e6f6e2d616374697665207374616b696e670000000000000000000000000000600082015250565b7f7072656d69756d732068617665206e6f74206265656e20706169640000000000600082015250565b7f5265656e7472616e637947756172643a207265656e7472616e742063616c6c00600082015250565b60038110613c2557613c246138cc565b5b50565b60048110613c3957613c386138cc565b5b50565b613c4581613760565b8114613c5057600080fd5b50565b613c5c81613772565b8114613c6757600080fd5b50565b613c73816137c4565b8114613c7e57600080fd5b5056fea2646970667358221220a4bf7e92d636cb1ce4939eafac66c5daee43a03527cbb1cbd36fb3e20e58e45764736f6c63430008040033",
  "linkReferences": {},
  "deployedLinkReferences": {}
}