{
  "_format": "hh-sol-artifact-1",
  "contractName": "Marketplace",
  "sourceName": "contracts/Marketplace.sol",
  "abi": [
    {
      "inputs": [
        {
          "internalType": "address",
          "name": "_platform",
          "type": "address"
        },
        {
          "internalType": "address",
          "name": "_token",
          "type": "address"
        },
        {
          "internalType": "address",
          "name": "_NFTTokenDistributionWhiteLister",
          "type": "address"
        },
        {
          "internalType": "uint256",
          "name": "_tokensDistributionAmount",
          "type": "uint256"
        },
        {
          "internalType": "uint256",
          "name": "_maxCollateralEligibleForTokens",
          "type": "uint256"
        }
      ],
      "stateMutability": "nonpayable",
      "type": "constructor"
    },
    {
      "anonymous": false,
      "inputs": [
        {
          "indexed": false,
          "internalType": "uint256",
          "name": "listingId",
          "type": "uint256"
        },
        {
          "indexed": false,
          "internalType": "address",
          "name": "seller",
          "type": "address"
        }
      ],
      "name": "CancelBid",
      "type": "event"
    },
    {
      "anonymous": false,
      "inputs": [
        {
          "indexed": false,
          "internalType": "uint256",
          "name": "rentalId",
          "type": "uint256"
        }
      ],
      "name": "FinishRentalForCollateral",
      "type": "event"
    },
    {
      "anonymous": false,
      "inputs": [
        {
          "indexed": false,
          "internalType": "uint256",
          "name": "rentalId",
          "type": "uint256"
        }
      ],
      "name": "FinishRentalForNFT",
      "type": "event"
    },
    {
      "anonymous": false,
      "inputs": [
        {
          "indexed": false,
          "internalType": "uint256",
          "name": "listingId",
          "type": "uint256"
        },
        {
          "indexed": false,
          "internalType": "address",
          "name": "seller",
          "type": "address"
        },
        {
          "indexed": false,
          "internalType": "address",
          "name": "token",
          "type": "address"
        },
        {
          "indexed": false,
          "internalType": "uint256",
          "name": "tokenId",
          "type": "uint256"
        },
        {
          "indexed": false,
          "internalType": "uint256",
          "name": "price",
          "type": "uint256"
        }
      ],
      "name": "Listed",
      "type": "event"
    },
    {
      "anonymous": false,
      "inputs": [
        {
          "indexed": false,
          "internalType": "uint256",
          "name": "stakingId",
          "type": "uint256"
        },
        {
          "indexed": false,
          "internalType": "address",
          "name": "maker",
          "type": "address"
        },
        {
          "indexed": false,
          "internalType": "address",
          "name": "token",
          "type": "address"
        },
        {
          "indexed": false,
          "internalType": "uint256",
          "name": "tokenId",
          "type": "uint256"
        },
        {
          "indexed": false,
          "internalType": "uint256",
          "name": "collateral",
          "type": "uint256"
        },
        {
          "indexed": false,
          "internalType": "uint256",
          "name": "premium",
          "type": "uint256"
        },
        {
          "indexed": false,
          "internalType": "uint256",
          "name": "deadline",
          "type": "uint256"
        }
      ],
      "name": "QuotedForStaking",
      "type": "event"
    },
    {
      "anonymous": false,
      "inputs": [
        {
          "indexed": false,
          "internalType": "uint256",
          "name": "rentalId",
          "type": "uint256"
        },
        {
          "indexed": false,
          "internalType": "address",
          "name": "taker",
          "type": "address"
        }
      ],
      "name": "Rental",
      "type": "event"
    },
    {
      "anonymous": false,
      "inputs": [
        {
          "indexed": false,
          "internalType": "uint256",
          "name": "listingId",
          "type": "uint256"
        },
        {
          "indexed": false,
          "internalType": "address",
          "name": "buyer",
          "type": "address"
        },
        {
          "indexed": false,
          "internalType": "address",
          "name": "token",
          "type": "address"
        },
        {
          "indexed": false,
          "internalType": "uint256",
          "name": "tokenId",
          "type": "uint256"
        },
        {
          "indexed": false,
          "internalType": "uint256",
          "name": "price",
          "type": "uint256"
        }
      ],
      "name": "Sale",
      "type": "event"
    },
    {
      "inputs": [],
      "name": "NFTTokenDistributionWhiteLister",
      "outputs": [
        {
          "internalType": "address",
          "name": "",
          "type": "address"
        }
      ],
      "stateMutability": "view",
      "type": "function"
    },
    {
      "inputs": [
        {
          "internalType": "address",
          "name": "",
          "type": "address"
        }
      ],
      "name": "NFTsEligibleForTokenDistribution",
      "outputs": [
        {
          "internalType": "bool",
          "name": "",
          "type": "bool"
        }
      ],
      "stateMutability": "view",
      "type": "function"
    },
    {
      "inputs": [
        {
          "internalType": "uint256",
          "name": "",
          "type": "uint256"
        }
      ],
      "name": "_listings",
      "outputs": [
        {
          "internalType": "enum Marketplace.ListingStatus",
          "name": "status",
          "type": "uint8"
        },
        {
          "internalType": "address",
          "name": "seller",
          "type": "address"
        },
        {
          "internalType": "uint256",
          "name": "price",
          "type": "uint256"
        },
        {
          "internalType": "address",
          "name": "token",
          "type": "address"
        },
        {
          "internalType": "uint256",
          "name": "tokenId",
          "type": "uint256"
        }
      ],
      "stateMutability": "view",
      "type": "function"
    },
    {
      "inputs": [],
      "name": "_listingsLastIndex",
      "outputs": [
        {
          "internalType": "uint256",
          "name": "",
          "type": "uint256"
        }
      ],
      "stateMutability": "view",
      "type": "function"
    },
    {
      "inputs": [
        {
          "internalType": "uint256",
          "name": "",
          "type": "uint256"
        }
      ],
      "name": "_stakings",
      "outputs": [
        {
          "internalType": "enum Marketplace.StakeStatus",
          "name": "status",
          "type": "uint8"
        },
        {
          "internalType": "address",
          "name": "maker",
          "type": "address"
        },
        {
          "internalType": "address",
          "name": "taker",
          "type": "address"
        },
        {
          "internalType": "uint256",
          "name": "collateral",
          "type": "uint256"
        },
        {
          "internalType": "uint256",
          "name": "premium",
          "type": "uint256"
        },
        {
          "internalType": "uint256",
          "name": "startRentalUTC",
          "type": "uint256"
        },
        {
          "internalType": "uint256",
          "name": "startStakingUTC",
          "type": "uint256"
        },
        {
          "internalType": "uint256",
          "name": "paymentsAmount",
          "type": "uint256"
        },
        {
          "internalType": "uint256",
          "name": "tokenPaymentsAmount",
          "type": "uint256"
        },
        {
          "internalType": "uint256",
          "name": "deadline",
          "type": "uint256"
        },
        {
          "internalType": "address",
          "name": "token",
          "type": "address"
        },
        {
          "internalType": "uint256",
          "name": "tokenId",
          "type": "uint256"
        }
      ],
      "stateMutability": "view",
      "type": "function"
    },
    {
      "inputs": [],
      "name": "_stakingsLastIndex",
      "outputs": [
        {
          "internalType": "uint256",
          "name": "",
          "type": "uint256"
        }
      ],
      "stateMutability": "view",
      "type": "function"
    },
    {
      "inputs": [
        {
          "internalType": "address",
          "name": "tokenContract",
          "type": "address"
        },
        {
          "internalType": "uint256",
          "name": "tokenId",
          "type": "uint256"
        },
        {
          "internalType": "uint256",
          "name": "priceWei",
          "type": "uint256"
        }
      ],
      "name": "bid",
      "outputs": [],
      "stateMutability": "payable",
      "type": "function"
    },
    {
      "inputs": [
        {
          "internalType": "uint256",
          "name": "listingId",
          "type": "uint256"
        }
      ],
      "name": "buyToken",
      "outputs": [],
      "stateMutability": "payable",
      "type": "function"
    },
    {
      "inputs": [
        {
          "internalType": "uint256",
          "name": "stakingId",
          "type": "uint256"
        }
      ],
      "name": "canRentNFT",
      "outputs": [
        {
          "internalType": "bool",
          "name": "",
          "type": "bool"
        }
      ],
      "stateMutability": "view",
      "type": "function"
    },
    {
      "inputs": [
        {
          "internalType": "uint256",
          "name": "listingId",
          "type": "uint256"
        }
      ],
      "name": "cancel",
      "outputs": [],
      "stateMutability": "nonpayable",
      "type": "function"
    },
    {
      "inputs": [
        {
          "internalType": "uint256",
          "name": "stakingId",
          "type": "uint256"
        }
      ],
      "name": "claimCollateral",
      "outputs": [],
      "stateMutability": "nonpayable",
      "type": "function"
    },
    {
      "inputs": [
        {
          "internalType": "uint256",
          "name": "stakingId",
          "type": "uint256"
        }
      ],
      "name": "claimTokens",
      "outputs": [],
      "stateMutability": "nonpayable",
      "type": "function"
    },
    {
      "inputs": [
        {
          "internalType": "uint256",
          "name": "stakingId",
          "type": "uint256"
        }
      ],
      "name": "dateOfNextPayment",
      "outputs": [
        {
          "internalType": "uint256",
          "name": "date",
          "type": "uint256"
        }
      ],
      "stateMutability": "view",
      "type": "function"
    },
    {
      "inputs": [
        {
          "internalType": "uint256",
          "name": "listingId",
          "type": "uint256"
        }
      ],
      "name": "getListing",
      "outputs": [
        {
          "components": [
            {
              "internalType": "enum Marketplace.ListingStatus",
              "name": "status",
              "type": "uint8"
            },
            {
              "internalType": "address",
              "name": "seller",
              "type": "address"
            },
            {
              "internalType": "uint256",
              "name": "price",
              "type": "uint256"
            },
            {
              "internalType": "address",
              "name": "token",
              "type": "address"
            },
            {
              "internalType": "uint256",
              "name": "tokenId",
              "type": "uint256"
            }
          ],
          "internalType": "struct Marketplace.Listing",
          "name": "",
          "type": "tuple"
        }
      ],
      "stateMutability": "view",
      "type": "function"
    },
    {
      "inputs": [
        {
          "internalType": "uint256",
          "name": "stakingId",
          "type": "uint256"
        }
      ],
      "name": "getStaking",
      "outputs": [
        {
          "components": [
            {
              "internalType": "enum Marketplace.StakeStatus",
              "name": "status",
              "type": "uint8"
            },
            {
              "internalType": "address",
              "name": "maker",
              "type": "address"
            },
            {
              "internalType": "address",
              "name": "taker",
              "type": "address"
            },
            {
              "internalType": "uint256",
              "name": "collateral",
              "type": "uint256"
            },
            {
              "internalType": "uint256",
              "name": "premium",
              "type": "uint256"
            },
            {
              "internalType": "uint256",
              "name": "startRentalUTC",
              "type": "uint256"
            },
            {
              "internalType": "uint256",
              "name": "startStakingUTC",
              "type": "uint256"
            },
            {
              "internalType": "uint256",
              "name": "paymentsAmount",
              "type": "uint256"
            },
            {
              "internalType": "uint256",
              "name": "tokenPaymentsAmount",
              "type": "uint256"
            },
            {
              "internalType": "uint256",
              "name": "deadline",
              "type": "uint256"
            },
            {
              "internalType": "address",
              "name": "token",
              "type": "address"
            },
            {
              "internalType": "uint256",
              "name": "tokenId",
              "type": "uint256"
            }
          ],
          "internalType": "struct Marketplace.Staking",
          "name": "",
          "type": "tuple"
        }
      ],
      "stateMutability": "view",
      "type": "function"
    },
    {
      "inputs": [
        {
          "internalType": "uint256",
          "name": "listingId",
          "type": "uint256"
        }
      ],
      "name": "isBuyable",
      "outputs": [
        {
          "internalType": "bool",
          "name": "",
          "type": "bool"
        }
      ],
      "stateMutability": "view",
      "type": "function"
    },
    {
      "inputs": [
        {
          "internalType": "uint256",
          "name": "stakingId",
          "type": "uint256"
        }
      ],
      "name": "isCollateralClaimable",
      "outputs": [
        {
          "internalType": "bool",
          "name": "status",
          "type": "bool"
        }
      ],
      "stateMutability": "view",
      "type": "function"
    },
    {
      "inputs": [],
      "name": "maxCollateralEligibleForTokens",
      "outputs": [
        {
          "internalType": "uint256",
          "name": "",
          "type": "uint256"
        }
      ],
      "stateMutability": "view",
      "type": "function"
    },
    {
      "inputs": [
        {
          "internalType": "address",
          "name": "",
          "type": "address"
        },
        {
          "internalType": "uint256",
          "name": "",
          "type": "uint256"
        }
      ],
      "name": "nftListingIds",
      "outputs": [
        {
          "internalType": "uint256",
          "name": "",
          "type": "uint256"
        }
      ],
      "stateMutability": "view",
      "type": "function"
    },
    {
      "inputs": [
        {
          "internalType": "address",
          "name": "",
          "type": "address"
        },
        {
          "internalType": "uint256",
          "name": "",
          "type": "uint256"
        }
      ],
      "name": "nftStakingIds",
      "outputs": [
        {
          "internalType": "uint256",
          "name": "",
          "type": "uint256"
        }
      ],
      "stateMutability": "view",
      "type": "function"
    },
    {
      "inputs": [
        {
          "internalType": "uint256",
          "name": "stakingId",
          "type": "uint256"
        }
      ],
      "name": "payPremium",
      "outputs": [],
      "stateMutability": "payable",
      "type": "function"
    },
    {
      "inputs": [
        {
          "internalType": "uint256",
          "name": "stakingId",
          "type": "uint256"
        }
      ],
      "name": "paymentsDue",
      "outputs": [
        {
          "internalType": "int256",
          "name": "amountDue",
          "type": "int256"
        }
      ],
      "stateMutability": "view",
      "type": "function"
    },
    {
      "inputs": [],
      "name": "platform",
      "outputs": [
        {
          "internalType": "address",
          "name": "",
          "type": "address"
        }
      ],
      "stateMutability": "view",
      "type": "function"
    },
    {
      "inputs": [
        {
          "internalType": "address",
          "name": "tokenContract",
          "type": "address"
        },
        {
          "internalType": "uint256",
          "name": "tokenId",
          "type": "uint256"
        },
        {
          "internalType": "uint256",
          "name": "collateralWei",
          "type": "uint256"
        },
        {
          "internalType": "uint256",
          "name": "premiumWei",
          "type": "uint256"
        },
        {
          "internalType": "uint256",
          "name": "deadlineUTC",
          "type": "uint256"
        }
      ],
      "name": "quoteForStaking",
      "outputs": [],
      "stateMutability": "payable",
      "type": "function"
    },
    {
      "inputs": [
        {
          "internalType": "uint256",
          "name": "stakingId",
          "type": "uint256"
        }
      ],
      "name": "rentNFT",
      "outputs": [],
      "stateMutability": "payable",
      "type": "function"
    },
    {
      "inputs": [
        {
          "internalType": "uint256",
          "name": "stakingId",
          "type": "uint256"
        }
      ],
      "name": "stopRental",
      "outputs": [],
      "stateMutability": "nonpayable",
      "type": "function"
    },
    {
      "inputs": [
        {
          "internalType": "uint256",
          "name": "stakingIndex",
          "type": "uint256"
        }
      ],
      "name": "stopStaking",
      "outputs": [],
      "stateMutability": "nonpayable",
      "type": "function"
    },
    {
      "inputs": [],
      "name": "tokensDistributionAmount",
      "outputs": [
        {
          "internalType": "uint256",
          "name": "",
          "type": "uint256"
        }
      ],
      "stateMutability": "view",
      "type": "function"
    },
    {
      "inputs": [],
      "name": "tokensDistributionEnd",
      "outputs": [
        {
          "internalType": "uint256",
          "name": "",
          "type": "uint256"
        }
      ],
      "stateMutability": "view",
      "type": "function"
    },
    {
      "inputs": [],
      "name": "undasToken",
      "outputs": [
        {
          "internalType": "address",
          "name": "",
          "type": "address"
        }
      ],
      "stateMutability": "view",
      "type": "function"
    },
    {
      "inputs": [
        {
          "internalType": "address",
          "name": "nft",
          "type": "address"
        },
        {
          "internalType": "bool",
          "name": "whitelist",
          "type": "bool"
        }
      ],
      "name": "whiteListNFTToggle",
      "outputs": [],
      "stateMutability": "nonpayable",
      "type": "function"
    }
  ],
  "bytecode": "0x6101406040523480156200001257600080fd5b5060405162005dfc38038062005dfc833981810160405281019062000038919062000149565b60016000819055508473ffffffffffffffffffffffffffffffffffffffff1660808173ffffffffffffffffffffffffffffffffffffffff1660601b815250508373ffffffffffffffffffffffffffffffffffffffff1660a08173ffffffffffffffffffffffffffffffffffffffff1660601b815250508273ffffffffffffffffffffffffffffffffffffffff166101208173ffffffffffffffffffffffffffffffffffffffff1660601b815250508160c081815250508060e08181525050630114db0042620001089190620001cb565b61010081815250505050505050620002c9565b6000815190506200012c8162000295565b92915050565b6000815190506200014381620002af565b92915050565b600080600080600060a086880312156200016257600080fd5b600062000172888289016200011b565b955050602062000185888289016200011b565b945050604062000198888289016200011b565b9350506060620001ab8882890162000132565b9250506080620001be8882890162000132565b9150509295509295909350565b6000620001d8826200025c565b9150620001e5836200025c565b9250827fffffffffffffffffffffffffffffffffffffffffffffffffffffffffffffffff038211156200021d576200021c62000266565b5b828201905092915050565b600062000235826200023c565b9050919050565b600073ffffffffffffffffffffffffffffffffffffffff82169050919050565b6000819050919050565b7f4e487b7100000000000000000000000000000000000000000000000000000000600052601160045260246000fd5b620002a08162000228565b8114620002ac57600080fd5b50565b620002ba816200025c565b8114620002c657600080fd5b50565b60805160601c60a05160601c60c05160e051610100516101205160601c615ab76200034560003960008181612ce501526141e3015260008181611c750152612a3c01526000611f2a015260008181612b990152612fae015260008181612be10152612d09015260008181612cc101526142cc0152615ab76000f3fe6080604052600436106101d85760003560e01c80634bde38c811610102578063d100554311610095578063e324466411610064578063e3244664146106d4578063e738c7c8146106ff578063ecaf6d601461073c578063ed4a4a5614610779576101d8565b8063d1005543146105ee578063d6d38d171461062b578063d78a75ad14610668578063df76dbc914610693576101d8565b8063b6e96f4c116100d1578063b6e96f4c14610541578063beefd0f51461057e578063c49785b4146105a9578063c893c659146105d2576101d8565b80634bde38c814610483578063619d4d36146104ae578063973c0622146104d9578063ab50fbb414610504576101d8565b80631ec7d89e1161017a57806331eb3f371161014957806331eb3f37146103d857806340e58ee5146104155780634364b26e1461043e57806346e04a2f1461045a576101d8565b80631ec7d89e146103295780631f01c0d1146103545780632449d3bc146103915780632d296bf1146103bc576101d8565b8063107a274a116101b6578063107a274a1461027e57806314364f1d146102bb578063156ecc3d146102d75780631c760bdb14610300576101d8565b80630ae3f109146101dd5780630ed3212e146102255780630f41ba4b14610262575b600080fd5b3480156101e957600080fd5b5061020460048036038101906101ff91906146c4565b6107a2565b60405161021c9c9b9a99989796959493929190614d5e565b60405180910390f35b34801561023157600080fd5b5061024c60048036038101906102479190614599565b61086f565b604051610259919061518a565b60405180910390f35b61027c600480360381019061027791906145d5565b610894565b005b34801561028a57600080fd5b506102a560048036038101906102a091906146c4565b610d57565b6040516102b29190615153565b60405180910390f35b6102d560048036038101906102d091906146c4565b610ecb565b005b3480156102e357600080fd5b506102fe60048036038101906102f991906146c4565b6113dc565b005b34801561030c57600080fd5b50610327600480360381019061032291906146c4565b61188d565b005b34801561033557600080fd5b5061033e611c73565b60405161034b919061518a565b60405180910390f35b34801561036057600080fd5b5061037b600480360381019061037691906146c4565b611c97565b6040516103889190614e18565b60405180910390f35b34801561039d57600080fd5b506103a6611f28565b6040516103b3919061518a565b60405180910390f35b6103d660048036038101906103d191906146c4565b611f4c565b005b3480156103e457600080fd5b506103ff60048036038101906103fa91906146c4565b6122cc565b60405161040c919061516e565b60405180910390f35b34801561042157600080fd5b5061043c600480360381019061043791906146c4565b6124d3565b005b610458600480360381019061045391906146c4565b61274a565b005b34801561046657600080fd5b50610481600480360381019061047c91906146c4565b6129ec565b005b34801561048f57600080fd5b50610498612cbf565b6040516104a59190614c4c565b60405180910390f35b3480156104ba57600080fd5b506104c3612ce3565b6040516104d09190614c4c565b60405180910390f35b3480156104e557600080fd5b506104ee612d07565b6040516104fb9190614c4c565b60405180910390f35b34801561051057600080fd5b5061052b60048036038101906105269190614599565b612d2b565b604051610538919061518a565b60405180910390f35b34801561054d57600080fd5b50610568600480360381019061056391906146c4565b612d50565b6040516105759190614cf0565b60405180910390f35b34801561058a57600080fd5b50610593612fac565b6040516105a0919061518a565b60405180910390f35b3480156105b557600080fd5b506105d060048036038101906105cb91906146c4565b612fd0565b005b6105ec60048036038101906105e79190614624565b613380565b005b3480156105fa57600080fd5b50610615600480360381019061061091906146c4565b613979565b604051610622919061518a565b60405180910390f35b34801561063757600080fd5b50610652600480360381019061064d919061450b565b613bac565b60405161065f9190614cf0565b60405180910390f35b34801561067457600080fd5b5061067d613bcc565b60405161068a919061518a565b60405180910390f35b34801561069f57600080fd5b506106ba60048036038101906106b591906146c4565b613bd2565b6040516106cb959493929190614d0b565b60405180910390f35b3480156106e057600080fd5b506106e9613c55565b6040516106f6919061518a565b60405180910390f35b34801561070b57600080fd5b50610726600480360381019061072191906146c4565b613c5b565b6040516107339190614cf0565b60405180910390f35b34801561074857600080fd5b50610763600480360381019061075e91906146c4565b613fad565b6040516107709190614cf0565b60405180910390f35b34801561078557600080fd5b506107a0600480360381019061079b919061455d565b6141e1565b005b60046020528060005260406000206000915090508060000160009054906101000a900460ff16908060000160019054906101000a900473ffffffffffffffffffffffffffffffffffffffff16908060010160009054906101000a900473ffffffffffffffffffffffffffffffffffffffff16908060020154908060030154908060040154908060050154908060060154908060070154908060080154908060090160009054906101000a900473ffffffffffffffffffffffffffffffffffffffff169080600a015490508c565b6006602052816000526040600020602052806000526040600020600091509150505481565b600260005414156108da576040517f08c379a00000000000000000000000000000000000000000000000000000000081526004016108d190615113565b60405180910390fd5b60026000819055508273ffffffffffffffffffffffffffffffffffffffff1663e985e9c533306040518363ffffffff1660e01b815260040161091d929190614c67565b60206040518083038186803b15801561093557600080fd5b505afa158015610949573d6000803e3d6000fd5b505050506040513d601f19601f8201168201806040525081019061096d919061469b565b6109ac576040517f08c379a00000000000000000000000000000000000000000000000000000000081526004016109a390615033565b60405180910390fd5b3373ffffffffffffffffffffffffffffffffffffffff168373ffffffffffffffffffffffffffffffffffffffff16636352211e846040518263ffffffff1660e01b81526004016109fc919061518a565b60206040518083038186803b158015610a1457600080fd5b505afa158015610a28573d6000803e3d6000fd5b505050506040513d601f19601f82011682018060405250810190610a4c9190614534565b73ffffffffffffffffffffffffffffffffffffffff1614610aa2576040517f08c379a0000000000000000000000000000000000000000000000000000000008152600401610a9990614e53565b60405180910390fd5b67016345785d8a00003414610aec576040517f08c379a0000000000000000000000000000000000000000000000000000000008152600401610ae390615093565b60405180910390fd5b610afd67016345785d8a00006142ca565b6040518060a0016040528060006002811115610b42577f4e487b7100000000000000000000000000000000000000000000000000000000600052602160045260246000fd5b81526020013373ffffffffffffffffffffffffffffffffffffffff1681526020018281526020018473ffffffffffffffffffffffffffffffffffffffff1681526020018381525060026000600154815260200190815260200160002060008201518160000160006101000a81548160ff02191690836002811115610bef577f4e487b7100000000000000000000000000000000000000000000000000000000600052602160045260246000fd5b021790555060208201518160000160016101000a81548173ffffffffffffffffffffffffffffffffffffffff021916908373ffffffffffffffffffffffffffffffffffffffff1602179055506040820151816001015560608201518160020160006101000a81548173ffffffffffffffffffffffffffffffffffffffff021916908373ffffffffffffffffffffffffffffffffffffffff160217905550608082015181600301559050507f723f73331eaee88eec7fc68ef60ab6ed15e4b90d0472b55eb92fa43910bab6dd60015433858585604051610cd29594939291906151ce565b60405180910390a1600154600560008573ffffffffffffffffffffffffffffffffffffffff1673ffffffffffffffffffffffffffffffffffffffff1681526020019081526020016000206000848152602001908152602001600020819055506001806000828254610d4391906152a1565b925050819055506001600081905550505050565b610d5f614334565b600260008381526020019081526020016000206040518060a00160405290816000820160009054906101000a900460ff166002811115610dc8577f4e487b7100000000000000000000000000000000000000000000000000000000600052602160045260246000fd5b6002811115610e00577f4e487b7100000000000000000000000000000000000000000000000000000000600052602160045260246000fd5b81526020016000820160019054906101000a900473ffffffffffffffffffffffffffffffffffffffff1673ffffffffffffffffffffffffffffffffffffffff1673ffffffffffffffffffffffffffffffffffffffff168152602001600182015481526020016002820160009054906101000a900473ffffffffffffffffffffffffffffffffffffffff1673ffffffffffffffffffffffffffffffffffffffff1673ffffffffffffffffffffffffffffffffffffffff1681526020016003820154815250509050919050565b60026000541415610f11576040517f08c379a0000000000000000000000000000000000000000000000000000000008152600401610f0890615113565b60405180910390fd5b600260008190555060006004600083815260200190815260200160002090508060000160019054906101000a900473ffffffffffffffffffffffffffffffffffffffff1673ffffffffffffffffffffffffffffffffffffffff163373ffffffffffffffffffffffffffffffffffffffff161415610fc3576040517f08c379a0000000000000000000000000000000000000000000000000000000008152600401610fba90614f53565b60405180910390fd5b8060090160009054906101000a900473ffffffffffffffffffffffffffffffffffffffff1673ffffffffffffffffffffffffffffffffffffffff1663e985e9c58260000160019054906101000a900473ffffffffffffffffffffffffffffffffffffffff16306040518363ffffffff1660e01b8152600401611046929190614c67565b60206040518083038186803b15801561105e57600080fd5b505afa158015611072573d6000803e3d6000fd5b505050506040513d601f19601f82011682018060405250810190611096919061469b565b6110d5576040517f08c379a00000000000000000000000000000000000000000000000000000000081526004016110cc90615033565b60405180910390fd5b806003015481600201546110e991906152a1565b341461112a576040517f08c379a000000000000000000000000000000000000000000000000000000000815260040161112190614ff3565b60405180910390fd5b428160040181905550338160010160006101000a81548173ffffffffffffffffffffffffffffffffffffffff021916908373ffffffffffffffffffffffffffffffffffffffff16021790555060018160000160006101000a81548160ff021916908360048111156111c4577f4e487b7100000000000000000000000000000000000000000000000000000000600052602160045260246000fd5b0217905550600181600601819055508060090160009054906101000a900473ffffffffffffffffffffffffffffffffffffffff1673ffffffffffffffffffffffffffffffffffffffff166342842e0e8260000160019054906101000a900473ffffffffffffffffffffffffffffffffffffffff168360010160009054906101000a900473ffffffffffffffffffffffffffffffffffffffff1684600a01546040518463ffffffff1660e01b815260040161128093929190614c90565b600060405180830381600087803b15801561129a57600080fd5b505af11580156112ae573d6000803e3d6000fd5b505050508060000160019054906101000a900473ffffffffffffffffffffffffffffffffffffffff1673ffffffffffffffffffffffffffffffffffffffff166108fc67016345785d8a00009081150290604051600060405180830381858888f19350505050158015611324573d6000803e3d6000fd5b50600060146064836003015461133a91906152f7565b6113449190615328565b905060008183600301546113589190615416565b9050611363826142ca565b8260000160019054906101000a900473ffffffffffffffffffffffffffffffffffffffff1673ffffffffffffffffffffffffffffffffffffffff166108fc829081150290604051600060405180830381858888f193505050501580156113cd573d6000803e3d6000fd5b50505050600160008190555050565b60026000541415611422576040517f08c379a000000000000000000000000000000000000000000000000000000000815260040161141990615113565b60405180910390fd5b600260008190555060006004600083815260200190815260200160002090506000600481111561147b577f4e487b7100000000000000000000000000000000000000000000000000000000600052602160045260246000fd5b8160000160009054906101000a900460ff1660048111156114c5577f4e487b7100000000000000000000000000000000000000000000000000000000600052602160045260246000fd5b14611505576040517f08c379a00000000000000000000000000000000000000000000000000000000081526004016114fc906150d3565b60405180910390fd5b3373ffffffffffffffffffffffffffffffffffffffff168160010160009054906101000a900473ffffffffffffffffffffffffffffffffffffffff1673ffffffffffffffffffffffffffffffffffffffff1614611597576040517f08c379a000000000000000000000000000000000000000000000000000000000815260040161158e90615053565b60405180910390fd5b600062093a808260040154426115ad9190615416565b6115b791906152f7565b90508082600601541015611600576040517f08c379a00000000000000000000000000000000000000000000000000000000081526004016115f7906150f3565b60405180910390fd5b60028260000160006101000a81548160ff0219169083600481111561164e577f4e487b7100000000000000000000000000000000000000000000000000000000600052602160045260246000fd5b02179055508160090160009054906101000a900473ffffffffffffffffffffffffffffffffffffffff1673ffffffffffffffffffffffffffffffffffffffff166342842e0e8360010160009054906101000a900473ffffffffffffffffffffffffffffffffffffffff168460000160019054906101000a900473ffffffffffffffffffffffffffffffffffffffff1685600a01546040518463ffffffff1660e01b815260040161170093929190614c90565b600060405180830381600087803b15801561171a57600080fd5b505af115801561172e573d6000803e3d6000fd5b505050508160010160009054906101000a900473ffffffffffffffffffffffffffffffffffffffff1673ffffffffffffffffffffffffffffffffffffffff166108fc83600201549081150290604051600060405180830381858888f193505050501580156117a0573d6000803e3d6000fd5b5060046000848152602001908152602001600020600080820160006101000a81549060ff02191690556000820160016101000a81549073ffffffffffffffffffffffffffffffffffffffff02191690556001820160006101000a81549073ffffffffffffffffffffffffffffffffffffffff021916905560028201600090556003820160009055600482016000905560058201600090556006820160009055600782016000905560088201600090556009820160006101000a81549073ffffffffffffffffffffffffffffffffffffffff0219169055600a82016000905550505050600160008190555050565b600260005414156118d3576040517f08c379a00000000000000000000000000000000000000000000000000000000081526004016118ca90615113565b60405180910390fd5b60026000819055506004600082815260200190815260200160002060090160009054906101000a900473ffffffffffffffffffffffffffffffffffffffff1673ffffffffffffffffffffffffffffffffffffffff1663e985e9c533306040518363ffffffff1660e01b815260040161194c929190614c67565b60206040518083038186803b15801561196457600080fd5b505afa158015611978573d6000803e3d6000fd5b505050506040513d601f19601f8201168201806040525081019061199c919061469b565b6119db576040517f08c379a00000000000000000000000000000000000000000000000000000000081526004016119d290614e33565b60405180910390fd5b60006004811115611a15577f4e487b7100000000000000000000000000000000000000000000000000000000600052602160045260246000fd5b6004600083815260200190815260200160002060000160009054906101000a900460ff166004811115611a71577f4e487b7100000000000000000000000000000000000000000000000000000000600052602160045260246000fd5b14611ab1576040517f08c379a0000000000000000000000000000000000000000000000000000000008152600401611aa890614e93565b60405180910390fd5b3373ffffffffffffffffffffffffffffffffffffffff166004600083815260200190815260200160002060090160009054906101000a900473ffffffffffffffffffffffffffffffffffffffff1673ffffffffffffffffffffffffffffffffffffffff16636352211e60046000858152602001908152602001600020600a01546040518263ffffffff1660e01b8152600401611b4d919061518a565b60206040518083038186803b158015611b6557600080fd5b505afa158015611b79573d6000803e3d6000fd5b505050506040513d601f19601f82011682018060405250810190611b9d9190614534565b73ffffffffffffffffffffffffffffffffffffffff1614611bf3576040517f08c379a0000000000000000000000000000000000000000000000000000000008152600401611bea90614e53565b60405180910390fd5b600480600083815260200190815260200160002060000160006101000a81548160ff02191690836004811115611c52577f4e487b7100000000000000000000000000000000000000000000000000000000600052602160045260246000fd5b0217905550611c6867016345785d8a00006142ca565b600160008190555050565b7f000000000000000000000000000000000000000000000000000000000000000081565b60008060046000848152602001908152602001600020604051806101800160405290816000820160009054906101000a900460ff166004811115611d04577f4e487b7100000000000000000000000000000000000000000000000000000000600052602160045260246000fd5b6004811115611d3c577f4e487b7100000000000000000000000000000000000000000000000000000000600052602160045260246000fd5b81526020016000820160019054906101000a900473ffffffffffffffffffffffffffffffffffffffff1673ffffffffffffffffffffffffffffffffffffffff1673ffffffffffffffffffffffffffffffffffffffff1681526020016001820160009054906101000a900473ffffffffffffffffffffffffffffffffffffffff1673ffffffffffffffffffffffffffffffffffffffff1673ffffffffffffffffffffffffffffffffffffffff168152602001600282015481526020016003820154815260200160048201548152602001600582015481526020016006820154815260200160078201548152602001600882015481526020016009820160009054906101000a900473ffffffffffffffffffffffffffffffffffffffff1673ffffffffffffffffffffffffffffffffffffffff1673ffffffffffffffffffffffffffffffffffffffff168152602001600a82015481525050905060008161012001514210611ead57816101200151611eaf565b425b9050600062093a808360a0015183611ec79190615416565b611ed1919061552f565b9050600062093a808460a0015184611ee99190615416565b611ef391906152f7565b905060008214611f0d57600181611f0a91906152a1565b90505b8360e0015181611f1d9190615382565b945050505050919050565b7f000000000000000000000000000000000000000000000000000000000000000081565b60026000541415611f92576040517f08c379a0000000000000000000000000000000000000000000000000000000008152600401611f8990615113565b60405180910390fd5b6002600081905550600060026000838152602001908152602001600020905060008160020160009054906101000a900473ffffffffffffffffffffffffffffffffffffffff1690508160000160019054906101000a900473ffffffffffffffffffffffffffffffffffffffff1673ffffffffffffffffffffffffffffffffffffffff163373ffffffffffffffffffffffffffffffffffffffff16141561206d576040517f08c379a000000000000000000000000000000000000000000000000000000000815260040161206490614e73565b60405180910390fd5b816001015434146120b3576040517f08c379a00000000000000000000000000000000000000000000000000000000081526004016120aa90614fd3565b60405180910390fd5b6120bc83613c5b565b6120fb576040517f08c379a00000000000000000000000000000000000000000000000000000000081526004016120f290614f93565b60405180910390fd5b60018260000160006101000a81548160ff02191690836002811115612149577f4e487b7100000000000000000000000000000000000000000000000000000000600052602160045260246000fd5b02179055508073ffffffffffffffffffffffffffffffffffffffff166342842e0e8360000160019054906101000a900473ffffffffffffffffffffffffffffffffffffffff163385600301546040518463ffffffff1660e01b81526004016121b393929190614c90565b600060405180830381600087803b1580156121cd57600080fd5b505af11580156121e1573d6000803e3d6000fd5b505050508160000160019054906101000a900473ffffffffffffffffffffffffffffffffffffffff1673ffffffffffffffffffffffffffffffffffffffff166108fc83600101549081150290604051600060405180830381858888f19350505050158015612253573d6000803e3d6000fd5b507ff3debaf22196a6ddf52a60fa71058cd7edf5e25bb98f4e96c994a5d4a9b0dd3e83338460020160009054906101000a900473ffffffffffffffffffffffffffffffffffffffff16856003015486600101546040516122b79594939291906151ce565b60405180910390a15050600160008190555050565b6122d46143c7565b60046000838152602001908152602001600020604051806101800160405290816000820160009054906101000a900460ff16600481111561233e577f4e487b7100000000000000000000000000000000000000000000000000000000600052602160045260246000fd5b6004811115612376577f4e487b7100000000000000000000000000000000000000000000000000000000600052602160045260246000fd5b81526020016000820160019054906101000a900473ffffffffffffffffffffffffffffffffffffffff1673ffffffffffffffffffffffffffffffffffffffff1673ffffffffffffffffffffffffffffffffffffffff1681526020016001820160009054906101000a900473ffffffffffffffffffffffffffffffffffffffff1673ffffffffffffffffffffffffffffffffffffffff1673ffffffffffffffffffffffffffffffffffffffff168152602001600282015481526020016003820154815260200160048201548152602001600582015481526020016006820154815260200160078201548152602001600882015481526020016009820160009054906101000a900473ffffffffffffffffffffffffffffffffffffffff1673ffffffffffffffffffffffffffffffffffffffff1673ffffffffffffffffffffffffffffffffffffffff168152602001600a820154815250509050919050565b60026000541415612519576040517f08c379a000000000000000000000000000000000000000000000000000000000815260040161251090615113565b60405180910390fd5b600260008190555060006002600083815260200190815260200160002090508060000160019054906101000a900473ffffffffffffffffffffffffffffffffffffffff1673ffffffffffffffffffffffffffffffffffffffff163373ffffffffffffffffffffffffffffffffffffffff16146125ca576040517f08c379a00000000000000000000000000000000000000000000000000000000081526004016125c190614eb3565b60405180910390fd5b60006002811115612604577f4e487b7100000000000000000000000000000000000000000000000000000000600052602160045260246000fd5b8160000160009054906101000a900460ff16600281111561264e577f4e487b7100000000000000000000000000000000000000000000000000000000600052602160045260246000fd5b1461268e576040517f08c379a000000000000000000000000000000000000000000000000000000000815260040161268590614fb3565b60405180910390fd5b60028160000160006101000a81548160ff021916908360028111156126dc577f4e487b7100000000000000000000000000000000000000000000000000000000600052602160045260246000fd5b02179055507f874afcdd5e90b2329b3c1601e613dcdc6abb6deb62ce61339a8337b48c053e51828260000160019054906101000a900473ffffffffffffffffffffffffffffffffffffffff166040516127369291906151a5565b60405180910390a150600160008190555050565b60006004600083815260200190815260200160002090506001600481111561279b577f4e487b7100000000000000000000000000000000000000000000000000000000600052602160045260246000fd5b8160000160009054906101000a900460ff1660048111156127e5577f4e487b7100000000000000000000000000000000000000000000000000000000600052602160045260246000fd5b14612825576040517f08c379a000000000000000000000000000000000000000000000000000000000815260040161281c90614f73565b60405180910390fd5b8060030154341461286b576040517f08c379a000000000000000000000000000000000000000000000000000000000815260040161286290614f33565b60405180910390fd5b806008015442106128b1576040517f08c379a00000000000000000000000000000000000000000000000000000000081526004016128a8906150b3565b60405180910390fd5b600062093a80826004015483600801546128cb9190615416565b6128d591906152f7565b905080600183600601546128e991906152a1565b111561292a576040517f08c379a000000000000000000000000000000000000000000000000000000000815260040161292190614ef3565b60405180910390fd5b6000601460643461293b91906152f7565b6129459190615328565b9050600081346129559190615416565b9050612960826142ca565b8360000160019054906101000a900473ffffffffffffffffffffffffffffffffffffffff1673ffffffffffffffffffffffffffffffffffffffff166108fc829081150290604051600060405180830381858888f193505050501580156129ca573d6000803e3d6000fd5b508360060160008154809291906129e0906154e6565b91905055505050505050565b60026000541415612a32576040517f08c379a0000000000000000000000000000000000000000000000000000000008152600401612a2990615113565b60405180910390fd5b60026000819055507f00000000000000000000000000000000000000000000000000000000000000004210612a9c576040517f08c379a0000000000000000000000000000000000000000000000000000000008152600401612a9390615133565b60405180910390fd5b6000600460008381526020019081526020016000209050600760008260090160009054906101000a900473ffffffffffffffffffffffffffffffffffffffff1673ffffffffffffffffffffffffffffffffffffffff1673ffffffffffffffffffffffffffffffffffffffff16815260200190815260200160002060009054906101000a900460ff16612b63576040517f08c379a0000000000000000000000000000000000000000000000000000000008152600401612b5a90615073565b60405180910390fd5b6000816007015462093a80836005015442612b7e9190615416565b612b8891906152f7565b612b929190615416565b90506000817f0000000000000000000000000000000000000000000000000000000000000000612bc29190615328565b905081836007016000828254612bd891906152a1565b925050819055507f000000000000000000000000000000000000000000000000000000000000000073ffffffffffffffffffffffffffffffffffffffff1663a9059cbb8460000160019054906101000a900473ffffffffffffffffffffffffffffffffffffffff16836040518363ffffffff1660e01b8152600401612c5e929190614cc7565b602060405180830381600087803b158015612c7857600080fd5b505af1158015612c8c573d6000803e3d6000fd5b505050506040513d601f19601f82011682018060405250810190612cb0919061469b565b50505050600160008190555050565b7f000000000000000000000000000000000000000000000000000000000000000081565b7f000000000000000000000000000000000000000000000000000000000000000081565b7f000000000000000000000000000000000000000000000000000000000000000081565b6005602052816000526040600020602052806000526040600020600091509150505481565b60008060046000848152602001908152602001600020604051806101800160405290816000820160009054906101000a900460ff166004811115612dbd577f4e487b7100000000000000000000000000000000000000000000000000000000600052602160045260246000fd5b6004811115612df5577f4e487b7100000000000000000000000000000000000000000000000000000000600052602160045260246000fd5b81526020016000820160019054906101000a900473ffffffffffffffffffffffffffffffffffffffff1673ffffffffffffffffffffffffffffffffffffffff1673ffffffffffffffffffffffffffffffffffffffff1681526020016001820160009054906101000a900473ffffffffffffffffffffffffffffffffffffffff1673ffffffffffffffffffffffffffffffffffffffff1673ffffffffffffffffffffffffffffffffffffffff168152602001600282015481526020016003820154815260200160048201548152602001600582015481526020016006820154815260200160078201548152602001600882015481526020016009820160009054906101000a900473ffffffffffffffffffffffffffffffffffffffff1673ffffffffffffffffffffffffffffffffffffffff1673ffffffffffffffffffffffffffffffffffffffff168152602001600a82015481525050905060008161012001514210612f6657816101200151612f68565b425b9050600062093a808360a0015183612f809190615416565b612f8a91906152f7565b9050808360e001511080612fa2575042836101200151115b9350505050919050565b7f000000000000000000000000000000000000000000000000000000000000000081565b60026000541415613016576040517f08c379a000000000000000000000000000000000000000000000000000000000815260040161300d90615113565b60405180910390fd5b600260008190555060006004600083815260200190815260200160002090506001600481111561306f577f4e487b7100000000000000000000000000000000000000000000000000000000600052602160045260246000fd5b8160000160009054906101000a900460ff1660048111156130b9577f4e487b7100000000000000000000000000000000000000000000000000000000600052602160045260246000fd5b146130f9576040517f08c379a00000000000000000000000000000000000000000000000000000000081526004016130f090614f73565b60405180910390fd5b3373ffffffffffffffffffffffffffffffffffffffff168160000160019054906101000a900473ffffffffffffffffffffffffffffffffffffffff1673ffffffffffffffffffffffffffffffffffffffff161461318b576040517f08c379a000000000000000000000000000000000000000000000000000000000815260040161318290614ed3565b60405180910390fd5b61319482612d50565b6131d3576040517f08c379a00000000000000000000000000000000000000000000000000000000081526004016131ca90614f13565b60405180910390fd5b60038160000160006101000a81548160ff02191690836004811115613221577f4e487b7100000000000000000000000000000000000000000000000000000000600052602160045260246000fd5b02179055508060000160019054906101000a900473ffffffffffffffffffffffffffffffffffffffff1673ffffffffffffffffffffffffffffffffffffffff166108fc82600201549081150290604051600060405180830381858888f19350505050158015613294573d6000803e3d6000fd5b5060046000838152602001908152602001600020600080820160006101000a81549060ff02191690556000820160016101000a81549073ffffffffffffffffffffffffffffffffffffffff02191690556001820160006101000a81549073ffffffffffffffffffffffffffffffffffffffff021916905560028201600090556003820160009055600482016000905560058201600090556006820160009055600782016000905560088201600090556009820160006101000a81549073ffffffffffffffffffffffffffffffffffffffff0219169055600a820160009055505050600160008190555050565b600260005414156133c6576040517f08c379a00000000000000000000000000000000000000000000000000000000081526004016133bd90615113565b60405180910390fd5b600260008190555060008062093a8042846133e19190615416565b6133eb919061552f565b149050806134375762093a80600162093a8042856134099190615416565b61341391906152f7565b61341d91906152a1565b6134279190615328565b4261343291906152a1565b613439565b815b91508573ffffffffffffffffffffffffffffffffffffffff1663e985e9c533306040518363ffffffff1660e01b8152600401613476929190614c67565b60206040518083038186803b15801561348e57600080fd5b505afa1580156134a2573d6000803e3d6000fd5b505050506040513d601f19601f820116820180604052508101906134c6919061469b565b613505576040517f08c379a00000000000000000000000000000000000000000000000000000000081526004016134fc90614e33565b60405180910390fd5b3373ffffffffffffffffffffffffffffffffffffffff168673ffffffffffffffffffffffffffffffffffffffff16636352211e876040518263ffffffff1660e01b8152600401613555919061518a565b60206040518083038186803b15801561356d57600080fd5b505afa158015613581573d6000803e3d6000fd5b505050506040513d601f19601f820116820180604052508101906135a59190614534565b73ffffffffffffffffffffffffffffffffffffffff16146135fb576040517f08c379a00000000000000000000000000000000000000000000000000000000081526004016135f290614e53565b60405180910390fd5b67016345785d8a00003414613645576040517f08c379a000000000000000000000000000000000000000000000000000000000815260040161363c90615093565b60405180910390fd5b60006040518061018001604052806000600481111561368d577f4e487b7100000000000000000000000000000000000000000000000000000000600052602160045260246000fd5b81526020013373ffffffffffffffffffffffffffffffffffffffff168152602001600073ffffffffffffffffffffffffffffffffffffffff1681526020018681526020018581526020016000815260200142815260200160008152602001600081526020018481526020018873ffffffffffffffffffffffffffffffffffffffff1681526020018781525090508060046000600354815260200190815260200160002060008201518160000160006101000a81548160ff02191690836004811115613781577f4e487b7100000000000000000000000000000000000000000000000000000000600052602160045260246000fd5b021790555060208201518160000160016101000a81548173ffffffffffffffffffffffffffffffffffffffff021916908373ffffffffffffffffffffffffffffffffffffffff16021790555060408201518160010160006101000a81548173ffffffffffffffffffffffffffffffffffffffff021916908373ffffffffffffffffffffffffffffffffffffffff160217905550606082015181600201556080820151816003015560a0820151816004015560c0820151816005015560e08201518160060155610100820151816007015561012082015181600801556101408201518160090160006101000a81548173ffffffffffffffffffffffffffffffffffffffff021916908373ffffffffffffffffffffffffffffffffffffffff16021790555061016082015181600a01559050507f32e08351149249c094252d308bf6dee229d75fc098065a02ec0c005da75242786003543389898989896040516138ef9796959493929190615221565b60405180910390a1600354600660008973ffffffffffffffffffffffffffffffffffffffff1673ffffffffffffffffffffffffffffffffffffffff16815260200190815260200160002060008881526020019081526020016000208190555060016003600082825461396191906152a1565b92505081905550505060016000819055505050505050565b60008060046000848152602001908152602001600020604051806101800160405290816000820160009054906101000a900460ff1660048111156139e6577f4e487b7100000000000000000000000000000000000000000000000000000000600052602160045260246000fd5b6004811115613a1e577f4e487b7100000000000000000000000000000000000000000000000000000000600052602160045260246000fd5b81526020016000820160019054906101000a900473ffffffffffffffffffffffffffffffffffffffff1673ffffffffffffffffffffffffffffffffffffffff1673ffffffffffffffffffffffffffffffffffffffff1681526020016001820160009054906101000a900473ffffffffffffffffffffffffffffffffffffffff1673ffffffffffffffffffffffffffffffffffffffff1673ffffffffffffffffffffffffffffffffffffffff168152602001600282015481526020016003820154815260200160048201548152602001600582015481526020016006820154815260200160078201548152602001600882015481526020016009820160009054906101000a900473ffffffffffffffffffffffffffffffffffffffff1673ffffffffffffffffffffffffffffffffffffffff1673ffffffffffffffffffffffffffffffffffffffff168152602001600a82015481525050905060018160e00151613b8791906152a1565b62093a80613b959190615328565b8160a00151613ba491906152a1565b915050919050565b60076020528060005260406000206000915054906101000a900460ff1681565b60035481565b60026020528060005260406000206000915090508060000160009054906101000a900460ff16908060000160019054906101000a900473ffffffffffffffffffffffffffffffffffffffff16908060010154908060020160009054906101000a900473ffffffffffffffffffffffffffffffffffffffff16908060030154905085565b60015481565b600080600260008481526020019081526020016000206040518060a00160405290816000820160009054906101000a900460ff166002811115613cc7577f4e487b7100000000000000000000000000000000000000000000000000000000600052602160045260246000fd5b6002811115613cff577f4e487b7100000000000000000000000000000000000000000000000000000000600052602160045260246000fd5b81526020016000820160019054906101000a900473ffffffffffffffffffffffffffffffffffffffff1673ffffffffffffffffffffffffffffffffffffffff1673ffffffffffffffffffffffffffffffffffffffff168152602001600182015481526020016002820160009054906101000a900473ffffffffffffffffffffffffffffffffffffffff1673ffffffffffffffffffffffffffffffffffffffff1673ffffffffffffffffffffffffffffffffffffffff1681526020016003820154815250509050600081606001519050816020015173ffffffffffffffffffffffffffffffffffffffff168173ffffffffffffffffffffffffffffffffffffffff16636352211e84608001516040518263ffffffff1660e01b8152600401613e26919061518a565b60206040518083038186803b158015613e3e57600080fd5b505afa158015613e52573d6000803e3d6000fd5b505050506040513d601f19601f82011682018060405250810190613e769190614534565b73ffffffffffffffffffffffffffffffffffffffff16148015613f2457508073ffffffffffffffffffffffffffffffffffffffff1663e985e9c58360200151306040518363ffffffff1660e01b8152600401613ed3929190614c67565b60206040518083038186803b158015613eeb57600080fd5b505afa158015613eff573d6000803e3d6000fd5b505050506040513d601f19601f82011682018060405250810190613f23919061469b565b5b8015613fa4575060006002811115613f65577f4e487b7100000000000000000000000000000000000000000000000000000000600052602160045260246000fd5b82600001516002811115613fa2577f4e487b7100000000000000000000000000000000000000000000000000000000600052602160045260246000fd5b145b92505050919050565b6000806004600084815260200190815260200160002090508060090160009054906101000a900473ffffffffffffffffffffffffffffffffffffffff1673ffffffffffffffffffffffffffffffffffffffff1663e985e9c58260000160019054906101000a900473ffffffffffffffffffffffffffffffffffffffff16306040518363ffffffff1660e01b8152600401614048929190614c67565b60206040518083038186803b15801561406057600080fd5b505afa158015614074573d6000803e3d6000fd5b505050506040513d601f19601f82011682018060405250810190614098919061469b565b80156141d957506004600084815260200190815260200160002060000160019054906101000a900473ffffffffffffffffffffffffffffffffffffffff1673ffffffffffffffffffffffffffffffffffffffff166004600085815260200190815260200160002060090160009054906101000a900473ffffffffffffffffffffffffffffffffffffffff1673ffffffffffffffffffffffffffffffffffffffff16636352211e60046000878152602001908152602001600020600a01546040518263ffffffff1660e01b8152600401614171919061518a565b60206040518083038186803b15801561418957600080fd5b505afa15801561419d573d6000803e3d6000fd5b505050506040513d601f19601f820116820180604052508101906141c19190614534565b73ffffffffffffffffffffffffffffffffffffffff16145b915050919050565b7f000000000000000000000000000000000000000000000000000000000000000073ffffffffffffffffffffffffffffffffffffffff163373ffffffffffffffffffffffffffffffffffffffff161461426f576040517f08c379a000000000000000000000000000000000000000000000000000000000815260040161426690615013565b60405180910390fd5b80600760008473ffffffffffffffffffffffffffffffffffffffff1673ffffffffffffffffffffffffffffffffffffffff16815260200190815260200160002060006101000a81548160ff0219169083151502179055505050565b7f000000000000000000000000000000000000000000000000000000000000000073ffffffffffffffffffffffffffffffffffffffff166108fc829081150290604051600060405180830381858888f19350505050158015614330573d6000803e3d6000fd5b5050565b6040518060a0016040528060006002811115614379577f4e487b7100000000000000000000000000000000000000000000000000000000600052602160045260246000fd5b8152602001600073ffffffffffffffffffffffffffffffffffffffff16815260200160008152602001600073ffffffffffffffffffffffffffffffffffffffff168152602001600081525090565b6040518061018001604052806000600481111561440d577f4e487b7100000000000000000000000000000000000000000000000000000000600052602160045260246000fd5b8152602001600073ffffffffffffffffffffffffffffffffffffffff168152602001600073ffffffffffffffffffffffffffffffffffffffff16815260200160008152602001600081526020016000815260200160008152602001600081526020016000815260200160008152602001600073ffffffffffffffffffffffffffffffffffffffff168152602001600081525090565b6000813590506144b181615a3c565b92915050565b6000815190506144c681615a3c565b92915050565b6000813590506144db81615a53565b92915050565b6000815190506144f081615a53565b92915050565b60008135905061450581615a6a565b92915050565b60006020828403121561451d57600080fd5b600061452b848285016144a2565b91505092915050565b60006020828403121561454657600080fd5b6000614554848285016144b7565b91505092915050565b6000806040838503121561457057600080fd5b600061457e858286016144a2565b925050602061458f858286016144cc565b9150509250929050565b600080604083850312156145ac57600080fd5b60006145ba858286016144a2565b92505060206145cb858286016144f6565b9150509250929050565b6000806000606084860312156145ea57600080fd5b60006145f8868287016144a2565b9350506020614609868287016144f6565b925050604061461a868287016144f6565b9150509250925092565b600080600080600060a0868803121561463c57600080fd5b600061464a888289016144a2565b955050602061465b888289016144f6565b945050604061466c888289016144f6565b935050606061467d888289016144f6565b925050608061468e888289016144f6565b9150509295509295909350565b6000602082840312156146ad57600080fd5b60006146bb848285016144e1565b91505092915050565b6000602082840312156146d657600080fd5b60006146e4848285016144f6565b91505092915050565b6146f68161544a565b82525050565b6147058161544a565b82525050565b6147148161545c565b82525050565b614723816154c2565b82525050565b614732816154c2565b82525050565b614741816154d4565b82525050565b614750816154d4565b82525050565b61475f8161548e565b82525050565b6000614772601183615290565b915061477d826155ed565b602082019050919050565b6000614795600f83615290565b91506147a082615616565b602082019050919050565b60006147b8601683615290565b91506147c38261563f565b602082019050919050565b60006147db601783615290565b91506147e682615668565b602082019050919050565b60006147fe601e83615290565b915061480982615691565b602082019050919050565b6000614821600983615290565b915061482c826156ba565b602082019050919050565b6000614844601183615290565b915061484f826156e3565b602082019050919050565b6000614867603983615290565b91506148728261570c565b604082019050919050565b600061488a600783615290565b91506148958261575b565b602082019050919050565b60006148ad601583615290565b91506148b882615784565b602082019050919050565b60006148d0601183615290565b91506148db826157ad565b602082019050919050565b60006148f3600b83615290565b91506148fe826157d6565b602082019050919050565b6000614916601583615290565b9150614921826157ff565b602082019050919050565b6000614939601483615290565b915061494482615828565b602082019050919050565b600061495c600b83615290565b915061496782615851565b602082019050919050565b600061497f600c83615290565b915061498a8261587a565b602082019050919050565b60006149a2600a83615290565b91506149ad826158a3565b602082019050919050565b60006149c5600983615290565b91506149d0826158cc565b602082019050919050565b60006149e8600783615290565b91506149f3826158f5565b602082019050919050565b6000614a0b600783615290565b9150614a168261591e565b602082019050919050565b6000614a2e601083615290565b9150614a3982615947565b602082019050919050565b6000614a51601283615290565b9150614a5c82615970565b602082019050919050565b6000614a74601b83615290565b9150614a7f82615999565b602082019050919050565b6000614a97601f83615290565b9150614aa2826159c2565b602082019050919050565b6000614aba600583615290565b9150614ac5826159eb565b602082019050919050565b60a082016000820151614ae6600085018261471a565b506020820151614af960208501826146ed565b506040820151614b0c6040850182614c2e565b506060820151614b1f60608501826146ed565b506080820151614b326080850182614c2e565b50505050565b61018082016000820151614b4f6000850182614738565b506020820151614b6260208501826146ed565b506040820151614b7560408501826146ed565b506060820151614b886060850182614c2e565b506080820151614b9b6080850182614c2e565b5060a0820151614bae60a0850182614c2e565b5060c0820151614bc160c0850182614c2e565b5060e0820151614bd460e0850182614c2e565b50610100820151614be9610100850182614c2e565b50610120820151614bfe610120850182614c2e565b50610140820151614c136101408501826146ed565b50610160820151614c28610160850182614c2e565b50505050565b614c37816154b8565b82525050565b614c46816154b8565b82525050565b6000602082019050614c6160008301846146fc565b92915050565b6000604082019050614c7c60008301856146fc565b614c8960208301846146fc565b9392505050565b6000606082019050614ca560008301866146fc565b614cb260208301856146fc565b614cbf6040830184614c3d565b949350505050565b6000604082019050614cdc60008301856146fc565b614ce96020830184614c3d565b9392505050565b6000602082019050614d05600083018461470b565b92915050565b600060a082019050614d206000830188614729565b614d2d60208301876146fc565b614d3a6040830186614c3d565b614d4760608301856146fc565b614d546080830184614c3d565b9695505050505050565b600061018082019050614d74600083018f614747565b614d81602083018e6146fc565b614d8e604083018d6146fc565b614d9b606083018c614c3d565b614da8608083018b614c3d565b614db560a083018a614c3d565b614dc260c0830189614c3d565b614dcf60e0830188614c3d565b614ddd610100830187614c3d565b614deb610120830186614c3d565b614df96101408301856146fc565b614e07610160830184614c3d565b9d9c50505050505050505050505050565b6000602082019050614e2d6000830184614756565b92915050565b60006020820190508181036000830152614e4c81614765565b9050919050565b60006020820190508181036000830152614e6c81614788565b9050919050565b60006020820190508181036000830152614e8c816147ab565b9050919050565b60006020820190508181036000830152614eac816147ce565b9050919050565b60006020820190508181036000830152614ecc816147f1565b9050919050565b60006020820190508181036000830152614eec81614814565b9050919050565b60006020820190508181036000830152614f0c81614837565b9050919050565b60006020820190508181036000830152614f2c8161485a565b9050919050565b60006020820190508181036000830152614f4c8161487d565b9050919050565b60006020820190508181036000830152614f6c816148a0565b9050919050565b60006020820190508181036000830152614f8c816148c3565b9050919050565b60006020820190508181036000830152614fac816148e6565b9050919050565b60006020820190508181036000830152614fcc81614909565b9050919050565b60006020820190508181036000830152614fec8161492c565b9050919050565b6000602082019050818103600083015261500c8161494f565b9050919050565b6000602082019050818103600083015261502c81614972565b9050919050565b6000602082019050818103600083015261504c81614995565b9050919050565b6000602082019050818103600083015261506c816149b8565b9050919050565b6000602082019050818103600083015261508c816149db565b9050919050565b600060208201905081810360008301526150ac816149fe565b9050919050565b600060208201905081810360008301526150cc81614a21565b9050919050565b600060208201905081810360008301526150ec81614a44565b9050919050565b6000602082019050818103600083015261510c81614a67565b9050919050565b6000602082019050818103600083015261512c81614a8a565b9050919050565b6000602082019050818103600083015261514c81614aad565b9050919050565b600060a0820190506151686000830184614ad0565b92915050565b6000610180820190506151846000830184614b38565b92915050565b600060208201905061519f6000830184614c3d565b92915050565b60006040820190506151ba6000830185614c3d565b6151c760208301846146fc565b9392505050565b600060a0820190506151e36000830188614c3d565b6151f060208301876146fc565b6151fd60408301866146fc565b61520a6060830185614c3d565b6152176080830184614c3d565b9695505050505050565b600060e082019050615236600083018a614c3d565b61524360208301896146fc565b61525060408301886146fc565b61525d6060830187614c3d565b61526a6080830186614c3d565b61527760a0830185614c3d565b61528460c0830184614c3d565b98975050505050505050565b600082825260208201905092915050565b60006152ac826154b8565b91506152b7836154b8565b9250827fffffffffffffffffffffffffffffffffffffffffffffffffffffffffffffffff038211156152ec576152eb615560565b5b828201905092915050565b6000615302826154b8565b915061530d836154b8565b92508261531d5761531c61558f565b5b828204905092915050565b6000615333826154b8565b915061533e836154b8565b9250817fffffffffffffffffffffffffffffffffffffffffffffffffffffffffffffffff048311821515161561537757615376615560565b5b828202905092915050565b600061538d8261548e565b91506153988361548e565b9250827f8000000000000000000000000000000000000000000000000000000000000000018212600084121516156153d3576153d2615560565b5b827f7fffffffffffffffffffffffffffffffffffffffffffffffffffffffffffffff01821360008412161561540b5761540a615560565b5b828203905092915050565b6000615421826154b8565b915061542c836154b8565b92508282101561543f5761543e615560565b5b828203905092915050565b600061545582615498565b9050919050565b60008115159050919050565b600081905061547682615a14565b919050565b600081905061548982615a28565b919050565b6000819050919050565b600073ffffffffffffffffffffffffffffffffffffffff82169050919050565b6000819050919050565b60006154cd82615468565b9050919050565b60006154df8261547b565b9050919050565b60006154f1826154b8565b91507fffffffffffffffffffffffffffffffffffffffffffffffffffffffffffffffff82141561552457615523615560565b5b600182019050919050565b600061553a826154b8565b9150615545836154b8565b9250826155555761555461558f565b5b828206905092915050565b7f4e487b7100000000000000000000000000000000000000000000000000000000600052601160045260246000fd5b7f4e487b7100000000000000000000000000000000000000000000000000000000600052601260045260246000fd5b7f4e487b7100000000000000000000000000000000000000000000000000000000600052602160045260246000fd5b7f616c6c6f77616e6365206e6f7420736574000000000000000000000000000000600082015250565b7f746f6b656e206f776e6572736869700000000000000000000000000000000000600082015250565b7f53656c6c65722063616e6e6f7420626520627579657200000000000000000000600082015250565b7f73686f756c64206265207374617475732071756f746564000000000000000000600082015250565b7f4f6e6c792073656c6c65722063616e2063616e63656c206c697374696e670000600082015250565b7f6e6f74206d616b65720000000000000000000000000000000000000000000000600082015250565b7f746f6f206d616e79207061796d656e7473000000000000000000000000000000600082015250565b7f7072656d69756d732068617665206265656e207061696420616e64206465616460008201527f6c696e652069732079657420746f206265207265616368656400000000000000602082015250565b7f7072656d69756d00000000000000000000000000000000000000000000000000600082015250565b7f4d616b65722063616e6e6f742062652074616b65720000000000000000000000600082015250565b7f73746174757320213d207374616b696e67000000000000000000000000000000600082015250565b7f6e6f742062757961626c65000000000000000000000000000000000000000000600082015250565b7f4c697374696e67206973206e6f74206163746976650000000000000000000000600082015250565b7f496e73756666696369656e74207061796d656e74000000000000000000000000600082015250565b7f21636f6c6c61746572616c000000000000000000000000000000000000000000600082015250565b7f6675636b206f6666202e7c2e0000000000000000000000000000000000000000600082015250565b7f21616c6c6f77616e636500000000000000000000000000000000000000000000600082015250565b7f6e6f742074616b65720000000000000000000000000000000000000000000000600082015250565b7f626164204e465400000000000000000000000000000000000000000000000000600082015250565b7f2162696446656500000000000000000000000000000000000000000000000000600082015250565b7f646561646c696e65207265616368656400000000000000000000000000000000600082015250565b7f6e6f6e2d616374697665207374616b696e670000000000000000000000000000600082015250565b7f7072656d69756d732068617665206e6f74206265656e20706169640000000000600082015250565b7f5265656e7472616e637947756172643a207265656e7472616e742063616c6c00600082015250565b7f656e646564000000000000000000000000000000000000000000000000000000600082015250565b60038110615a2557615a246155be565b5b50565b60058110615a3957615a386155be565b5b50565b615a458161544a565b8114615a5057600080fd5b50565b615a5c8161545c565b8114615a6757600080fd5b50565b615a73816154b8565b8114615a7e57600080fd5b5056fea2646970667358221220e0cc0078c1abdd3f96efb2534a106b2df7de07d149a4d46dd25a91b5484f24b864736f6c63430008040033",
  "linkReferences": {},
  "deployedLinkReferences": {}
}