{
  "_format": "hh-sol-artifact-1",
  "contractName": "Marketplace",
  "sourceName": "contracts/Marketplace.sol",
  "abi": [
    {
      "inputs": [
        {
          "internalType": "address",
          "name": "_platform",
          "type": "address"
        },
        {
          "internalType": "address",
          "name": "_token",
          "type": "address"
        },
        {
          "internalType": "address",
          "name": "_NFTTokenDistributionWhiteLister",
          "type": "address"
        },
        {
          "internalType": "uint256",
          "name": "_tokensDistributionAmount",
          "type": "uint256"
        },
        {
          "internalType": "uint256",
          "name": "_maxCollateralEligibleForTokens",
          "type": "uint256"
        }
      ],
      "stateMutability": "nonpayable",
      "type": "constructor"
    },
    {
      "anonymous": false,
      "inputs": [
        {
          "indexed": false,
          "internalType": "uint256",
          "name": "listingId",
          "type": "uint256"
        },
        {
          "indexed": false,
          "internalType": "address",
          "name": "seller",
          "type": "address"
        }
      ],
      "name": "CancelBid",
      "type": "event"
    },
    {
      "anonymous": false,
      "inputs": [
        {
          "indexed": false,
          "internalType": "uint256",
          "name": "rentalId",
          "type": "uint256"
        }
      ],
      "name": "FinishRentalForCollateral",
      "type": "event"
    },
    {
      "anonymous": false,
      "inputs": [
        {
          "indexed": false,
          "internalType": "uint256",
          "name": "rentalId",
          "type": "uint256"
        }
      ],
      "name": "FinishRentalForNFT",
      "type": "event"
    },
    {
      "anonymous": false,
      "inputs": [
        {
          "indexed": false,
          "internalType": "uint256",
          "name": "listingId",
          "type": "uint256"
        },
        {
          "indexed": false,
          "internalType": "address",
          "name": "seller",
          "type": "address"
        },
        {
          "indexed": false,
          "internalType": "address",
          "name": "token",
          "type": "address"
        },
        {
          "indexed": false,
          "internalType": "uint256",
          "name": "tokenId",
          "type": "uint256"
        },
        {
          "indexed": false,
          "internalType": "uint256",
          "name": "price",
          "type": "uint256"
        }
      ],
      "name": "Listed",
      "type": "event"
    },
    {
      "anonymous": false,
      "inputs": [
        {
          "indexed": false,
          "internalType": "uint256",
          "name": "stakingId",
          "type": "uint256"
        },
        {
          "indexed": false,
          "internalType": "address",
          "name": "maker",
          "type": "address"
        },
        {
          "indexed": false,
          "internalType": "address",
          "name": "token",
          "type": "address"
        },
        {
          "indexed": false,
          "internalType": "uint256",
          "name": "tokenId",
          "type": "uint256"
        },
        {
          "indexed": false,
          "internalType": "uint256",
          "name": "collateral",
          "type": "uint256"
        },
        {
          "indexed": false,
          "internalType": "uint256",
          "name": "premium",
          "type": "uint256"
        },
        {
          "indexed": false,
          "internalType": "uint256",
          "name": "deadline",
          "type": "uint256"
        }
      ],
      "name": "QuotedForStaking",
      "type": "event"
    },
    {
      "anonymous": false,
      "inputs": [
        {
          "indexed": false,
          "internalType": "uint256",
          "name": "rentalId",
          "type": "uint256"
        },
        {
          "indexed": false,
          "internalType": "address",
          "name": "taker",
          "type": "address"
        }
      ],
      "name": "Rental",
      "type": "event"
    },
    {
      "anonymous": false,
      "inputs": [
        {
          "indexed": false,
          "internalType": "uint256",
          "name": "listingId",
          "type": "uint256"
        },
        {
          "indexed": false,
          "internalType": "address",
          "name": "buyer",
          "type": "address"
        },
        {
          "indexed": false,
          "internalType": "address",
          "name": "token",
          "type": "address"
        },
        {
          "indexed": false,
          "internalType": "uint256",
          "name": "tokenId",
          "type": "uint256"
        },
        {
          "indexed": false,
          "internalType": "uint256",
          "name": "price",
          "type": "uint256"
        }
      ],
      "name": "Sale",
      "type": "event"
    },
    {
      "inputs": [],
      "name": "NFTTokenDistributionWhiteLister",
      "outputs": [
        {
          "internalType": "address",
          "name": "",
          "type": "address"
        }
      ],
      "stateMutability": "view",
      "type": "function"
    },
    {
      "inputs": [
        {
          "internalType": "address",
          "name": "",
          "type": "address"
        }
      ],
      "name": "NFTsEligibleForTokenDistribution",
      "outputs": [
        {
          "internalType": "bool",
          "name": "",
          "type": "bool"
        }
      ],
      "stateMutability": "view",
      "type": "function"
    },
    {
      "inputs": [
        {
          "internalType": "uint256",
          "name": "",
          "type": "uint256"
        }
      ],
      "name": "_listings",
      "outputs": [
        {
          "internalType": "enum Marketplace.ListingStatus",
          "name": "status",
          "type": "uint8"
        },
        {
          "internalType": "address",
          "name": "seller",
          "type": "address"
        },
        {
          "internalType": "uint256",
          "name": "price",
          "type": "uint256"
        },
        {
          "internalType": "address",
          "name": "token",
          "type": "address"
        },
        {
          "internalType": "uint256",
          "name": "tokenId",
          "type": "uint256"
        }
      ],
      "stateMutability": "view",
      "type": "function"
    },
    {
      "inputs": [],
      "name": "_listingsLastIndex",
      "outputs": [
        {
          "internalType": "uint256",
          "name": "",
          "type": "uint256"
        }
      ],
      "stateMutability": "view",
      "type": "function"
    },
    {
      "inputs": [
        {
          "internalType": "uint256",
          "name": "",
          "type": "uint256"
        }
      ],
      "name": "_stakings",
      "outputs": [
        {
          "internalType": "enum Marketplace.StakeStatus",
          "name": "status",
          "type": "uint8"
        },
        {
          "internalType": "address",
          "name": "maker",
          "type": "address"
        },
        {
          "internalType": "address",
          "name": "taker",
          "type": "address"
        },
        {
          "internalType": "uint256",
          "name": "collateral",
          "type": "uint256"
        },
        {
          "internalType": "uint256",
          "name": "premium",
          "type": "uint256"
        },
        {
          "internalType": "uint256",
          "name": "startRentalUTC",
          "type": "uint256"
        },
        {
          "internalType": "uint256",
          "name": "startStakingUTC",
          "type": "uint256"
        },
        {
          "internalType": "uint256",
          "name": "paymentsAmount",
          "type": "uint256"
        },
        {
          "internalType": "uint256",
          "name": "tokenPaymentsAmount",
          "type": "uint256"
        },
        {
          "internalType": "uint256",
          "name": "deadline",
          "type": "uint256"
        },
        {
          "internalType": "address",
          "name": "token",
          "type": "address"
        },
        {
          "internalType": "uint256",
          "name": "tokenId",
          "type": "uint256"
        }
      ],
      "stateMutability": "view",
      "type": "function"
    },
    {
      "inputs": [],
      "name": "_stakingsLastIndex",
      "outputs": [
        {
          "internalType": "uint256",
          "name": "",
          "type": "uint256"
        }
      ],
      "stateMutability": "view",
      "type": "function"
    },
    {
      "inputs": [
        {
          "internalType": "address",
          "name": "tokenContract",
          "type": "address"
        },
        {
          "internalType": "uint256",
          "name": "tokenId",
          "type": "uint256"
        },
        {
          "internalType": "uint256",
          "name": "priceWei",
          "type": "uint256"
        }
      ],
      "name": "bid",
      "outputs": [],
      "stateMutability": "payable",
      "type": "function"
    },
    {
      "inputs": [
        {
          "internalType": "uint256",
          "name": "listingId",
          "type": "uint256"
        }
      ],
      "name": "buyToken",
      "outputs": [],
      "stateMutability": "payable",
      "type": "function"
    },
    {
      "inputs": [
        {
          "internalType": "uint256",
          "name": "stakingId",
          "type": "uint256"
        }
      ],
      "name": "canRentNFT",
      "outputs": [
        {
          "internalType": "bool",
          "name": "",
          "type": "bool"
        }
      ],
      "stateMutability": "view",
      "type": "function"
    },
    {
      "inputs": [
        {
          "internalType": "uint256",
          "name": "listingId",
          "type": "uint256"
        }
      ],
      "name": "cancel",
      "outputs": [],
      "stateMutability": "nonpayable",
      "type": "function"
    },
    {
      "inputs": [
        {
          "internalType": "uint256",
          "name": "stakingId",
          "type": "uint256"
        }
      ],
      "name": "claimCollateral",
      "outputs": [],
      "stateMutability": "nonpayable",
      "type": "function"
    },
    {
      "inputs": [
        {
          "internalType": "uint256",
          "name": "stakingId",
          "type": "uint256"
        }
      ],
      "name": "claimTokens",
      "outputs": [],
      "stateMutability": "nonpayable",
      "type": "function"
    },
    {
      "inputs": [
        {
          "internalType": "uint256",
          "name": "stakingId",
          "type": "uint256"
        }
      ],
      "name": "dateOfNextPayment",
      "outputs": [
        {
          "internalType": "uint256",
          "name": "date",
          "type": "uint256"
        }
      ],
      "stateMutability": "view",
      "type": "function"
    },
    {
      "inputs": [
        {
          "internalType": "uint256",
          "name": "listingId",
          "type": "uint256"
        }
      ],
      "name": "getListing",
      "outputs": [
        {
          "components": [
            {
              "internalType": "enum Marketplace.ListingStatus",
              "name": "status",
              "type": "uint8"
            },
            {
              "internalType": "address",
              "name": "seller",
              "type": "address"
            },
            {
              "internalType": "uint256",
              "name": "price",
              "type": "uint256"
            },
            {
              "internalType": "address",
              "name": "token",
              "type": "address"
            },
            {
              "internalType": "uint256",
              "name": "tokenId",
              "type": "uint256"
            }
          ],
          "internalType": "struct Marketplace.Listing",
          "name": "",
          "type": "tuple"
        }
      ],
      "stateMutability": "view",
      "type": "function"
    },
    {
      "inputs": [
        {
          "internalType": "uint256",
          "name": "stakingId",
          "type": "uint256"
        }
      ],
      "name": "getStaking",
      "outputs": [
        {
          "components": [
            {
              "internalType": "enum Marketplace.StakeStatus",
              "name": "status",
              "type": "uint8"
            },
            {
              "internalType": "address",
              "name": "maker",
              "type": "address"
            },
            {
              "internalType": "address",
              "name": "taker",
              "type": "address"
            },
            {
              "internalType": "uint256",
              "name": "collateral",
              "type": "uint256"
            },
            {
              "internalType": "uint256",
              "name": "premium",
              "type": "uint256"
            },
            {
              "internalType": "uint256",
              "name": "startRentalUTC",
              "type": "uint256"
            },
            {
              "internalType": "uint256",
              "name": "startStakingUTC",
              "type": "uint256"
            },
            {
              "internalType": "uint256",
              "name": "paymentsAmount",
              "type": "uint256"
            },
            {
              "internalType": "uint256",
              "name": "tokenPaymentsAmount",
              "type": "uint256"
            },
            {
              "internalType": "uint256",
              "name": "deadline",
              "type": "uint256"
            },
            {
              "internalType": "address",
              "name": "token",
              "type": "address"
            },
            {
              "internalType": "uint256",
              "name": "tokenId",
              "type": "uint256"
            }
          ],
          "internalType": "struct Marketplace.Staking",
          "name": "",
          "type": "tuple"
        }
      ],
      "stateMutability": "view",
      "type": "function"
    },
    {
      "inputs": [
        {
          "internalType": "uint256",
          "name": "listingId",
          "type": "uint256"
        }
      ],
      "name": "isBuyable",
      "outputs": [
        {
          "internalType": "bool",
          "name": "",
          "type": "bool"
        }
      ],
      "stateMutability": "view",
      "type": "function"
    },
    {
      "inputs": [
        {
          "internalType": "uint256",
          "name": "stakingId",
          "type": "uint256"
        }
      ],
      "name": "isCollateralClaimable",
      "outputs": [
        {
          "internalType": "bool",
          "name": "status",
          "type": "bool"
        }
      ],
      "stateMutability": "view",
      "type": "function"
    },
    {
      "inputs": [],
      "name": "maxCollateralEligibleForTokens",
      "outputs": [
        {
          "internalType": "uint256",
          "name": "",
          "type": "uint256"
        }
      ],
      "stateMutability": "view",
      "type": "function"
    },
    {
      "inputs": [
        {
          "internalType": "address",
          "name": "",
          "type": "address"
        },
        {
          "internalType": "uint256",
          "name": "",
          "type": "uint256"
        }
      ],
      "name": "nftListingIds",
      "outputs": [
        {
          "internalType": "uint256",
          "name": "",
          "type": "uint256"
        }
      ],
      "stateMutability": "view",
      "type": "function"
    },
    {
      "inputs": [
        {
          "internalType": "address",
          "name": "",
          "type": "address"
        },
        {
          "internalType": "uint256",
          "name": "",
          "type": "uint256"
        }
      ],
      "name": "nftStakingIds",
      "outputs": [
        {
          "internalType": "uint256",
          "name": "",
          "type": "uint256"
        }
      ],
      "stateMutability": "view",
      "type": "function"
    },
    {
      "inputs": [
        {
          "internalType": "uint256",
          "name": "stakingId",
          "type": "uint256"
        }
      ],
      "name": "payPremium",
      "outputs": [],
      "stateMutability": "payable",
      "type": "function"
    },
    {
      "inputs": [
        {
          "internalType": "uint256",
          "name": "stakingId",
          "type": "uint256"
        }
      ],
      "name": "paymentsDue",
      "outputs": [
        {
          "internalType": "int256",
          "name": "amountDue",
          "type": "int256"
        }
      ],
      "stateMutability": "view",
      "type": "function"
    },
    {
      "inputs": [],
      "name": "platform",
      "outputs": [
        {
          "internalType": "address",
          "name": "",
          "type": "address"
        }
      ],
      "stateMutability": "view",
      "type": "function"
    },
    {
      "inputs": [
        {
          "internalType": "address",
          "name": "tokenContract",
          "type": "address"
        },
        {
          "internalType": "uint256",
          "name": "tokenId",
          "type": "uint256"
        },
        {
          "internalType": "uint256",
          "name": "collateralWei",
          "type": "uint256"
        },
        {
          "internalType": "uint256",
          "name": "premiumWei",
          "type": "uint256"
        },
        {
          "internalType": "uint256",
          "name": "deadlineUTC",
          "type": "uint256"
        }
      ],
      "name": "quoteForStaking",
      "outputs": [],
      "stateMutability": "payable",
      "type": "function"
    },
    {
      "inputs": [
        {
          "internalType": "uint256",
          "name": "stakingId",
          "type": "uint256"
        }
      ],
      "name": "rentNFT",
      "outputs": [],
      "stateMutability": "payable",
      "type": "function"
    },
    {
      "inputs": [
        {
          "internalType": "uint256",
          "name": "stakingId",
          "type": "uint256"
        }
      ],
      "name": "stopRental",
      "outputs": [],
      "stateMutability": "nonpayable",
      "type": "function"
    },
    {
      "inputs": [
        {
          "internalType": "uint256",
          "name": "stakingIndex",
          "type": "uint256"
        }
      ],
      "name": "stopStaking",
      "outputs": [],
      "stateMutability": "nonpayable",
      "type": "function"
    },
    {
      "inputs": [],
      "name": "tokensDistributionAmount",
      "outputs": [
        {
          "internalType": "uint256",
          "name": "",
          "type": "uint256"
        }
      ],
      "stateMutability": "view",
      "type": "function"
    },
    {
      "inputs": [],
      "name": "tokensDistributionEnd",
      "outputs": [
        {
          "internalType": "uint256",
          "name": "",
          "type": "uint256"
        }
      ],
      "stateMutability": "view",
      "type": "function"
    },
    {
      "inputs": [],
      "name": "undasToken",
      "outputs": [
        {
          "internalType": "address",
          "name": "",
          "type": "address"
        }
      ],
      "stateMutability": "view",
      "type": "function"
    },
    {
      "inputs": [
        {
          "internalType": "address",
          "name": "nft",
          "type": "address"
        },
        {
          "internalType": "bool",
          "name": "whitelist",
          "type": "bool"
        }
      ],
      "name": "whiteListNFTToggle",
      "outputs": [],
      "stateMutability": "nonpayable",
      "type": "function"
    }
  ],
  "bytecode": "0x6101406040523480156200001257600080fd5b506040516200602938038062006029833981810160405281019062000038919062000149565b60016000819055508473ffffffffffffffffffffffffffffffffffffffff1660808173ffffffffffffffffffffffffffffffffffffffff1660601b815250508373ffffffffffffffffffffffffffffffffffffffff1660a08173ffffffffffffffffffffffffffffffffffffffff1660601b815250508273ffffffffffffffffffffffffffffffffffffffff166101208173ffffffffffffffffffffffffffffffffffffffff1660601b815250508160c081815250508060e08181525050630114db0042620001089190620001cb565b61010081815250505050505050620002c9565b6000815190506200012c8162000295565b92915050565b6000815190506200014381620002af565b92915050565b600080600080600060a086880312156200016257600080fd5b600062000172888289016200011b565b955050602062000185888289016200011b565b945050604062000198888289016200011b565b9350506060620001ab8882890162000132565b9250506080620001be8882890162000132565b9150509295509295909350565b6000620001d8826200025c565b9150620001e5836200025c565b9250827fffffffffffffffffffffffffffffffffffffffffffffffffffffffffffffffff038211156200021d576200021c62000266565b5b828201905092915050565b600062000235826200023c565b9050919050565b600073ffffffffffffffffffffffffffffffffffffffff82169050919050565b6000819050919050565b7f4e487b7100000000000000000000000000000000000000000000000000000000600052601160045260246000fd5b620002a08162000228565b8114620002ac57600080fd5b50565b620002ba816200025c565b8114620002c657600080fd5b50565b60805160601c60a05160601c60c05160e051610100516101205160601c615ce46200034560003960008181612e2501526143a4015260008181611d390152612b7c0152600061206a015260008181612cd901526130ee015260008181612d210152612e49015260008181612e01015261448d0152615ce46000f3fe6080604052600436106101d85760003560e01c80634bde38c811610102578063d100554311610095578063e324466411610064578063e3244664146106d4578063e738c7c8146106ff578063ecaf6d601461073c578063ed4a4a5614610779576101d8565b8063d1005543146105ee578063d6d38d171461062b578063d78a75ad14610668578063df76dbc914610693576101d8565b8063b6e96f4c116100d1578063b6e96f4c14610541578063beefd0f51461057e578063c49785b4146105a9578063c893c659146105d2576101d8565b80634bde38c814610483578063619d4d36146104ae578063973c0622146104d9578063ab50fbb414610504576101d8565b80631ec7d89e1161017a57806331eb3f371161014957806331eb3f37146103d857806340e58ee5146104155780634364b26e1461043e57806346e04a2f1461045a576101d8565b80631ec7d89e146103295780631f01c0d1146103545780632449d3bc146103915780632d296bf1146103bc576101d8565b8063107a274a116101b6578063107a274a1461027e57806314364f1d146102bb578063156ecc3d146102d75780631c760bdb14610300576101d8565b80630ae3f109146101dd5780630ed3212e146102255780630f41ba4b14610262575b600080fd5b3480156101e957600080fd5b5061020460048036038101906101ff9190614885565b6107a2565b60405161021c9c9b9a99989796959493929190614f42565b60405180910390f35b34801561023157600080fd5b5061024c6004803603810190610247919061475a565b61086f565b604051610259919061538e565b60405180910390f35b61027c60048036038101906102779190614796565b610894565b005b34801561028a57600080fd5b506102a560048036038101906102a09190614885565b610d57565b6040516102b29190615357565b60405180910390f35b6102d560048036038101906102d09190614885565b610ecb565b005b3480156102e357600080fd5b506102fe60048036038101906102f99190614885565b6114a0565b005b34801561030c57600080fd5b5061032760048036038101906103229190614885565b611951565b005b34801561033557600080fd5b5061033e611d37565b60405161034b919061538e565b60405180910390f35b34801561036057600080fd5b5061037b60048036038101906103769190614885565b611d5b565b6040516103889190614ffc565b60405180910390f35b34801561039d57600080fd5b506103a6612068565b6040516103b3919061538e565b60405180910390f35b6103d660048036038101906103d19190614885565b61208c565b005b3480156103e457600080fd5b506103ff60048036038101906103fa9190614885565b61240c565b60405161040c9190615372565b60405180910390f35b34801561042157600080fd5b5061043c60048036038101906104379190614885565b612613565b005b61045860048036038101906104539190614885565b61288a565b005b34801561046657600080fd5b50610481600480360381019061047c9190614885565b612b2c565b005b34801561048f57600080fd5b50610498612dff565b6040516104a59190614e30565b60405180910390f35b3480156104ba57600080fd5b506104c3612e23565b6040516104d09190614e30565b60405180910390f35b3480156104e557600080fd5b506104ee612e47565b6040516104fb9190614e30565b60405180910390f35b34801561051057600080fd5b5061052b6004803603810190610526919061475a565b612e6b565b604051610538919061538e565b60405180910390f35b34801561054d57600080fd5b5061056860048036038101906105639190614885565b612e90565b6040516105759190614ed4565b60405180910390f35b34801561058a57600080fd5b506105936130ec565b6040516105a0919061538e565b60405180910390f35b3480156105b557600080fd5b506105d060048036038101906105cb9190614885565b613110565b005b6105ec60048036038101906105e791906147e5565b6134c0565b005b3480156105fa57600080fd5b5061061560048036038101906106109190614885565b613ab9565b604051610622919061538e565b60405180910390f35b34801561063757600080fd5b50610652600480360381019061064d91906146cc565b613ce0565b60405161065f9190614ed4565b60405180910390f35b34801561067457600080fd5b5061067d613d00565b60405161068a919061538e565b60405180910390f35b34801561069f57600080fd5b506106ba60048036038101906106b59190614885565b613d06565b6040516106cb959493929190614eef565b60405180910390f35b3480156106e057600080fd5b506106e9613d89565b6040516106f6919061538e565b60405180910390f35b34801561070b57600080fd5b5061072660048036038101906107219190614885565b613d8f565b6040516107339190614ed4565b60405180910390f35b34801561074857600080fd5b50610763600480360381019061075e9190614885565b6140e1565b6040516107709190614ed4565b60405180910390f35b34801561078557600080fd5b506107a0600480360381019061079b919061471e565b6143a2565b005b60046020528060005260406000206000915090508060000160009054906101000a900460ff16908060000160019054906101000a900473ffffffffffffffffffffffffffffffffffffffff16908060010160009054906101000a900473ffffffffffffffffffffffffffffffffffffffff16908060020154908060030154908060040154908060050154908060060154908060070154908060080154908060090160009054906101000a900473ffffffffffffffffffffffffffffffffffffffff169080600a015490508c565b6006602052816000526040600020602052806000526040600020600091509150505481565b600260005414156108da576040517f08c379a00000000000000000000000000000000000000000000000000000000081526004016108d190615317565b60405180910390fd5b60026000819055508273ffffffffffffffffffffffffffffffffffffffff1663e985e9c533306040518363ffffffff1660e01b815260040161091d929190614e4b565b60206040518083038186803b15801561093557600080fd5b505afa158015610949573d6000803e3d6000fd5b505050506040513d601f19601f8201168201806040525081019061096d919061485c565b6109ac576040517f08c379a00000000000000000000000000000000000000000000000000000000081526004016109a390615217565b60405180910390fd5b3373ffffffffffffffffffffffffffffffffffffffff168373ffffffffffffffffffffffffffffffffffffffff16636352211e846040518263ffffffff1660e01b81526004016109fc919061538e565b60206040518083038186803b158015610a1457600080fd5b505afa158015610a28573d6000803e3d6000fd5b505050506040513d601f19601f82011682018060405250810190610a4c91906146f5565b73ffffffffffffffffffffffffffffffffffffffff1614610aa2576040517f08c379a0000000000000000000000000000000000000000000000000000000008152600401610a9990615037565b60405180910390fd5b67016345785d8a00003414610aec576040517f08c379a0000000000000000000000000000000000000000000000000000000008152600401610ae390615277565b60405180910390fd5b610afd67016345785d8a000061448b565b6040518060a0016040528060006002811115610b42577f4e487b7100000000000000000000000000000000000000000000000000000000600052602160045260246000fd5b81526020013373ffffffffffffffffffffffffffffffffffffffff1681526020018281526020018473ffffffffffffffffffffffffffffffffffffffff1681526020018381525060026000600154815260200190815260200160002060008201518160000160006101000a81548160ff02191690836002811115610bef577f4e487b7100000000000000000000000000000000000000000000000000000000600052602160045260246000fd5b021790555060208201518160000160016101000a81548173ffffffffffffffffffffffffffffffffffffffff021916908373ffffffffffffffffffffffffffffffffffffffff1602179055506040820151816001015560608201518160020160006101000a81548173ffffffffffffffffffffffffffffffffffffffff021916908373ffffffffffffffffffffffffffffffffffffffff160217905550608082015181600301559050507f723f73331eaee88eec7fc68ef60ab6ed15e4b90d0472b55eb92fa43910bab6dd60015433858585604051610cd29594939291906153d2565b60405180910390a1600154600560008573ffffffffffffffffffffffffffffffffffffffff1673ffffffffffffffffffffffffffffffffffffffff1681526020019081526020016000206000848152602001908152602001600020819055506001806000828254610d4391906154a5565b925050819055506001600081905550505050565b610d5f6144f5565b600260008381526020019081526020016000206040518060a00160405290816000820160009054906101000a900460ff166002811115610dc8577f4e487b7100000000000000000000000000000000000000000000000000000000600052602160045260246000fd5b6002811115610e00577f4e487b7100000000000000000000000000000000000000000000000000000000600052602160045260246000fd5b81526020016000820160019054906101000a900473ffffffffffffffffffffffffffffffffffffffff1673ffffffffffffffffffffffffffffffffffffffff1673ffffffffffffffffffffffffffffffffffffffff168152602001600182015481526020016002820160009054906101000a900473ffffffffffffffffffffffffffffffffffffffff1673ffffffffffffffffffffffffffffffffffffffff1673ffffffffffffffffffffffffffffffffffffffff1681526020016003820154815250509050919050565b60026000541415610f11576040517f08c379a0000000000000000000000000000000000000000000000000000000008152600401610f0890615317565b60405180910390fd5b600260008190555060006004600083815260200190815260200160002090508060000160019054906101000a900473ffffffffffffffffffffffffffffffffffffffff1673ffffffffffffffffffffffffffffffffffffffff163373ffffffffffffffffffffffffffffffffffffffff161415610fc3576040517f08c379a0000000000000000000000000000000000000000000000000000000008152600401610fba90615137565b60405180910390fd5b8060090160009054906101000a900473ffffffffffffffffffffffffffffffffffffffff1673ffffffffffffffffffffffffffffffffffffffff1663e985e9c58260000160019054906101000a900473ffffffffffffffffffffffffffffffffffffffff16306040518363ffffffff1660e01b8152600401611046929190614e4b565b60206040518083038186803b15801561105e57600080fd5b505afa158015611072573d6000803e3d6000fd5b505050506040513d601f19601f82011682018060405250810190611096919061485c565b6110d5576040517f08c379a00000000000000000000000000000000000000000000000000000000081526004016110cc90615217565b60405180910390fd5b806003015481600201546110e991906154a5565b341461112a576040517f08c379a0000000000000000000000000000000000000000000000000000000008152600401611121906151d7565b60405180910390fd5b60006004811115611164577f4e487b7100000000000000000000000000000000000000000000000000000000600052602160045260246000fd5b8160000160009054906101000a900460ff1660048111156111ae577f4e487b7100000000000000000000000000000000000000000000000000000000600052602160045260246000fd5b146111ee576040517f08c379a00000000000000000000000000000000000000000000000000000000081526004016111e5906152d7565b60405180910390fd5b428160040181905550338160010160006101000a81548173ffffffffffffffffffffffffffffffffffffffff021916908373ffffffffffffffffffffffffffffffffffffffff16021790555060018160000160006101000a81548160ff02191690836004811115611288577f4e487b7100000000000000000000000000000000000000000000000000000000600052602160045260246000fd5b0217905550600181600601819055508060090160009054906101000a900473ffffffffffffffffffffffffffffffffffffffff1673ffffffffffffffffffffffffffffffffffffffff166342842e0e8260000160019054906101000a900473ffffffffffffffffffffffffffffffffffffffff168360010160009054906101000a900473ffffffffffffffffffffffffffffffffffffffff1684600a01546040518463ffffffff1660e01b815260040161134493929190614e74565b600060405180830381600087803b15801561135e57600080fd5b505af1158015611372573d6000803e3d6000fd5b505050508060000160019054906101000a900473ffffffffffffffffffffffffffffffffffffffff1673ffffffffffffffffffffffffffffffffffffffff166108fc67016345785d8a00009081150290604051600060405180830381858888f193505050501580156113e8573d6000803e3d6000fd5b5060006014606483600301546113fe91906154fb565b611408919061552c565b9050600081836003015461141c919061561a565b90506114278261448b565b8260000160019054906101000a900473ffffffffffffffffffffffffffffffffffffffff1673ffffffffffffffffffffffffffffffffffffffff166108fc829081150290604051600060405180830381858888f19350505050158015611491573d6000803e3d6000fd5b50505050600160008190555050565b600260005414156114e6576040517f08c379a00000000000000000000000000000000000000000000000000000000081526004016114dd90615317565b60405180910390fd5b600260008190555060006004600083815260200190815260200160002090506001600481111561153f577f4e487b7100000000000000000000000000000000000000000000000000000000600052602160045260246000fd5b8160000160009054906101000a900460ff166004811115611589577f4e487b7100000000000000000000000000000000000000000000000000000000600052602160045260246000fd5b146115c9576040517f08c379a00000000000000000000000000000000000000000000000000000000081526004016115c0906152b7565b60405180910390fd5b3373ffffffffffffffffffffffffffffffffffffffff168160010160009054906101000a900473ffffffffffffffffffffffffffffffffffffffff1673ffffffffffffffffffffffffffffffffffffffff161461165b576040517f08c379a000000000000000000000000000000000000000000000000000000000815260040161165290615237565b60405180910390fd5b600062093a80826004015442611671919061561a565b61167b91906154fb565b905080826006015410156116c4576040517f08c379a00000000000000000000000000000000000000000000000000000000081526004016116bb906152f7565b60405180910390fd5b60028260000160006101000a81548160ff02191690836004811115611712577f4e487b7100000000000000000000000000000000000000000000000000000000600052602160045260246000fd5b02179055508160090160009054906101000a900473ffffffffffffffffffffffffffffffffffffffff1673ffffffffffffffffffffffffffffffffffffffff166342842e0e8360010160009054906101000a900473ffffffffffffffffffffffffffffffffffffffff168460000160019054906101000a900473ffffffffffffffffffffffffffffffffffffffff1685600a01546040518463ffffffff1660e01b81526004016117c493929190614e74565b600060405180830381600087803b1580156117de57600080fd5b505af11580156117f2573d6000803e3d6000fd5b505050508160010160009054906101000a900473ffffffffffffffffffffffffffffffffffffffff1673ffffffffffffffffffffffffffffffffffffffff166108fc83600201549081150290604051600060405180830381858888f19350505050158015611864573d6000803e3d6000fd5b5060046000848152602001908152602001600020600080820160006101000a81549060ff02191690556000820160016101000a81549073ffffffffffffffffffffffffffffffffffffffff02191690556001820160006101000a81549073ffffffffffffffffffffffffffffffffffffffff021916905560028201600090556003820160009055600482016000905560058201600090556006820160009055600782016000905560088201600090556009820160006101000a81549073ffffffffffffffffffffffffffffffffffffffff0219169055600a82016000905550505050600160008190555050565b60026000541415611997576040517f08c379a000000000000000000000000000000000000000000000000000000000815260040161198e90615317565b60405180910390fd5b60026000819055506004600082815260200190815260200160002060090160009054906101000a900473ffffffffffffffffffffffffffffffffffffffff1673ffffffffffffffffffffffffffffffffffffffff1663e985e9c533306040518363ffffffff1660e01b8152600401611a10929190614e4b565b60206040518083038186803b158015611a2857600080fd5b505afa158015611a3c573d6000803e3d6000fd5b505050506040513d601f19601f82011682018060405250810190611a60919061485c565b611a9f576040517f08c379a0000000000000000000000000000000000000000000000000000000008152600401611a9690615017565b60405180910390fd5b60006004811115611ad9577f4e487b7100000000000000000000000000000000000000000000000000000000600052602160045260246000fd5b6004600083815260200190815260200160002060000160009054906101000a900460ff166004811115611b35577f4e487b7100000000000000000000000000000000000000000000000000000000600052602160045260246000fd5b14611b75576040517f08c379a0000000000000000000000000000000000000000000000000000000008152600401611b6c90615077565b60405180910390fd5b3373ffffffffffffffffffffffffffffffffffffffff166004600083815260200190815260200160002060090160009054906101000a900473ffffffffffffffffffffffffffffffffffffffff1673ffffffffffffffffffffffffffffffffffffffff16636352211e60046000858152602001908152602001600020600a01546040518263ffffffff1660e01b8152600401611c11919061538e565b60206040518083038186803b158015611c2957600080fd5b505afa158015611c3d573d6000803e3d6000fd5b505050506040513d601f19601f82011682018060405250810190611c6191906146f5565b73ffffffffffffffffffffffffffffffffffffffff1614611cb7576040517f08c379a0000000000000000000000000000000000000000000000000000000008152600401611cae90615037565b60405180910390fd5b600480600083815260200190815260200160002060000160006101000a81548160ff02191690836004811115611d16577f4e487b7100000000000000000000000000000000000000000000000000000000600052602160045260246000fd5b0217905550611d2c67016345785d8a000061448b565b600160008190555050565b7f000000000000000000000000000000000000000000000000000000000000000081565b60008060046000848152602001908152602001600020604051806101800160405290816000820160009054906101000a900460ff166004811115611dc8577f4e487b7100000000000000000000000000000000000000000000000000000000600052602160045260246000fd5b6004811115611e00577f4e487b7100000000000000000000000000000000000000000000000000000000600052602160045260246000fd5b81526020016000820160019054906101000a900473ffffffffffffffffffffffffffffffffffffffff1673ffffffffffffffffffffffffffffffffffffffff1673ffffffffffffffffffffffffffffffffffffffff1681526020016001820160009054906101000a900473ffffffffffffffffffffffffffffffffffffffff1673ffffffffffffffffffffffffffffffffffffffff1673ffffffffffffffffffffffffffffffffffffffff168152602001600282015481526020016003820154815260200160048201548152602001600582015481526020016006820154815260200160078201548152602001600882015481526020016009820160009054906101000a900473ffffffffffffffffffffffffffffffffffffffff1673ffffffffffffffffffffffffffffffffffffffff1673ffffffffffffffffffffffffffffffffffffffff168152602001600a82015481525050905060016004811115611f92577f4e487b7100000000000000000000000000000000000000000000000000000000600052602160045260246000fd5b81600001516004811115611fcf577f4e487b7100000000000000000000000000000000000000000000000000000000600052602160045260246000fd5b1461200f576040517f08c379a0000000000000000000000000000000000000000000000000000000008152600401612006906152d7565b60405180910390fd5b600081610120015142106120285781610120015161202a565b425b9050600062093a808360a0015183612042919061561a565b61204c91906154fb565b90508260e001518161205e9190615586565b9350505050919050565b7f000000000000000000000000000000000000000000000000000000000000000081565b600260005414156120d2576040517f08c379a00000000000000000000000000000000000000000000000000000000081526004016120c990615317565b60405180910390fd5b6002600081905550600060026000838152602001908152602001600020905060008160020160009054906101000a900473ffffffffffffffffffffffffffffffffffffffff1690508160000160019054906101000a900473ffffffffffffffffffffffffffffffffffffffff1673ffffffffffffffffffffffffffffffffffffffff163373ffffffffffffffffffffffffffffffffffffffff1614156121ad576040517f08c379a00000000000000000000000000000000000000000000000000000000081526004016121a490615057565b60405180910390fd5b816001015434146121f3576040517f08c379a00000000000000000000000000000000000000000000000000000000081526004016121ea906151b7565b60405180910390fd5b6121fc83613d8f565b61223b576040517f08c379a000000000000000000000000000000000000000000000000000000000815260040161223290615177565b60405180910390fd5b60018260000160006101000a81548160ff02191690836002811115612289577f4e487b7100000000000000000000000000000000000000000000000000000000600052602160045260246000fd5b02179055508073ffffffffffffffffffffffffffffffffffffffff166342842e0e8360000160019054906101000a900473ffffffffffffffffffffffffffffffffffffffff163385600301546040518463ffffffff1660e01b81526004016122f393929190614e74565b600060405180830381600087803b15801561230d57600080fd5b505af1158015612321573d6000803e3d6000fd5b505050508160000160019054906101000a900473ffffffffffffffffffffffffffffffffffffffff1673ffffffffffffffffffffffffffffffffffffffff166108fc83600101549081150290604051600060405180830381858888f19350505050158015612393573d6000803e3d6000fd5b507ff3debaf22196a6ddf52a60fa71058cd7edf5e25bb98f4e96c994a5d4a9b0dd3e83338460020160009054906101000a900473ffffffffffffffffffffffffffffffffffffffff16856003015486600101546040516123f79594939291906153d2565b60405180910390a15050600160008190555050565b612414614588565b60046000838152602001908152602001600020604051806101800160405290816000820160009054906101000a900460ff16600481111561247e577f4e487b7100000000000000000000000000000000000000000000000000000000600052602160045260246000fd5b60048111156124b6577f4e487b7100000000000000000000000000000000000000000000000000000000600052602160045260246000fd5b81526020016000820160019054906101000a900473ffffffffffffffffffffffffffffffffffffffff1673ffffffffffffffffffffffffffffffffffffffff1673ffffffffffffffffffffffffffffffffffffffff1681526020016001820160009054906101000a900473ffffffffffffffffffffffffffffffffffffffff1673ffffffffffffffffffffffffffffffffffffffff1673ffffffffffffffffffffffffffffffffffffffff168152602001600282015481526020016003820154815260200160048201548152602001600582015481526020016006820154815260200160078201548152602001600882015481526020016009820160009054906101000a900473ffffffffffffffffffffffffffffffffffffffff1673ffffffffffffffffffffffffffffffffffffffff1673ffffffffffffffffffffffffffffffffffffffff168152602001600a820154815250509050919050565b60026000541415612659576040517f08c379a000000000000000000000000000000000000000000000000000000000815260040161265090615317565b60405180910390fd5b600260008190555060006002600083815260200190815260200160002090508060000160019054906101000a900473ffffffffffffffffffffffffffffffffffffffff1673ffffffffffffffffffffffffffffffffffffffff163373ffffffffffffffffffffffffffffffffffffffff161461270a576040517f08c379a000000000000000000000000000000000000000000000000000000000815260040161270190615097565b60405180910390fd5b60006002811115612744577f4e487b7100000000000000000000000000000000000000000000000000000000600052602160045260246000fd5b8160000160009054906101000a900460ff16600281111561278e577f4e487b7100000000000000000000000000000000000000000000000000000000600052602160045260246000fd5b146127ce576040517f08c379a00000000000000000000000000000000000000000000000000000000081526004016127c590615197565b60405180910390fd5b60028160000160006101000a81548160ff0219169083600281111561281c577f4e487b7100000000000000000000000000000000000000000000000000000000600052602160045260246000fd5b02179055507f874afcdd5e90b2329b3c1601e613dcdc6abb6deb62ce61339a8337b48c053e51828260000160019054906101000a900473ffffffffffffffffffffffffffffffffffffffff166040516128769291906153a9565b60405180910390a150600160008190555050565b6000600460008381526020019081526020016000209050600160048111156128db577f4e487b7100000000000000000000000000000000000000000000000000000000600052602160045260246000fd5b8160000160009054906101000a900460ff166004811115612925577f4e487b7100000000000000000000000000000000000000000000000000000000600052602160045260246000fd5b14612965576040517f08c379a000000000000000000000000000000000000000000000000000000000815260040161295c90615157565b60405180910390fd5b806003015434146129ab576040517f08c379a00000000000000000000000000000000000000000000000000000000081526004016129a290615117565b60405180910390fd5b806008015442106129f1576040517f08c379a00000000000000000000000000000000000000000000000000000000081526004016129e890615297565b60405180910390fd5b600062093a8082600401548360080154612a0b919061561a565b612a1591906154fb565b90508060018360060154612a2991906154a5565b1115612a6a576040517f08c379a0000000000000000000000000000000000000000000000000000000008152600401612a61906150d7565b60405180910390fd5b60006014606434612a7b91906154fb565b612a85919061552c565b905060008134612a95919061561a565b9050612aa08261448b565b8360000160019054906101000a900473ffffffffffffffffffffffffffffffffffffffff1673ffffffffffffffffffffffffffffffffffffffff166108fc829081150290604051600060405180830381858888f19350505050158015612b0a573d6000803e3d6000fd5b50836006016000815480929190612b20906156ea565b91905055505050505050565b60026000541415612b72576040517f08c379a0000000000000000000000000000000000000000000000000000000008152600401612b6990615317565b60405180910390fd5b60026000819055507f00000000000000000000000000000000000000000000000000000000000000004210612bdc576040517f08c379a0000000000000000000000000000000000000000000000000000000008152600401612bd390615337565b60405180910390fd5b6000600460008381526020019081526020016000209050600760008260090160009054906101000a900473ffffffffffffffffffffffffffffffffffffffff1673ffffffffffffffffffffffffffffffffffffffff1673ffffffffffffffffffffffffffffffffffffffff16815260200190815260200160002060009054906101000a900460ff16612ca3576040517f08c379a0000000000000000000000000000000000000000000000000000000008152600401612c9a90615257565b60405180910390fd5b6000816007015462093a80836005015442612cbe919061561a565b612cc891906154fb565b612cd2919061561a565b90506000817f0000000000000000000000000000000000000000000000000000000000000000612d02919061552c565b905081836007016000828254612d1891906154a5565b925050819055507f000000000000000000000000000000000000000000000000000000000000000073ffffffffffffffffffffffffffffffffffffffff1663a9059cbb8460000160019054906101000a900473ffffffffffffffffffffffffffffffffffffffff16836040518363ffffffff1660e01b8152600401612d9e929190614eab565b602060405180830381600087803b158015612db857600080fd5b505af1158015612dcc573d6000803e3d6000fd5b505050506040513d601f19601f82011682018060405250810190612df0919061485c565b50505050600160008190555050565b7f000000000000000000000000000000000000000000000000000000000000000081565b7f000000000000000000000000000000000000000000000000000000000000000081565b7f000000000000000000000000000000000000000000000000000000000000000081565b6005602052816000526040600020602052806000526040600020600091509150505481565b60008060046000848152602001908152602001600020604051806101800160405290816000820160009054906101000a900460ff166004811115612efd577f4e487b7100000000000000000000000000000000000000000000000000000000600052602160045260246000fd5b6004811115612f35577f4e487b7100000000000000000000000000000000000000000000000000000000600052602160045260246000fd5b81526020016000820160019054906101000a900473ffffffffffffffffffffffffffffffffffffffff1673ffffffffffffffffffffffffffffffffffffffff1673ffffffffffffffffffffffffffffffffffffffff1681526020016001820160009054906101000a900473ffffffffffffffffffffffffffffffffffffffff1673ffffffffffffffffffffffffffffffffffffffff1673ffffffffffffffffffffffffffffffffffffffff168152602001600282015481526020016003820154815260200160048201548152602001600582015481526020016006820154815260200160078201548152602001600882015481526020016009820160009054906101000a900473ffffffffffffffffffffffffffffffffffffffff1673ffffffffffffffffffffffffffffffffffffffff1673ffffffffffffffffffffffffffffffffffffffff168152602001600a820154815250509050600081610120015142106130a6578161012001516130a8565b425b9050600062093a808360a00151836130c0919061561a565b6130ca91906154fb565b9050808360e0015110806130e2575042836101200151115b9350505050919050565b7f000000000000000000000000000000000000000000000000000000000000000081565b60026000541415613156576040517f08c379a000000000000000000000000000000000000000000000000000000000815260040161314d90615317565b60405180910390fd5b60026000819055506000600460008381526020019081526020016000209050600160048111156131af577f4e487b7100000000000000000000000000000000000000000000000000000000600052602160045260246000fd5b8160000160009054906101000a900460ff1660048111156131f9577f4e487b7100000000000000000000000000000000000000000000000000000000600052602160045260246000fd5b14613239576040517f08c379a000000000000000000000000000000000000000000000000000000000815260040161323090615157565b60405180910390fd5b3373ffffffffffffffffffffffffffffffffffffffff168160000160019054906101000a900473ffffffffffffffffffffffffffffffffffffffff1673ffffffffffffffffffffffffffffffffffffffff16146132cb576040517f08c379a00000000000000000000000000000000000000000000000000000000081526004016132c2906150b7565b60405180910390fd5b6132d482612e90565b613313576040517f08c379a000000000000000000000000000000000000000000000000000000000815260040161330a906150f7565b60405180910390fd5b60038160000160006101000a81548160ff02191690836004811115613361577f4e487b7100000000000000000000000000000000000000000000000000000000600052602160045260246000fd5b02179055508060000160019054906101000a900473ffffffffffffffffffffffffffffffffffffffff1673ffffffffffffffffffffffffffffffffffffffff166108fc82600201549081150290604051600060405180830381858888f193505050501580156133d4573d6000803e3d6000fd5b5060046000838152602001908152602001600020600080820160006101000a81549060ff02191690556000820160016101000a81549073ffffffffffffffffffffffffffffffffffffffff02191690556001820160006101000a81549073ffffffffffffffffffffffffffffffffffffffff021916905560028201600090556003820160009055600482016000905560058201600090556006820160009055600782016000905560088201600090556009820160006101000a81549073ffffffffffffffffffffffffffffffffffffffff0219169055600a820160009055505050600160008190555050565b60026000541415613506576040517f08c379a00000000000000000000000000000000000000000000000000000000081526004016134fd90615317565b60405180910390fd5b600260008190555060008062093a804284613521919061561a565b61352b9190615733565b149050806135775762093a80600162093a804285613549919061561a565b61355391906154fb565b61355d91906154a5565b613567919061552c565b4261357291906154a5565b613579565b815b91508573ffffffffffffffffffffffffffffffffffffffff1663e985e9c533306040518363ffffffff1660e01b81526004016135b6929190614e4b565b60206040518083038186803b1580156135ce57600080fd5b505afa1580156135e2573d6000803e3d6000fd5b505050506040513d601f19601f82011682018060405250810190613606919061485c565b613645576040517f08c379a000000000000000000000000000000000000000000000000000000000815260040161363c90615017565b60405180910390fd5b3373ffffffffffffffffffffffffffffffffffffffff168673ffffffffffffffffffffffffffffffffffffffff16636352211e876040518263ffffffff1660e01b8152600401613695919061538e565b60206040518083038186803b1580156136ad57600080fd5b505afa1580156136c1573d6000803e3d6000fd5b505050506040513d601f19601f820116820180604052508101906136e591906146f5565b73ffffffffffffffffffffffffffffffffffffffff161461373b576040517f08c379a000000000000000000000000000000000000000000000000000000000815260040161373290615037565b60405180910390fd5b67016345785d8a00003414613785576040517f08c379a000000000000000000000000000000000000000000000000000000000815260040161377c90615277565b60405180910390fd5b6000604051806101800160405280600060048111156137cd577f4e487b7100000000000000000000000000000000000000000000000000000000600052602160045260246000fd5b81526020013373ffffffffffffffffffffffffffffffffffffffff168152602001600073ffffffffffffffffffffffffffffffffffffffff1681526020018681526020018581526020016000815260200142815260200160008152602001600081526020018481526020018873ffffffffffffffffffffffffffffffffffffffff1681526020018781525090508060046000600354815260200190815260200160002060008201518160000160006101000a81548160ff021916908360048111156138c1577f4e487b7100000000000000000000000000000000000000000000000000000000600052602160045260246000fd5b021790555060208201518160000160016101000a81548173ffffffffffffffffffffffffffffffffffffffff021916908373ffffffffffffffffffffffffffffffffffffffff16021790555060408201518160010160006101000a81548173ffffffffffffffffffffffffffffffffffffffff021916908373ffffffffffffffffffffffffffffffffffffffff160217905550606082015181600201556080820151816003015560a0820151816004015560c0820151816005015560e08201518160060155610100820151816007015561012082015181600801556101408201518160090160006101000a81548173ffffffffffffffffffffffffffffffffffffffff021916908373ffffffffffffffffffffffffffffffffffffffff16021790555061016082015181600a01559050507f32e08351149249c094252d308bf6dee229d75fc098065a02ec0c005da7524278600354338989898989604051613a2f9796959493929190615425565b60405180910390a1600354600660008973ffffffffffffffffffffffffffffffffffffffff1673ffffffffffffffffffffffffffffffffffffffff168152602001908152602001600020600088815260200190815260200160002081905550600160036000828254613aa191906154a5565b92505081905550505060016000819055505050505050565b60008060046000848152602001908152602001600020604051806101800160405290816000820160009054906101000a900460ff166004811115613b26577f4e487b7100000000000000000000000000000000000000000000000000000000600052602160045260246000fd5b6004811115613b5e577f4e487b7100000000000000000000000000000000000000000000000000000000600052602160045260246000fd5b81526020016000820160019054906101000a900473ffffffffffffffffffffffffffffffffffffffff1673ffffffffffffffffffffffffffffffffffffffff1673ffffffffffffffffffffffffffffffffffffffff1681526020016001820160009054906101000a900473ffffffffffffffffffffffffffffffffffffffff1673ffffffffffffffffffffffffffffffffffffffff1673ffffffffffffffffffffffffffffffffffffffff168152602001600282015481526020016003820154815260200160048201548152602001600582015481526020016006820154815260200160078201548152602001600882015481526020016009820160009054906101000a900473ffffffffffffffffffffffffffffffffffffffff1673ffffffffffffffffffffffffffffffffffffffff1673ffffffffffffffffffffffffffffffffffffffff168152602001600a8201548152505090508060e0015162093a80613cc9919061552c565b8160a00151613cd891906154a5565b915050919050565b60076020528060005260406000206000915054906101000a900460ff1681565b60035481565b60026020528060005260406000206000915090508060000160009054906101000a900460ff16908060000160019054906101000a900473ffffffffffffffffffffffffffffffffffffffff16908060010154908060020160009054906101000a900473ffffffffffffffffffffffffffffffffffffffff16908060030154905085565b60015481565b600080600260008481526020019081526020016000206040518060a00160405290816000820160009054906101000a900460ff166002811115613dfb577f4e487b7100000000000000000000000000000000000000000000000000000000600052602160045260246000fd5b6002811115613e33577f4e487b7100000000000000000000000000000000000000000000000000000000600052602160045260246000fd5b81526020016000820160019054906101000a900473ffffffffffffffffffffffffffffffffffffffff1673ffffffffffffffffffffffffffffffffffffffff1673ffffffffffffffffffffffffffffffffffffffff168152602001600182015481526020016002820160009054906101000a900473ffffffffffffffffffffffffffffffffffffffff1673ffffffffffffffffffffffffffffffffffffffff1673ffffffffffffffffffffffffffffffffffffffff1681526020016003820154815250509050600081606001519050816020015173ffffffffffffffffffffffffffffffffffffffff168173ffffffffffffffffffffffffffffffffffffffff16636352211e84608001516040518263ffffffff1660e01b8152600401613f5a919061538e565b60206040518083038186803b158015613f7257600080fd5b505afa158015613f86573d6000803e3d6000fd5b505050506040513d601f19601f82011682018060405250810190613faa91906146f5565b73ffffffffffffffffffffffffffffffffffffffff1614801561405857508073ffffffffffffffffffffffffffffffffffffffff1663e985e9c58360200151306040518363ffffffff1660e01b8152600401614007929190614e4b565b60206040518083038186803b15801561401f57600080fd5b505afa158015614033573d6000803e3d6000fd5b505050506040513d601f19601f82011682018060405250810190614057919061485c565b5b80156140d8575060006002811115614099577f4e487b7100000000000000000000000000000000000000000000000000000000600052602160045260246000fd5b826000015160028111156140d6577f4e487b7100000000000000000000000000000000000000000000000000000000600052602160045260246000fd5b145b92505050919050565b6000806004600084815260200190815260200160002090508060090160009054906101000a900473ffffffffffffffffffffffffffffffffffffffff1673ffffffffffffffffffffffffffffffffffffffff1663e985e9c58260000160019054906101000a900473ffffffffffffffffffffffffffffffffffffffff16306040518363ffffffff1660e01b815260040161417c929190614e4b565b60206040518083038186803b15801561419457600080fd5b505afa1580156141a8573d6000803e3d6000fd5b505050506040513d601f19601f820116820180604052508101906141cc919061485c565b801561430d57506004600084815260200190815260200160002060000160019054906101000a900473ffffffffffffffffffffffffffffffffffffffff1673ffffffffffffffffffffffffffffffffffffffff166004600085815260200190815260200160002060090160009054906101000a900473ffffffffffffffffffffffffffffffffffffffff1673ffffffffffffffffffffffffffffffffffffffff16636352211e60046000878152602001908152602001600020600a01546040518263ffffffff1660e01b81526004016142a5919061538e565b60206040518083038186803b1580156142bd57600080fd5b505afa1580156142d1573d6000803e3d6000fd5b505050506040513d601f19601f820116820180604052508101906142f591906146f5565b73ffffffffffffffffffffffffffffffffffffffff16145b801561439a57506000600481111561434e577f4e487b7100000000000000000000000000000000000000000000000000000000600052602160045260246000fd5b8160000160009054906101000a900460ff166004811115614398577f4e487b7100000000000000000000000000000000000000000000000000000000600052602160045260246000fd5b145b915050919050565b7f000000000000000000000000000000000000000000000000000000000000000073ffffffffffffffffffffffffffffffffffffffff163373ffffffffffffffffffffffffffffffffffffffff1614614430576040517f08c379a0000000000000000000000000000000000000000000000000000000008152600401614427906151f7565b60405180910390fd5b80600760008473ffffffffffffffffffffffffffffffffffffffff1673ffffffffffffffffffffffffffffffffffffffff16815260200190815260200160002060006101000a81548160ff0219169083151502179055505050565b7f000000000000000000000000000000000000000000000000000000000000000073ffffffffffffffffffffffffffffffffffffffff166108fc829081150290604051600060405180830381858888f193505050501580156144f1573d6000803e3d6000fd5b5050565b6040518060a001604052806000600281111561453a577f4e487b7100000000000000000000000000000000000000000000000000000000600052602160045260246000fd5b8152602001600073ffffffffffffffffffffffffffffffffffffffff16815260200160008152602001600073ffffffffffffffffffffffffffffffffffffffff168152602001600081525090565b604051806101800160405280600060048111156145ce577f4e487b7100000000000000000000000000000000000000000000000000000000600052602160045260246000fd5b8152602001600073ffffffffffffffffffffffffffffffffffffffff168152602001600073ffffffffffffffffffffffffffffffffffffffff16815260200160008152602001600081526020016000815260200160008152602001600081526020016000815260200160008152602001600073ffffffffffffffffffffffffffffffffffffffff168152602001600081525090565b60008135905061467281615c69565b92915050565b60008151905061468781615c69565b92915050565b60008135905061469c81615c80565b92915050565b6000815190506146b181615c80565b92915050565b6000813590506146c681615c97565b92915050565b6000602082840312156146de57600080fd5b60006146ec84828501614663565b91505092915050565b60006020828403121561470757600080fd5b600061471584828501614678565b91505092915050565b6000806040838503121561473157600080fd5b600061473f85828601614663565b92505060206147508582860161468d565b9150509250929050565b6000806040838503121561476d57600080fd5b600061477b85828601614663565b925050602061478c858286016146b7565b9150509250929050565b6000806000606084860312156147ab57600080fd5b60006147b986828701614663565b93505060206147ca868287016146b7565b92505060406147db868287016146b7565b9150509250925092565b600080600080600060a086880312156147fd57600080fd5b600061480b88828901614663565b955050602061481c888289016146b7565b945050604061482d888289016146b7565b935050606061483e888289016146b7565b925050608061484f888289016146b7565b9150509295509295909350565b60006020828403121561486e57600080fd5b600061487c848285016146a2565b91505092915050565b60006020828403121561489757600080fd5b60006148a5848285016146b7565b91505092915050565b6148b78161564e565b82525050565b6148c68161564e565b82525050565b6148d581615660565b82525050565b6148e4816156c6565b82525050565b6148f3816156c6565b82525050565b614902816156d8565b82525050565b614911816156d8565b82525050565b61492081615692565b82525050565b6000614933601183615494565b915061493e826157f1565b602082019050919050565b6000614956600f83615494565b91506149618261581a565b602082019050919050565b6000614979601683615494565b915061498482615843565b602082019050919050565b600061499c601783615494565b91506149a78261586c565b602082019050919050565b60006149bf601e83615494565b91506149ca82615895565b602082019050919050565b60006149e2600983615494565b91506149ed826158be565b602082019050919050565b6000614a05601183615494565b9150614a10826158e7565b602082019050919050565b6000614a28603983615494565b9150614a3382615910565b604082019050919050565b6000614a4b600783615494565b9150614a568261595f565b602082019050919050565b6000614a6e601583615494565b9150614a7982615988565b602082019050919050565b6000614a91601183615494565b9150614a9c826159b1565b602082019050919050565b6000614ab4600b83615494565b9150614abf826159da565b602082019050919050565b6000614ad7601583615494565b9150614ae282615a03565b602082019050919050565b6000614afa601483615494565b9150614b0582615a2c565b602082019050919050565b6000614b1d600b83615494565b9150614b2882615a55565b602082019050919050565b6000614b40600c83615494565b9150614b4b82615a7e565b602082019050919050565b6000614b63600a83615494565b9150614b6e82615aa7565b602082019050919050565b6000614b86600983615494565b9150614b9182615ad0565b602082019050919050565b6000614ba9600783615494565b9150614bb482615af9565b602082019050919050565b6000614bcc600783615494565b9150614bd782615b22565b602082019050919050565b6000614bef601083615494565b9150614bfa82615b4b565b602082019050919050565b6000614c12601283615494565b9150614c1d82615b74565b602082019050919050565b6000614c35600683615494565b9150614c4082615b9d565b602082019050919050565b6000614c58601b83615494565b9150614c6382615bc6565b602082019050919050565b6000614c7b601f83615494565b9150614c8682615bef565b602082019050919050565b6000614c9e600583615494565b9150614ca982615c18565b602082019050919050565b60a082016000820151614cca60008501826148db565b506020820151614cdd60208501826148ae565b506040820151614cf06040850182614e12565b506060820151614d0360608501826148ae565b506080820151614d166080850182614e12565b50505050565b61018082016000820151614d3360008501826148f9565b506020820151614d4660208501826148ae565b506040820151614d5960408501826148ae565b506060820151614d6c6060850182614e12565b506080820151614d7f6080850182614e12565b5060a0820151614d9260a0850182614e12565b5060c0820151614da560c0850182614e12565b5060e0820151614db860e0850182614e12565b50610100820151614dcd610100850182614e12565b50610120820151614de2610120850182614e12565b50610140820151614df76101408501826148ae565b50610160820151614e0c610160850182614e12565b50505050565b614e1b816156bc565b82525050565b614e2a816156bc565b82525050565b6000602082019050614e4560008301846148bd565b92915050565b6000604082019050614e6060008301856148bd565b614e6d60208301846148bd565b9392505050565b6000606082019050614e8960008301866148bd565b614e9660208301856148bd565b614ea36040830184614e21565b949350505050565b6000604082019050614ec060008301856148bd565b614ecd6020830184614e21565b9392505050565b6000602082019050614ee960008301846148cc565b92915050565b600060a082019050614f0460008301886148ea565b614f1160208301876148bd565b614f1e6040830186614e21565b614f2b60608301856148bd565b614f386080830184614e21565b9695505050505050565b600061018082019050614f58600083018f614908565b614f65602083018e6148bd565b614f72604083018d6148bd565b614f7f606083018c614e21565b614f8c608083018b614e21565b614f9960a083018a614e21565b614fa660c0830189614e21565b614fb360e0830188614e21565b614fc1610100830187614e21565b614fcf610120830186614e21565b614fdd6101408301856148bd565b614feb610160830184614e21565b9d9c50505050505050505050505050565b60006020820190506150116000830184614917565b92915050565b6000602082019050818103600083015261503081614926565b9050919050565b6000602082019050818103600083015261505081614949565b9050919050565b600060208201905081810360008301526150708161496c565b9050919050565b600060208201905081810360008301526150908161498f565b9050919050565b600060208201905081810360008301526150b0816149b2565b9050919050565b600060208201905081810360008301526150d0816149d5565b9050919050565b600060208201905081810360008301526150f0816149f8565b9050919050565b6000602082019050818103600083015261511081614a1b565b9050919050565b6000602082019050818103600083015261513081614a3e565b9050919050565b6000602082019050818103600083015261515081614a61565b9050919050565b6000602082019050818103600083015261517081614a84565b9050919050565b6000602082019050818103600083015261519081614aa7565b9050919050565b600060208201905081810360008301526151b081614aca565b9050919050565b600060208201905081810360008301526151d081614aed565b9050919050565b600060208201905081810360008301526151f081614b10565b9050919050565b6000602082019050818103600083015261521081614b33565b9050919050565b6000602082019050818103600083015261523081614b56565b9050919050565b6000602082019050818103600083015261525081614b79565b9050919050565b6000602082019050818103600083015261527081614b9c565b9050919050565b6000602082019050818103600083015261529081614bbf565b9050919050565b600060208201905081810360008301526152b081614be2565b9050919050565b600060208201905081810360008301526152d081614c05565b9050919050565b600060208201905081810360008301526152f081614c28565b9050919050565b6000602082019050818103600083015261531081614c4b565b9050919050565b6000602082019050818103600083015261533081614c6e565b9050919050565b6000602082019050818103600083015261535081614c91565b9050919050565b600060a08201905061536c6000830184614cb4565b92915050565b6000610180820190506153886000830184614d1c565b92915050565b60006020820190506153a36000830184614e21565b92915050565b60006040820190506153be6000830185614e21565b6153cb60208301846148bd565b9392505050565b600060a0820190506153e76000830188614e21565b6153f460208301876148bd565b61540160408301866148bd565b61540e6060830185614e21565b61541b6080830184614e21565b9695505050505050565b600060e08201905061543a600083018a614e21565b61544760208301896148bd565b61545460408301886148bd565b6154616060830187614e21565b61546e6080830186614e21565b61547b60a0830185614e21565b61548860c0830184614e21565b98975050505050505050565b600082825260208201905092915050565b60006154b0826156bc565b91506154bb836156bc565b9250827fffffffffffffffffffffffffffffffffffffffffffffffffffffffffffffffff038211156154f0576154ef615764565b5b828201905092915050565b6000615506826156bc565b9150615511836156bc565b92508261552157615520615793565b5b828204905092915050565b6000615537826156bc565b9150615542836156bc565b9250817fffffffffffffffffffffffffffffffffffffffffffffffffffffffffffffffff048311821515161561557b5761557a615764565b5b828202905092915050565b600061559182615692565b915061559c83615692565b9250827f8000000000000000000000000000000000000000000000000000000000000000018212600084121516156155d7576155d6615764565b5b827f7fffffffffffffffffffffffffffffffffffffffffffffffffffffffffffffff01821360008412161561560f5761560e615764565b5b828203905092915050565b6000615625826156bc565b9150615630836156bc565b92508282101561564357615642615764565b5b828203905092915050565b60006156598261569c565b9050919050565b60008115159050919050565b600081905061567a82615c41565b919050565b600081905061568d82615c55565b919050565b6000819050919050565b600073ffffffffffffffffffffffffffffffffffffffff82169050919050565b6000819050919050565b60006156d18261566c565b9050919050565b60006156e38261567f565b9050919050565b60006156f5826156bc565b91507fffffffffffffffffffffffffffffffffffffffffffffffffffffffffffffffff82141561572857615727615764565b5b600182019050919050565b600061573e826156bc565b9150615749836156bc565b92508261575957615758615793565b5b828206905092915050565b7f4e487b7100000000000000000000000000000000000000000000000000000000600052601160045260246000fd5b7f4e487b7100000000000000000000000000000000000000000000000000000000600052601260045260246000fd5b7f4e487b7100000000000000000000000000000000000000000000000000000000600052602160045260246000fd5b7f616c6c6f77616e6365206e6f7420736574000000000000000000000000000000600082015250565b7f746f6b656e206f776e6572736869700000000000000000000000000000000000600082015250565b7f53656c6c65722063616e6e6f7420626520627579657200000000000000000000600082015250565b7f73686f756c64206265207374617475732071756f746564000000000000000000600082015250565b7f4f6e6c792073656c6c65722063616e2063616e63656c206c697374696e670000600082015250565b7f6e6f74206d616b65720000000000000000000000000000000000000000000000600082015250565b7f746f6f206d616e79207061796d656e7473000000000000000000000000000000600082015250565b7f7072656d69756d732068617665206265656e207061696420616e64206465616460008201527f6c696e652069732079657420746f206265207265616368656400000000000000602082015250565b7f7072656d69756d00000000000000000000000000000000000000000000000000600082015250565b7f4d616b65722063616e6e6f742062652074616b65720000000000000000000000600082015250565b7f73746174757320213d207374616b696e67000000000000000000000000000000600082015250565b7f6e6f742062757961626c65000000000000000000000000000000000000000000600082015250565b7f4c697374696e67206973206e6f74206163746976650000000000000000000000600082015250565b7f496e73756666696369656e74207061796d656e74000000000000000000000000600082015250565b7f21636f6c6c61746572616c000000000000000000000000000000000000000000600082015250565b7f6675636b206f6666202e7c2e0000000000000000000000000000000000000000600082015250565b7f21616c6c6f77616e636500000000000000000000000000000000000000000000600082015250565b7f6e6f742074616b65720000000000000000000000000000000000000000000000600082015250565b7f626164204e465400000000000000000000000000000000000000000000000000600082015250565b7f2162696446656500000000000000000000000000000000000000000000000000600082015250565b7f646561646c696e65207265616368656400000000000000000000000000000000600082015250565b7f6e6f6e2d616374697665207374616b696e670000000000000000000000000000600082015250565b7f7374617475730000000000000000000000000000000000000000000000000000600082015250565b7f7072656d69756d732068617665206e6f74206265656e20706169640000000000600082015250565b7f5265656e7472616e637947756172643a207265656e7472616e742063616c6c00600082015250565b7f656e646564000000000000000000000000000000000000000000000000000000600082015250565b60038110615c5257615c516157c2565b5b50565b60058110615c6657615c656157c2565b5b50565b615c728161564e565b8114615c7d57600080fd5b50565b615c8981615660565b8114615c9457600080fd5b50565b615ca0816156bc565b8114615cab57600080fd5b5056fea2646970667358221220b2b722f741dff46d39db197d53c4baca3784987d7135e8b6c457ded49bee22e364736f6c63430008040033",
  "linkReferences": {},
  "deployedLinkReferences": {}
}