{
  "_format": "hh-sol-artifact-1",
  "contractName": "Marketplace",
  "sourceName": "contracts/Marketplace.sol",
  "abi": [
    {
      "inputs": [
        {
          "internalType": "address",
          "name": "_platform",
          "type": "address"
        },
        {
          "internalType": "uint256",
          "name": "baseBidFee",
          "type": "uint256"
        }
      ],
      "stateMutability": "nonpayable",
      "type": "constructor"
    },
    {
      "anonymous": false,
      "inputs": [
        {
          "indexed": false,
          "internalType": "uint256",
          "name": "listingId",
          "type": "uint256"
        },
        {
          "indexed": false,
          "internalType": "address",
          "name": "seller",
          "type": "address"
        }
      ],
      "name": "CancelBid",
      "type": "event"
    },
    {
      "anonymous": false,
      "inputs": [
        {
          "indexed": false,
          "internalType": "uint256",
          "name": "rentalId",
          "type": "uint256"
        }
      ],
      "name": "FinishRentalForCollateral",
      "type": "event"
    },
    {
      "anonymous": false,
      "inputs": [
        {
          "indexed": false,
          "internalType": "uint256",
          "name": "rentalId",
          "type": "uint256"
        }
      ],
      "name": "FinishRentalForNFT",
      "type": "event"
    },
    {
      "anonymous": false,
      "inputs": [
        {
          "indexed": false,
          "internalType": "uint256",
          "name": "listingId",
          "type": "uint256"
        },
        {
          "indexed": false,
          "internalType": "address",
          "name": "seller",
          "type": "address"
        },
        {
          "indexed": false,
          "internalType": "address",
          "name": "token",
          "type": "address"
        },
        {
          "indexed": false,
          "internalType": "uint256",
          "name": "tokenId",
          "type": "uint256"
        },
        {
          "indexed": false,
          "internalType": "uint256",
          "name": "price",
          "type": "uint256"
        }
      ],
      "name": "Listed",
      "type": "event"
    },
    {
      "anonymous": false,
      "inputs": [
        {
          "indexed": false,
          "internalType": "uint256",
          "name": "stakingId",
          "type": "uint256"
        },
        {
          "indexed": false,
          "internalType": "address",
          "name": "maker",
          "type": "address"
        },
        {
          "indexed": false,
          "internalType": "address",
          "name": "token",
          "type": "address"
        },
        {
          "indexed": false,
          "internalType": "uint256",
          "name": "tokenId",
          "type": "uint256"
        },
        {
          "indexed": false,
          "internalType": "uint256",
          "name": "collateral",
          "type": "uint256"
        },
        {
          "indexed": false,
          "internalType": "uint256",
          "name": "premium",
          "type": "uint256"
        },
        {
          "indexed": false,
          "internalType": "uint256",
          "name": "deadline",
          "type": "uint256"
        }
      ],
      "name": "QuotedForStaking",
      "type": "event"
    },
    {
      "anonymous": false,
      "inputs": [
        {
          "indexed": false,
          "internalType": "uint256",
          "name": "rentalId",
          "type": "uint256"
        },
        {
          "indexed": false,
          "internalType": "address",
          "name": "taker",
          "type": "address"
        }
      ],
      "name": "Rental",
      "type": "event"
    },
    {
      "anonymous": false,
      "inputs": [
        {
          "indexed": false,
          "internalType": "uint256",
          "name": "listingId",
          "type": "uint256"
        },
        {
          "indexed": false,
          "internalType": "address",
          "name": "buyer",
          "type": "address"
        },
        {
          "indexed": false,
          "internalType": "address",
          "name": "token",
          "type": "address"
        },
        {
          "indexed": false,
          "internalType": "uint256",
          "name": "tokenId",
          "type": "uint256"
        },
        {
          "indexed": false,
          "internalType": "uint256",
          "name": "price",
          "type": "uint256"
        }
      ],
      "name": "Sale",
      "type": "event"
    },
    {
      "inputs": [
        {
          "internalType": "address",
          "name": "tokenContract",
          "type": "address"
        },
        {
          "internalType": "uint256",
          "name": "tokenId",
          "type": "uint256"
        },
        {
          "internalType": "uint256",
          "name": "priceWei",
          "type": "uint256"
        }
      ],
      "name": "bid",
      "outputs": [],
      "stateMutability": "payable",
      "type": "function"
    },
    {
      "inputs": [
        {
          "internalType": "uint256",
          "name": "listingId",
          "type": "uint256"
        }
      ],
      "name": "buyToken",
      "outputs": [],
      "stateMutability": "payable",
      "type": "function"
    },
    {
      "inputs": [
        {
          "internalType": "uint256",
          "name": "listingId",
          "type": "uint256"
        }
      ],
      "name": "cancel",
      "outputs": [],
      "stateMutability": "nonpayable",
      "type": "function"
    },
    {
      "inputs": [
        {
          "internalType": "uint256",
          "name": "stakingId",
          "type": "uint256"
        }
      ],
      "name": "claimCollateral",
      "outputs": [],
      "stateMutability": "nonpayable",
      "type": "function"
    },
    {
      "inputs": [
        {
          "internalType": "uint256",
          "name": "listingId",
          "type": "uint256"
        }
      ],
      "name": "getListing",
      "outputs": [
        {
          "components": [
            {
              "internalType": "enum Marketplace.ListingStatus",
              "name": "status",
              "type": "uint8"
            },
            {
              "internalType": "address",
              "name": "seller",
              "type": "address"
            },
            {
              "internalType": "uint256",
              "name": "price",
              "type": "uint256"
            },
            {
              "internalType": "address",
              "name": "token",
              "type": "address"
            },
            {
              "internalType": "uint256",
              "name": "tokenId",
              "type": "uint256"
            }
          ],
          "internalType": "struct Marketplace.Listing",
          "name": "",
          "type": "tuple"
        }
      ],
      "stateMutability": "view",
      "type": "function"
    },
    {
      "inputs": [
        {
          "internalType": "uint256",
          "name": "listingId",
          "type": "uint256"
        }
      ],
      "name": "isBuyable",
      "outputs": [
        {
          "internalType": "bool",
          "name": "",
          "type": "bool"
        }
      ],
      "stateMutability": "view",
      "type": "function"
    },
    {
      "inputs": [
        {
          "internalType": "uint256",
          "name": "stakingId",
          "type": "uint256"
        }
      ],
      "name": "isCollateralClaimable",
      "outputs": [],
      "stateMutability": "view",
      "type": "function"
    },
    {
      "inputs": [
        {
          "internalType": "uint256",
          "name": "stakingId",
          "type": "uint256"
        }
      ],
      "name": "payPremium",
      "outputs": [],
      "stateMutability": "payable",
      "type": "function"
    },
    {
      "inputs": [],
      "name": "platform",
      "outputs": [
        {
          "internalType": "address",
          "name": "",
          "type": "address"
        }
      ],
      "stateMutability": "view",
      "type": "function"
    },
    {
      "inputs": [
        {
          "internalType": "address",
          "name": "tokenContract",
          "type": "address"
        },
        {
          "internalType": "uint256",
          "name": "tokenId",
          "type": "uint256"
        },
        {
          "internalType": "uint256",
          "name": "collateralWei",
          "type": "uint256"
        },
        {
          "internalType": "uint256",
          "name": "premiumWei",
          "type": "uint256"
        },
        {
          "internalType": "uint256",
          "name": "deadlineUTC",
          "type": "uint256"
        }
      ],
      "name": "quoteForStaking",
      "outputs": [],
      "stateMutability": "payable",
      "type": "function"
    },
    {
      "inputs": [
        {
          "internalType": "uint256",
          "name": "stakingId",
          "type": "uint256"
        }
      ],
      "name": "rentNFT",
      "outputs": [],
      "stateMutability": "payable",
      "type": "function"
    },
    {
      "inputs": [
        {
          "internalType": "uint256",
          "name": "stakingId",
          "type": "uint256"
        }
      ],
      "name": "stopRental",
      "outputs": [],
      "stateMutability": "nonpayable",
      "type": "function"
    }
  ],
  "bytecode": "0x60a06040523480156200001157600080fd5b5060405162003790380380620037908339818101604052810190620000379190620000b3565b60016000819055508173ffffffffffffffffffffffffffffffffffffffff1660808173ffffffffffffffffffffffffffffffffffffffff1660601b8152505080600181905550505062000166565b600081519050620000968162000132565b92915050565b600081519050620000ad816200014c565b92915050565b60008060408385031215620000c757600080fd5b6000620000d78582860162000085565b9250506020620000ea858286016200009c565b9150509250929050565b6000620001018262000108565b9050919050565b600073ffffffffffffffffffffffffffffffffffffffff82169050919050565b6000819050919050565b6200013d81620000f4565b81146200014957600080fd5b50565b620001578162000128565b81146200016357600080fd5b50565b60805160601c61360b6200018560003960006116dc015261360b6000f3fe6080604052600436106100a75760003560e01c80634364b26e116100645780634364b26e1461018f5780634bde38c8146101ab578063b6e96f4c146101d6578063c49785b4146101ff578063c893c65914610228578063e738c7c814610244576100a7565b80630f41ba4b146100ac578063107a274a146100c857806314364f1d14610105578063156ecc3d146101215780632d296bf11461014a57806340e58ee514610166575b600080fd5b6100c660048036038101906100c1919061281e565b610281565b005b3480156100d457600080fd5b506100ef60048036038101906100ea919061290d565b6105e8565b6040516100fc9190612f44565b60405180910390f35b61011f600480360381019061011a919061290d565b61075c565b005b34801561012d57600080fd5b506101486004803603810190610143919061290d565b610a43565b005b610164600480360381019061015f919061290d565b610ee4565b005b34801561017257600080fd5b5061018d6004803603810190610188919061290d565b611265565b005b6101a960048036038101906101a4919061290d565b611555565b005b3480156101b757600080fd5b506101c06116da565b6040516101cd9190612c6e565b60405180910390f35b3480156101e257600080fd5b506101fd60048036038101906101f8919061290d565b6116fe565b005b34801561020b57600080fd5b506102266004803603810190610221919061290d565b611a8a565b005b610242600480360381019061023d919061286d565b611c3f565b005b34801561025057600080fd5b5061026b6004803603810190610266919061290d565b6123c0565b6040516102789190612ce9565b60405180910390f35b600260005414156102c7576040517f08c379a00000000000000000000000000000000000000000000000000000000081526004016102be90612f24565b60405180910390fd5b60026000819055508273ffffffffffffffffffffffffffffffffffffffff1663e985e9c533306040518363ffffffff1660e01b815260040161030a929190612c89565b60206040518083038186803b15801561032257600080fd5b505afa158015610336573d6000803e3d6000fd5b505050506040513d601f19601f8201168201806040525081019061035a91906128e4565b610399576040517f08c379a000000000000000000000000000000000000000000000000000000000815260040161039090612d04565b60405180910390fd5b6001543410156103de576040517f08c379a00000000000000000000000000000000000000000000000000000000081526004016103d590612d64565b60405180910390fd5b6040518060a0016040528060006002811115610423577f4e487b7100000000000000000000000000000000000000000000000000000000600052602160045260246000fd5b81526020013373ffffffffffffffffffffffffffffffffffffffff1681526020018281526020018473ffffffffffffffffffffffffffffffffffffffff1681526020018381525060036000600260008154809291906104819061319e565b91905055815260200190815260200160002060008201518160000160006101000a81548160ff021916908360028111156104e4577f4e487b7100000000000000000000000000000000000000000000000000000000600052602160045260246000fd5b021790555060208201518160000160016101000a81548173ffffffffffffffffffffffffffffffffffffffff021916908373ffffffffffffffffffffffffffffffffffffffff1602179055506040820151816001015560608201518160020160006101000a81548173ffffffffffffffffffffffffffffffffffffffff021916908373ffffffffffffffffffffffffffffffffffffffff160217905550608082015181600301559050507f723f73331eaee88eec7fc68ef60ab6ed15e4b90d0472b55eb92fa43910bab6dd60016002546105be91906130fd565b338585856040516105d3959493929190612fa3565b60405180910390a16001600081905550505050565b6105f061270e565b600360008381526020019081526020016000206040518060a00160405290816000820160009054906101000a900460ff166002811115610659577f4e487b7100000000000000000000000000000000000000000000000000000000600052602160045260246000fd5b6002811115610691577f4e487b7100000000000000000000000000000000000000000000000000000000600052602160045260246000fd5b81526020016000820160019054906101000a900473ffffffffffffffffffffffffffffffffffffffff1673ffffffffffffffffffffffffffffffffffffffff1673ffffffffffffffffffffffffffffffffffffffff168152602001600182015481526020016002820160009054906101000a900473ffffffffffffffffffffffffffffffffffffffff1673ffffffffffffffffffffffffffffffffffffffff1673ffffffffffffffffffffffffffffffffffffffff1681526020016003820154815250509050919050565b60006005600083815260200190815260200160002090508060070160009054906101000a900473ffffffffffffffffffffffffffffffffffffffff1673ffffffffffffffffffffffffffffffffffffffff1663e985e9c533306040518363ffffffff1660e01b81526004016107d2929190612c89565b60206040518083038186803b1580156107ea57600080fd5b505afa1580156107fe573d6000803e3d6000fd5b505050506040513d601f19601f8201168201806040525081019061082291906128e4565b610861576040517f08c379a000000000000000000000000000000000000000000000000000000000815260040161085890612e84565b60405180910390fd5b806003015481600201546108759190613076565b3410156108b7576040517f08c379a00000000000000000000000000000000000000000000000000000000081526004016108ae90612e64565b60405180910390fd5b428160040181905550338160010160006101000a81548173ffffffffffffffffffffffffffffffffffffffff021916908373ffffffffffffffffffffffffffffffffffffffff16021790555060018160000160006101000a81548160ff02191690836003811115610951577f4e487b7100000000000000000000000000000000000000000000000000000000600052602160045260246000fd5b0217905550600181600501819055508060070160009054906101000a900473ffffffffffffffffffffffffffffffffffffffff1673ffffffffffffffffffffffffffffffffffffffff166342842e0e8260000160019054906101000a900473ffffffffffffffffffffffffffffffffffffffff168360010160009054906101000a900473ffffffffffffffffffffffffffffffffffffffff1684600801546040518463ffffffff1660e01b8152600401610a0d93929190612cb2565b600060405180830381600087803b158015610a2757600080fd5b505af1158015610a3b573d6000803e3d6000fd5b505050505050565b60026000541415610a89576040517f08c379a0000000000000000000000000000000000000000000000000000000008152600401610a8090612f24565b60405180910390fd5b6002600081905550600060056000838152602001908152602001600020905060006003811115610ae2577f4e487b7100000000000000000000000000000000000000000000000000000000600052602160045260246000fd5b8160000160009054906101000a900460ff166003811115610b2c577f4e487b7100000000000000000000000000000000000000000000000000000000600052602160045260246000fd5b14610b6c576040517f08c379a0000000000000000000000000000000000000000000000000000000008152600401610b6390612ee4565b60405180910390fd5b3373ffffffffffffffffffffffffffffffffffffffff168160010160009054906101000a900473ffffffffffffffffffffffffffffffffffffffff1673ffffffffffffffffffffffffffffffffffffffff1614610bfe576040517f08c379a0000000000000000000000000000000000000000000000000000000008152600401610bf590612ea4565b60405180910390fd5b600062093a80826004015442610c1491906130fd565b610c1e91906130cc565b90508082600501541015610c67576040517f08c379a0000000000000000000000000000000000000000000000000000000008152600401610c5e90612f04565b60405180910390fd5b60028260000160006101000a81548160ff02191690836003811115610cb5577f4e487b7100000000000000000000000000000000000000000000000000000000600052602160045260246000fd5b02179055508160070160009054906101000a900473ffffffffffffffffffffffffffffffffffffffff1673ffffffffffffffffffffffffffffffffffffffff166342842e0e8360010160009054906101000a900473ffffffffffffffffffffffffffffffffffffffff168460000160019054906101000a900473ffffffffffffffffffffffffffffffffffffffff1685600801546040518463ffffffff1660e01b8152600401610d6793929190612cb2565b600060405180830381600087803b158015610d8157600080fd5b505af1158015610d95573d6000803e3d6000fd5b505050508160010160009054906101000a900473ffffffffffffffffffffffffffffffffffffffff1673ffffffffffffffffffffffffffffffffffffffff166108fc83600201549081150290604051600060405180830381858888f19350505050158015610e07573d6000803e3d6000fd5b5060056000848152602001908152602001600020600080820160006101000a81549060ff02191690556000820160016101000a81549073ffffffffffffffffffffffffffffffffffffffff02191690556001820160006101000a81549073ffffffffffffffffffffffffffffffffffffffff0219169055600282016000905560038201600090556004820160009055600582016000905560068201600090556007820160006101000a81549073ffffffffffffffffffffffffffffffffffffffff0219169055600882016000905550505050600160008190555050565b60026000541415610f2a576040517f08c379a0000000000000000000000000000000000000000000000000000000008152600401610f2190612f24565b60405180910390fd5b6002600081905550600060036000838152602001908152602001600020905060008160020160009054906101000a900473ffffffffffffffffffffffffffffffffffffffff1690508160000160019054906101000a900473ffffffffffffffffffffffffffffffffffffffff1673ffffffffffffffffffffffffffffffffffffffff163373ffffffffffffffffffffffffffffffffffffffff161415611005576040517f08c379a0000000000000000000000000000000000000000000000000000000008152600401610ffc90612d24565b60405180910390fd5b816001015434101561104c576040517f08c379a000000000000000000000000000000000000000000000000000000000815260040161104390612e44565b60405180910390fd5b611055836123c0565b611094576040517f08c379a000000000000000000000000000000000000000000000000000000000815260040161108b90612e04565b60405180910390fd5b60018260000160006101000a81548160ff021916908360028111156110e2577f4e487b7100000000000000000000000000000000000000000000000000000000600052602160045260246000fd5b02179055508073ffffffffffffffffffffffffffffffffffffffff166342842e0e8360000160019054906101000a900473ffffffffffffffffffffffffffffffffffffffff163385600301546040518463ffffffff1660e01b815260040161114c93929190612cb2565b600060405180830381600087803b15801561116657600080fd5b505af115801561117a573d6000803e3d6000fd5b505050508160000160019054906101000a900473ffffffffffffffffffffffffffffffffffffffff1673ffffffffffffffffffffffffffffffffffffffff166108fc83600101549081150290604051600060405180830381858888f193505050501580156111ec573d6000803e3d6000fd5b507ff3debaf22196a6ddf52a60fa71058cd7edf5e25bb98f4e96c994a5d4a9b0dd3e83338460020160009054906101000a900473ffffffffffffffffffffffffffffffffffffffff1685600301548660010154604051611250959493929190612fa3565b60405180910390a15050600160008190555050565b600260005414156112ab576040517f08c379a00000000000000000000000000000000000000000000000000000000081526004016112a290612f24565b60405180910390fd5b600260008190555060006003600083815260200190815260200160002090508060000160019054906101000a900473ffffffffffffffffffffffffffffffffffffffff1673ffffffffffffffffffffffffffffffffffffffff163373ffffffffffffffffffffffffffffffffffffffff161461135c576040517f08c379a000000000000000000000000000000000000000000000000000000000815260040161135390612d44565b60405180910390fd5b60006002811115611396577f4e487b7100000000000000000000000000000000000000000000000000000000600052602160045260246000fd5b8160000160009054906101000a900460ff1660028111156113e0577f4e487b7100000000000000000000000000000000000000000000000000000000600052602160045260246000fd5b14611420576040517f08c379a000000000000000000000000000000000000000000000000000000000815260040161141790612e24565b60405180910390fd5b60028160000160006101000a81548160ff0219169083600281111561146e577f4e487b7100000000000000000000000000000000000000000000000000000000600052602160045260246000fd5b02179055508060000160019054906101000a900473ffffffffffffffffffffffffffffffffffffffff1673ffffffffffffffffffffffffffffffffffffffff166108fc60026001546114c091906130cc565b9081150290604051600060405180830381858888f193505050501580156114eb573d6000803e3d6000fd5b507f874afcdd5e90b2329b3c1601e613dcdc6abb6deb62ce61339a8337b48c053e51828260000160019054906101000a900473ffffffffffffffffffffffffffffffffffffffff16604051611541929190612f7a565b60405180910390a150600160008190555050565b6000600560008381526020019081526020016000209050600160038111156115a6577f4e487b7100000000000000000000000000000000000000000000000000000000600052602160045260246000fd5b8160000160009054906101000a900460ff1660038111156115f0577f4e487b7100000000000000000000000000000000000000000000000000000000600052602160045260246000fd5b14611630576040517f08c379a000000000000000000000000000000000000000000000000000000000815260040161162790612de4565b60405180910390fd5b80600301543414611676576040517f08c379a000000000000000000000000000000000000000000000000000000000815260040161166d90612dc4565b60405180910390fd5b806006015442106116bc576040517f08c379a00000000000000000000000000000000000000000000000000000000081526004016116b390612ec4565b60405180910390fd5b8060050160008154809291906116d19061319e565b91905055505050565b7f000000000000000000000000000000000000000000000000000000000000000081565b600060056000838152602001908152602001600020604051806101400160405290816000820160009054906101000a900460ff16600381111561176a577f4e487b7100000000000000000000000000000000000000000000000000000000600052602160045260246000fd5b60038111156117a2577f4e487b7100000000000000000000000000000000000000000000000000000000600052602160045260246000fd5b81526020016000820160019054906101000a900473ffffffffffffffffffffffffffffffffffffffff1673ffffffffffffffffffffffffffffffffffffffff1673ffffffffffffffffffffffffffffffffffffffff1681526020016001820160009054906101000a900473ffffffffffffffffffffffffffffffffffffffff1673ffffffffffffffffffffffffffffffffffffffff1673ffffffffffffffffffffffffffffffffffffffff16815260200160028201548152602001600382015481526020016004820154815260200160058201548152602001600682015481526020016007820160009054906101000a900473ffffffffffffffffffffffffffffffffffffffff1673ffffffffffffffffffffffffffffffffffffffff1673ffffffffffffffffffffffffffffffffffffffff168152602001600882015481525050905060006003811115611920577f4e487b7100000000000000000000000000000000000000000000000000000000600052602160045260246000fd5b8160000151600381111561195d577f4e487b7100000000000000000000000000000000000000000000000000000000600052602160045260246000fd5b1461199d576040517f08c379a000000000000000000000000000000000000000000000000000000000815260040161199490612ee4565b60405180910390fd5b3373ffffffffffffffffffffffffffffffffffffffff16816020015173ffffffffffffffffffffffffffffffffffffffff1614611a0f576040517f08c379a0000000000000000000000000000000000000000000000000000000008152600401611a0690612d84565b60405180910390fd5b600062093a808260a0015142611a2591906130fd565b611a2f91906130cc565b9050808260c001511080611a465750428260e00151115b611a85576040517f08c379a0000000000000000000000000000000000000000000000000000000008152600401611a7c90612da4565b60405180910390fd5b505050565b6000600560008381526020019081526020016000209050611aaa826116fe565b60038160000160006101000a81548160ff02191690836003811115611af8577f4e487b7100000000000000000000000000000000000000000000000000000000600052602160045260246000fd5b02179055508060000160019054906101000a900473ffffffffffffffffffffffffffffffffffffffff1673ffffffffffffffffffffffffffffffffffffffff166108fc82600201549081150290604051600060405180830381858888f19350505050158015611b6b573d6000803e3d6000fd5b5060056000838152602001908152602001600020600080820160006101000a81549060ff02191690556000820160016101000a81549073ffffffffffffffffffffffffffffffffffffffff02191690556001820160006101000a81549073ffffffffffffffffffffffffffffffffffffffff0219169055600282016000905560038201600090556004820160009055600582016000905560068201600090556007820160006101000a81549073ffffffffffffffffffffffffffffffffffffffff0219169055600882016000905550505050565b60026000541415611c85576040517f08c379a0000000000000000000000000000000000000000000000000000000008152600401611c7c90612f24565b60405180910390fd5b60026000819055508473ffffffffffffffffffffffffffffffffffffffff1663e985e9c533306040518363ffffffff1660e01b8152600401611cc8929190612c89565b60206040518083038186803b158015611ce057600080fd5b505afa158015611cf4573d6000803e3d6000fd5b505050506040513d601f19601f82011682018060405250810190611d1891906128e4565b611d57576040517f08c379a0000000000000000000000000000000000000000000000000000000008152600401611d4e90612d04565b60405180910390fd5b600154341015611d9c576040517f08c379a0000000000000000000000000000000000000000000000000000000008152600401611d9390612d64565b60405180910390fd5b600060405180610140016040528060006003811115611de4577f4e487b7100000000000000000000000000000000000000000000000000000000600052602160045260246000fd5b81526020013373ffffffffffffffffffffffffffffffffffffffff168152602001600073ffffffffffffffffffffffffffffffffffffffff16815260200185815260200184815260200160008152602001600081526020018381526020018773ffffffffffffffffffffffffffffffffffffffff168152602001868152506005600060046000815480929190611e799061319e565b91905055815260200190815260200160002060008201518160000160006101000a81548160ff02191690836003811115611edc577f4e487b7100000000000000000000000000000000000000000000000000000000600052602160045260246000fd5b021790555060208201518160000160016101000a81548173ffffffffffffffffffffffffffffffffffffffff021916908373ffffffffffffffffffffffffffffffffffffffff16021790555060408201518160010160006101000a81548173ffffffffffffffffffffffffffffffffffffffff021916908373ffffffffffffffffffffffffffffffffffffffff160217905550606082015181600201556080820151816003015560a0820151816004015560c0820151816005015560e082015181600601556101008201518160070160006101000a81548173ffffffffffffffffffffffffffffffffffffffff021916908373ffffffffffffffffffffffffffffffffffffffff16021790555061012082015181600801559050604051806101400160405290816000820160009054906101000a900460ff16600381111561204d577f4e487b7100000000000000000000000000000000000000000000000000000000600052602160045260246000fd5b6003811115612085577f4e487b7100000000000000000000000000000000000000000000000000000000600052602160045260246000fd5b81526020016000820160019054906101000a900473ffffffffffffffffffffffffffffffffffffffff1673ffffffffffffffffffffffffffffffffffffffff1673ffffffffffffffffffffffffffffffffffffffff1681526020016001820160009054906101000a900473ffffffffffffffffffffffffffffffffffffffff1673ffffffffffffffffffffffffffffffffffffffff1673ffffffffffffffffffffffffffffffffffffffff16815260200160028201548152602001600382015481526020016004820154815260200160058201548152602001600682015481526020016007820160009054906101000a900473ffffffffffffffffffffffffffffffffffffffff1673ffffffffffffffffffffffffffffffffffffffff1673ffffffffffffffffffffffffffffffffffffffff16815260200160088201548152505090508060056000600460008154809291906121e19061319e565b91905055815260200190815260200160002060008201518160000160006101000a81548160ff02191690836003811115612244577f4e487b7100000000000000000000000000000000000000000000000000000000600052602160045260246000fd5b021790555060208201518160000160016101000a81548173ffffffffffffffffffffffffffffffffffffffff021916908373ffffffffffffffffffffffffffffffffffffffff16021790555060408201518160010160006101000a81548173ffffffffffffffffffffffffffffffffffffffff021916908373ffffffffffffffffffffffffffffffffffffffff160217905550606082015181600201556080820151816003015560a0820151816004015560c0820151816005015560e082015181600601556101008201518160070160006101000a81548173ffffffffffffffffffffffffffffffffffffffff021916908373ffffffffffffffffffffffffffffffffffffffff16021790555061012082015181600801559050507f32e08351149249c094252d308bf6dee229d75fc098065a02ec0c005da7524278600160045461238f91906130fd565b3388888888886040516123a89796959493929190612ff6565b60405180910390a15060016000819055505050505050565b600080600360008481526020019081526020016000206040518060a00160405290816000820160009054906101000a900460ff16600281111561242c577f4e487b7100000000000000000000000000000000000000000000000000000000600052602160045260246000fd5b6002811115612464577f4e487b7100000000000000000000000000000000000000000000000000000000600052602160045260246000fd5b81526020016000820160019054906101000a900473ffffffffffffffffffffffffffffffffffffffff1673ffffffffffffffffffffffffffffffffffffffff1673ffffffffffffffffffffffffffffffffffffffff168152602001600182015481526020016002820160009054906101000a900473ffffffffffffffffffffffffffffffffffffffff1673ffffffffffffffffffffffffffffffffffffffff1673ffffffffffffffffffffffffffffffffffffffff1681526020016003820154815250509050600081606001519050816020015173ffffffffffffffffffffffffffffffffffffffff168173ffffffffffffffffffffffffffffffffffffffff16636352211e866040518263ffffffff1660e01b81526004016125879190612f5f565b60206040518083038186803b15801561259f57600080fd5b505afa1580156125b3573d6000803e3d6000fd5b505050506040513d601f19601f820116820180604052508101906125d791906127f5565b73ffffffffffffffffffffffffffffffffffffffff1614801561268557508073ffffffffffffffffffffffffffffffffffffffff1663e985e9c58360200151306040518363ffffffff1660e01b8152600401612634929190612c89565b60206040518083038186803b15801561264c57600080fd5b505afa158015612660573d6000803e3d6000fd5b505050506040513d601f19601f8201168201806040525081019061268491906128e4565b5b80156127055750600060028111156126c6577f4e487b7100000000000000000000000000000000000000000000000000000000600052602160045260246000fd5b82600001516002811115612703577f4e487b7100000000000000000000000000000000000000000000000000000000600052602160045260246000fd5b145b92505050919050565b6040518060a0016040528060006002811115612753577f4e487b7100000000000000000000000000000000000000000000000000000000600052602160045260246000fd5b8152602001600073ffffffffffffffffffffffffffffffffffffffff16815260200160008152602001600073ffffffffffffffffffffffffffffffffffffffff168152602001600081525090565b6000813590506127b081613590565b92915050565b6000815190506127c581613590565b92915050565b6000815190506127da816135a7565b92915050565b6000813590506127ef816135be565b92915050565b60006020828403121561280757600080fd5b6000612815848285016127b6565b91505092915050565b60008060006060848603121561283357600080fd5b6000612841868287016127a1565b9350506020612852868287016127e0565b9250506040612863868287016127e0565b9150509250925092565b600080600080600060a0868803121561288557600080fd5b6000612893888289016127a1565b95505060206128a4888289016127e0565b94505060406128b5888289016127e0565b93505060606128c6888289016127e0565b92505060806128d7888289016127e0565b9150509295509295909350565b6000602082840312156128f657600080fd5b6000612904848285016127cb565b91505092915050565b60006020828403121561291f57600080fd5b600061292d848285016127e0565b91505092915050565b61293f81613131565b82525050565b61294e81613131565b82525050565b61295d81613143565b82525050565b61296c8161318c565b82525050565b600061297f601183613065565b915061298a82613274565b602082019050919050565b60006129a2601683613065565b91506129ad8261329d565b602082019050919050565b60006129c5601e83613065565b91506129d0826132c6565b602082019050919050565b60006129e8600683613065565b91506129f3826132ef565b602082019050919050565b6000612a0b600983613065565b9150612a1682613318565b602082019050919050565b6000612a2e603983613065565b9150612a3982613341565b604082019050919050565b6000612a51600783613065565b9150612a5c82613390565b602082019050919050565b6000612a74601183613065565b9150612a7f826133b9565b602082019050919050565b6000612a97600b83613065565b9150612aa2826133e2565b602082019050919050565b6000612aba601583613065565b9150612ac58261340b565b602082019050919050565b6000612add601483613065565b9150612ae882613434565b602082019050919050565b6000612b00600b83613065565b9150612b0b8261345d565b602082019050919050565b6000612b23600a83613065565b9150612b2e82613486565b602082019050919050565b6000612b46600983613065565b9150612b51826134af565b602082019050919050565b6000612b69601083613065565b9150612b74826134d8565b602082019050919050565b6000612b8c601283613065565b9150612b9782613501565b602082019050919050565b6000612baf601b83613065565b9150612bba8261352a565b602082019050919050565b6000612bd2601f83613065565b9150612bdd82613553565b602082019050919050565b60a082016000820151612bfe6000850182612963565b506020820151612c116020850182612936565b506040820151612c246040850182612c50565b506060820151612c376060850182612936565b506080820151612c4a6080850182612c50565b50505050565b612c5981613182565b82525050565b612c6881613182565b82525050565b6000602082019050612c836000830184612945565b92915050565b6000604082019050612c9e6000830185612945565b612cab6020830184612945565b9392505050565b6000606082019050612cc76000830186612945565b612cd46020830185612945565b612ce16040830184612c5f565b949350505050565b6000602082019050612cfe6000830184612954565b92915050565b60006020820190508181036000830152612d1d81612972565b9050919050565b60006020820190508181036000830152612d3d81612995565b9050919050565b60006020820190508181036000830152612d5d816129b8565b9050919050565b60006020820190508181036000830152612d7d816129db565b9050919050565b60006020820190508181036000830152612d9d816129fe565b9050919050565b60006020820190508181036000830152612dbd81612a21565b9050919050565b60006020820190508181036000830152612ddd81612a44565b9050919050565b60006020820190508181036000830152612dfd81612a67565b9050919050565b60006020820190508181036000830152612e1d81612a8a565b9050919050565b60006020820190508181036000830152612e3d81612aad565b9050919050565b60006020820190508181036000830152612e5d81612ad0565b9050919050565b60006020820190508181036000830152612e7d81612af3565b9050919050565b60006020820190508181036000830152612e9d81612b16565b9050919050565b60006020820190508181036000830152612ebd81612b39565b9050919050565b60006020820190508181036000830152612edd81612b5c565b9050919050565b60006020820190508181036000830152612efd81612b7f565b9050919050565b60006020820190508181036000830152612f1d81612ba2565b9050919050565b60006020820190508181036000830152612f3d81612bc5565b9050919050565b600060a082019050612f596000830184612be8565b92915050565b6000602082019050612f746000830184612c5f565b92915050565b6000604082019050612f8f6000830185612c5f565b612f9c6020830184612945565b9392505050565b600060a082019050612fb86000830188612c5f565b612fc56020830187612945565b612fd26040830186612945565b612fdf6060830185612c5f565b612fec6080830184612c5f565b9695505050505050565b600060e08201905061300b600083018a612c5f565b6130186020830189612945565b6130256040830188612945565b6130326060830187612c5f565b61303f6080830186612c5f565b61304c60a0830185612c5f565b61305960c0830184612c5f565b98975050505050505050565b600082825260208201905092915050565b600061308182613182565b915061308c83613182565b9250827fffffffffffffffffffffffffffffffffffffffffffffffffffffffffffffffff038211156130c1576130c06131e7565b5b828201905092915050565b60006130d782613182565b91506130e283613182565b9250826130f2576130f1613216565b5b828204905092915050565b600061310882613182565b915061311383613182565b925082821015613126576131256131e7565b5b828203905092915050565b600061313c82613162565b9050919050565b60008115159050919050565b600081905061315d8261357c565b919050565b600073ffffffffffffffffffffffffffffffffffffffff82169050919050565b6000819050919050565b60006131978261314f565b9050919050565b60006131a982613182565b91507fffffffffffffffffffffffffffffffffffffffffffffffffffffffffffffffff8214156131dc576131db6131e7565b5b600182019050919050565b7f4e487b7100000000000000000000000000000000000000000000000000000000600052601160045260246000fd5b7f4e487b7100000000000000000000000000000000000000000000000000000000600052601260045260246000fd5b7f4e487b7100000000000000000000000000000000000000000000000000000000600052602160045260246000fd5b7f616c6c6f77616e6365206e6f7420736574000000000000000000000000000000600082015250565b7f53656c6c65722063616e6e6f7420626520627579657200000000000000000000600082015250565b7f4f6e6c792073656c6c65722063616e2063616e63656c206c697374696e670000600082015250565b7f6269644665650000000000000000000000000000000000000000000000000000600082015250565b7f6e6f74206d616b65720000000000000000000000000000000000000000000000600082015250565b7f7072656d69756d732068617665206265656e207061696420616e64206465616460008201527f6c696e652069732079657420746f206265207265616368656400000000000000602082015250565b7f7072656d69756d00000000000000000000000000000000000000000000000000600082015250565b7f73746174757320213d207374616b696e67000000000000000000000000000000600082015250565b7f6e6f742062757961626c65000000000000000000000000000000000000000000600082015250565b7f4c697374696e67206973206e6f74206163746976650000000000000000000000600082015250565b7f496e73756666696369656e74207061796d656e74000000000000000000000000600082015250565b7f21636f6c6c61746572616c000000000000000000000000000000000000000000600082015250565b7f21616c6c6f77616e636500000000000000000000000000000000000000000000600082015250565b7f6e6f742074616b65720000000000000000000000000000000000000000000000600082015250565b7f646561646c696e65207265616368656400000000000000000000000000000000600082015250565b7f6e6f6e2d616374697665207374616b696e670000000000000000000000000000600082015250565b7f7072656d69756d732068617665206e6f74206265656e20706169640000000000600082015250565b7f5265656e7472616e637947756172643a207265656e7472616e742063616c6c00600082015250565b6003811061358d5761358c613245565b5b50565b61359981613131565b81146135a457600080fd5b50565b6135b081613143565b81146135bb57600080fd5b50565b6135c781613182565b81146135d257600080fd5b5056fea2646970667358221220ad5d9861f93c6b3e0a518072db5e40264b36320edfda47f67662fdd225e2a9fe64736f6c63430008040033",
  "linkReferences": {},
  "deployedLinkReferences": {}
}