{
  "_format": "hh-sol-artifact-1",
  "contractName": "Marketplace",
  "sourceName": "contracts/Marketplace.sol",
  "abi": [
    {
      "inputs": [
        {
          "internalType": "address",
          "name": "_platform",
          "type": "address"
        }
      ],
      "stateMutability": "nonpayable",
      "type": "constructor"
    },
    {
      "anonymous": false,
      "inputs": [
        {
          "indexed": false,
          "internalType": "uint256",
          "name": "listingId",
          "type": "uint256"
        },
        {
          "indexed": false,
          "internalType": "address",
          "name": "seller",
          "type": "address"
        }
      ],
      "name": "CancelBid",
      "type": "event"
    },
    {
      "anonymous": false,
      "inputs": [
        {
          "indexed": false,
          "internalType": "uint256",
          "name": "rentalId",
          "type": "uint256"
        }
      ],
      "name": "FinishRentalForCollateral",
      "type": "event"
    },
    {
      "anonymous": false,
      "inputs": [
        {
          "indexed": false,
          "internalType": "uint256",
          "name": "rentalId",
          "type": "uint256"
        }
      ],
      "name": "FinishRentalForNFT",
      "type": "event"
    },
    {
      "anonymous": false,
      "inputs": [
        {
          "indexed": false,
          "internalType": "uint256",
          "name": "listingId",
          "type": "uint256"
        },
        {
          "indexed": false,
          "internalType": "address",
          "name": "seller",
          "type": "address"
        },
        {
          "indexed": false,
          "internalType": "address",
          "name": "token",
          "type": "address"
        },
        {
          "indexed": false,
          "internalType": "uint256",
          "name": "tokenId",
          "type": "uint256"
        },
        {
          "indexed": false,
          "internalType": "uint256",
          "name": "price",
          "type": "uint256"
        }
      ],
      "name": "Listed",
      "type": "event"
    },
    {
      "anonymous": false,
      "inputs": [
        {
          "indexed": false,
          "internalType": "uint256",
          "name": "stakingId",
          "type": "uint256"
        },
        {
          "indexed": false,
          "internalType": "address",
          "name": "maker",
          "type": "address"
        },
        {
          "indexed": false,
          "internalType": "address",
          "name": "token",
          "type": "address"
        },
        {
          "indexed": false,
          "internalType": "uint256",
          "name": "tokenId",
          "type": "uint256"
        },
        {
          "indexed": false,
          "internalType": "uint256",
          "name": "collateral",
          "type": "uint256"
        },
        {
          "indexed": false,
          "internalType": "uint256",
          "name": "premium",
          "type": "uint256"
        },
        {
          "indexed": false,
          "internalType": "uint256",
          "name": "deadline",
          "type": "uint256"
        }
      ],
      "name": "QuotedForStaking",
      "type": "event"
    },
    {
      "anonymous": false,
      "inputs": [
        {
          "indexed": false,
          "internalType": "uint256",
          "name": "rentalId",
          "type": "uint256"
        },
        {
          "indexed": false,
          "internalType": "address",
          "name": "taker",
          "type": "address"
        }
      ],
      "name": "Rental",
      "type": "event"
    },
    {
      "anonymous": false,
      "inputs": [
        {
          "indexed": false,
          "internalType": "uint256",
          "name": "listingId",
          "type": "uint256"
        },
        {
          "indexed": false,
          "internalType": "address",
          "name": "buyer",
          "type": "address"
        },
        {
          "indexed": false,
          "internalType": "address",
          "name": "token",
          "type": "address"
        },
        {
          "indexed": false,
          "internalType": "uint256",
          "name": "tokenId",
          "type": "uint256"
        },
        {
          "indexed": false,
          "internalType": "uint256",
          "name": "price",
          "type": "uint256"
        }
      ],
      "name": "Sale",
      "type": "event"
    },
    {
      "inputs": [
        {
          "internalType": "uint256",
          "name": "",
          "type": "uint256"
        }
      ],
      "name": "_listings",
      "outputs": [
        {
          "internalType": "enum Marketplace.ListingStatus",
          "name": "status",
          "type": "uint8"
        },
        {
          "internalType": "address",
          "name": "seller",
          "type": "address"
        },
        {
          "internalType": "uint256",
          "name": "price",
          "type": "uint256"
        },
        {
          "internalType": "address",
          "name": "token",
          "type": "address"
        },
        {
          "internalType": "uint256",
          "name": "tokenId",
          "type": "uint256"
        }
      ],
      "stateMutability": "view",
      "type": "function"
    },
    {
      "inputs": [],
      "name": "_listingsLastIndex",
      "outputs": [
        {
          "internalType": "uint256",
          "name": "",
          "type": "uint256"
        }
      ],
      "stateMutability": "view",
      "type": "function"
    },
    {
      "inputs": [
        {
          "internalType": "uint256",
          "name": "",
          "type": "uint256"
        }
      ],
      "name": "_stakings",
      "outputs": [
        {
          "internalType": "enum Marketplace.StakeStatus",
          "name": "status",
          "type": "uint8"
        },
        {
          "internalType": "address",
          "name": "maker",
          "type": "address"
        },
        {
          "internalType": "address",
          "name": "taker",
          "type": "address"
        },
        {
          "internalType": "uint256",
          "name": "collateral",
          "type": "uint256"
        },
        {
          "internalType": "uint256",
          "name": "premium",
          "type": "uint256"
        },
        {
          "internalType": "uint256",
          "name": "startRentalUTC",
          "type": "uint256"
        },
        {
          "internalType": "uint256",
          "name": "paymentsAmount",
          "type": "uint256"
        },
        {
          "internalType": "uint256",
          "name": "deadline",
          "type": "uint256"
        },
        {
          "internalType": "address",
          "name": "token",
          "type": "address"
        },
        {
          "internalType": "uint256",
          "name": "tokenId",
          "type": "uint256"
        }
      ],
      "stateMutability": "view",
      "type": "function"
    },
    {
      "inputs": [],
      "name": "_stakingsLastIndex",
      "outputs": [
        {
          "internalType": "uint256",
          "name": "",
          "type": "uint256"
        }
      ],
      "stateMutability": "view",
      "type": "function"
    },
    {
      "inputs": [
        {
          "internalType": "address",
          "name": "tokenContract",
          "type": "address"
        },
        {
          "internalType": "uint256",
          "name": "tokenId",
          "type": "uint256"
        },
        {
          "internalType": "uint256",
          "name": "priceWei",
          "type": "uint256"
        }
      ],
      "name": "bid",
      "outputs": [],
      "stateMutability": "payable",
      "type": "function"
    },
    {
      "inputs": [
        {
          "internalType": "uint256",
          "name": "listingId",
          "type": "uint256"
        }
      ],
      "name": "buyToken",
      "outputs": [],
      "stateMutability": "payable",
      "type": "function"
    },
    {
      "inputs": [
        {
          "internalType": "uint256",
          "name": "stakingId",
          "type": "uint256"
        }
      ],
      "name": "canRentNFT",
      "outputs": [
        {
          "internalType": "bool",
          "name": "",
          "type": "bool"
        }
      ],
      "stateMutability": "view",
      "type": "function"
    },
    {
      "inputs": [
        {
          "internalType": "uint256",
          "name": "listingId",
          "type": "uint256"
        }
      ],
      "name": "cancel",
      "outputs": [],
      "stateMutability": "nonpayable",
      "type": "function"
    },
    {
      "inputs": [
        {
          "internalType": "uint256",
          "name": "stakingId",
          "type": "uint256"
        }
      ],
      "name": "claimCollateral",
      "outputs": [],
      "stateMutability": "nonpayable",
      "type": "function"
    },
    {
      "inputs": [
        {
          "internalType": "uint256",
          "name": "stakingId",
          "type": "uint256"
        }
      ],
      "name": "dateOfNextPayment",
      "outputs": [
        {
          "internalType": "uint256",
          "name": "date",
          "type": "uint256"
        }
      ],
      "stateMutability": "view",
      "type": "function"
    },
    {
      "inputs": [
        {
          "internalType": "uint256",
          "name": "listingId",
          "type": "uint256"
        }
      ],
      "name": "getListing",
      "outputs": [
        {
          "components": [
            {
              "internalType": "enum Marketplace.ListingStatus",
              "name": "status",
              "type": "uint8"
            },
            {
              "internalType": "address",
              "name": "seller",
              "type": "address"
            },
            {
              "internalType": "uint256",
              "name": "price",
              "type": "uint256"
            },
            {
              "internalType": "address",
              "name": "token",
              "type": "address"
            },
            {
              "internalType": "uint256",
              "name": "tokenId",
              "type": "uint256"
            }
          ],
          "internalType": "struct Marketplace.Listing",
          "name": "",
          "type": "tuple"
        }
      ],
      "stateMutability": "view",
      "type": "function"
    },
    {
      "inputs": [
        {
          "internalType": "uint256",
          "name": "stakingId",
          "type": "uint256"
        }
      ],
      "name": "getStaking",
      "outputs": [
        {
          "components": [
            {
              "internalType": "enum Marketplace.StakeStatus",
              "name": "status",
              "type": "uint8"
            },
            {
              "internalType": "address",
              "name": "maker",
              "type": "address"
            },
            {
              "internalType": "address",
              "name": "taker",
              "type": "address"
            },
            {
              "internalType": "uint256",
              "name": "collateral",
              "type": "uint256"
            },
            {
              "internalType": "uint256",
              "name": "premium",
              "type": "uint256"
            },
            {
              "internalType": "uint256",
              "name": "startRentalUTC",
              "type": "uint256"
            },
            {
              "internalType": "uint256",
              "name": "paymentsAmount",
              "type": "uint256"
            },
            {
              "internalType": "uint256",
              "name": "deadline",
              "type": "uint256"
            },
            {
              "internalType": "address",
              "name": "token",
              "type": "address"
            },
            {
              "internalType": "uint256",
              "name": "tokenId",
              "type": "uint256"
            }
          ],
          "internalType": "struct Marketplace.Staking",
          "name": "",
          "type": "tuple"
        }
      ],
      "stateMutability": "view",
      "type": "function"
    },
    {
      "inputs": [
        {
          "internalType": "uint256",
          "name": "listingId",
          "type": "uint256"
        }
      ],
      "name": "isBuyable",
      "outputs": [
        {
          "internalType": "bool",
          "name": "",
          "type": "bool"
        }
      ],
      "stateMutability": "view",
      "type": "function"
    },
    {
      "inputs": [
        {
          "internalType": "uint256",
          "name": "stakingId",
          "type": "uint256"
        }
      ],
      "name": "isCollateralClaimable",
      "outputs": [
        {
          "internalType": "bool",
          "name": "status",
          "type": "bool"
        }
      ],
      "stateMutability": "view",
      "type": "function"
    },
    {
      "inputs": [
        {
          "internalType": "uint256",
          "name": "stakingId",
          "type": "uint256"
        }
      ],
      "name": "payPremium",
      "outputs": [],
      "stateMutability": "payable",
      "type": "function"
    },
    {
      "inputs": [
        {
          "internalType": "uint256",
          "name": "stakingId",
          "type": "uint256"
        }
      ],
      "name": "paymentsDue",
      "outputs": [
        {
          "internalType": "int256",
          "name": "amountDue",
          "type": "int256"
        }
      ],
      "stateMutability": "view",
      "type": "function"
    },
    {
      "inputs": [],
      "name": "platform",
      "outputs": [
        {
          "internalType": "address",
          "name": "",
          "type": "address"
        }
      ],
      "stateMutability": "view",
      "type": "function"
    },
    {
      "inputs": [
        {
          "internalType": "address",
          "name": "tokenContract",
          "type": "address"
        },
        {
          "internalType": "uint256",
          "name": "tokenId",
          "type": "uint256"
        },
        {
          "internalType": "uint256",
          "name": "collateralWei",
          "type": "uint256"
        },
        {
          "internalType": "uint256",
          "name": "premiumWei",
          "type": "uint256"
        },
        {
          "internalType": "uint256",
          "name": "deadlineUTC",
          "type": "uint256"
        }
      ],
      "name": "quoteForStaking",
      "outputs": [],
      "stateMutability": "payable",
      "type": "function"
    },
    {
      "inputs": [
        {
          "internalType": "uint256",
          "name": "stakingId",
          "type": "uint256"
        }
      ],
      "name": "rentNFT",
      "outputs": [],
      "stateMutability": "payable",
      "type": "function"
    },
    {
      "inputs": [
        {
          "internalType": "uint256",
          "name": "stakingId",
          "type": "uint256"
        }
      ],
      "name": "stopRental",
      "outputs": [],
      "stateMutability": "nonpayable",
      "type": "function"
    },
    {
      "inputs": [
        {
          "internalType": "uint256",
          "name": "stakingIndex",
          "type": "uint256"
        }
      ],
      "name": "stopStaking",
      "outputs": [],
      "stateMutability": "nonpayable",
      "type": "function"
    }
  ],
  "bytecode": "0x60a06040523480156200001157600080fd5b5060405162004e9a38038062004e9a833981810160405281019062000037919062000094565b60016000819055508073ffffffffffffffffffffffffffffffffffffffff1660808173ffffffffffffffffffffffffffffffffffffffff1660601b81525050506200010e565b6000815190506200008e81620000f4565b92915050565b600060208284031215620000a757600080fd5b6000620000b7848285016200007d565b91505092915050565b6000620000cd82620000d4565b9050919050565b600073ffffffffffffffffffffffffffffffffffffffff82169050919050565b620000ff81620000c0565b81146200010b57600080fd5b50565b60805160601c614d66620001346000396000818161254301526138910152614d666000f3fe60806040526004361061012a5760003560e01c80634364b26e116100ab578063d10055431161006f578063d1005543146103c4578063d78a75ad14610401578063df76dbc91461042c578063e32446641461046d578063e738c7c814610498578063ecaf6d60146104d55761012a565b80634364b26e146102fb5780634bde38c814610317578063b6e96f4c14610342578063c49785b41461037f578063c893c659146103a85761012a565b80631c760bdb116100f25780631c760bdb146102135780631f01c0d11461023c5780632d296bf11461027957806331eb3f371461029557806340e58ee5146102d25761012a565b80630ae3f1091461012f5780630f41ba4b14610175578063107a274a1461019157806314364f1d146101ce578063156ecc3d146101ea575b600080fd5b34801561013b57600080fd5b5061015660048036038101906101519190613bc5565b610512565b60405161016c9a99989796959493929190614180565b60405180910390f35b61018f600480360381019061018a9190613ad6565b6105d3565b005b34801561019d57600080fd5b506101b860048036038101906101b39190613bc5565b610a3f565b6040516101c591906144d7565b60405180910390f35b6101e860048036038101906101e39190613bc5565b610bb3565b005b3480156101f657600080fd5b50610211600480360381019061020c9190613bc5565b6110c4565b005b34801561021f57600080fd5b5061023a60048036038101906102359190613bc5565b611565565b005b34801561024857600080fd5b50610263600480360381019061025e9190613bc5565b611875565b604051610270919061421c565b60405180910390f35b610293600480360381019061028e9190613bc5565b611ab5565b005b3480156102a157600080fd5b506102bc60048036038101906102b79190613bc5565b611e35565b6040516102c991906144f2565b60405180910390f35b3480156102de57600080fd5b506102f960048036038101906102f49190613bc5565b612028565b005b61031560048036038101906103109190613bc5565b61229f565b005b34801561032357600080fd5b5061032c612541565b6040516103399190614097565b60405180910390f35b34801561034e57600080fd5b5061036960048036038101906103649190613bc5565b612565565b6040516103769190614112565b60405180910390f35b34801561038b57600080fd5b506103a660048036038101906103a19190613bc5565b6127aa565b005b6103c260048036038101906103bd9190613b25565b612b4a565b005b3480156103d057600080fd5b506103eb60048036038101906103e69190613bc5565b61305b565b6040516103f8919061450e565b60405180910390f35b34801561040d57600080fd5b5061041661327a565b604051610423919061450e565b60405180910390f35b34801561043857600080fd5b50610453600480360381019061044e9190613bc5565b613280565b60405161046495949392919061412d565b60405180910390f35b34801561047957600080fd5b50610482613303565b60405161048f919061450e565b60405180910390f35b3480156104a457600080fd5b506104bf60048036038101906104ba9190613bc5565b613309565b6040516104cc9190614112565b60405180910390f35b3480156104e157600080fd5b506104fc60048036038101906104f79190613bc5565b61365b565b6040516105099190614112565b60405180910390f35b60046020528060005260406000206000915090508060000160009054906101000a900460ff16908060000160019054906101000a900473ffffffffffffffffffffffffffffffffffffffff16908060010160009054906101000a900473ffffffffffffffffffffffffffffffffffffffff16908060020154908060030154908060040154908060050154908060060154908060070160009054906101000a900473ffffffffffffffffffffffffffffffffffffffff1690806008015490508a565b60026000541415610619576040517f08c379a0000000000000000000000000000000000000000000000000000000008152600401610610906144b7565b60405180910390fd5b60026000819055508273ffffffffffffffffffffffffffffffffffffffff1663e985e9c533306040518363ffffffff1660e01b815260040161065c9291906140b2565b60206040518083038186803b15801561067457600080fd5b505afa158015610688573d6000803e3d6000fd5b505050506040513d601f19601f820116820180604052508101906106ac9190613b9c565b6106eb576040517f08c379a00000000000000000000000000000000000000000000000000000000081526004016106e2906143f7565b60405180910390fd5b3373ffffffffffffffffffffffffffffffffffffffff168373ffffffffffffffffffffffffffffffffffffffff16636352211e846040518263ffffffff1660e01b815260040161073b919061450e565b60206040518083038186803b15801561075357600080fd5b505afa158015610767573d6000803e3d6000fd5b505050506040513d601f19601f8201168201806040525081019061078b9190613aad565b73ffffffffffffffffffffffffffffffffffffffff16146107e1576040517f08c379a00000000000000000000000000000000000000000000000000000000081526004016107d890614257565b60405180910390fd5b67016345785d8a0000341461082b576040517f08c379a000000000000000000000000000000000000000000000000000000000815260040161082290614437565b60405180910390fd5b61083c67016345785d8a000061388f565b6040518060a0016040528060006002811115610881577f4e487b7100000000000000000000000000000000000000000000000000000000600052602160045260246000fd5b81526020013373ffffffffffffffffffffffffffffffffffffffff1681526020018281526020018473ffffffffffffffffffffffffffffffffffffffff1681526020018381525060026000600154815260200190815260200160002060008201518160000160006101000a81548160ff0219169083600281111561092e577f4e487b7100000000000000000000000000000000000000000000000000000000600052602160045260246000fd5b021790555060208201518160000160016101000a81548173ffffffffffffffffffffffffffffffffffffffff021916908373ffffffffffffffffffffffffffffffffffffffff1602179055506040820151816001015560608201518160020160006101000a81548173ffffffffffffffffffffffffffffffffffffffff021916908373ffffffffffffffffffffffffffffffffffffffff160217905550608082015181600301559050507f723f73331eaee88eec7fc68ef60ab6ed15e4b90d0472b55eb92fa43910bab6dd60015433858585604051610a11959493929190614552565b60405180910390a16001806000828254610a2b9190614625565b925050819055506001600081905550505050565b610a476138f9565b600260008381526020019081526020016000206040518060a00160405290816000820160009054906101000a900460ff166002811115610ab0577f4e487b7100000000000000000000000000000000000000000000000000000000600052602160045260246000fd5b6002811115610ae8577f4e487b7100000000000000000000000000000000000000000000000000000000600052602160045260246000fd5b81526020016000820160019054906101000a900473ffffffffffffffffffffffffffffffffffffffff1673ffffffffffffffffffffffffffffffffffffffff1673ffffffffffffffffffffffffffffffffffffffff168152602001600182015481526020016002820160009054906101000a900473ffffffffffffffffffffffffffffffffffffffff1673ffffffffffffffffffffffffffffffffffffffff1673ffffffffffffffffffffffffffffffffffffffff1681526020016003820154815250509050919050565b60026000541415610bf9576040517f08c379a0000000000000000000000000000000000000000000000000000000008152600401610bf0906144b7565b60405180910390fd5b600260008190555060006004600083815260200190815260200160002090508060000160019054906101000a900473ffffffffffffffffffffffffffffffffffffffff1673ffffffffffffffffffffffffffffffffffffffff163373ffffffffffffffffffffffffffffffffffffffff161415610cab576040517f08c379a0000000000000000000000000000000000000000000000000000000008152600401610ca290614337565b60405180910390fd5b8060070160009054906101000a900473ffffffffffffffffffffffffffffffffffffffff1673ffffffffffffffffffffffffffffffffffffffff1663e985e9c58260000160019054906101000a900473ffffffffffffffffffffffffffffffffffffffff16306040518363ffffffff1660e01b8152600401610d2e9291906140b2565b60206040518083038186803b158015610d4657600080fd5b505afa158015610d5a573d6000803e3d6000fd5b505050506040513d601f19601f82011682018060405250810190610d7e9190613b9c565b610dbd576040517f08c379a0000000000000000000000000000000000000000000000000000000008152600401610db4906143f7565b60405180910390fd5b80600301548160020154610dd19190614625565b3414610e12576040517f08c379a0000000000000000000000000000000000000000000000000000000008152600401610e09906143d7565b60405180910390fd5b428160040181905550338160010160006101000a81548173ffffffffffffffffffffffffffffffffffffffff021916908373ffffffffffffffffffffffffffffffffffffffff16021790555060018160000160006101000a81548160ff02191690836004811115610eac577f4e487b7100000000000000000000000000000000000000000000000000000000600052602160045260246000fd5b0217905550600181600501819055508060070160009054906101000a900473ffffffffffffffffffffffffffffffffffffffff1673ffffffffffffffffffffffffffffffffffffffff166342842e0e8260000160019054906101000a900473ffffffffffffffffffffffffffffffffffffffff168360010160009054906101000a900473ffffffffffffffffffffffffffffffffffffffff1684600801546040518463ffffffff1660e01b8152600401610f68939291906140db565b600060405180830381600087803b158015610f8257600080fd5b505af1158015610f96573d6000803e3d6000fd5b505050508060000160019054906101000a900473ffffffffffffffffffffffffffffffffffffffff1673ffffffffffffffffffffffffffffffffffffffff166108fc67016345785d8a00009081150290604051600060405180830381858888f1935050505015801561100c573d6000803e3d6000fd5b506000601460648360030154611022919061467b565b61102c91906146ac565b90506000818360030154611040919061479a565b905061104b8261388f565b8260000160019054906101000a900473ffffffffffffffffffffffffffffffffffffffff1673ffffffffffffffffffffffffffffffffffffffff166108fc829081150290604051600060405180830381858888f193505050501580156110b5573d6000803e3d6000fd5b50505050600160008190555050565b6002600054141561110a576040517f08c379a0000000000000000000000000000000000000000000000000000000008152600401611101906144b7565b60405180910390fd5b6002600081905550600060046000838152602001908152602001600020905060006004811115611163577f4e487b7100000000000000000000000000000000000000000000000000000000600052602160045260246000fd5b8160000160009054906101000a900460ff1660048111156111ad577f4e487b7100000000000000000000000000000000000000000000000000000000600052602160045260246000fd5b146111ed576040517f08c379a00000000000000000000000000000000000000000000000000000000081526004016111e490614477565b60405180910390fd5b3373ffffffffffffffffffffffffffffffffffffffff168160010160009054906101000a900473ffffffffffffffffffffffffffffffffffffffff1673ffffffffffffffffffffffffffffffffffffffff161461127f576040517f08c379a000000000000000000000000000000000000000000000000000000000815260040161127690614417565b60405180910390fd5b600062093a80826004015442611295919061479a565b61129f919061467b565b905080826005015410156112e8576040517f08c379a00000000000000000000000000000000000000000000000000000000081526004016112df90614497565b60405180910390fd5b60028260000160006101000a81548160ff02191690836004811115611336577f4e487b7100000000000000000000000000000000000000000000000000000000600052602160045260246000fd5b02179055508160070160009054906101000a900473ffffffffffffffffffffffffffffffffffffffff1673ffffffffffffffffffffffffffffffffffffffff166342842e0e8360010160009054906101000a900473ffffffffffffffffffffffffffffffffffffffff168460000160019054906101000a900473ffffffffffffffffffffffffffffffffffffffff1685600801546040518463ffffffff1660e01b81526004016113e8939291906140db565b600060405180830381600087803b15801561140257600080fd5b505af1158015611416573d6000803e3d6000fd5b505050508160010160009054906101000a900473ffffffffffffffffffffffffffffffffffffffff1673ffffffffffffffffffffffffffffffffffffffff166108fc83600201549081150290604051600060405180830381858888f19350505050158015611488573d6000803e3d6000fd5b5060046000848152602001908152602001600020600080820160006101000a81549060ff02191690556000820160016101000a81549073ffffffffffffffffffffffffffffffffffffffff02191690556001820160006101000a81549073ffffffffffffffffffffffffffffffffffffffff0219169055600282016000905560038201600090556004820160009055600582016000905560068201600090556007820160006101000a81549073ffffffffffffffffffffffffffffffffffffffff0219169055600882016000905550505050600160008190555050565b600260005414156115ab576040517f08c379a00000000000000000000000000000000000000000000000000000000081526004016115a2906144b7565b60405180910390fd5b60026000819055506004600082815260200190815260200160002060070160009054906101000a900473ffffffffffffffffffffffffffffffffffffffff1673ffffffffffffffffffffffffffffffffffffffff1663e985e9c533306040518363ffffffff1660e01b81526004016116249291906140b2565b60206040518083038186803b15801561163c57600080fd5b505afa158015611650573d6000803e3d6000fd5b505050506040513d601f19601f820116820180604052508101906116749190613b9c565b6116b3576040517f08c379a00000000000000000000000000000000000000000000000000000000081526004016116aa90614237565b60405180910390fd5b3373ffffffffffffffffffffffffffffffffffffffff166004600083815260200190815260200160002060070160009054906101000a900473ffffffffffffffffffffffffffffffffffffffff1673ffffffffffffffffffffffffffffffffffffffff16636352211e60046000858152602001908152602001600020600801546040518263ffffffff1660e01b815260040161174f919061450e565b60206040518083038186803b15801561176757600080fd5b505afa15801561177b573d6000803e3d6000fd5b505050506040513d601f19601f8201168201806040525081019061179f9190613aad565b73ffffffffffffffffffffffffffffffffffffffff16146117f5576040517f08c379a00000000000000000000000000000000000000000000000000000000081526004016117ec90614257565b60405180910390fd5b600480600083815260200190815260200160002060000160006101000a81548160ff02191690836004811115611854577f4e487b7100000000000000000000000000000000000000000000000000000000600052602160045260246000fd5b021790555061186a67016345785d8a000061388f565b600160008190555050565b60008060046000848152602001908152602001600020604051806101400160405290816000820160009054906101000a900460ff1660048111156118e2577f4e487b7100000000000000000000000000000000000000000000000000000000600052602160045260246000fd5b600481111561191a577f4e487b7100000000000000000000000000000000000000000000000000000000600052602160045260246000fd5b81526020016000820160019054906101000a900473ffffffffffffffffffffffffffffffffffffffff1673ffffffffffffffffffffffffffffffffffffffff1673ffffffffffffffffffffffffffffffffffffffff1681526020016001820160009054906101000a900473ffffffffffffffffffffffffffffffffffffffff1673ffffffffffffffffffffffffffffffffffffffff1673ffffffffffffffffffffffffffffffffffffffff16815260200160028201548152602001600382015481526020016004820154815260200160058201548152602001600682015481526020016007820160009054906101000a900473ffffffffffffffffffffffffffffffffffffffff1673ffffffffffffffffffffffffffffffffffffffff1673ffffffffffffffffffffffffffffffffffffffff168152602001600882015481525050905060008160e001514210611a75578160e00151611a77565b425b9050600062093a808360a0015183611a8f919061479a565b611a99919061467b565b90508260c0015181611aab9190614706565b9350505050919050565b60026000541415611afb576040517f08c379a0000000000000000000000000000000000000000000000000000000008152600401611af2906144b7565b60405180910390fd5b6002600081905550600060026000838152602001908152602001600020905060008160020160009054906101000a900473ffffffffffffffffffffffffffffffffffffffff1690508160000160019054906101000a900473ffffffffffffffffffffffffffffffffffffffff1673ffffffffffffffffffffffffffffffffffffffff163373ffffffffffffffffffffffffffffffffffffffff161415611bd6576040517f08c379a0000000000000000000000000000000000000000000000000000000008152600401611bcd90614277565b60405180910390fd5b81600101543414611c1c576040517f08c379a0000000000000000000000000000000000000000000000000000000008152600401611c13906143b7565b60405180910390fd5b611c2583613309565b611c64576040517f08c379a0000000000000000000000000000000000000000000000000000000008152600401611c5b90614377565b60405180910390fd5b60018260000160006101000a81548160ff02191690836002811115611cb2577f4e487b7100000000000000000000000000000000000000000000000000000000600052602160045260246000fd5b02179055508073ffffffffffffffffffffffffffffffffffffffff166342842e0e8360000160019054906101000a900473ffffffffffffffffffffffffffffffffffffffff163385600301546040518463ffffffff1660e01b8152600401611d1c939291906140db565b600060405180830381600087803b158015611d3657600080fd5b505af1158015611d4a573d6000803e3d6000fd5b505050508160000160019054906101000a900473ffffffffffffffffffffffffffffffffffffffff1673ffffffffffffffffffffffffffffffffffffffff166108fc83600101549081150290604051600060405180830381858888f19350505050158015611dbc573d6000803e3d6000fd5b507ff3debaf22196a6ddf52a60fa71058cd7edf5e25bb98f4e96c994a5d4a9b0dd3e83338460020160009054906101000a900473ffffffffffffffffffffffffffffffffffffffff1685600301548660010154604051611e20959493929190614552565b60405180910390a15050600160008190555050565b611e3d61398c565b60046000838152602001908152602001600020604051806101400160405290816000820160009054906101000a900460ff166004811115611ea7577f4e487b7100000000000000000000000000000000000000000000000000000000600052602160045260246000fd5b6004811115611edf577f4e487b7100000000000000000000000000000000000000000000000000000000600052602160045260246000fd5b81526020016000820160019054906101000a900473ffffffffffffffffffffffffffffffffffffffff1673ffffffffffffffffffffffffffffffffffffffff1673ffffffffffffffffffffffffffffffffffffffff1681526020016001820160009054906101000a900473ffffffffffffffffffffffffffffffffffffffff1673ffffffffffffffffffffffffffffffffffffffff1673ffffffffffffffffffffffffffffffffffffffff16815260200160028201548152602001600382015481526020016004820154815260200160058201548152602001600682015481526020016007820160009054906101000a900473ffffffffffffffffffffffffffffffffffffffff1673ffffffffffffffffffffffffffffffffffffffff1673ffffffffffffffffffffffffffffffffffffffff1681526020016008820154815250509050919050565b6002600054141561206e576040517f08c379a0000000000000000000000000000000000000000000000000000000008152600401612065906144b7565b60405180910390fd5b600260008190555060006002600083815260200190815260200160002090508060000160019054906101000a900473ffffffffffffffffffffffffffffffffffffffff1673ffffffffffffffffffffffffffffffffffffffff163373ffffffffffffffffffffffffffffffffffffffff161461211f576040517f08c379a000000000000000000000000000000000000000000000000000000000815260040161211690614297565b60405180910390fd5b60006002811115612159577f4e487b7100000000000000000000000000000000000000000000000000000000600052602160045260246000fd5b8160000160009054906101000a900460ff1660028111156121a3577f4e487b7100000000000000000000000000000000000000000000000000000000600052602160045260246000fd5b146121e3576040517f08c379a00000000000000000000000000000000000000000000000000000000081526004016121da90614397565b60405180910390fd5b60028160000160006101000a81548160ff02191690836002811115612231577f4e487b7100000000000000000000000000000000000000000000000000000000600052602160045260246000fd5b02179055507f874afcdd5e90b2329b3c1601e613dcdc6abb6deb62ce61339a8337b48c053e51828260000160019054906101000a900473ffffffffffffffffffffffffffffffffffffffff1660405161228b929190614529565b60405180910390a150600160008190555050565b6000600460008381526020019081526020016000209050600160048111156122f0577f4e487b7100000000000000000000000000000000000000000000000000000000600052602160045260246000fd5b8160000160009054906101000a900460ff16600481111561233a577f4e487b7100000000000000000000000000000000000000000000000000000000600052602160045260246000fd5b1461237a576040517f08c379a000000000000000000000000000000000000000000000000000000000815260040161237190614357565b60405180910390fd5b806003015434146123c0576040517f08c379a00000000000000000000000000000000000000000000000000000000081526004016123b790614317565b60405180910390fd5b80600601544210612406576040517f08c379a00000000000000000000000000000000000000000000000000000000081526004016123fd90614457565b60405180910390fd5b600062093a8082600401548360060154612420919061479a565b61242a919061467b565b9050806001836005015461243e9190614625565b111561247f576040517f08c379a0000000000000000000000000000000000000000000000000000000008152600401612476906142d7565b60405180910390fd5b60006014606434612490919061467b565b61249a91906146ac565b9050600081346124aa919061479a565b90506124b58261388f565b8360000160019054906101000a900473ffffffffffffffffffffffffffffffffffffffff1673ffffffffffffffffffffffffffffffffffffffff166108fc829081150290604051600060405180830381858888f1935050505015801561251f573d6000803e3d6000fd5b508360050160008154809291906125359061486a565b91905055505050505050565b7f000000000000000000000000000000000000000000000000000000000000000081565b60008060046000848152602001908152602001600020604051806101400160405290816000820160009054906101000a900460ff1660048111156125d2577f4e487b7100000000000000000000000000000000000000000000000000000000600052602160045260246000fd5b600481111561260a577f4e487b7100000000000000000000000000000000000000000000000000000000600052602160045260246000fd5b81526020016000820160019054906101000a900473ffffffffffffffffffffffffffffffffffffffff1673ffffffffffffffffffffffffffffffffffffffff1673ffffffffffffffffffffffffffffffffffffffff1681526020016001820160009054906101000a900473ffffffffffffffffffffffffffffffffffffffff1673ffffffffffffffffffffffffffffffffffffffff1673ffffffffffffffffffffffffffffffffffffffff16815260200160028201548152602001600382015481526020016004820154815260200160058201548152602001600682015481526020016007820160009054906101000a900473ffffffffffffffffffffffffffffffffffffffff1673ffffffffffffffffffffffffffffffffffffffff1673ffffffffffffffffffffffffffffffffffffffff168152602001600882015481525050905060008160e001514210612765578160e00151612767565b425b9050600062093a808360a001518361277f919061479a565b612789919061467b565b9050808360c0015110806127a05750428360e00151115b9350505050919050565b600260005414156127f0576040517f08c379a00000000000000000000000000000000000000000000000000000000081526004016127e7906144b7565b60405180910390fd5b6002600081905550600060046000838152602001908152602001600020905060016004811115612849577f4e487b7100000000000000000000000000000000000000000000000000000000600052602160045260246000fd5b8160000160009054906101000a900460ff166004811115612893577f4e487b7100000000000000000000000000000000000000000000000000000000600052602160045260246000fd5b146128d3576040517f08c379a00000000000000000000000000000000000000000000000000000000081526004016128ca90614357565b60405180910390fd5b3373ffffffffffffffffffffffffffffffffffffffff168160000160019054906101000a900473ffffffffffffffffffffffffffffffffffffffff1673ffffffffffffffffffffffffffffffffffffffff1614612965576040517f08c379a000000000000000000000000000000000000000000000000000000000815260040161295c906142b7565b60405180910390fd5b61296e82612565565b6129ad576040517f08c379a00000000000000000000000000000000000000000000000000000000081526004016129a4906142f7565b60405180910390fd5b60038160000160006101000a81548160ff021916908360048111156129fb577f4e487b7100000000000000000000000000000000000000000000000000000000600052602160045260246000fd5b02179055508060000160019054906101000a900473ffffffffffffffffffffffffffffffffffffffff1673ffffffffffffffffffffffffffffffffffffffff166108fc82600201549081150290604051600060405180830381858888f19350505050158015612a6e573d6000803e3d6000fd5b5060046000838152602001908152602001600020600080820160006101000a81549060ff02191690556000820160016101000a81549073ffffffffffffffffffffffffffffffffffffffff02191690556001820160006101000a81549073ffffffffffffffffffffffffffffffffffffffff0219169055600282016000905560038201600090556004820160009055600582016000905560068201600090556007820160006101000a81549073ffffffffffffffffffffffffffffffffffffffff02191690556008820160009055505050600160008190555050565b60026000541415612b90576040517f08c379a0000000000000000000000000000000000000000000000000000000008152600401612b87906144b7565b60405180910390fd5b60026000819055508473ffffffffffffffffffffffffffffffffffffffff1663e985e9c533306040518363ffffffff1660e01b8152600401612bd39291906140b2565b60206040518083038186803b158015612beb57600080fd5b505afa158015612bff573d6000803e3d6000fd5b505050506040513d601f19601f82011682018060405250810190612c239190613b9c565b612c62576040517f08c379a0000000000000000000000000000000000000000000000000000000008152600401612c5990614237565b60405180910390fd5b3373ffffffffffffffffffffffffffffffffffffffff168573ffffffffffffffffffffffffffffffffffffffff16636352211e866040518263ffffffff1660e01b8152600401612cb2919061450e565b60206040518083038186803b158015612cca57600080fd5b505afa158015612cde573d6000803e3d6000fd5b505050506040513d601f19601f82011682018060405250810190612d029190613aad565b73ffffffffffffffffffffffffffffffffffffffff1614612d58576040517f08c379a0000000000000000000000000000000000000000000000000000000008152600401612d4f90614257565b60405180910390fd5b67016345785d8a00003414612da2576040517f08c379a0000000000000000000000000000000000000000000000000000000008152600401612d9990614437565b60405180910390fd5b600060405180610140016040528060006004811115612dea577f4e487b7100000000000000000000000000000000000000000000000000000000600052602160045260246000fd5b81526020013373ffffffffffffffffffffffffffffffffffffffff168152602001600073ffffffffffffffffffffffffffffffffffffffff16815260200185815260200184815260200160008152602001600081526020018381526020018773ffffffffffffffffffffffffffffffffffffffff1681526020018681525090508060046000600354815260200190815260200160002060008201518160000160006101000a81548160ff02191690836004811115612ed1577f4e487b7100000000000000000000000000000000000000000000000000000000600052602160045260246000fd5b021790555060208201518160000160016101000a81548173ffffffffffffffffffffffffffffffffffffffff021916908373ffffffffffffffffffffffffffffffffffffffff16021790555060408201518160010160006101000a81548173ffffffffffffffffffffffffffffffffffffffff021916908373ffffffffffffffffffffffffffffffffffffffff160217905550606082015181600201556080820151816003015560a0820151816004015560c0820151816005015560e082015181600601556101008201518160070160006101000a81548173ffffffffffffffffffffffffffffffffffffffff021916908373ffffffffffffffffffffffffffffffffffffffff16021790555061012082015181600801559050507f32e08351149249c094252d308bf6dee229d75fc098065a02ec0c005da752427860035433888888888860405161302997969594939291906145a5565b60405180910390a16001600360008282546130449190614625565b925050819055505060016000819055505050505050565b60008060046000848152602001908152602001600020604051806101400160405290816000820160009054906101000a900460ff1660048111156130c8577f4e487b7100000000000000000000000000000000000000000000000000000000600052602160045260246000fd5b6004811115613100577f4e487b7100000000000000000000000000000000000000000000000000000000600052602160045260246000fd5b81526020016000820160019054906101000a900473ffffffffffffffffffffffffffffffffffffffff1673ffffffffffffffffffffffffffffffffffffffff1673ffffffffffffffffffffffffffffffffffffffff1681526020016001820160009054906101000a900473ffffffffffffffffffffffffffffffffffffffff1673ffffffffffffffffffffffffffffffffffffffff1673ffffffffffffffffffffffffffffffffffffffff16815260200160028201548152602001600382015481526020016004820154815260200160058201548152602001600682015481526020016007820160009054906101000a900473ffffffffffffffffffffffffffffffffffffffff1673ffffffffffffffffffffffffffffffffffffffff1673ffffffffffffffffffffffffffffffffffffffff168152602001600882015481525050905060018160c001516132559190614625565b62093a8061326391906146ac565b8160a001516132729190614625565b915050919050565b60035481565b60026020528060005260406000206000915090508060000160009054906101000a900460ff16908060000160019054906101000a900473ffffffffffffffffffffffffffffffffffffffff16908060010154908060020160009054906101000a900473ffffffffffffffffffffffffffffffffffffffff16908060030154905085565b60015481565b600080600260008481526020019081526020016000206040518060a00160405290816000820160009054906101000a900460ff166002811115613375577f4e487b7100000000000000000000000000000000000000000000000000000000600052602160045260246000fd5b60028111156133ad577f4e487b7100000000000000000000000000000000000000000000000000000000600052602160045260246000fd5b81526020016000820160019054906101000a900473ffffffffffffffffffffffffffffffffffffffff1673ffffffffffffffffffffffffffffffffffffffff1673ffffffffffffffffffffffffffffffffffffffff168152602001600182015481526020016002820160009054906101000a900473ffffffffffffffffffffffffffffffffffffffff1673ffffffffffffffffffffffffffffffffffffffff1673ffffffffffffffffffffffffffffffffffffffff1681526020016003820154815250509050600081606001519050816020015173ffffffffffffffffffffffffffffffffffffffff168173ffffffffffffffffffffffffffffffffffffffff16636352211e84608001516040518263ffffffff1660e01b81526004016134d4919061450e565b60206040518083038186803b1580156134ec57600080fd5b505afa158015613500573d6000803e3d6000fd5b505050506040513d601f19601f820116820180604052508101906135249190613aad565b73ffffffffffffffffffffffffffffffffffffffff161480156135d257508073ffffffffffffffffffffffffffffffffffffffff1663e985e9c58360200151306040518363ffffffff1660e01b81526004016135819291906140b2565b60206040518083038186803b15801561359957600080fd5b505afa1580156135ad573d6000803e3d6000fd5b505050506040513d601f19601f820116820180604052508101906135d19190613b9c565b5b8015613652575060006002811115613613577f4e487b7100000000000000000000000000000000000000000000000000000000600052602160045260246000fd5b82600001516002811115613650577f4e487b7100000000000000000000000000000000000000000000000000000000600052602160045260246000fd5b145b92505050919050565b6000806004600084815260200190815260200160002090508060070160009054906101000a900473ffffffffffffffffffffffffffffffffffffffff1673ffffffffffffffffffffffffffffffffffffffff1663e985e9c58260000160019054906101000a900473ffffffffffffffffffffffffffffffffffffffff16306040518363ffffffff1660e01b81526004016136f69291906140b2565b60206040518083038186803b15801561370e57600080fd5b505afa158015613722573d6000803e3d6000fd5b505050506040513d601f19601f820116820180604052508101906137469190613b9c565b801561388757506004600084815260200190815260200160002060000160019054906101000a900473ffffffffffffffffffffffffffffffffffffffff1673ffffffffffffffffffffffffffffffffffffffff166004600085815260200190815260200160002060070160009054906101000a900473ffffffffffffffffffffffffffffffffffffffff1673ffffffffffffffffffffffffffffffffffffffff16636352211e60046000878152602001908152602001600020600801546040518263ffffffff1660e01b815260040161381f919061450e565b60206040518083038186803b15801561383757600080fd5b505afa15801561384b573d6000803e3d6000fd5b505050506040513d601f19601f8201168201806040525081019061386f9190613aad565b73ffffffffffffffffffffffffffffffffffffffff16145b915050919050565b7f000000000000000000000000000000000000000000000000000000000000000073ffffffffffffffffffffffffffffffffffffffff166108fc829081150290604051600060405180830381858888f193505050501580156138f5573d6000803e3d6000fd5b5050565b6040518060a001604052806000600281111561393e577f4e487b7100000000000000000000000000000000000000000000000000000000600052602160045260246000fd5b8152602001600073ffffffffffffffffffffffffffffffffffffffff16815260200160008152602001600073ffffffffffffffffffffffffffffffffffffffff168152602001600081525090565b604051806101400160405280600060048111156139d2577f4e487b7100000000000000000000000000000000000000000000000000000000600052602160045260246000fd5b8152602001600073ffffffffffffffffffffffffffffffffffffffff168152602001600073ffffffffffffffffffffffffffffffffffffffff1681526020016000815260200160008152602001600081526020016000815260200160008152602001600073ffffffffffffffffffffffffffffffffffffffff168152602001600081525090565b600081359050613a6881614ceb565b92915050565b600081519050613a7d81614ceb565b92915050565b600081519050613a9281614d02565b92915050565b600081359050613aa781614d19565b92915050565b600060208284031215613abf57600080fd5b6000613acd84828501613a6e565b91505092915050565b600080600060608486031215613aeb57600080fd5b6000613af986828701613a59565b9350506020613b0a86828701613a98565b9250506040613b1b86828701613a98565b9150509250925092565b600080600080600060a08688031215613b3d57600080fd5b6000613b4b88828901613a59565b9550506020613b5c88828901613a98565b9450506040613b6d88828901613a98565b9350506060613b7e88828901613a98565b9250506080613b8f88828901613a98565b9150509295509295909350565b600060208284031215613bae57600080fd5b6000613bbc84828501613a83565b91505092915050565b600060208284031215613bd757600080fd5b6000613be584828501613a98565b91505092915050565b613bf7816147ce565b82525050565b613c06816147ce565b82525050565b613c15816147e0565b82525050565b613c2481614846565b82525050565b613c3381614846565b82525050565b613c4281614858565b82525050565b613c5181614858565b82525050565b613c6081614812565b82525050565b6000613c73601183614614565b9150613c7e82614940565b602082019050919050565b6000613c96600f83614614565b9150613ca182614969565b602082019050919050565b6000613cb9601683614614565b9150613cc482614992565b602082019050919050565b6000613cdc601e83614614565b9150613ce7826149bb565b602082019050919050565b6000613cff600983614614565b9150613d0a826149e4565b602082019050919050565b6000613d22601183614614565b9150613d2d82614a0d565b602082019050919050565b6000613d45603983614614565b9150613d5082614a36565b604082019050919050565b6000613d68600783614614565b9150613d7382614a85565b602082019050919050565b6000613d8b601583614614565b9150613d9682614aae565b602082019050919050565b6000613dae601183614614565b9150613db982614ad7565b602082019050919050565b6000613dd1600b83614614565b9150613ddc82614b00565b602082019050919050565b6000613df4601583614614565b9150613dff82614b29565b602082019050919050565b6000613e17601483614614565b9150613e2282614b52565b602082019050919050565b6000613e3a600b83614614565b9150613e4582614b7b565b602082019050919050565b6000613e5d600a83614614565b9150613e6882614ba4565b602082019050919050565b6000613e80600983614614565b9150613e8b82614bcd565b602082019050919050565b6000613ea3600783614614565b9150613eae82614bf6565b602082019050919050565b6000613ec6601083614614565b9150613ed182614c1f565b602082019050919050565b6000613ee9601283614614565b9150613ef482614c48565b602082019050919050565b6000613f0c601b83614614565b9150613f1782614c71565b602082019050919050565b6000613f2f601f83614614565b9150613f3a82614c9a565b602082019050919050565b60a082016000820151613f5b6000850182613c1b565b506020820151613f6e6020850182613bee565b506040820151613f816040850182614079565b506060820151613f946060850182613bee565b506080820151613fa76080850182614079565b50505050565b61014082016000820151613fc46000850182613c39565b506020820151613fd76020850182613bee565b506040820151613fea6040850182613bee565b506060820151613ffd6060850182614079565b5060808201516140106080850182614079565b5060a082015161402360a0850182614079565b5060c082015161403660c0850182614079565b5060e082015161404960e0850182614079565b5061010082015161405e610100850182613bee565b50610120820151614073610120850182614079565b50505050565b6140828161483c565b82525050565b6140918161483c565b82525050565b60006020820190506140ac6000830184613bfd565b92915050565b60006040820190506140c76000830185613bfd565b6140d46020830184613bfd565b9392505050565b60006060820190506140f06000830186613bfd565b6140fd6020830185613bfd565b61410a6040830184614088565b949350505050565b60006020820190506141276000830184613c0c565b92915050565b600060a0820190506141426000830188613c2a565b61414f6020830187613bfd565b61415c6040830186614088565b6141696060830185613bfd565b6141766080830184614088565b9695505050505050565b600061014082019050614196600083018d613c48565b6141a3602083018c613bfd565b6141b0604083018b613bfd565b6141bd606083018a614088565b6141ca6080830189614088565b6141d760a0830188614088565b6141e460c0830187614088565b6141f160e0830186614088565b6141ff610100830185613bfd565b61420d610120830184614088565b9b9a5050505050505050505050565b60006020820190506142316000830184613c57565b92915050565b6000602082019050818103600083015261425081613c66565b9050919050565b6000602082019050818103600083015261427081613c89565b9050919050565b6000602082019050818103600083015261429081613cac565b9050919050565b600060208201905081810360008301526142b081613ccf565b9050919050565b600060208201905081810360008301526142d081613cf2565b9050919050565b600060208201905081810360008301526142f081613d15565b9050919050565b6000602082019050818103600083015261431081613d38565b9050919050565b6000602082019050818103600083015261433081613d5b565b9050919050565b6000602082019050818103600083015261435081613d7e565b9050919050565b6000602082019050818103600083015261437081613da1565b9050919050565b6000602082019050818103600083015261439081613dc4565b9050919050565b600060208201905081810360008301526143b081613de7565b9050919050565b600060208201905081810360008301526143d081613e0a565b9050919050565b600060208201905081810360008301526143f081613e2d565b9050919050565b6000602082019050818103600083015261441081613e50565b9050919050565b6000602082019050818103600083015261443081613e73565b9050919050565b6000602082019050818103600083015261445081613e96565b9050919050565b6000602082019050818103600083015261447081613eb9565b9050919050565b6000602082019050818103600083015261449081613edc565b9050919050565b600060208201905081810360008301526144b081613eff565b9050919050565b600060208201905081810360008301526144d081613f22565b9050919050565b600060a0820190506144ec6000830184613f45565b92915050565b6000610140820190506145086000830184613fad565b92915050565b60006020820190506145236000830184614088565b92915050565b600060408201905061453e6000830185614088565b61454b6020830184613bfd565b9392505050565b600060a0820190506145676000830188614088565b6145746020830187613bfd565b6145816040830186613bfd565b61458e6060830185614088565b61459b6080830184614088565b9695505050505050565b600060e0820190506145ba600083018a614088565b6145c76020830189613bfd565b6145d46040830188613bfd565b6145e16060830187614088565b6145ee6080830186614088565b6145fb60a0830185614088565b61460860c0830184614088565b98975050505050505050565b600082825260208201905092915050565b60006146308261483c565b915061463b8361483c565b9250827fffffffffffffffffffffffffffffffffffffffffffffffffffffffffffffffff038211156146705761466f6148b3565b5b828201905092915050565b60006146868261483c565b91506146918361483c565b9250826146a1576146a06148e2565b5b828204905092915050565b60006146b78261483c565b91506146c28361483c565b9250817fffffffffffffffffffffffffffffffffffffffffffffffffffffffffffffffff04831182151516156146fb576146fa6148b3565b5b828202905092915050565b600061471182614812565b915061471c83614812565b9250827f800000000000000000000000000000000000000000000000000000000000000001821260008412151615614757576147566148b3565b5b827f7fffffffffffffffffffffffffffffffffffffffffffffffffffffffffffffff01821360008412161561478f5761478e6148b3565b5b828203905092915050565b60006147a58261483c565b91506147b08361483c565b9250828210156147c3576147c26148b3565b5b828203905092915050565b60006147d98261481c565b9050919050565b60008115159050919050565b60008190506147fa82614cc3565b919050565b600081905061480d82614cd7565b919050565b6000819050919050565b600073ffffffffffffffffffffffffffffffffffffffff82169050919050565b6000819050919050565b6000614851826147ec565b9050919050565b6000614863826147ff565b9050919050565b60006148758261483c565b91507fffffffffffffffffffffffffffffffffffffffffffffffffffffffffffffffff8214156148a8576148a76148b3565b5b600182019050919050565b7f4e487b7100000000000000000000000000000000000000000000000000000000600052601160045260246000fd5b7f4e487b7100000000000000000000000000000000000000000000000000000000600052601260045260246000fd5b7f4e487b7100000000000000000000000000000000000000000000000000000000600052602160045260246000fd5b7f616c6c6f77616e6365206e6f7420736574000000000000000000000000000000600082015250565b7f746f6b656e206f776e6572736869700000000000000000000000000000000000600082015250565b7f53656c6c65722063616e6e6f7420626520627579657200000000000000000000600082015250565b7f4f6e6c792073656c6c65722063616e2063616e63656c206c697374696e670000600082015250565b7f6e6f74206d616b65720000000000000000000000000000000000000000000000600082015250565b7f746f6f206d616e79207061796d656e7473000000000000000000000000000000600082015250565b7f7072656d69756d732068617665206265656e207061696420616e64206465616460008201527f6c696e652069732079657420746f206265207265616368656400000000000000602082015250565b7f7072656d69756d00000000000000000000000000000000000000000000000000600082015250565b7f4d616b65722063616e6e6f742062652074616b65720000000000000000000000600082015250565b7f73746174757320213d207374616b696e67000000000000000000000000000000600082015250565b7f6e6f742062757961626c65000000000000000000000000000000000000000000600082015250565b7f4c697374696e67206973206e6f74206163746976650000000000000000000000600082015250565b7f496e73756666696369656e74207061796d656e74000000000000000000000000600082015250565b7f21636f6c6c61746572616c000000000000000000000000000000000000000000600082015250565b7f21616c6c6f77616e636500000000000000000000000000000000000000000000600082015250565b7f6e6f742074616b65720000000000000000000000000000000000000000000000600082015250565b7f2162696446656500000000000000000000000000000000000000000000000000600082015250565b7f646561646c696e65207265616368656400000000000000000000000000000000600082015250565b7f6e6f6e2d616374697665207374616b696e670000000000000000000000000000600082015250565b7f7072656d69756d732068617665206e6f74206265656e20706169640000000000600082015250565b7f5265656e7472616e637947756172643a207265656e7472616e742063616c6c00600082015250565b60038110614cd457614cd3614911565b5b50565b60058110614ce857614ce7614911565b5b50565b614cf4816147ce565b8114614cff57600080fd5b50565b614d0b816147e0565b8114614d1657600080fd5b50565b614d228161483c565b8114614d2d57600080fd5b5056fea264697066735822122079ac91fecc2899b37ac74048fda4f730c38dab6c5563ccab1a662a95128d050d64736f6c63430008040033",
  "linkReferences": {},
  "deployedLinkReferences": {}
}