{
  "_format": "hh-sol-artifact-1",
  "contractName": "Marketplace",
  "sourceName": "contracts/Marketplace.sol",
  "abi": [
    {
      "inputs": [
        {
          "internalType": "address",
          "name": "_platform",
          "type": "address"
        }
      ],
      "stateMutability": "nonpayable",
      "type": "constructor"
    },
    {
      "anonymous": false,
      "inputs": [
        {
          "indexed": false,
          "internalType": "uint256",
          "name": "listingId",
          "type": "uint256"
        },
        {
          "indexed": false,
          "internalType": "address",
          "name": "seller",
          "type": "address"
        }
      ],
      "name": "CancelBid",
      "type": "event"
    },
    {
      "anonymous": false,
      "inputs": [
        {
          "indexed": false,
          "internalType": "uint256",
          "name": "rentalId",
          "type": "uint256"
        }
      ],
      "name": "FinishRentalForCollateral",
      "type": "event"
    },
    {
      "anonymous": false,
      "inputs": [
        {
          "indexed": false,
          "internalType": "uint256",
          "name": "rentalId",
          "type": "uint256"
        }
      ],
      "name": "FinishRentalForNFT",
      "type": "event"
    },
    {
      "anonymous": false,
      "inputs": [
        {
          "indexed": false,
          "internalType": "uint256",
          "name": "listingId",
          "type": "uint256"
        },
        {
          "indexed": false,
          "internalType": "address",
          "name": "seller",
          "type": "address"
        },
        {
          "indexed": false,
          "internalType": "address",
          "name": "token",
          "type": "address"
        },
        {
          "indexed": false,
          "internalType": "uint256",
          "name": "tokenId",
          "type": "uint256"
        },
        {
          "indexed": false,
          "internalType": "uint256",
          "name": "price",
          "type": "uint256"
        }
      ],
      "name": "Listed",
      "type": "event"
    },
    {
      "anonymous": false,
      "inputs": [
        {
          "indexed": false,
          "internalType": "uint256",
          "name": "stakingId",
          "type": "uint256"
        },
        {
          "indexed": false,
          "internalType": "address",
          "name": "maker",
          "type": "address"
        },
        {
          "indexed": false,
          "internalType": "address",
          "name": "token",
          "type": "address"
        },
        {
          "indexed": false,
          "internalType": "uint256",
          "name": "tokenId",
          "type": "uint256"
        },
        {
          "indexed": false,
          "internalType": "uint256",
          "name": "collateral",
          "type": "uint256"
        },
        {
          "indexed": false,
          "internalType": "uint256",
          "name": "premium",
          "type": "uint256"
        },
        {
          "indexed": false,
          "internalType": "uint256",
          "name": "deadline",
          "type": "uint256"
        }
      ],
      "name": "QuotedForStaking",
      "type": "event"
    },
    {
      "anonymous": false,
      "inputs": [
        {
          "indexed": false,
          "internalType": "uint256",
          "name": "rentalId",
          "type": "uint256"
        },
        {
          "indexed": false,
          "internalType": "address",
          "name": "taker",
          "type": "address"
        }
      ],
      "name": "Rental",
      "type": "event"
    },
    {
      "anonymous": false,
      "inputs": [
        {
          "indexed": false,
          "internalType": "uint256",
          "name": "listingId",
          "type": "uint256"
        },
        {
          "indexed": false,
          "internalType": "address",
          "name": "buyer",
          "type": "address"
        },
        {
          "indexed": false,
          "internalType": "address",
          "name": "token",
          "type": "address"
        },
        {
          "indexed": false,
          "internalType": "uint256",
          "name": "tokenId",
          "type": "uint256"
        },
        {
          "indexed": false,
          "internalType": "uint256",
          "name": "price",
          "type": "uint256"
        }
      ],
      "name": "Sale",
      "type": "event"
    },
    {
      "inputs": [
        {
          "internalType": "uint256",
          "name": "",
          "type": "uint256"
        }
      ],
      "name": "_listings",
      "outputs": [
        {
          "internalType": "enum Marketplace.ListingStatus",
          "name": "status",
          "type": "uint8"
        },
        {
          "internalType": "address",
          "name": "seller",
          "type": "address"
        },
        {
          "internalType": "uint256",
          "name": "price",
          "type": "uint256"
        },
        {
          "internalType": "address",
          "name": "token",
          "type": "address"
        },
        {
          "internalType": "uint256",
          "name": "tokenId",
          "type": "uint256"
        }
      ],
      "stateMutability": "view",
      "type": "function"
    },
    {
      "inputs": [],
      "name": "_listingsLastIndex",
      "outputs": [
        {
          "internalType": "uint256",
          "name": "",
          "type": "uint256"
        }
      ],
      "stateMutability": "view",
      "type": "function"
    },
    {
      "inputs": [
        {
          "internalType": "uint256",
          "name": "",
          "type": "uint256"
        }
      ],
      "name": "_stakings",
      "outputs": [
        {
          "internalType": "enum Marketplace.StakeStatus",
          "name": "status",
          "type": "uint8"
        },
        {
          "internalType": "address",
          "name": "maker",
          "type": "address"
        },
        {
          "internalType": "address",
          "name": "taker",
          "type": "address"
        },
        {
          "internalType": "uint256",
          "name": "collateral",
          "type": "uint256"
        },
        {
          "internalType": "uint256",
          "name": "premium",
          "type": "uint256"
        },
        {
          "internalType": "uint256",
          "name": "startRentalUTC",
          "type": "uint256"
        },
        {
          "internalType": "uint256",
          "name": "paymentsAmount",
          "type": "uint256"
        },
        {
          "internalType": "uint256",
          "name": "deadline",
          "type": "uint256"
        },
        {
          "internalType": "address",
          "name": "token",
          "type": "address"
        },
        {
          "internalType": "uint256",
          "name": "tokenId",
          "type": "uint256"
        }
      ],
      "stateMutability": "view",
      "type": "function"
    },
    {
      "inputs": [],
      "name": "_stakingsLastIndex",
      "outputs": [
        {
          "internalType": "uint256",
          "name": "",
          "type": "uint256"
        }
      ],
      "stateMutability": "view",
      "type": "function"
    },
    {
      "inputs": [
        {
          "internalType": "address",
          "name": "tokenContract",
          "type": "address"
        },
        {
          "internalType": "uint256",
          "name": "tokenId",
          "type": "uint256"
        },
        {
          "internalType": "uint256",
          "name": "priceWei",
          "type": "uint256"
        }
      ],
      "name": "bid",
      "outputs": [],
      "stateMutability": "payable",
      "type": "function"
    },
    {
      "inputs": [
        {
          "internalType": "uint256",
          "name": "listingId",
          "type": "uint256"
        }
      ],
      "name": "buyToken",
      "outputs": [],
      "stateMutability": "payable",
      "type": "function"
    },
    {
      "inputs": [
        {
          "internalType": "uint256",
          "name": "stakingId",
          "type": "uint256"
        }
      ],
      "name": "canRentNFT",
      "outputs": [
        {
          "internalType": "bool",
          "name": "",
          "type": "bool"
        }
      ],
      "stateMutability": "view",
      "type": "function"
    },
    {
      "inputs": [
        {
          "internalType": "uint256",
          "name": "listingId",
          "type": "uint256"
        }
      ],
      "name": "cancel",
      "outputs": [],
      "stateMutability": "nonpayable",
      "type": "function"
    },
    {
      "inputs": [
        {
          "internalType": "uint256",
          "name": "stakingId",
          "type": "uint256"
        }
      ],
      "name": "claimCollateral",
      "outputs": [],
      "stateMutability": "nonpayable",
      "type": "function"
    },
    {
      "inputs": [
        {
          "internalType": "uint256",
          "name": "listingId",
          "type": "uint256"
        }
      ],
      "name": "getListing",
      "outputs": [
        {
          "components": [
            {
              "internalType": "enum Marketplace.ListingStatus",
              "name": "status",
              "type": "uint8"
            },
            {
              "internalType": "address",
              "name": "seller",
              "type": "address"
            },
            {
              "internalType": "uint256",
              "name": "price",
              "type": "uint256"
            },
            {
              "internalType": "address",
              "name": "token",
              "type": "address"
            },
            {
              "internalType": "uint256",
              "name": "tokenId",
              "type": "uint256"
            }
          ],
          "internalType": "struct Marketplace.Listing",
          "name": "",
          "type": "tuple"
        }
      ],
      "stateMutability": "view",
      "type": "function"
    },
    {
      "inputs": [
        {
          "internalType": "uint256",
          "name": "stakingId",
          "type": "uint256"
        }
      ],
      "name": "getStaking",
      "outputs": [
        {
          "components": [
            {
              "internalType": "enum Marketplace.StakeStatus",
              "name": "status",
              "type": "uint8"
            },
            {
              "internalType": "address",
              "name": "maker",
              "type": "address"
            },
            {
              "internalType": "address",
              "name": "taker",
              "type": "address"
            },
            {
              "internalType": "uint256",
              "name": "collateral",
              "type": "uint256"
            },
            {
              "internalType": "uint256",
              "name": "premium",
              "type": "uint256"
            },
            {
              "internalType": "uint256",
              "name": "startRentalUTC",
              "type": "uint256"
            },
            {
              "internalType": "uint256",
              "name": "paymentsAmount",
              "type": "uint256"
            },
            {
              "internalType": "uint256",
              "name": "deadline",
              "type": "uint256"
            },
            {
              "internalType": "address",
              "name": "token",
              "type": "address"
            },
            {
              "internalType": "uint256",
              "name": "tokenId",
              "type": "uint256"
            }
          ],
          "internalType": "struct Marketplace.Staking",
          "name": "",
          "type": "tuple"
        }
      ],
      "stateMutability": "view",
      "type": "function"
    },
    {
      "inputs": [
        {
          "internalType": "uint256",
          "name": "listingId",
          "type": "uint256"
        }
      ],
      "name": "isBuyable",
      "outputs": [
        {
          "internalType": "bool",
          "name": "",
          "type": "bool"
        }
      ],
      "stateMutability": "view",
      "type": "function"
    },
    {
      "inputs": [
        {
          "internalType": "uint256",
          "name": "stakingId",
          "type": "uint256"
        }
      ],
      "name": "isCollateralClaimable",
      "outputs": [],
      "stateMutability": "view",
      "type": "function"
    },
    {
      "inputs": [
        {
          "internalType": "uint256",
          "name": "stakingId",
          "type": "uint256"
        }
      ],
      "name": "payPremium",
      "outputs": [],
      "stateMutability": "payable",
      "type": "function"
    },
    {
      "inputs": [],
      "name": "platform",
      "outputs": [
        {
          "internalType": "address",
          "name": "",
          "type": "address"
        }
      ],
      "stateMutability": "view",
      "type": "function"
    },
    {
      "inputs": [
        {
          "internalType": "address",
          "name": "tokenContract",
          "type": "address"
        },
        {
          "internalType": "uint256",
          "name": "tokenId",
          "type": "uint256"
        },
        {
          "internalType": "uint256",
          "name": "collateralWei",
          "type": "uint256"
        },
        {
          "internalType": "uint256",
          "name": "premiumWei",
          "type": "uint256"
        },
        {
          "internalType": "uint256",
          "name": "deadlineUTC",
          "type": "uint256"
        }
      ],
      "name": "quoteForStaking",
      "outputs": [],
      "stateMutability": "payable",
      "type": "function"
    },
    {
      "inputs": [
        {
          "internalType": "uint256",
          "name": "stakingId",
          "type": "uint256"
        }
      ],
      "name": "rentNFT",
      "outputs": [],
      "stateMutability": "payable",
      "type": "function"
    },
    {
      "inputs": [
        {
          "internalType": "uint256",
          "name": "stakingId",
          "type": "uint256"
        }
      ],
      "name": "stopRental",
      "outputs": [],
      "stateMutability": "nonpayable",
      "type": "function"
    },
    {
      "inputs": [
        {
          "internalType": "uint256",
          "name": "stakingIndex",
          "type": "uint256"
        }
      ],
      "name": "stopStaking",
      "outputs": [],
      "stateMutability": "nonpayable",
      "type": "function"
    }
  ],
  "bytecode": "0x60a06040523480156200001157600080fd5b50604051620044fc380380620044fc833981810160405281019062000037919062000094565b60016000819055508073ffffffffffffffffffffffffffffffffffffffff1660808173ffffffffffffffffffffffffffffffffffffffff1660601b81525050506200010e565b6000815190506200008e81620000f4565b92915050565b600060208284031215620000a757600080fd5b6000620000b7848285016200007d565b91505092915050565b6000620000cd82620000d4565b9050919050565b600073ffffffffffffffffffffffffffffffffffffffff82169050919050565b620000ff81620000c0565b81146200010b57600080fd5b50565b60805160601c6143c86200013460003960008181612008015261309301526143c86000f3fe6080604052600436106101145760003560e01c80634364b26e116100a0578063d78a75ad11610064578063d78a75ad1461035d578063df76dbc914610388578063e3244664146103c9578063e738c7c8146103f4578063ecaf6d601461043157610114565b80634364b26e146102a85780634bde38c8146102c4578063b6e96f4c146102ef578063c49785b414610318578063c893c6591461034157610114565b8063156ecc3d116100e7578063156ecc3d146101d45780631c760bdb146101fd5780632d296bf11461022657806331eb3f371461024257806340e58ee51461027f57610114565b80630ae3f109146101195780630f41ba4b1461015f578063107a274a1461017b57806314364f1d146101b8575b600080fd5b34801561012557600080fd5b50610140600480360381019061013b91906133c7565b61046e565b6040516101569a9998979695949392919061392d565b60405180910390f35b610179600480360381019061017491906132d8565b61052f565b005b34801561018757600080fd5b506101a2600480360381019061019d91906133c7565b6108a5565b6040516101af9190613c29565b60405180910390f35b6101d260048036038101906101cd91906133c7565b610a19565b005b3480156101e057600080fd5b506101fb60048036038101906101f691906133c7565b610e42565b005b34801561020957600080fd5b50610224600480360381019061021f91906133c7565b6112e3565b005b610240600480360381019061023b91906133c7565b6115f3565b005b34801561024e57600080fd5b50610269600480360381019061026491906133c7565b611974565b6040516102769190613c44565b60405180910390f35b34801561028b57600080fd5b506102a660048036038101906102a191906133c7565b611b67565b005b6102c260048036038101906102bd91906133c7565b611dde565b005b3480156102d057600080fd5b506102d9612006565b6040516102e69190613844565b60405180910390f35b3480156102fb57600080fd5b50610316600480360381019061031191906133c7565b61202a565b005b34801561032457600080fd5b5061033f600480360381019061033a91906133c7565b6123b6565b005b61035b60048036038101906103569190613327565b61256b565b005b34801561036957600080fd5b50610372612a7c565b60405161037f9190613c60565b60405180910390f35b34801561039457600080fd5b506103af60048036038101906103aa91906133c7565b612a82565b6040516103c09594939291906138da565b60405180910390f35b3480156103d557600080fd5b506103de612b05565b6040516103eb9190613c60565b60405180910390f35b34801561040057600080fd5b5061041b600480360381019061041691906133c7565b612b0b565b60405161042891906138bf565b60405180910390f35b34801561043d57600080fd5b50610458600480360381019061045391906133c7565b612e5d565b60405161046591906138bf565b60405180910390f35b60046020528060005260406000206000915090508060000160009054906101000a900460ff16908060000160019054906101000a900473ffffffffffffffffffffffffffffffffffffffff16908060010160009054906101000a900473ffffffffffffffffffffffffffffffffffffffff16908060020154908060030154908060040154908060050154908060060154908060070160009054906101000a900473ffffffffffffffffffffffffffffffffffffffff1690806008015490508a565b60026000541415610575576040517f08c379a000000000000000000000000000000000000000000000000000000000815260040161056c90613c09565b60405180910390fd5b60026000819055508273ffffffffffffffffffffffffffffffffffffffff1663e985e9c533306040518363ffffffff1660e01b81526004016105b892919061385f565b60206040518083038186803b1580156105d057600080fd5b505afa1580156105e4573d6000803e3d6000fd5b505050506040513d601f19601f82011682018060405250810190610608919061339e565b610647576040517f08c379a000000000000000000000000000000000000000000000000000000000815260040161063e90613b49565b60405180910390fd5b67016345785d8a00003414610691576040517f08c379a000000000000000000000000000000000000000000000000000000000815260040161068890613b89565b60405180910390fd5b6106a267016345785d8a0000613091565b6040518060a00160405280600060028111156106e7577f4e487b7100000000000000000000000000000000000000000000000000000000600052602160045260246000fd5b81526020013373ffffffffffffffffffffffffffffffffffffffff1681526020018281526020018473ffffffffffffffffffffffffffffffffffffffff1681526020018381525060026000600154815260200190815260200160002060008201518160000160006101000a81548160ff02191690836002811115610794577f4e487b7100000000000000000000000000000000000000000000000000000000600052602160045260246000fd5b021790555060208201518160000160016101000a81548173ffffffffffffffffffffffffffffffffffffffff021916908373ffffffffffffffffffffffffffffffffffffffff1602179055506040820151816001015560608201518160020160006101000a81548173ffffffffffffffffffffffffffffffffffffffff021916908373ffffffffffffffffffffffffffffffffffffffff160217905550608082015181600301559050507f723f73331eaee88eec7fc68ef60ab6ed15e4b90d0472b55eb92fa43910bab6dd60015433858585604051610877959493929190613ca4565b60405180910390a160018060008282546108919190613d77565b925050819055506001600081905550505050565b6108ad6130fb565b600260008381526020019081526020016000206040518060a00160405290816000820160009054906101000a900460ff166002811115610916577f4e487b7100000000000000000000000000000000000000000000000000000000600052602160045260246000fd5b600281111561094e577f4e487b7100000000000000000000000000000000000000000000000000000000600052602160045260246000fd5b81526020016000820160019054906101000a900473ffffffffffffffffffffffffffffffffffffffff1673ffffffffffffffffffffffffffffffffffffffff1673ffffffffffffffffffffffffffffffffffffffff168152602001600182015481526020016002820160009054906101000a900473ffffffffffffffffffffffffffffffffffffffff1673ffffffffffffffffffffffffffffffffffffffff1673ffffffffffffffffffffffffffffffffffffffff1681526020016003820154815250509050919050565b60006004600083815260200190815260200160002090508060070160009054906101000a900473ffffffffffffffffffffffffffffffffffffffff1673ffffffffffffffffffffffffffffffffffffffff1663e985e9c58260000160019054906101000a900473ffffffffffffffffffffffffffffffffffffffff16306040518363ffffffff1660e01b8152600401610ab392919061385f565b60206040518083038186803b158015610acb57600080fd5b505afa158015610adf573d6000803e3d6000fd5b505050506040513d601f19601f82011682018060405250810190610b03919061339e565b610b42576040517f08c379a0000000000000000000000000000000000000000000000000000000008152600401610b3990613b49565b60405180910390fd5b80600301548160020154610b569190613d77565b341015610b98576040517f08c379a0000000000000000000000000000000000000000000000000000000008152600401610b8f90613b29565b60405180910390fd5b428160040181905550338160010160006101000a81548173ffffffffffffffffffffffffffffffffffffffff021916908373ffffffffffffffffffffffffffffffffffffffff16021790555060018160000160006101000a81548160ff02191690836004811115610c32577f4e487b7100000000000000000000000000000000000000000000000000000000600052602160045260246000fd5b0217905550600181600501819055508060070160009054906101000a900473ffffffffffffffffffffffffffffffffffffffff1673ffffffffffffffffffffffffffffffffffffffff166342842e0e8260000160019054906101000a900473ffffffffffffffffffffffffffffffffffffffff168360010160009054906101000a900473ffffffffffffffffffffffffffffffffffffffff1684600801546040518463ffffffff1660e01b8152600401610cee93929190613888565b600060405180830381600087803b158015610d0857600080fd5b505af1158015610d1c573d6000803e3d6000fd5b505050508060000160019054906101000a900473ffffffffffffffffffffffffffffffffffffffff1673ffffffffffffffffffffffffffffffffffffffff166108fc67016345785d8a00009081150290604051600060405180830381858888f19350505050158015610d92573d6000803e3d6000fd5b506000601460648360030154610da89190613dcd565b610db29190613dfe565b90506000818360030154610dc69190613e58565b9050610dd182613091565b8260000160019054906101000a900473ffffffffffffffffffffffffffffffffffffffff1673ffffffffffffffffffffffffffffffffffffffff166108fc829081150290604051600060405180830381858888f19350505050158015610e3b573d6000803e3d6000fd5b5050505050565b60026000541415610e88576040517f08c379a0000000000000000000000000000000000000000000000000000000008152600401610e7f90613c09565b60405180910390fd5b6002600081905550600060046000838152602001908152602001600020905060006004811115610ee1577f4e487b7100000000000000000000000000000000000000000000000000000000600052602160045260246000fd5b8160000160009054906101000a900460ff166004811115610f2b577f4e487b7100000000000000000000000000000000000000000000000000000000600052602160045260246000fd5b14610f6b576040517f08c379a0000000000000000000000000000000000000000000000000000000008152600401610f6290613bc9565b60405180910390fd5b3373ffffffffffffffffffffffffffffffffffffffff168160010160009054906101000a900473ffffffffffffffffffffffffffffffffffffffff1673ffffffffffffffffffffffffffffffffffffffff1614610ffd576040517f08c379a0000000000000000000000000000000000000000000000000000000008152600401610ff490613b69565b60405180910390fd5b600062093a808260040154426110139190613e58565b61101d9190613dcd565b90508082600501541015611066576040517f08c379a000000000000000000000000000000000000000000000000000000000815260040161105d90613be9565b60405180910390fd5b60028260000160006101000a81548160ff021916908360048111156110b4577f4e487b7100000000000000000000000000000000000000000000000000000000600052602160045260246000fd5b02179055508160070160009054906101000a900473ffffffffffffffffffffffffffffffffffffffff1673ffffffffffffffffffffffffffffffffffffffff166342842e0e8360010160009054906101000a900473ffffffffffffffffffffffffffffffffffffffff168460000160019054906101000a900473ffffffffffffffffffffffffffffffffffffffff1685600801546040518463ffffffff1660e01b815260040161116693929190613888565b600060405180830381600087803b15801561118057600080fd5b505af1158015611194573d6000803e3d6000fd5b505050508160010160009054906101000a900473ffffffffffffffffffffffffffffffffffffffff1673ffffffffffffffffffffffffffffffffffffffff166108fc83600201549081150290604051600060405180830381858888f19350505050158015611206573d6000803e3d6000fd5b5060046000848152602001908152602001600020600080820160006101000a81549060ff02191690556000820160016101000a81549073ffffffffffffffffffffffffffffffffffffffff02191690556001820160006101000a81549073ffffffffffffffffffffffffffffffffffffffff0219169055600282016000905560038201600090556004820160009055600582016000905560068201600090556007820160006101000a81549073ffffffffffffffffffffffffffffffffffffffff0219169055600882016000905550505050600160008190555050565b60026000541415611329576040517f08c379a000000000000000000000000000000000000000000000000000000000815260040161132090613c09565b60405180910390fd5b60026000819055506004600082815260200190815260200160002060070160009054906101000a900473ffffffffffffffffffffffffffffffffffffffff1673ffffffffffffffffffffffffffffffffffffffff1663e985e9c533306040518363ffffffff1660e01b81526004016113a292919061385f565b60206040518083038186803b1580156113ba57600080fd5b505afa1580156113ce573d6000803e3d6000fd5b505050506040513d601f19601f820116820180604052508101906113f2919061339e565b611431576040517f08c379a0000000000000000000000000000000000000000000000000000000008152600401611428906139c9565b60405180910390fd5b3373ffffffffffffffffffffffffffffffffffffffff166004600083815260200190815260200160002060070160009054906101000a900473ffffffffffffffffffffffffffffffffffffffff1673ffffffffffffffffffffffffffffffffffffffff16636352211e60046000858152602001908152602001600020600801546040518263ffffffff1660e01b81526004016114cd9190613c60565b60206040518083038186803b1580156114e557600080fd5b505afa1580156114f9573d6000803e3d6000fd5b505050506040513d601f19601f8201168201806040525081019061151d91906132af565b73ffffffffffffffffffffffffffffffffffffffff1614611573576040517f08c379a000000000000000000000000000000000000000000000000000000000815260040161156a906139e9565b60405180910390fd5b600480600083815260200190815260200160002060000160006101000a81548160ff021916908360048111156115d2577f4e487b7100000000000000000000000000000000000000000000000000000000600052602160045260246000fd5b02179055506115e867016345785d8a0000613091565b600160008190555050565b60026000541415611639576040517f08c379a000000000000000000000000000000000000000000000000000000000815260040161163090613c09565b60405180910390fd5b6002600081905550600060026000838152602001908152602001600020905060008160020160009054906101000a900473ffffffffffffffffffffffffffffffffffffffff1690508160000160019054906101000a900473ffffffffffffffffffffffffffffffffffffffff1673ffffffffffffffffffffffffffffffffffffffff163373ffffffffffffffffffffffffffffffffffffffff161415611714576040517f08c379a000000000000000000000000000000000000000000000000000000000815260040161170b90613a09565b60405180910390fd5b816001015434101561175b576040517f08c379a000000000000000000000000000000000000000000000000000000000815260040161175290613b09565b60405180910390fd5b61176483612b0b565b6117a3576040517f08c379a000000000000000000000000000000000000000000000000000000000815260040161179a90613ac9565b60405180910390fd5b60018260000160006101000a81548160ff021916908360028111156117f1577f4e487b7100000000000000000000000000000000000000000000000000000000600052602160045260246000fd5b02179055508073ffffffffffffffffffffffffffffffffffffffff166342842e0e8360000160019054906101000a900473ffffffffffffffffffffffffffffffffffffffff163385600301546040518463ffffffff1660e01b815260040161185b93929190613888565b600060405180830381600087803b15801561187557600080fd5b505af1158015611889573d6000803e3d6000fd5b505050508160000160019054906101000a900473ffffffffffffffffffffffffffffffffffffffff1673ffffffffffffffffffffffffffffffffffffffff166108fc83600101549081150290604051600060405180830381858888f193505050501580156118fb573d6000803e3d6000fd5b507ff3debaf22196a6ddf52a60fa71058cd7edf5e25bb98f4e96c994a5d4a9b0dd3e83338460020160009054906101000a900473ffffffffffffffffffffffffffffffffffffffff168560030154866001015460405161195f959493929190613ca4565b60405180910390a15050600160008190555050565b61197c61318e565b60046000838152602001908152602001600020604051806101400160405290816000820160009054906101000a900460ff1660048111156119e6577f4e487b7100000000000000000000000000000000000000000000000000000000600052602160045260246000fd5b6004811115611a1e577f4e487b7100000000000000000000000000000000000000000000000000000000600052602160045260246000fd5b81526020016000820160019054906101000a900473ffffffffffffffffffffffffffffffffffffffff1673ffffffffffffffffffffffffffffffffffffffff1673ffffffffffffffffffffffffffffffffffffffff1681526020016001820160009054906101000a900473ffffffffffffffffffffffffffffffffffffffff1673ffffffffffffffffffffffffffffffffffffffff1673ffffffffffffffffffffffffffffffffffffffff16815260200160028201548152602001600382015481526020016004820154815260200160058201548152602001600682015481526020016007820160009054906101000a900473ffffffffffffffffffffffffffffffffffffffff1673ffffffffffffffffffffffffffffffffffffffff1673ffffffffffffffffffffffffffffffffffffffff1681526020016008820154815250509050919050565b60026000541415611bad576040517f08c379a0000000000000000000000000000000000000000000000000000000008152600401611ba490613c09565b60405180910390fd5b600260008190555060006002600083815260200190815260200160002090508060000160019054906101000a900473ffffffffffffffffffffffffffffffffffffffff1673ffffffffffffffffffffffffffffffffffffffff163373ffffffffffffffffffffffffffffffffffffffff1614611c5e576040517f08c379a0000000000000000000000000000000000000000000000000000000008152600401611c5590613a29565b60405180910390fd5b60006002811115611c98577f4e487b7100000000000000000000000000000000000000000000000000000000600052602160045260246000fd5b8160000160009054906101000a900460ff166002811115611ce2577f4e487b7100000000000000000000000000000000000000000000000000000000600052602160045260246000fd5b14611d22576040517f08c379a0000000000000000000000000000000000000000000000000000000008152600401611d1990613ae9565b60405180910390fd5b60028160000160006101000a81548160ff02191690836002811115611d70577f4e487b7100000000000000000000000000000000000000000000000000000000600052602160045260246000fd5b02179055507f874afcdd5e90b2329b3c1601e613dcdc6abb6deb62ce61339a8337b48c053e51828260000160019054906101000a900473ffffffffffffffffffffffffffffffffffffffff16604051611dca929190613c7b565b60405180910390a150600160008190555050565b600060046000838152602001908152602001600020905060016004811115611e2f577f4e487b7100000000000000000000000000000000000000000000000000000000600052602160045260246000fd5b8160000160009054906101000a900460ff166004811115611e79577f4e487b7100000000000000000000000000000000000000000000000000000000600052602160045260246000fd5b14611eb9576040517f08c379a0000000000000000000000000000000000000000000000000000000008152600401611eb090613aa9565b60405180910390fd5b80600301543414611eff576040517f08c379a0000000000000000000000000000000000000000000000000000000008152600401611ef690613a89565b60405180910390fd5b80600601544210611f45576040517f08c379a0000000000000000000000000000000000000000000000000000000008152600401611f3c90613ba9565b60405180910390fd5b60006014606434611f569190613dcd565b611f609190613dfe565b905060008134611f709190613e58565b9050611f7b82613091565b8260000160019054906101000a900473ffffffffffffffffffffffffffffffffffffffff1673ffffffffffffffffffffffffffffffffffffffff166108fc829081150290604051600060405180830381858888f19350505050158015611fe5573d6000803e3d6000fd5b50826005016000815480929190611ffb90613f1e565b919050555050505050565b7f000000000000000000000000000000000000000000000000000000000000000081565b600060046000838152602001908152602001600020604051806101400160405290816000820160009054906101000a900460ff166004811115612096577f4e487b7100000000000000000000000000000000000000000000000000000000600052602160045260246000fd5b60048111156120ce577f4e487b7100000000000000000000000000000000000000000000000000000000600052602160045260246000fd5b81526020016000820160019054906101000a900473ffffffffffffffffffffffffffffffffffffffff1673ffffffffffffffffffffffffffffffffffffffff1673ffffffffffffffffffffffffffffffffffffffff1681526020016001820160009054906101000a900473ffffffffffffffffffffffffffffffffffffffff1673ffffffffffffffffffffffffffffffffffffffff1673ffffffffffffffffffffffffffffffffffffffff16815260200160028201548152602001600382015481526020016004820154815260200160058201548152602001600682015481526020016007820160009054906101000a900473ffffffffffffffffffffffffffffffffffffffff1673ffffffffffffffffffffffffffffffffffffffff1673ffffffffffffffffffffffffffffffffffffffff16815260200160088201548152505090506001600481111561224c577f4e487b7100000000000000000000000000000000000000000000000000000000600052602160045260246000fd5b81600001516004811115612289577f4e487b7100000000000000000000000000000000000000000000000000000000600052602160045260246000fd5b146122c9576040517f08c379a00000000000000000000000000000000000000000000000000000000081526004016122c090613aa9565b60405180910390fd5b3373ffffffffffffffffffffffffffffffffffffffff16816020015173ffffffffffffffffffffffffffffffffffffffff161461233b576040517f08c379a000000000000000000000000000000000000000000000000000000000815260040161233290613a49565b60405180910390fd5b600062093a808260a00151426123519190613e58565b61235b9190613dcd565b9050808260c0015110806123725750428260e00151115b6123b1576040517f08c379a00000000000000000000000000000000000000000000000000000000081526004016123a890613a69565b60405180910390fd5b505050565b60006004600083815260200190815260200160002090506123d68261202a565b60038160000160006101000a81548160ff02191690836004811115612424577f4e487b7100000000000000000000000000000000000000000000000000000000600052602160045260246000fd5b02179055508060000160019054906101000a900473ffffffffffffffffffffffffffffffffffffffff1673ffffffffffffffffffffffffffffffffffffffff166108fc82600201549081150290604051600060405180830381858888f19350505050158015612497573d6000803e3d6000fd5b5060046000838152602001908152602001600020600080820160006101000a81549060ff02191690556000820160016101000a81549073ffffffffffffffffffffffffffffffffffffffff02191690556001820160006101000a81549073ffffffffffffffffffffffffffffffffffffffff0219169055600282016000905560038201600090556004820160009055600582016000905560068201600090556007820160006101000a81549073ffffffffffffffffffffffffffffffffffffffff0219169055600882016000905550505050565b600260005414156125b1576040517f08c379a00000000000000000000000000000000000000000000000000000000081526004016125a890613c09565b60405180910390fd5b60026000819055508473ffffffffffffffffffffffffffffffffffffffff1663e985e9c533306040518363ffffffff1660e01b81526004016125f492919061385f565b60206040518083038186803b15801561260c57600080fd5b505afa158015612620573d6000803e3d6000fd5b505050506040513d601f19601f82011682018060405250810190612644919061339e565b612683576040517f08c379a000000000000000000000000000000000000000000000000000000000815260040161267a906139c9565b60405180910390fd5b3373ffffffffffffffffffffffffffffffffffffffff168573ffffffffffffffffffffffffffffffffffffffff16636352211e866040518263ffffffff1660e01b81526004016126d39190613c60565b60206040518083038186803b1580156126eb57600080fd5b505afa1580156126ff573d6000803e3d6000fd5b505050506040513d601f19601f8201168201806040525081019061272391906132af565b73ffffffffffffffffffffffffffffffffffffffff1614612779576040517f08c379a0000000000000000000000000000000000000000000000000000000008152600401612770906139e9565b60405180910390fd5b67016345785d8a000034146127c3576040517f08c379a00000000000000000000000000000000000000000000000000000000081526004016127ba90613b89565b60405180910390fd5b60006040518061014001604052806000600481111561280b577f4e487b7100000000000000000000000000000000000000000000000000000000600052602160045260246000fd5b81526020013373ffffffffffffffffffffffffffffffffffffffff168152602001600073ffffffffffffffffffffffffffffffffffffffff16815260200185815260200184815260200160008152602001600081526020018381526020018773ffffffffffffffffffffffffffffffffffffffff1681526020018681525090508060046000600354815260200190815260200160002060008201518160000160006101000a81548160ff021916908360048111156128f2577f4e487b7100000000000000000000000000000000000000000000000000000000600052602160045260246000fd5b021790555060208201518160000160016101000a81548173ffffffffffffffffffffffffffffffffffffffff021916908373ffffffffffffffffffffffffffffffffffffffff16021790555060408201518160010160006101000a81548173ffffffffffffffffffffffffffffffffffffffff021916908373ffffffffffffffffffffffffffffffffffffffff160217905550606082015181600201556080820151816003015560a0820151816004015560c0820151816005015560e082015181600601556101008201518160070160006101000a81548173ffffffffffffffffffffffffffffffffffffffff021916908373ffffffffffffffffffffffffffffffffffffffff16021790555061012082015181600801559050507f32e08351149249c094252d308bf6dee229d75fc098065a02ec0c005da7524278600354338888888888604051612a4a9796959493929190613cf7565b60405180910390a1600160036000828254612a659190613d77565b925050819055505060016000819055505050505050565b60035481565b60026020528060005260406000206000915090508060000160009054906101000a900460ff16908060000160019054906101000a900473ffffffffffffffffffffffffffffffffffffffff16908060010154908060020160009054906101000a900473ffffffffffffffffffffffffffffffffffffffff16908060030154905085565b60015481565b600080600260008481526020019081526020016000206040518060a00160405290816000820160009054906101000a900460ff166002811115612b77577f4e487b7100000000000000000000000000000000000000000000000000000000600052602160045260246000fd5b6002811115612baf577f4e487b7100000000000000000000000000000000000000000000000000000000600052602160045260246000fd5b81526020016000820160019054906101000a900473ffffffffffffffffffffffffffffffffffffffff1673ffffffffffffffffffffffffffffffffffffffff1673ffffffffffffffffffffffffffffffffffffffff168152602001600182015481526020016002820160009054906101000a900473ffffffffffffffffffffffffffffffffffffffff1673ffffffffffffffffffffffffffffffffffffffff1673ffffffffffffffffffffffffffffffffffffffff1681526020016003820154815250509050600081606001519050816020015173ffffffffffffffffffffffffffffffffffffffff168173ffffffffffffffffffffffffffffffffffffffff16636352211e84608001516040518263ffffffff1660e01b8152600401612cd69190613c60565b60206040518083038186803b158015612cee57600080fd5b505afa158015612d02573d6000803e3d6000fd5b505050506040513d601f19601f82011682018060405250810190612d2691906132af565b73ffffffffffffffffffffffffffffffffffffffff16148015612dd457508073ffffffffffffffffffffffffffffffffffffffff1663e985e9c58360200151306040518363ffffffff1660e01b8152600401612d8392919061385f565b60206040518083038186803b158015612d9b57600080fd5b505afa158015612daf573d6000803e3d6000fd5b505050506040513d601f19601f82011682018060405250810190612dd3919061339e565b5b8015612e54575060006002811115612e15577f4e487b7100000000000000000000000000000000000000000000000000000000600052602160045260246000fd5b82600001516002811115612e52577f4e487b7100000000000000000000000000000000000000000000000000000000600052602160045260246000fd5b145b92505050919050565b6000806004600084815260200190815260200160002090508060070160009054906101000a900473ffffffffffffffffffffffffffffffffffffffff1673ffffffffffffffffffffffffffffffffffffffff1663e985e9c58260000160019054906101000a900473ffffffffffffffffffffffffffffffffffffffff16306040518363ffffffff1660e01b8152600401612ef892919061385f565b60206040518083038186803b158015612f1057600080fd5b505afa158015612f24573d6000803e3d6000fd5b505050506040513d601f19601f82011682018060405250810190612f48919061339e565b801561308957506004600084815260200190815260200160002060000160019054906101000a900473ffffffffffffffffffffffffffffffffffffffff1673ffffffffffffffffffffffffffffffffffffffff166004600085815260200190815260200160002060070160009054906101000a900473ffffffffffffffffffffffffffffffffffffffff1673ffffffffffffffffffffffffffffffffffffffff16636352211e60046000878152602001908152602001600020600801546040518263ffffffff1660e01b81526004016130219190613c60565b60206040518083038186803b15801561303957600080fd5b505afa15801561304d573d6000803e3d6000fd5b505050506040513d601f19601f8201168201806040525081019061307191906132af565b73ffffffffffffffffffffffffffffffffffffffff16145b915050919050565b7f000000000000000000000000000000000000000000000000000000000000000073ffffffffffffffffffffffffffffffffffffffff166108fc829081150290604051600060405180830381858888f193505050501580156130f7573d6000803e3d6000fd5b5050565b6040518060a0016040528060006002811115613140577f4e487b7100000000000000000000000000000000000000000000000000000000600052602160045260246000fd5b8152602001600073ffffffffffffffffffffffffffffffffffffffff16815260200160008152602001600073ffffffffffffffffffffffffffffffffffffffff168152602001600081525090565b604051806101400160405280600060048111156131d4577f4e487b7100000000000000000000000000000000000000000000000000000000600052602160045260246000fd5b8152602001600073ffffffffffffffffffffffffffffffffffffffff168152602001600073ffffffffffffffffffffffffffffffffffffffff1681526020016000815260200160008152602001600081526020016000815260200160008152602001600073ffffffffffffffffffffffffffffffffffffffff168152602001600081525090565b60008135905061326a8161434d565b92915050565b60008151905061327f8161434d565b92915050565b60008151905061329481614364565b92915050565b6000813590506132a98161437b565b92915050565b6000602082840312156132c157600080fd5b60006132cf84828501613270565b91505092915050565b6000806000606084860312156132ed57600080fd5b60006132fb8682870161325b565b935050602061330c8682870161329a565b925050604061331d8682870161329a565b9150509250925092565b600080600080600060a0868803121561333f57600080fd5b600061334d8882890161325b565b955050602061335e8882890161329a565b945050604061336f8882890161329a565b93505060606133808882890161329a565b92505060806133918882890161329a565b9150509295509295909350565b6000602082840312156133b057600080fd5b60006133be84828501613285565b91505092915050565b6000602082840312156133d957600080fd5b60006133e78482850161329a565b91505092915050565b6133f981613e8c565b82525050565b61340881613e8c565b82525050565b61341781613e9e565b82525050565b61342681613efa565b82525050565b61343581613efa565b82525050565b61344481613f0c565b82525050565b61345381613f0c565b82525050565b6000613466601183613d66565b915061347182613ff4565b602082019050919050565b6000613489600f83613d66565b91506134948261401d565b602082019050919050565b60006134ac601683613d66565b91506134b782614046565b602082019050919050565b60006134cf601e83613d66565b91506134da8261406f565b602082019050919050565b60006134f2600983613d66565b91506134fd82614098565b602082019050919050565b6000613515603983613d66565b9150613520826140c1565b604082019050919050565b6000613538600783613d66565b915061354382614110565b602082019050919050565b600061355b601183613d66565b915061356682614139565b602082019050919050565b600061357e600b83613d66565b915061358982614162565b602082019050919050565b60006135a1601583613d66565b91506135ac8261418b565b602082019050919050565b60006135c4601483613d66565b91506135cf826141b4565b602082019050919050565b60006135e7600b83613d66565b91506135f2826141dd565b602082019050919050565b600061360a600a83613d66565b915061361582614206565b602082019050919050565b600061362d600983613d66565b91506136388261422f565b602082019050919050565b6000613650600783613d66565b915061365b82614258565b602082019050919050565b6000613673601083613d66565b915061367e82614281565b602082019050919050565b6000613696601283613d66565b91506136a1826142aa565b602082019050919050565b60006136b9601b83613d66565b91506136c4826142d3565b602082019050919050565b60006136dc601f83613d66565b91506136e7826142fc565b602082019050919050565b60a082016000820151613708600085018261341d565b50602082015161371b60208501826133f0565b50604082015161372e6040850182613826565b50606082015161374160608501826133f0565b5060808201516137546080850182613826565b50505050565b61014082016000820151613771600085018261343b565b50602082015161378460208501826133f0565b50604082015161379760408501826133f0565b5060608201516137aa6060850182613826565b5060808201516137bd6080850182613826565b5060a08201516137d060a0850182613826565b5060c08201516137e360c0850182613826565b5060e08201516137f660e0850182613826565b5061010082015161380b6101008501826133f0565b50610120820151613820610120850182613826565b50505050565b61382f81613ef0565b82525050565b61383e81613ef0565b82525050565b600060208201905061385960008301846133ff565b92915050565b600060408201905061387460008301856133ff565b61388160208301846133ff565b9392505050565b600060608201905061389d60008301866133ff565b6138aa60208301856133ff565b6138b76040830184613835565b949350505050565b60006020820190506138d4600083018461340e565b92915050565b600060a0820190506138ef600083018861342c565b6138fc60208301876133ff565b6139096040830186613835565b61391660608301856133ff565b6139236080830184613835565b9695505050505050565b600061014082019050613943600083018d61344a565b613950602083018c6133ff565b61395d604083018b6133ff565b61396a606083018a613835565b6139776080830189613835565b61398460a0830188613835565b61399160c0830187613835565b61399e60e0830186613835565b6139ac6101008301856133ff565b6139ba610120830184613835565b9b9a5050505050505050505050565b600060208201905081810360008301526139e281613459565b9050919050565b60006020820190508181036000830152613a028161347c565b9050919050565b60006020820190508181036000830152613a228161349f565b9050919050565b60006020820190508181036000830152613a42816134c2565b9050919050565b60006020820190508181036000830152613a62816134e5565b9050919050565b60006020820190508181036000830152613a8281613508565b9050919050565b60006020820190508181036000830152613aa28161352b565b9050919050565b60006020820190508181036000830152613ac28161354e565b9050919050565b60006020820190508181036000830152613ae281613571565b9050919050565b60006020820190508181036000830152613b0281613594565b9050919050565b60006020820190508181036000830152613b22816135b7565b9050919050565b60006020820190508181036000830152613b42816135da565b9050919050565b60006020820190508181036000830152613b62816135fd565b9050919050565b60006020820190508181036000830152613b8281613620565b9050919050565b60006020820190508181036000830152613ba281613643565b9050919050565b60006020820190508181036000830152613bc281613666565b9050919050565b60006020820190508181036000830152613be281613689565b9050919050565b60006020820190508181036000830152613c02816136ac565b9050919050565b60006020820190508181036000830152613c22816136cf565b9050919050565b600060a082019050613c3e60008301846136f2565b92915050565b600061014082019050613c5a600083018461375a565b92915050565b6000602082019050613c756000830184613835565b92915050565b6000604082019050613c906000830185613835565b613c9d60208301846133ff565b9392505050565b600060a082019050613cb96000830188613835565b613cc660208301876133ff565b613cd360408301866133ff565b613ce06060830185613835565b613ced6080830184613835565b9695505050505050565b600060e082019050613d0c600083018a613835565b613d1960208301896133ff565b613d2660408301886133ff565b613d336060830187613835565b613d406080830186613835565b613d4d60a0830185613835565b613d5a60c0830184613835565b98975050505050505050565b600082825260208201905092915050565b6000613d8282613ef0565b9150613d8d83613ef0565b9250827fffffffffffffffffffffffffffffffffffffffffffffffffffffffffffffffff03821115613dc257613dc1613f67565b5b828201905092915050565b6000613dd882613ef0565b9150613de383613ef0565b925082613df357613df2613f96565b5b828204905092915050565b6000613e0982613ef0565b9150613e1483613ef0565b9250817fffffffffffffffffffffffffffffffffffffffffffffffffffffffffffffffff0483118215151615613e4d57613e4c613f67565b5b828202905092915050565b6000613e6382613ef0565b9150613e6e83613ef0565b925082821015613e8157613e80613f67565b5b828203905092915050565b6000613e9782613ed0565b9050919050565b60008115159050919050565b6000819050613eb882614325565b919050565b6000819050613ecb82614339565b919050565b600073ffffffffffffffffffffffffffffffffffffffff82169050919050565b6000819050919050565b6000613f0582613eaa565b9050919050565b6000613f1782613ebd565b9050919050565b6000613f2982613ef0565b91507fffffffffffffffffffffffffffffffffffffffffffffffffffffffffffffffff821415613f5c57613f5b613f67565b5b600182019050919050565b7f4e487b7100000000000000000000000000000000000000000000000000000000600052601160045260246000fd5b7f4e487b7100000000000000000000000000000000000000000000000000000000600052601260045260246000fd5b7f4e487b7100000000000000000000000000000000000000000000000000000000600052602160045260246000fd5b7f616c6c6f77616e6365206e6f7420736574000000000000000000000000000000600082015250565b7f746f6b656e206f776e6572736869700000000000000000000000000000000000600082015250565b7f53656c6c65722063616e6e6f7420626520627579657200000000000000000000600082015250565b7f4f6e6c792073656c6c65722063616e2063616e63656c206c697374696e670000600082015250565b7f6e6f74206d616b65720000000000000000000000000000000000000000000000600082015250565b7f7072656d69756d732068617665206265656e207061696420616e64206465616460008201527f6c696e652069732079657420746f206265207265616368656400000000000000602082015250565b7f7072656d69756d00000000000000000000000000000000000000000000000000600082015250565b7f73746174757320213d207374616b696e67000000000000000000000000000000600082015250565b7f6e6f742062757961626c65000000000000000000000000000000000000000000600082015250565b7f4c697374696e67206973206e6f74206163746976650000000000000000000000600082015250565b7f496e73756666696369656e74207061796d656e74000000000000000000000000600082015250565b7f21636f6c6c61746572616c000000000000000000000000000000000000000000600082015250565b7f21616c6c6f77616e636500000000000000000000000000000000000000000000600082015250565b7f6e6f742074616b65720000000000000000000000000000000000000000000000600082015250565b7f2162696446656500000000000000000000000000000000000000000000000000600082015250565b7f646561646c696e65207265616368656400000000000000000000000000000000600082015250565b7f6e6f6e2d616374697665207374616b696e670000000000000000000000000000600082015250565b7f7072656d69756d732068617665206e6f74206265656e20706169640000000000600082015250565b7f5265656e7472616e637947756172643a207265656e7472616e742063616c6c00600082015250565b6003811061433657614335613fc5565b5b50565b6005811061434a57614349613fc5565b5b50565b61435681613e8c565b811461436157600080fd5b50565b61436d81613e9e565b811461437857600080fd5b50565b61438481613ef0565b811461438f57600080fd5b5056fea2646970667358221220f66c978bd88debab4af5b041a1489c385f9afc288aebe3d6c40d816fa6a6457c64736f6c63430008040033",
  "linkReferences": {},
  "deployedLinkReferences": {}
}