{
  "_format": "hh-sol-artifact-1",
  "contractName": "Platform",
  "sourceName": "contracts/Platform.sol",
  "abi": [
    {
      "inputs": [
        {
          "internalType": "address",
          "name": "token",
          "type": "address"
        }
      ],
      "stateMutability": "nonpayable",
      "type": "constructor"
    },
    {
      "inputs": [
        {
          "internalType": "address",
          "name": "staker",
          "type": "address"
        },
        {
          "internalType": "uint256",
          "name": "amount",
          "type": "uint256"
        }
      ],
      "name": "claimFor",
      "outputs": [],
      "stateMutability": "nonpayable",
      "type": "function"
    },
    {
      "inputs": [
        {
          "internalType": "uint256",
          "name": "stakePeriod",
          "type": "uint256"
        }
      ],
      "name": "stake",
      "outputs": [],
      "stateMutability": "nonpayable",
      "type": "function"
    },
    {
      "inputs": [],
      "name": "token",
      "outputs": [
        {
          "internalType": "address",
          "name": "",
          "type": "address"
        }
      ],
      "stateMutability": "view",
      "type": "function"
    },
    {
      "inputs": [],
      "name": "totalStaked",
      "outputs": [
        {
          "internalType": "uint256",
          "name": "",
          "type": "uint256"
        }
      ],
      "stateMutability": "view",
      "type": "function"
    },
    {
      "inputs": [
        {
          "internalType": "address",
          "name": "",
          "type": "address"
        },
        {
          "internalType": "uint256",
          "name": "",
          "type": "uint256"
        }
      ],
      "name": "userStaking",
      "outputs": [
        {
          "internalType": "uint256",
          "name": "reservedRewards",
          "type": "uint256"
        },
        {
          "internalType": "uint256",
          "name": "stakePeriod",
          "type": "uint256"
        }
      ],
      "stateMutability": "view",
      "type": "function"
    }
  ],
  "bytecode": "0x60a060405234801561001057600080fd5b5060405161043538038061043583398181016040528101906100329190610086565b808073ffffffffffffffffffffffffffffffffffffffff1660808173ffffffffffffffffffffffffffffffffffffffff1660601b8152505050506100f8565b600081519050610080816100e1565b92915050565b60006020828403121561009857600080fd5b60006100a684828501610071565b91505092915050565b60006100ba826100c1565b9050919050565b600073ffffffffffffffffffffffffffffffffffffffff82169050919050565b6100ea816100af565b81146100f557600080fd5b50565b60805160601c61031f6101166000396000610151015261031f6000f3fe608060405234801561001057600080fd5b50600436106100575760003560e01c80630de056591461005c578063817b1cd2146100785780639081630214610096578063a694fc3a146100c7578063fc0c546a146100e3575b600080fd5b6100766004803603810190610071919061019d565b610101565b005b610080610105565b60405161008d919061023b565b60405180910390f35b6100b060048036038101906100ab919061019d565b61010b565b6040516100be929190610256565b60405180910390f35b6100e160048036038101906100dc91906101d9565b61014c565b005b6100eb61014f565b6040516100f89190610220565b60405180910390f35b5050565b60015481565b6000602052816000526040600020818154811061012757600080fd5b9060005260206000209060020201600091509150508060000154908060010154905082565b50565b7f000000000000000000000000000000000000000000000000000000000000000081565b600081359050610182816102bb565b92915050565b600081359050610197816102d2565b92915050565b600080604083850312156101b057600080fd5b60006101be85828601610173565b92505060206101cf85828601610188565b9150509250929050565b6000602082840312156101eb57600080fd5b60006101f984828501610188565b91505092915050565b61020b8161027f565b82525050565b61021a816102b1565b82525050565b60006020820190506102356000830184610202565b92915050565b60006020820190506102506000830184610211565b92915050565b600060408201905061026b6000830185610211565b6102786020830184610211565b9392505050565b600061028a82610291565b9050919050565b600073ffffffffffffffffffffffffffffffffffffffff82169050919050565b6000819050919050565b6102c48161027f565b81146102cf57600080fd5b50565b6102db816102b1565b81146102e657600080fd5b5056fea26469706673582212202b8de1984c7f1d8ed345b7378568155b201071ef4b6c75796deeea58056f740764736f6c63430008040033",
  "linkReferences": {},
  "deployedLinkReferences": {}
}