{
  "_format": "hh-sol-artifact-1",
  "contractName": "Staking",
  "sourceName": "contracts/Platform.sol",
  "abi": [
    {
      "inputs": [
        {
          "internalType": "address",
          "name": "_token",
          "type": "address"
        }
      ],
      "stateMutability": "nonpayable",
      "type": "constructor"
    },
    {
      "anonymous": false,
      "inputs": [
        {
          "indexed": true,
          "internalType": "address",
          "name": "staker",
          "type": "address"
        },
        {
          "indexed": false,
          "internalType": "uint256",
          "name": "claimedRewards",
          "type": "uint256"
        },
        {
          "indexed": false,
          "internalType": "uint256",
          "name": "timestamp",
          "type": "uint256"
        }
      ],
      "name": "Claimed",
      "type": "event"
    },
    {
      "anonymous": false,
      "inputs": [
        {
          "indexed": true,
          "internalType": "address",
          "name": "staker",
          "type": "address"
        },
        {
          "indexed": false,
          "internalType": "uint256",
          "name": "stakedAmount",
          "type": "uint256"
        },
        {
          "indexed": false,
          "internalType": "uint256",
          "name": "stakeIndex",
          "type": "uint256"
        },
        {
          "indexed": false,
          "internalType": "uint256",
          "name": "timestamp",
          "type": "uint256"
        }
      ],
      "name": "Staked",
      "type": "event"
    },
    {
      "inputs": [
        {
          "internalType": "uint256",
          "name": "stakeAmount",
          "type": "uint256"
        },
        {
          "internalType": "uint256",
          "name": "stakePeriod",
          "type": "uint256"
        }
      ],
      "name": "calculateUserRewards",
      "outputs": [
        {
          "internalType": "uint256",
          "name": "",
          "type": "uint256"
        }
      ],
      "stateMutability": "view",
      "type": "function"
    },
    {
      "inputs": [
        {
          "internalType": "address",
          "name": "staker",
          "type": "address"
        },
        {
          "internalType": "uint8",
          "name": "stakeIndex",
          "type": "uint8"
        }
      ],
      "name": "claimFor",
      "outputs": [],
      "stateMutability": "nonpayable",
      "type": "function"
    },
    {
      "inputs": [],
      "name": "getStakePeriods",
      "outputs": [
        {
          "internalType": "uint8[3]",
          "name": "",
          "type": "uint8[3]"
        }
      ],
      "stateMutability": "pure",
      "type": "function"
    },
    {
      "inputs": [],
      "name": "getStakePeriodsMultipliers",
      "outputs": [
        {
          "internalType": "uint8[3]",
          "name": "",
          "type": "uint8[3]"
        }
      ],
      "stateMutability": "pure",
      "type": "function"
    },
    {
      "inputs": [
        {
          "internalType": "uint256",
          "name": "amount",
          "type": "uint256"
        },
        {
          "internalType": "uint8",
          "name": "stakePeriod",
          "type": "uint8"
        }
      ],
      "name": "stake",
      "outputs": [],
      "stateMutability": "nonpayable",
      "type": "function"
    },
    {
      "inputs": [
        {
          "internalType": "uint256",
          "name": "amount",
          "type": "uint256"
        },
        {
          "internalType": "uint8",
          "name": "stakePeriod",
          "type": "uint8"
        },
        {
          "internalType": "uint256",
          "name": "deadline",
          "type": "uint256"
        },
        {
          "internalType": "uint8",
          "name": "v",
          "type": "uint8"
        },
        {
          "internalType": "bytes32",
          "name": "r",
          "type": "bytes32"
        },
        {
          "internalType": "bytes32",
          "name": "s",
          "type": "bytes32"
        }
      ],
      "name": "stakeWithPermit",
      "outputs": [],
      "stateMutability": "nonpayable",
      "type": "function"
    },
    {
      "inputs": [],
      "name": "token",
      "outputs": [
        {
          "internalType": "address",
          "name": "",
          "type": "address"
        }
      ],
      "stateMutability": "view",
      "type": "function"
    },
    {
      "inputs": [],
      "name": "totalReserved",
      "outputs": [
        {
          "internalType": "uint256",
          "name": "",
          "type": "uint256"
        }
      ],
      "stateMutability": "view",
      "type": "function"
    },
    {
      "inputs": [],
      "name": "totalStaked",
      "outputs": [
        {
          "internalType": "uint256",
          "name": "",
          "type": "uint256"
        }
      ],
      "stateMutability": "view",
      "type": "function"
    },
    {
      "inputs": [
        {
          "internalType": "address",
          "name": "",
          "type": "address"
        },
        {
          "internalType": "uint256",
          "name": "",
          "type": "uint256"
        }
      ],
      "name": "userStaking",
      "outputs": [
        {
          "internalType": "uint256",
          "name": "staked",
          "type": "uint256"
        },
        {
          "internalType": "uint256",
          "name": "reservedRewards",
          "type": "uint256"
        },
        {
          "internalType": "uint256",
          "name": "stakePeriod",
          "type": "uint256"
        },
        {
          "internalType": "uint256",
          "name": "stakedAt",
          "type": "uint256"
        }
      ],
      "stateMutability": "view",
      "type": "function"
    }
  ],
  "bytecode": "0x60a06040523480156200001157600080fd5b5060405162001e7638038062001e76833981810160405281019062000037919062000094565b60016000819055508073ffffffffffffffffffffffffffffffffffffffff1660808173ffffffffffffffffffffffffffffffffffffffff1660601b81525050506200010e565b6000815190506200008e81620000f4565b92915050565b600060208284031215620000a757600080fd5b6000620000b7848285016200007d565b91505092915050565b6000620000cd82620000d4565b9050919050565b600073ffffffffffffffffffffffffffffffffffffffff82169050919050565b620000ff81620000c0565b81146200010b57600080fd5b50565b60805160601c611d3b6200013b60003960008181610927015281816109df0152610aa30152611d3b6000f3fe608060405234801561001057600080fd5b506004361061009e5760003560e01c806390816302116100665780639081630214610147578063c71b0e1c1461017a578063ca74de9b14610198578063f61dbf6c146101b6578063fc0c546a146101d25761009e565b806310087fb1146100a3578063159fbee9146100bf57806335da1faf146100ef578063817b1cd21461010d5780638efcc6211461012b575b600080fd5b6100bd60048036038101906100b891906111db565b6101f0565b005b6100d960048036038101906100d4919061119f565b610254565b6040516100e69190611777565b60405180910390f35b6100f7610306565b60405161010491906115fa565b60405180910390f35b61011561033a565b6040516101229190611777565b60405180910390f35b6101456004803603810190610140919061113a565b610340565b005b610161600480360381019061015c91906110fe565b610850565b60405161017194939291906117f2565b60405180910390f35b61018261089d565b60405161018f9190611777565b60405180910390f35b6101a06108a3565b6040516101ad91906115fa565b60405180910390f35b6101d060048036038101906101cb9190611217565b6108d7565b005b6101da6109dd565b6040516101e79190611539565b60405180910390f35b60026000541415610236576040517f08c379a000000000000000000000000000000000000000000000000000000000815260040161022d90611757565b60405180910390fd5b60026000819055506102488282610a01565b60016000819055505050565b60008061025f610306565b8360038110610297577f4e487b7100000000000000000000000000000000000000000000000000000000600052603260045260246000fd5b602002015160ff16905060006064600254866102b39190611896565b60646002546102c2919061191d565b6102cc91906118ec565b600354476102da9190611977565b6102e4919061191d565b6102ee91906118ec565b905081816102fc919061191d565b9250505092915050565b61030e611073565b6040518060600160405280607860ff168152602001608260ff168152602001608c60ff16815250905090565b60025481565b60026000541415610386576040517f08c379a000000000000000000000000000000000000000000000000000000000815260040161037d90611757565b60405180910390fd5b6002600081905550600160008373ffffffffffffffffffffffffffffffffffffffff1673ffffffffffffffffffffffffffffffffffffffff168152602001908152602001600020805490508160ff1610610415576040517f08c379a000000000000000000000000000000000000000000000000000000000815260040161040c90611697565b60405180910390fd5b6000600160008473ffffffffffffffffffffffffffffffffffffffff1673ffffffffffffffffffffffffffffffffffffffff1681526020019081526020016000208260ff1681548110610491577f4e487b7100000000000000000000000000000000000000000000000000000000600052603260045260246000fd5b906000526020600020906004020160405180608001604052908160008201548152602001600182015481526020016002820154815260200160038201548152505090506201518081604001516104e7919061191d565b81606001516104f69190611896565b4211610537576040517f08c379a000000000000000000000000000000000000000000000000000000000815260040161052e90611637565b60405180910390fd5b600160008473ffffffffffffffffffffffffffffffffffffffff1673ffffffffffffffffffffffffffffffffffffffff16815260200190815260200160002060018060008673ffffffffffffffffffffffffffffffffffffffff1673ffffffffffffffffffffffffffffffffffffffff168152602001908152602001600020805490506105c49190611977565b815481106105fb577f4e487b7100000000000000000000000000000000000000000000000000000000600052603260045260246000fd5b9060005260206000209060040201600160008573ffffffffffffffffffffffffffffffffffffffff1673ffffffffffffffffffffffffffffffffffffffff1681526020019081526020016000208360ff1681548110610683577f4e487b7100000000000000000000000000000000000000000000000000000000600052603260045260246000fd5b906000526020600020906004020160008201548160000155600182015481600101556002820154816002015560038201548160030155905050600160008473ffffffffffffffffffffffffffffffffffffffff1673ffffffffffffffffffffffffffffffffffffffff168152602001908152602001600020805480610731577f4e487b7100000000000000000000000000000000000000000000000000000000600052603160045260246000fd5b6001900381819060005260206000209060040201600080820160009055600182016000905560028201600090556003820160009055505090558060200151600260008282546107809190611977565b9250508190555080600001516003600082825461079d9190611977565b925050819055508273ffffffffffffffffffffffffffffffffffffffff166108fc82602001519081150290604051600060405180830381858888f193505050501580156107ee573d6000803e3d6000fd5b508273ffffffffffffffffffffffffffffffffffffffff167f987d620f307ff6b94d58743cb7a7509f24071586a77759b77c2d4e29f75a2f9a82602001514260405161083b929190611792565b60405180910390a25060016000819055505050565b6001602052816000526040600020818154811061086c57600080fd5b9060005260206000209060040201600091509150508060000154908060010154908060020154908060030154905084565b60035481565b6108ab611073565b6040518060600160405280600260ff168152602001600360ff168152602001600460ff16815250905090565b6002600054141561091d576040517f08c379a000000000000000000000000000000000000000000000000000000000815260040161091490611757565b60405180910390fd5b60026000819055507f000000000000000000000000000000000000000000000000000000000000000073ffffffffffffffffffffffffffffffffffffffff1663d505accf610969610d75565b3089888888886040518863ffffffff1660e01b8152600401610991979695949392919061158b565b600060405180830381600087803b1580156109ab57600080fd5b505af11580156109bf573d6000803e3d6000fd5b505050506109cd8686610a01565b6001600081905550505050505050565b7f000000000000000000000000000000000000000000000000000000000000000081565b610a096108a3565b5060038160ff1610610a50576040517f08c379a0000000000000000000000000000000000000000000000000000000008152600401610a47906116b7565b60405180910390fd5b6000821415610a94576040517f08c379a0000000000000000000000000000000000000000000000000000000008152600401610a8b90611717565b60405180910390fd5b610ae8610a9f610d75565b30847f000000000000000000000000000000000000000000000000000000000000000073ffffffffffffffffffffffffffffffffffffffff16610d7d909392919063ffffffff16565b6000610af7838360ff16610254565b905060008114610b3c576040517f08c379a0000000000000000000000000000000000000000000000000000000008152600401610b33906116d7565b60405180910390fd5b47811115610b7f576040517f08c379a0000000000000000000000000000000000000000000000000000000008152600401610b7690611657565b60405180910390fd5b60016000610b8b610d75565b73ffffffffffffffffffffffffffffffffffffffff1673ffffffffffffffffffffffffffffffffffffffff168152602001908152602001600020604051806080016040528085815260200183815260200162015180610be86108a3565b8660ff1660038110610c23577f4e487b7100000000000000000000000000000000000000000000000000000000600052603260045260246000fd5b602002015160ff16610c35919061191d565b81526020014281525090806001815401808255809150506001900390600052602060002090600402016000909190919091506000820151816000015560208201518160010155604082015181600201556060820151816003015550508260026000828254610ca39190611896565b925050819055508060036000828254610cbc9190611896565b92505081905550610ccb610d75565b73ffffffffffffffffffffffffffffffffffffffff167fb4caaf29adda3eefee3ad552a8e85058589bf834c7466cae4ee58787f70589ed846001806000610d10610d75565b73ffffffffffffffffffffffffffffffffffffffff1673ffffffffffffffffffffffffffffffffffffffff16815260200190815260200160002080549050610d589190611977565b42604051610d68939291906117bb565b60405180910390a2505050565b600033905090565b610e00846323b872dd60e01b858585604051602401610d9e93929190611554565b604051602081830303815290604052907bffffffffffffffffffffffffffffffffffffffffffffffffffffffff19166020820180517bffffffffffffffffffffffffffffffffffffffffffffffffffffffff8381831617835250505050610e06565b50505050565b6000610e68826040518060400160405280602081526020017f5361666545524332303a206c6f772d6c6576656c2063616c6c206661696c65648152508573ffffffffffffffffffffffffffffffffffffffff16610ecd9092919063ffffffff16565b9050600081511115610ec85780806020019051810190610e889190611176565b610ec7576040517f08c379a0000000000000000000000000000000000000000000000000000000008152600401610ebe90611737565b60405180910390fd5b5b505050565b6060610edc8484600085610ee5565b90509392505050565b606082471015610f2a576040517f08c379a0000000000000000000000000000000000000000000000000000000008152600401610f2190611677565b60405180910390fd5b610f3385610ff9565b610f72576040517f08c379a0000000000000000000000000000000000000000000000000000000008152600401610f69906116f7565b60405180910390fd5b6000808673ffffffffffffffffffffffffffffffffffffffff168587604051610f9b9190611522565b60006040518083038185875af1925050503d8060008114610fd8576040519150601f19603f3d011682016040523d82523d6000602084013e610fdd565b606091505b5091509150610fed82828661100c565b92505050949350505050565b600080823b905060008111915050919050565b6060831561101c5782905061106c565b60008351111561102f5782518084602001fd5b816040517f08c379a00000000000000000000000000000000000000000000000000000000081526004016110639190611615565b60405180910390fd5b9392505050565b6040518060600160405280600390602082028036833780820191505090505090565b6000813590506110a481611c92565b92915050565b6000815190506110b981611ca9565b92915050565b6000813590506110ce81611cc0565b92915050565b6000813590506110e381611cd7565b92915050565b6000813590506110f881611cee565b92915050565b6000806040838503121561111157600080fd5b600061111f85828601611095565b9250506020611130858286016110d4565b9150509250929050565b6000806040838503121561114d57600080fd5b600061115b85828601611095565b925050602061116c858286016110e9565b9150509250929050565b60006020828403121561118857600080fd5b6000611196848285016110aa565b91505092915050565b600080604083850312156111b257600080fd5b60006111c0858286016110d4565b92505060206111d1858286016110d4565b9150509250929050565b600080604083850312156111ee57600080fd5b60006111fc858286016110d4565b925050602061120d858286016110e9565b9150509250929050565b60008060008060008060c0878903121561123057600080fd5b600061123e89828a016110d4565b965050602061124f89828a016110e9565b955050604061126089828a016110d4565b945050606061127189828a016110e9565b935050608061128289828a016110bf565b92505060a061129389828a016110bf565b9150509295509295509295565b60006112ac8383611504565b60208301905092915050565b6112c1816119ab565b82525050565b6112d081611841565b6112da818461186f565b92506112e582611837565b8060005b838110156113165781516112fd87826112a0565b965061130883611862565b9250506001810190506112e9565b505050505050565b611327816119c9565b82525050565b60006113388261184c565b611342818561187a565b9350611352818560208601611a0a565b80840191505092915050565b600061136982611857565b6113738185611885565b9350611383818560208601611a0a565b61138c81611a9b565b840191505092915050565b60006113a4600783611885565b91506113af82611aac565b602082019050919050565b60006113c7600883611885565b91506113d282611ad5565b602082019050919050565b60006113ea602683611885565b91506113f582611afe565b604082019050919050565b600061140d600b83611885565b915061141882611b4d565b602082019050919050565b6000611430600c83611885565b915061143b82611b76565b602082019050919050565b6000611453600883611885565b915061145e82611b9f565b602082019050919050565b6000611476601d83611885565b915061148182611bc8565b602082019050919050565b6000611499600783611885565b91506114a482611bf1565b602082019050919050565b60006114bc602a83611885565b91506114c782611c1a565b604082019050919050565b60006114df601f83611885565b91506114ea82611c69565b602082019050919050565b6114fe816119f3565b82525050565b61150d816119fd565b82525050565b61151c816119fd565b82525050565b600061152e828461132d565b915081905092915050565b600060208201905061154e60008301846112b8565b92915050565b600060608201905061156960008301866112b8565b61157660208301856112b8565b61158360408301846114f5565b949350505050565b600060e0820190506115a0600083018a6112b8565b6115ad60208301896112b8565b6115ba60408301886114f5565b6115c760608301876114f5565b6115d46080830186611513565b6115e160a083018561131e565b6115ee60c083018461131e565b98975050505050505050565b600060608201905061160f60008301846112c7565b92915050565b6000602082019050818103600083015261162f818461135e565b905092915050565b6000602082019050818103600083015261165081611397565b9050919050565b60006020820190508181036000830152611670816113ba565b9050919050565b60006020820190508181036000830152611690816113dd565b9050919050565b600060208201905081810360008301526116b081611400565b9050919050565b600060208201905081810360008301526116d081611423565b9050919050565b600060208201905081810360008301526116f081611446565b9050919050565b6000602082019050818103600083015261171081611469565b9050919050565b600060208201905081810360008301526117308161148c565b9050919050565b60006020820190508181036000830152611750816114af565b9050919050565b60006020820190508181036000830152611770816114d2565b9050919050565b600060208201905061178c60008301846114f5565b92915050565b60006040820190506117a760008301856114f5565b6117b460208301846114f5565b9392505050565b60006060820190506117d060008301866114f5565b6117dd60208301856114f5565b6117ea60408301846114f5565b949350505050565b600060808201905061180760008301876114f5565b61181460208301866114f5565b61182160408301856114f5565b61182e60608301846114f5565b95945050505050565b6000819050919050565b600060039050919050565b600081519050919050565b600081519050919050565b6000602082019050919050565b600081905092915050565b600081905092915050565b600082825260208201905092915050565b60006118a1826119f3565b91506118ac836119f3565b9250827fffffffffffffffffffffffffffffffffffffffffffffffffffffffffffffffff038211156118e1576118e0611a3d565b5b828201905092915050565b60006118f7826119f3565b9150611902836119f3565b92508261191257611911611a6c565b5b828204905092915050565b6000611928826119f3565b9150611933836119f3565b9250817fffffffffffffffffffffffffffffffffffffffffffffffffffffffffffffffff048311821515161561196c5761196b611a3d565b5b828202905092915050565b6000611982826119f3565b915061198d836119f3565b9250828210156119a05761199f611a3d565b5b828203905092915050565b60006119b6826119d3565b9050919050565b60008115159050919050565b6000819050919050565b600073ffffffffffffffffffffffffffffffffffffffff82169050919050565b6000819050919050565b600060ff82169050919050565b60005b83811015611a28578082015181840152602081019050611a0d565b83811115611a37576000848401525b50505050565b7f4e487b7100000000000000000000000000000000000000000000000000000000600052601160045260246000fd5b7f4e487b7100000000000000000000000000000000000000000000000000000000600052601260045260246000fd5b6000601f19601f8301169050919050565b7f21706572696f6400000000000000000000000000000000000000000000000000600082015250565b7f2162616c616e6365000000000000000000000000000000000000000000000000600082015250565b7f416464726573733a20696e73756666696369656e742062616c616e636520666f60008201527f722063616c6c0000000000000000000000000000000000000000000000000000602082015250565b7f217374616b65496e646578000000000000000000000000000000000000000000600082015250565b7f217374616b65506572696f640000000000000000000000000000000000000000600082015250565b7f2172657761726473000000000000000000000000000000000000000000000000600082015250565b7f416464726573733a2063616c6c20746f206e6f6e2d636f6e7472616374000000600082015250565b7f21616d6f756e7400000000000000000000000000000000000000000000000000600082015250565b7f5361666545524332303a204552433230206f7065726174696f6e20646964206e60008201527f6f74207375636365656400000000000000000000000000000000000000000000602082015250565b7f5265656e7472616e637947756172643a207265656e7472616e742063616c6c00600082015250565b611c9b816119ab565b8114611ca657600080fd5b50565b611cb2816119bd565b8114611cbd57600080fd5b50565b611cc9816119c9565b8114611cd457600080fd5b50565b611ce0816119f3565b8114611ceb57600080fd5b50565b611cf7816119fd565b8114611d0257600080fd5b5056fea2646970667358221220b35b06921670dcb8137acaf8e6be3cda709c55eac64face191b19711886dbd3f64736f6c63430008040033",
  "linkReferences": {},
  "deployedLinkReferences": {}
}