{
  "_format": "hh-sol-artifact-1",
  "contractName": "UndasGeneralNFT",
  "sourceName": "contracts/UndasGeneralNFT.sol",
  "abi": [
    {
      "inputs": [],
      "stateMutability": "nonpayable",
      "type": "constructor"
    },
    {
      "anonymous": false,
      "inputs": [
        {
          "indexed": true,
          "internalType": "address",
          "name": "owner",
          "type": "address"
        },
        {
          "indexed": true,
          "internalType": "address",
          "name": "approved",
          "type": "address"
        },
        {
          "indexed": true,
          "internalType": "uint256",
          "name": "tokenId",
          "type": "uint256"
        }
      ],
      "name": "Approval",
      "type": "event"
    },
    {
      "anonymous": false,
      "inputs": [
        {
          "indexed": true,
          "internalType": "address",
          "name": "owner",
          "type": "address"
        },
        {
          "indexed": true,
          "internalType": "address",
          "name": "operator",
          "type": "address"
        },
        {
          "indexed": false,
          "internalType": "bool",
          "name": "approved",
          "type": "bool"
        }
      ],
      "name": "ApprovalForAll",
      "type": "event"
    },
    {
      "anonymous": false,
      "inputs": [
        {
          "indexed": true,
          "internalType": "address",
          "name": "previousOwner",
          "type": "address"
        },
        {
          "indexed": true,
          "internalType": "address",
          "name": "newOwner",
          "type": "address"
        }
      ],
      "name": "OwnershipTransferred",
      "type": "event"
    },
    {
      "anonymous": false,
      "inputs": [
        {
          "indexed": true,
          "internalType": "address",
          "name": "from",
          "type": "address"
        },
        {
          "indexed": true,
          "internalType": "address",
          "name": "to",
          "type": "address"
        },
        {
          "indexed": true,
          "internalType": "uint256",
          "name": "tokenId",
          "type": "uint256"
        }
      ],
      "name": "Transfer",
      "type": "event"
    },
    {
      "inputs": [
        {
          "internalType": "address",
          "name": "to",
          "type": "address"
        },
        {
          "internalType": "uint256",
          "name": "tokenId",
          "type": "uint256"
        }
      ],
      "name": "approve",
      "outputs": [],
      "stateMutability": "nonpayable",
      "type": "function"
    },
    {
      "inputs": [
        {
          "internalType": "address",
          "name": "owner",
          "type": "address"
        }
      ],
      "name": "balanceOf",
      "outputs": [
        {
          "internalType": "uint256",
          "name": "",
          "type": "uint256"
        }
      ],
      "stateMutability": "view",
      "type": "function"
    },
    {
      "inputs": [
        {
          "internalType": "uint256",
          "name": "tokenId",
          "type": "uint256"
        }
      ],
      "name": "getApproved",
      "outputs": [
        {
          "internalType": "address",
          "name": "",
          "type": "address"
        }
      ],
      "stateMutability": "view",
      "type": "function"
    },
    {
      "inputs": [
        {
          "internalType": "address",
          "name": "owner",
          "type": "address"
        },
        {
          "internalType": "address",
          "name": "operator",
          "type": "address"
        }
      ],
      "name": "isApprovedForAll",
      "outputs": [
        {
          "internalType": "bool",
          "name": "",
          "type": "bool"
        }
      ],
      "stateMutability": "view",
      "type": "function"
    },
    {
      "inputs": [],
      "name": "name",
      "outputs": [
        {
          "internalType": "string",
          "name": "",
          "type": "string"
        }
      ],
      "stateMutability": "view",
      "type": "function"
    },
    {
      "inputs": [],
      "name": "owner",
      "outputs": [
        {
          "internalType": "address",
          "name": "",
          "type": "address"
        }
      ],
      "stateMutability": "view",
      "type": "function"
    },
    {
      "inputs": [
        {
          "internalType": "uint256",
          "name": "tokenId",
          "type": "uint256"
        }
      ],
      "name": "ownerOf",
      "outputs": [
        {
          "internalType": "address",
          "name": "",
          "type": "address"
        }
      ],
      "stateMutability": "view",
      "type": "function"
    },
    {
      "inputs": [],
      "name": "renounceOwnership",
      "outputs": [],
      "stateMutability": "nonpayable",
      "type": "function"
    },
    {
      "inputs": [
        {
          "internalType": "address",
          "name": "to",
          "type": "address"
        },
        {
          "internalType": "string",
          "name": "description",
          "type": "string"
        },
        {
          "internalType": "string",
          "name": "name",
          "type": "string"
        },
        {
          "internalType": "string",
          "name": "url",
          "type": "string"
        }
      ],
      "name": "safeMintGeneral",
      "outputs": [],
      "stateMutability": "nonpayable",
      "type": "function"
    },
    {
      "inputs": [
        {
          "internalType": "address",
          "name": "from",
          "type": "address"
        },
        {
          "internalType": "address",
          "name": "to",
          "type": "address"
        },
        {
          "internalType": "uint256",
          "name": "tokenId",
          "type": "uint256"
        }
      ],
      "name": "safeTransferFrom",
      "outputs": [],
      "stateMutability": "nonpayable",
      "type": "function"
    },
    {
      "inputs": [
        {
          "internalType": "address",
          "name": "from",
          "type": "address"
        },
        {
          "internalType": "address",
          "name": "to",
          "type": "address"
        },
        {
          "internalType": "uint256",
          "name": "tokenId",
          "type": "uint256"
        },
        {
          "internalType": "bytes",
          "name": "_data",
          "type": "bytes"
        }
      ],
      "name": "safeTransferFrom",
      "outputs": [],
      "stateMutability": "nonpayable",
      "type": "function"
    },
    {
      "inputs": [
        {
          "internalType": "address",
          "name": "operator",
          "type": "address"
        },
        {
          "internalType": "bool",
          "name": "approved",
          "type": "bool"
        }
      ],
      "name": "setApprovalForAll",
      "outputs": [],
      "stateMutability": "nonpayable",
      "type": "function"
    },
    {
      "inputs": [
        {
          "internalType": "bytes4",
          "name": "interfaceId",
          "type": "bytes4"
        }
      ],
      "name": "supportsInterface",
      "outputs": [
        {
          "internalType": "bool",
          "name": "",
          "type": "bool"
        }
      ],
      "stateMutability": "view",
      "type": "function"
    },
    {
      "inputs": [],
      "name": "symbol",
      "outputs": [
        {
          "internalType": "string",
          "name": "",
          "type": "string"
        }
      ],
      "stateMutability": "view",
      "type": "function"
    },
    {
      "inputs": [
        {
          "internalType": "uint256",
          "name": "index",
          "type": "uint256"
        }
      ],
      "name": "tokenByIndex",
      "outputs": [
        {
          "internalType": "uint256",
          "name": "",
          "type": "uint256"
        }
      ],
      "stateMutability": "view",
      "type": "function"
    },
    {
      "inputs": [
        {
          "internalType": "uint256",
          "name": "",
          "type": "uint256"
        }
      ],
      "name": "tokenMetadata",
      "outputs": [
        {
          "internalType": "string",
          "name": "description",
          "type": "string"
        },
        {
          "internalType": "string",
          "name": "name",
          "type": "string"
        },
        {
          "internalType": "string",
          "name": "url",
          "type": "string"
        }
      ],
      "stateMutability": "view",
      "type": "function"
    },
    {
      "inputs": [
        {
          "internalType": "address",
          "name": "owner",
          "type": "address"
        },
        {
          "internalType": "uint256",
          "name": "index",
          "type": "uint256"
        }
      ],
      "name": "tokenOfOwnerByIndex",
      "outputs": [
        {
          "internalType": "uint256",
          "name": "",
          "type": "uint256"
        }
      ],
      "stateMutability": "view",
      "type": "function"
    },
    {
      "inputs": [
        {
          "internalType": "uint256",
          "name": "tokenId",
          "type": "uint256"
        }
      ],
      "name": "tokenURI",
      "outputs": [
        {
          "internalType": "string",
          "name": "",
          "type": "string"
        }
      ],
      "stateMutability": "view",
      "type": "function"
    },
    {
      "inputs": [],
      "name": "totalSupply",
      "outputs": [
        {
          "internalType": "uint256",
          "name": "",
          "type": "uint256"
        }
      ],
      "stateMutability": "view",
      "type": "function"
    },
    {
      "inputs": [
        {
          "internalType": "address",
          "name": "from",
          "type": "address"
        },
        {
          "internalType": "address",
          "name": "to",
          "type": "address"
        },
        {
          "internalType": "uint256",
          "name": "tokenId",
          "type": "uint256"
        }
      ],
      "name": "transferFrom",
      "outputs": [],
      "stateMutability": "nonpayable",
      "type": "function"
    },
    {
      "inputs": [
        {
          "internalType": "address",
          "name": "newOwner",
          "type": "address"
        }
      ],
      "name": "transferOwnership",
      "outputs": [],
      "stateMutability": "nonpayable",
      "type": "function"
    }
  ],
  "bytecode": "0x60806040523480156200001157600080fd5b506040518060400160405280600c81526020017f556e64617347656e6572616c00000000000000000000000000000000000000008152506040518060400160405280600c81526020017f556e64617347656e6572616c0000000000000000000000000000000000000000815250816000908051906020019062000096929190620001a6565b508060019080519060200190620000af929190620001a6565b505050620000d2620000c6620000d860201b60201c565b620000e060201b60201c565b620002bb565b600033905090565b6000600a60009054906101000a900473ffffffffffffffffffffffffffffffffffffffff16905081600a60006101000a81548173ffffffffffffffffffffffffffffffffffffffff021916908373ffffffffffffffffffffffffffffffffffffffff1602179055508173ffffffffffffffffffffffffffffffffffffffff168173ffffffffffffffffffffffffffffffffffffffff167f8be0079c531659141344cd1fd0a4f28419497f9722a3daafe3b4186f6b6457e060405160405180910390a35050565b828054620001b49062000256565b90600052602060002090601f016020900481019282620001d8576000855562000224565b82601f10620001f357805160ff191683800117855562000224565b8280016001018555821562000224579182015b828111156200022357825182559160200191906001019062000206565b5b50905062000233919062000237565b5090565b5b808211156200025257600081600090555060010162000238565b5090565b600060028204905060018216806200026f57607f821691505b602082108114156200028657620002856200028c565b5b50919050565b7f4e487b7100000000000000000000000000000000000000000000000000000000600052602260045260246000fd5b61395b80620002cb6000396000f3fe608060405234801561001057600080fd5b50600436106101375760003560e01c80636352211e116100b857806395d89b411161007c57806395d89b4114610362578063a22cb46514610380578063b88d4fde1461039c578063c87b56dd146103b8578063e985e9c5146103e8578063f2fde38b1461041857610137565b80636352211e146102a85780636914db60146102d857806370a082311461030a578063715018a61461033a5780638da5cb5b1461034457610137565b806323b872dd116100ff57806323b872dd146101f45780632f745c591461021057806342842e0e146102405780634f6ccce71461025c5780635dd19c971461028c57610137565b806301ffc9a71461013c57806306fdde031461016c578063081812fc1461018a578063095ea7b3146101ba57806318160ddd146101d6575b600080fd5b610156600480360381019061015191906128ef565b610434565b6040516101639190612d3b565b60405180910390f35b610174610446565b6040516101819190612d56565b60405180910390f35b6101a4600480360381019061019f9190612941565b6104d8565b6040516101b19190612cd4565b60405180910390f35b6101d460048036038101906101cf91906128b3565b61055d565b005b6101de610675565b6040516101eb9190613004565b60405180910390f35b61020e600480360381019061020991906126f4565b610682565b005b61022a600480360381019061022591906128b3565b6106e2565b6040516102379190613004565b60405180910390f35b61025a600480360381019061025591906126f4565b610787565b005b61027660048036038101906102719190612941565b6107a7565b6040516102839190613004565b60405180910390f35b6102a660048036038101906102a191906127fa565b61083e565b005b6102c260048036038101906102bd9190612941565b610870565b6040516102cf9190612cd4565b60405180910390f35b6102f260048036038101906102ed9190612941565b610922565b60405161030193929190612d78565b60405180910390f35b610324600480360381019061031f919061268f565b610ae4565b6040516103319190613004565b60405180910390f35b610342610b9c565b005b61034c610c24565b6040516103599190612cd4565b60405180910390f35b61036a610c4e565b6040516103779190612d56565b60405180910390f35b61039a600480360381019061039591906127be565b610ce0565b005b6103b660048036038101906103b19190612743565b610cf6565b005b6103d260048036038101906103cd9190612941565b610d58565b6040516103df9190612d56565b60405180910390f35b61040260048036038101906103fd91906126b8565b610dff565b60405161040f9190612d3b565b60405180910390f35b610432600480360381019061042d919061268f565b610e93565b005b600061043f82610f8b565b9050919050565b60606000805461045590613229565b80601f016020809104026020016040519081016040528092919081815260200182805461048190613229565b80156104ce5780601f106104a3576101008083540402835291602001916104ce565b820191906000526020600020905b8154815290600101906020018083116104b157829003601f168201915b5050505050905090565b60006104e382611005565b610522576040517f08c379a000000000000000000000000000000000000000000000000000000000815260040161051990612f24565b60405180910390fd5b6004600083815260200190815260200160002060009054906101000a900473ffffffffffffffffffffffffffffffffffffffff169050919050565b600061056882610870565b90508073ffffffffffffffffffffffffffffffffffffffff168373ffffffffffffffffffffffffffffffffffffffff1614156105d9576040517f08c379a00000000000000000000000000000000000000000000000000000000081526004016105d090612fa4565b60405180910390fd5b8073ffffffffffffffffffffffffffffffffffffffff166105f8611071565b73ffffffffffffffffffffffffffffffffffffffff161480610627575061062681610621611071565b610dff565b5b610666576040517f08c379a000000000000000000000000000000000000000000000000000000000815260040161065d90612ea4565b60405180910390fd5b6106708383611079565b505050565b6000600880549050905090565b61069361068d611071565b82611132565b6106d2576040517f08c379a00000000000000000000000000000000000000000000000000000000081526004016106c990612fc4565b60405180910390fd5b6106dd838383611210565b505050565b60006106ed83610ae4565b821061072e576040517f08c379a000000000000000000000000000000000000000000000000000000000815260040161072590612dc4565b60405180910390fd5b600660008473ffffffffffffffffffffffffffffffffffffffff1673ffffffffffffffffffffffffffffffffffffffff168152602001908152602001600020600083815260200190815260200160002054905092915050565b6107a283838360405180602001604052806000815250610cf6565b505050565b60006107b1610675565b82106107f2576040517f08c379a00000000000000000000000000000000000000000000000000000000081526004016107e990612fe4565b60405180910390fd5b6008828154811061082c577f4e487b7100000000000000000000000000000000000000000000000000000000600052603260045260246000fd5b90600052602060002001549050919050565b600061084a600b61146c565b9050610856600b61147a565b6108668882898989898989611490565b5050505050505050565b6000806002600084815260200190815260200160002060009054906101000a900473ffffffffffffffffffffffffffffffffffffffff169050600073ffffffffffffffffffffffffffffffffffffffff168173ffffffffffffffffffffffffffffffffffffffff161415610919576040517f08c379a000000000000000000000000000000000000000000000000000000000815260040161091090612ee4565b60405180910390fd5b80915050919050565b600c60205280600052604060002060009150905080600001805461094590613229565b80601f016020809104026020016040519081016040528092919081815260200182805461097190613229565b80156109be5780601f10610993576101008083540402835291602001916109be565b820191906000526020600020905b8154815290600101906020018083116109a157829003601f168201915b5050505050908060010180546109d390613229565b80601f01602080910402602001604051908101604052809291908181526020018280546109ff90613229565b8015610a4c5780601f10610a2157610100808354040283529160200191610a4c565b820191906000526020600020905b815481529060010190602001808311610a2f57829003601f168201915b505050505090806002018054610a6190613229565b80601f0160208091040260200160405190810160405280929190818152602001828054610a8d90613229565b8015610ada5780601f10610aaf57610100808354040283529160200191610ada565b820191906000526020600020905b815481529060010190602001808311610abd57829003601f168201915b5050505050905083565b60008073ffffffffffffffffffffffffffffffffffffffff168273ffffffffffffffffffffffffffffffffffffffff161415610b55576040517f08c379a0000000000000000000000000000000000000000000000000000000008152600401610b4c90612ec4565b60405180910390fd5b600360008373ffffffffffffffffffffffffffffffffffffffff1673ffffffffffffffffffffffffffffffffffffffff168152602001908152602001600020549050919050565b610ba4611071565b73ffffffffffffffffffffffffffffffffffffffff16610bc2610c24565b73ffffffffffffffffffffffffffffffffffffffff1614610c18576040517f08c379a0000000000000000000000000000000000000000000000000000000008152600401610c0f90612f44565b60405180910390fd5b610c226000611719565b565b6000600a60009054906101000a900473ffffffffffffffffffffffffffffffffffffffff16905090565b606060018054610c5d90613229565b80601f0160208091040260200160405190810160405280929190818152602001828054610c8990613229565b8015610cd65780601f10610cab57610100808354040283529160200191610cd6565b820191906000526020600020905b815481529060010190602001808311610cb957829003601f168201915b5050505050905090565b610cf2610ceb611071565b83836117df565b5050565b610d07610d01611071565b83611132565b610d46576040517f08c379a0000000000000000000000000000000000000000000000000000000008152600401610d3d90612fc4565b60405180910390fd5b610d528484848461194c565b50505050565b6060610d6382611005565b610da2576040517f08c379a0000000000000000000000000000000000000000000000000000000008152600401610d9990612f84565b60405180910390fd5b6000610dac6119a8565b90506000815111610dcc5760405180602001604052806000815250610df7565b80610dd6846119bf565b604051602001610de7929190612cb0565b6040516020818303038152906040525b915050919050565b6000600560008473ffffffffffffffffffffffffffffffffffffffff1673ffffffffffffffffffffffffffffffffffffffff16815260200190815260200160002060008373ffffffffffffffffffffffffffffffffffffffff1673ffffffffffffffffffffffffffffffffffffffff16815260200190815260200160002060009054906101000a900460ff16905092915050565b610e9b611071565b73ffffffffffffffffffffffffffffffffffffffff16610eb9610c24565b73ffffffffffffffffffffffffffffffffffffffff1614610f0f576040517f08c379a0000000000000000000000000000000000000000000000000000000008152600401610f0690612f44565b60405180910390fd5b600073ffffffffffffffffffffffffffffffffffffffff168173ffffffffffffffffffffffffffffffffffffffff161415610f7f576040517f08c379a0000000000000000000000000000000000000000000000000000000008152600401610f7690612e04565b60405180910390fd5b610f8881611719565b50565b60007f780e9d63000000000000000000000000000000000000000000000000000000007bffffffffffffffffffffffffffffffffffffffffffffffffffffffff1916827bffffffffffffffffffffffffffffffffffffffffffffffffffffffff19161480610ffe5750610ffd82611b6c565b5b9050919050565b60008073ffffffffffffffffffffffffffffffffffffffff166002600084815260200190815260200160002060009054906101000a900473ffffffffffffffffffffffffffffffffffffffff1673ffffffffffffffffffffffffffffffffffffffff1614159050919050565b600033905090565b816004600083815260200190815260200160002060006101000a81548173ffffffffffffffffffffffffffffffffffffffff021916908373ffffffffffffffffffffffffffffffffffffffff160217905550808273ffffffffffffffffffffffffffffffffffffffff166110ec83610870565b73ffffffffffffffffffffffffffffffffffffffff167f8c5be1e5ebec7d5bd14f71427d1e84f3dd0314c0f7b2291e5b200ac8c7c3b92560405160405180910390a45050565b600061113d82611005565b61117c576040517f08c379a000000000000000000000000000000000000000000000000000000000815260040161117390612e84565b60405180910390fd5b600061118783610870565b90508073ffffffffffffffffffffffffffffffffffffffff168473ffffffffffffffffffffffffffffffffffffffff1614806111f657508373ffffffffffffffffffffffffffffffffffffffff166111de846104d8565b73ffffffffffffffffffffffffffffffffffffffff16145b8061120757506112068185610dff565b5b91505092915050565b8273ffffffffffffffffffffffffffffffffffffffff1661123082610870565b73ffffffffffffffffffffffffffffffffffffffff1614611286576040517f08c379a000000000000000000000000000000000000000000000000000000000815260040161127d90612f64565b60405180910390fd5b600073ffffffffffffffffffffffffffffffffffffffff168273ffffffffffffffffffffffffffffffffffffffff1614156112f6576040517f08c379a00000000000000000000000000000000000000000000000000000000081526004016112ed90612e44565b60405180910390fd5b611301838383611c4e565b61130c600082611079565b6001600360008573ffffffffffffffffffffffffffffffffffffffff1673ffffffffffffffffffffffffffffffffffffffff168152602001908152602001600020600082825461135c919061313f565b925050819055506001600360008473ffffffffffffffffffffffffffffffffffffffff1673ffffffffffffffffffffffffffffffffffffffff16815260200190815260200160002060008282546113b391906130b8565b92505081905550816002600083815260200190815260200160002060006101000a81548173ffffffffffffffffffffffffffffffffffffffff021916908373ffffffffffffffffffffffffffffffffffffffff160217905550808273ffffffffffffffffffffffffffffffffffffffff168473ffffffffffffffffffffffffffffffffffffffff167fddf252ad1be2c89b69c2b068fc378daa952ba7f163c4a11628f55a4df523b3ef60405160405180910390a4505050565b600081600001549050919050565b6001816000016000828254019250508190555050565b600073ffffffffffffffffffffffffffffffffffffffff168873ffffffffffffffffffffffffffffffffffffffff161415611500576040517f08c379a00000000000000000000000000000000000000000000000000000000081526004016114f790612f04565b60405180910390fd5b61150987611005565b15611549576040517f08c379a000000000000000000000000000000000000000000000000000000000815260040161154090612e24565b60405180910390fd5b61155560008989611c4e565b61155f8888611c5e565b604051806060016040528087878080601f016020809104026020016040519081016040528093929190818152602001838380828437600081840152601f19601f82011690508083019250505050505050815260200185858080601f016020809104026020016040519081016040528093929190818152602001838380828437600081840152601f19601f82011690508083019250505050505050815260200183838080601f016020809104026020016040519081016040528093929190818152602001838380828437600081840152601f19601f82011690508083019250505050505050815250600c600089815260200190815260200160002060008201518160000190805190602001906116759291906124d1565b5060208201518160010190805190602001906116929291906124d1565b5060408201518160020190805190602001906116af9291906124d1565b50905050868873ffffffffffffffffffffffffffffffffffffffff16600073ffffffffffffffffffffffffffffffffffffffff167fddf252ad1be2c89b69c2b068fc378daa952ba7f163c4a11628f55a4df523b3ef60405160405180910390a45050505050505050565b6000600a60009054906101000a900473ffffffffffffffffffffffffffffffffffffffff16905081600a60006101000a81548173ffffffffffffffffffffffffffffffffffffffff021916908373ffffffffffffffffffffffffffffffffffffffff1602179055508173ffffffffffffffffffffffffffffffffffffffff168173ffffffffffffffffffffffffffffffffffffffff167f8be0079c531659141344cd1fd0a4f28419497f9722a3daafe3b4186f6b6457e060405160405180910390a35050565b8173ffffffffffffffffffffffffffffffffffffffff168373ffffffffffffffffffffffffffffffffffffffff16141561184e576040517f08c379a000000000000000000000000000000000000000000000000000000000815260040161184590612e64565b60405180910390fd5b80600560008573ffffffffffffffffffffffffffffffffffffffff1673ffffffffffffffffffffffffffffffffffffffff16815260200190815260200160002060008473ffffffffffffffffffffffffffffffffffffffff1673ffffffffffffffffffffffffffffffffffffffff16815260200190815260200160002060006101000a81548160ff0219169083151502179055508173ffffffffffffffffffffffffffffffffffffffff168373ffffffffffffffffffffffffffffffffffffffff167f17307eab39ab6107e8899845ad3d59bd9653f200f220920489ca2b5937696c318360405161193f9190612d3b565b60405180910390a3505050565b611957848484611210565b61196384848484611e2c565b6119a2576040517f08c379a000000000000000000000000000000000000000000000000000000000815260040161199990612de4565b60405180910390fd5b50505050565b606060405180602001604052806000815250905090565b60606000821415611a07576040518060400160405280600181526020017f30000000000000000000000000000000000000000000000000000000000000008152509050611b67565b600082905060005b60008214611a39578080611a229061328c565b915050600a82611a32919061310e565b9150611a0f565b60008167ffffffffffffffff811115611a7b577f4e487b7100000000000000000000000000000000000000000000000000000000600052604160045260246000fd5b6040519080825280601f01601f191660200182016040528015611aad5781602001600182028036833780820191505090505b5090505b60008514611b6057600182611ac6919061313f565b9150600a85611ad591906132d5565b6030611ae191906130b8565b60f81b818381518110611b1d577f4e487b7100000000000000000000000000000000000000000000000000000000600052603260045260246000fd5b60200101907effffffffffffffffffffffffffffffffffffffffffffffffffffffffffffff1916908160001a905350600a85611b59919061310e565b9450611ab1565b8093505050505b919050565b60007f80ac58cd000000000000000000000000000000000000000000000000000000007bffffffffffffffffffffffffffffffffffffffffffffffffffffffff1916827bffffffffffffffffffffffffffffffffffffffffffffffffffffffff19161480611c3757507f5b5e139f000000000000000000000000000000000000000000000000000000007bffffffffffffffffffffffffffffffffffffffffffffffffffffffff1916827bffffffffffffffffffffffffffffffffffffffffffffffffffffffff1916145b80611c475750611c4682611fc3565b5b9050919050565b611c5983838361202d565b505050565b600073ffffffffffffffffffffffffffffffffffffffff168273ffffffffffffffffffffffffffffffffffffffff161415611cce576040517f08c379a0000000000000000000000000000000000000000000000000000000008152600401611cc590612f04565b60405180910390fd5b611cd781611005565b15611d17576040517f08c379a0000000000000000000000000000000000000000000000000000000008152600401611d0e90612e24565b60405180910390fd5b611d2360008383611c4e565b6001600360008473ffffffffffffffffffffffffffffffffffffffff1673ffffffffffffffffffffffffffffffffffffffff1681526020019081526020016000206000828254611d7391906130b8565b92505081905550816002600083815260200190815260200160002060006101000a81548173ffffffffffffffffffffffffffffffffffffffff021916908373ffffffffffffffffffffffffffffffffffffffff160217905550808273ffffffffffffffffffffffffffffffffffffffff16600073ffffffffffffffffffffffffffffffffffffffff167fddf252ad1be2c89b69c2b068fc378daa952ba7f163c4a11628f55a4df523b3ef60405160405180910390a45050565b6000611e4d8473ffffffffffffffffffffffffffffffffffffffff16612141565b15611fb6578373ffffffffffffffffffffffffffffffffffffffff1663150b7a02611e76611071565b8786866040518563ffffffff1660e01b8152600401611e989493929190612cef565b602060405180830381600087803b158015611eb257600080fd5b505af1925050508015611ee357506040513d601f19601f82011682018060405250810190611ee09190612918565b60015b611f66573d8060008114611f13576040519150601f19603f3d011682016040523d82523d6000602084013e611f18565b606091505b50600081511415611f5e576040517f08c379a0000000000000000000000000000000000000000000000000000000008152600401611f5590612de4565b60405180910390fd5b805181602001fd5b63150b7a0260e01b7bffffffffffffffffffffffffffffffffffffffffffffffffffffffff1916817bffffffffffffffffffffffffffffffffffffffffffffffffffffffff191614915050611fbb565b600190505b949350505050565b60007f01ffc9a7000000000000000000000000000000000000000000000000000000007bffffffffffffffffffffffffffffffffffffffffffffffffffffffff1916827bffffffffffffffffffffffffffffffffffffffffffffffffffffffff1916149050919050565b612038838383612154565b600073ffffffffffffffffffffffffffffffffffffffff168373ffffffffffffffffffffffffffffffffffffffff16141561207b5761207681612159565b6120ba565b8173ffffffffffffffffffffffffffffffffffffffff168373ffffffffffffffffffffffffffffffffffffffff16146120b9576120b883826121a2565b5b5b600073ffffffffffffffffffffffffffffffffffffffff168273ffffffffffffffffffffffffffffffffffffffff1614156120fd576120f88161230f565b61213c565b8273ffffffffffffffffffffffffffffffffffffffff168273ffffffffffffffffffffffffffffffffffffffff161461213b5761213a8282612452565b5b5b505050565b600080823b905060008111915050919050565b505050565b6008805490506009600083815260200190815260200160002081905550600881908060018154018082558091505060019003906000526020600020016000909190919091505550565b600060016121af84610ae4565b6121b9919061313f565b905060006007600084815260200190815260200160002054905081811461229e576000600660008673ffffffffffffffffffffffffffffffffffffffff1673ffffffffffffffffffffffffffffffffffffffff168152602001908152602001600020600084815260200190815260200160002054905080600660008773ffffffffffffffffffffffffffffffffffffffff1673ffffffffffffffffffffffffffffffffffffffff168152602001908152602001600020600084815260200190815260200160002081905550816007600083815260200190815260200160002081905550505b6007600084815260200190815260200160002060009055600660008573ffffffffffffffffffffffffffffffffffffffff1673ffffffffffffffffffffffffffffffffffffffff16815260200190815260200160002060008381526020019081526020016000206000905550505050565b60006001600880549050612323919061313f565b9050600060096000848152602001908152602001600020549050600060088381548110612379577f4e487b7100000000000000000000000000000000000000000000000000000000600052603260045260246000fd5b9060005260206000200154905080600883815481106123c1577f4e487b7100000000000000000000000000000000000000000000000000000000600052603260045260246000fd5b906000526020600020018190555081600960008381526020019081526020016000208190555060096000858152602001908152602001600020600090556008805480612436577f4e487b7100000000000000000000000000000000000000000000000000000000600052603160045260246000fd5b6001900381819060005260206000200160009055905550505050565b600061245d83610ae4565b905081600660008573ffffffffffffffffffffffffffffffffffffffff1673ffffffffffffffffffffffffffffffffffffffff168152602001908152602001600020600083815260200190815260200160002081905550806007600084815260200190815260200160002081905550505050565b8280546124dd90613229565b90600052602060002090601f0160209004810192826124ff5760008555612546565b82601f1061251857805160ff1916838001178555612546565b82800160010185558215612546579182015b8281111561254557825182559160200191906001019061252a565b5b5090506125539190612557565b5090565b5b80821115612570576000816000905550600101612558565b5090565b600061258761258284613044565b61301f565b90508281526020810184848401111561259f57600080fd5b6125aa8482856131e7565b509392505050565b6000813590506125c1816138c9565b92915050565b6000813590506125d6816138e0565b92915050565b6000813590506125eb816138f7565b92915050565b600081519050612600816138f7565b92915050565b600082601f83011261261757600080fd5b8135612627848260208601612574565b91505092915050565b60008083601f84011261264257600080fd5b8235905067ffffffffffffffff81111561265b57600080fd5b60208301915083600182028301111561267357600080fd5b9250929050565b6000813590506126898161390e565b92915050565b6000602082840312156126a157600080fd5b60006126af848285016125b2565b91505092915050565b600080604083850312156126cb57600080fd5b60006126d9858286016125b2565b92505060206126ea858286016125b2565b9150509250929050565b60008060006060848603121561270957600080fd5b6000612717868287016125b2565b9350506020612728868287016125b2565b92505060406127398682870161267a565b9150509250925092565b6000806000806080858703121561275957600080fd5b6000612767878288016125b2565b9450506020612778878288016125b2565b93505060406127898782880161267a565b925050606085013567ffffffffffffffff8111156127a657600080fd5b6127b287828801612606565b91505092959194509250565b600080604083850312156127d157600080fd5b60006127df858286016125b2565b92505060206127f0858286016125c7565b9150509250929050565b60008060008060008060006080888a03121561281557600080fd5b60006128238a828b016125b2565b975050602088013567ffffffffffffffff81111561284057600080fd5b61284c8a828b01612630565b9650965050604088013567ffffffffffffffff81111561286b57600080fd5b6128778a828b01612630565b9450945050606088013567ffffffffffffffff81111561289657600080fd5b6128a28a828b01612630565b925092505092959891949750929550565b600080604083850312156128c657600080fd5b60006128d4858286016125b2565b92505060206128e58582860161267a565b9150509250929050565b60006020828403121561290157600080fd5b600061290f848285016125dc565b91505092915050565b60006020828403121561292a57600080fd5b6000612938848285016125f1565b91505092915050565b60006020828403121561295357600080fd5b60006129618482850161267a565b91505092915050565b61297381613173565b82525050565b61298281613185565b82525050565b600061299382613075565b61299d818561308b565b93506129ad8185602086016131f6565b6129b6816133c2565b840191505092915050565b60006129cc82613080565b6129d6818561309c565b93506129e68185602086016131f6565b6129ef816133c2565b840191505092915050565b6000612a0582613080565b612a0f81856130ad565b9350612a1f8185602086016131f6565b80840191505092915050565b6000612a38602b8361309c565b9150612a43826133d3565b604082019050919050565b6000612a5b60328361309c565b9150612a6682613422565b604082019050919050565b6000612a7e60268361309c565b9150612a8982613471565b604082019050919050565b6000612aa1601c8361309c565b9150612aac826134c0565b602082019050919050565b6000612ac460248361309c565b9150612acf826134e9565b604082019050919050565b6000612ae760198361309c565b9150612af282613538565b602082019050919050565b6000612b0a602c8361309c565b9150612b1582613561565b604082019050919050565b6000612b2d60388361309c565b9150612b38826135b0565b604082019050919050565b6000612b50602a8361309c565b9150612b5b826135ff565b604082019050919050565b6000612b7360298361309c565b9150612b7e8261364e565b604082019050919050565b6000612b9660208361309c565b9150612ba18261369d565b602082019050919050565b6000612bb9602c8361309c565b9150612bc4826136c6565b604082019050919050565b6000612bdc60208361309c565b9150612be782613715565b602082019050919050565b6000612bff60298361309c565b9150612c0a8261373e565b604082019050919050565b6000612c22602f8361309c565b9150612c2d8261378d565b604082019050919050565b6000612c4560218361309c565b9150612c50826137dc565b604082019050919050565b6000612c6860318361309c565b9150612c738261382b565b604082019050919050565b6000612c8b602c8361309c565b9150612c968261387a565b604082019050919050565b612caa816131dd565b82525050565b6000612cbc82856129fa565b9150612cc882846129fa565b91508190509392505050565b6000602082019050612ce9600083018461296a565b92915050565b6000608082019050612d04600083018761296a565b612d11602083018661296a565b612d1e6040830185612ca1565b8181036060830152612d308184612988565b905095945050505050565b6000602082019050612d506000830184612979565b92915050565b60006020820190508181036000830152612d7081846129c1565b905092915050565b60006060820190508181036000830152612d9281866129c1565b90508181036020830152612da681856129c1565b90508181036040830152612dba81846129c1565b9050949350505050565b60006020820190508181036000830152612ddd81612a2b565b9050919050565b60006020820190508181036000830152612dfd81612a4e565b9050919050565b60006020820190508181036000830152612e1d81612a71565b9050919050565b60006020820190508181036000830152612e3d81612a94565b9050919050565b60006020820190508181036000830152612e5d81612ab7565b9050919050565b60006020820190508181036000830152612e7d81612ada565b9050919050565b60006020820190508181036000830152612e9d81612afd565b9050919050565b60006020820190508181036000830152612ebd81612b20565b9050919050565b60006020820190508181036000830152612edd81612b43565b9050919050565b60006020820190508181036000830152612efd81612b66565b9050919050565b60006020820190508181036000830152612f1d81612b89565b9050919050565b60006020820190508181036000830152612f3d81612bac565b9050919050565b60006020820190508181036000830152612f5d81612bcf565b9050919050565b60006020820190508181036000830152612f7d81612bf2565b9050919050565b60006020820190508181036000830152612f9d81612c15565b9050919050565b60006020820190508181036000830152612fbd81612c38565b9050919050565b60006020820190508181036000830152612fdd81612c5b565b9050919050565b60006020820190508181036000830152612ffd81612c7e565b9050919050565b60006020820190506130196000830184612ca1565b92915050565b600061302961303a565b9050613035828261325b565b919050565b6000604051905090565b600067ffffffffffffffff82111561305f5761305e613393565b5b613068826133c2565b9050602081019050919050565b600081519050919050565b600081519050919050565b600082825260208201905092915050565b600082825260208201905092915050565b600081905092915050565b60006130c3826131dd565b91506130ce836131dd565b9250827fffffffffffffffffffffffffffffffffffffffffffffffffffffffffffffffff0382111561310357613102613306565b5b828201905092915050565b6000613119826131dd565b9150613124836131dd565b92508261313457613133613335565b5b828204905092915050565b600061314a826131dd565b9150613155836131dd565b92508282101561316857613167613306565b5b828203905092915050565b600061317e826131bd565b9050919050565b60008115159050919050565b60007fffffffff0000000000000000000000000000000000000000000000000000000082169050919050565b600073ffffffffffffffffffffffffffffffffffffffff82169050919050565b6000819050919050565b82818337600083830152505050565b60005b838110156132145780820151818401526020810190506131f9565b83811115613223576000848401525b50505050565b6000600282049050600182168061324157607f821691505b6020821081141561325557613254613364565b5b50919050565b613264826133c2565b810181811067ffffffffffffffff8211171561328357613282613393565b5b80604052505050565b6000613297826131dd565b91507fffffffffffffffffffffffffffffffffffffffffffffffffffffffffffffffff8214156132ca576132c9613306565b5b600182019050919050565b60006132e0826131dd565b91506132eb836131dd565b9250826132fb576132fa613335565b5b828206905092915050565b7f4e487b7100000000000000000000000000000000000000000000000000000000600052601160045260246000fd5b7f4e487b7100000000000000000000000000000000000000000000000000000000600052601260045260246000fd5b7f4e487b7100000000000000000000000000000000000000000000000000000000600052602260045260246000fd5b7f4e487b7100000000000000000000000000000000000000000000000000000000600052604160045260246000fd5b6000601f19601f8301169050919050565b7f455243373231456e756d657261626c653a206f776e657220696e646578206f7560008201527f74206f6620626f756e6473000000000000000000000000000000000000000000602082015250565b7f4552433732313a207472616e7366657220746f206e6f6e20455243373231526560008201527f63656976657220696d706c656d656e7465720000000000000000000000000000602082015250565b7f4f776e61626c653a206e6577206f776e657220697320746865207a65726f206160008201527f6464726573730000000000000000000000000000000000000000000000000000602082015250565b7f4552433732313a20746f6b656e20616c7265616479206d696e74656400000000600082015250565b7f4552433732313a207472616e7366657220746f20746865207a65726f2061646460008201527f7265737300000000000000000000000000000000000000000000000000000000602082015250565b7f4552433732313a20617070726f766520746f2063616c6c657200000000000000600082015250565b7f4552433732313a206f70657261746f7220717565727920666f72206e6f6e657860008201527f697374656e7420746f6b656e0000000000000000000000000000000000000000602082015250565b7f4552433732313a20617070726f76652063616c6c6572206973206e6f74206f7760008201527f6e6572206e6f7220617070726f76656420666f7220616c6c0000000000000000602082015250565b7f4552433732313a2062616c616e636520717565727920666f7220746865207a6560008201527f726f206164647265737300000000000000000000000000000000000000000000602082015250565b7f4552433732313a206f776e657220717565727920666f72206e6f6e657869737460008201527f656e7420746f6b656e0000000000000000000000000000000000000000000000602082015250565b7f4552433732313a206d696e7420746f20746865207a65726f2061646472657373600082015250565b7f4552433732313a20617070726f76656420717565727920666f72206e6f6e657860008201527f697374656e7420746f6b656e0000000000000000000000000000000000000000602082015250565b7f4f776e61626c653a2063616c6c6572206973206e6f7420746865206f776e6572600082015250565b7f4552433732313a207472616e73666572206f6620746f6b656e2074686174206960008201527f73206e6f74206f776e0000000000000000000000000000000000000000000000602082015250565b7f4552433732314d657461646174613a2055524920717565727920666f72206e6f60008201527f6e6578697374656e7420746f6b656e0000000000000000000000000000000000602082015250565b7f4552433732313a20617070726f76616c20746f2063757272656e74206f776e6560008201527f7200000000000000000000000000000000000000000000000000000000000000602082015250565b7f4552433732313a207472616e736665722063616c6c6572206973206e6f74206f60008201527f776e6572206e6f7220617070726f766564000000000000000000000000000000602082015250565b7f455243373231456e756d657261626c653a20676c6f62616c20696e646578206f60008201527f7574206f6620626f756e64730000000000000000000000000000000000000000602082015250565b6138d281613173565b81146138dd57600080fd5b50565b6138e981613185565b81146138f457600080fd5b50565b61390081613191565b811461390b57600080fd5b50565b613917816131dd565b811461392257600080fd5b5056fea2646970667358221220245a7bba6d3c2403ffbd4aa70bffe0a8bbabe9031ace3f35890a55ed1eada07a64736f6c63430008040033",
  "linkReferences": {},
  "deployedLinkReferences": {}
}